:020000040800F2
:10000000580E00209D0100083723000875200008C5
:100010003523000845080008E73B00080000000001
:100020000000000000000000000000004729000858
:1000300053080008000000004F270008BD350008E5
:10004000B7010008B7010008B7010008B7010008B0
:10005000B7010008B7010008550800086308000848
:10006000B70100087B0800087D080008B7010008F8
:10007000B7010008B7010008B7010008B701000880
:10008000B7010008B7010008B7010008B701000870
:10009000B7010008B7010008B7010008950800087B
:1000A000B7010008B7010008B7010008B701000850
:1000B000B7010008913600089D360008B701000816
:1000C000B7010008B7010008B7010008B701000830
:1000D000B7010008B7010008B7010008B701000820
:1000E0005B080008B7010008B7010008B701000865
:1000F000B7010008B7010008B7010008B701000800
:10010000B7010008B7010008B7010008B7010008EF
:10011000B7010008B7010008B7010008B7010008DF
:10012000B7010008B7010008B7010008B7010008CF
:10013000B7010008B7010008B7010008B7010008BF
:10014000B7010008B7010008B7010008B7010008AF
:10015000B7010008B7010008B7010008B70100089F
:10016000B7010008B7010008B7010008B70100088F
:10017000B7010008B7010008B7010008000000003F
:10018000B7010008B7010008DFF80CD000F0C0FA92
:1001900000480047354A0008580E002006488047AE
:1001A00006480047FEE7FEE7FEE7FEE7FEE7FEE75C
:1001B000FEE7FEE7FEE7FEE74D360008890100088E
:1001C0002DE9F05F0546002092469B46884606468C
:1001D000814640241BE0284641464746224600F01F
:1001E000D1F853465A46C01A914110D311461846C9
:1001F000224600F0B8F82D1A67EB01084F46224658
:100200000120002100F0AFF817EB00094E41201E3D
:10021000A4F10104DFDC484631462A464346BDE8E6
:10022000F09F30B504460020034600E05B1C93427B
:1002300003D2E05CCD5C401BF8D030BD2DE9F04D21
:1002400081EA030404F0004B21F0004514464FF00E
:10025000000A23F0004150EA050220D054EA0102CE
:100260001DD0C5F30A570246C5F31303C1F31300AB
:10027000C1F30A5640F4801543F48013A7EB060837
:10028000101BD64608F2FD3873EB050002D308F1C7
:10029000010801E092185B41B8F1000F03DA002079
:1002A0000146BDE8F08D00204FF4801106468446DB
:1002B0000EE0171B73EB050705D3121B63EB050359
:1002C00006434CEA010C49084FEA300092185B41A2
:1002D00050EA0107EDD152EA030012D082EA04008D
:1002E00083EA0501084305D0101BAB4106D2012269
:1002F000002306E000224FF0004302E06FF001020D
:1003000053101AEB06004CEB085110EB0A0041EBBE
:100310000B01BDE8F04D00F045B80EB540F2334199
:1003200002910021CDE900110A460B4600F049F880
:1003300003B000BDC1F30A5210B5C1F3130140F27E
:10034000FF3341F480119A4201DA002010BD40F2DF
:1003500033439A42A2F2334203DC524200F012F8D5
:1003600010BD904010BD202A04DB203A00FA02F1B3
:10037000002070479140C2F1200320FA03F3194393
:1003800090407047202A04DB203A21FA02F0002135
:10039000704721FA02F3D040C2F120029140084395
:1003A0001946704710B5141E73F1000408DA401C9A
:1003B00041F1000192185B411A4301D120F0010084
:1003C00010BD2DE9F04D92469B4611B1B1FA81F274
:1003D00002E0B0FA80F220329046FFF7C4FF0446F4
:1003E0000F4640EA0A0041EA0B0153465A460843C9
:1003F00013D0114653EA010019D0C8F1400250460B
:10040000FFF7C0FF05460E46504659464246FFF7E5
:10041000AAFF084305D0012004E020463946BDE884
:10042000F08D0020054346EAE0762C4337430A98D6
:100430006305E40AA0EB08000022FD0A44EA4754E1
:100440000A3002D500200146E9E70105101969418B
:10045000DDE9084500196941BDE8F04DA2E72DE945
:10046000FE4F804681EA0300C00F0C46009021F049
:10047000004123F00045B8EB0200A94105D24046F7
:10048000214690461C460B46024623F0004010438E
:1004900047D0270DC7F30A00C3F30A510290401A50
:1004A000019040286BDAC3F3130040F4801B0098DE
:1004B000924620B10023D2EB030A63EB0B0B0198A9
:1004C0005946C0F140025046FFF74DFF06460D4623
:1004D00050465946019A00F02DF910EB0800614191
:1004E000002487EA115284EAE7731A4340D0009A45
:1004F00062B3019A012A4FEA075215DC001B61EB37
:1005000002014FF0004202EA0752CDE90042001C0E
:1005100041F5801132462B46FFF753FF03B0BDE88B
:10052000F08F40462146F9E7001B61EB0201001CF9
:1005300041F5801300185B412018A2F5001747EB26
:10054000030140EAD570B6196D4111E06D084FEA1C
:10055000360645EAC0754FEA0752001B61EB0201FF
:10056000001C41F5801149084FEA30000019514143
:1005700032462B4603B0BDE8F04FFFF713BF00989B
:10058000012240000023D0EB020263EBE0730098ED
:1005900021464FEAE074B8EB000061EB0401E9E7A3
:1005A00083F000435BE781F0004158E72DE9FE4FFF
:1005B00081EA030404F0004421F0004100944FF06C
:1005C000000B23F0004350EA01045ED052EA03041A
:1005D0005BD0C3F30A54C1F30A552C44A4F2F3349C
:1005E0000194A0FB0254C1F3130141F48011C3F341
:1005F000130343F4801301FB024400FB034E840AFF
:10060000970A44EA815447EA8357A4FB0768029596
:100610008D0A05FB07854FEA932C04FB0C54270534
:10062000029D4FEA065847EA1637B5EB08056EEB10
:10063000070C870E920E47EA811742EA8312A7FB46
:100640000201B6EB0B0164EB00042B0D43EA0C3303
:100650005E1844EB1C50DA465146E7FB0201C5F335
:1006600013044FEA0B3343EA14534FEA0432019C5C
:1006700043EA0603A4F10C040294009CCDE900B403
:10068000FFF79FFE03B0BDE8F08F00200146F9E7B9
:1006900070B521F0004303430CD0C1F30A55002488
:1006A000D5EB040564EB0403D617AD1AB34102DBA6
:1006B0000020014670BD201841EB025170BD0EB5FF
:1006C000C10F80EAE0700844CA07002140F23343BA
:1006D0008DE80E000A460B46FFF773FE03B000BD1F
:1006E00030B5041E71F1000404DB4FF000444042B9
:1006F00064EB0101141E73F1000405DB1C464FF08E
:100700000043524263EB0403994208BF904230BD5C
:10071000064C074D06E0E06840F0010394E807004E
:1007200098471034AC42F6D3FFF732FDF06500086D
:1007300010660008202A06DBCB17203A41FA02F0A7
:1007400043EAE07306E041FA02F3D040C2F120022E
:1007500091400843194670472DE9F04D00231A4691
:100760001B1A8A4103DB00200146BDE8F08DC1F36E
:100770000A52C1F3130141F480154FF0000BD10769
:1007800002D100186D41521E0027044640F2FF11AD
:10079000384601EB620A3E468046024600204FF48E
:1007A0008011FFF7EFFDC2197141BB1846EB010044
:1007B000B4EB030C75EB000C04D3E41A65EB0005F5
:1007C00017460E46241908F101006D418046342871
:1007D000E3DDF91946EB0600091BA84103D24FF0EF
:1007E000FF32134601E0002213461BEB070046EBE5
:1007F0000A51BDE8F04DFFF7D5BD000030B50F48F8
:1008000087B0C16C41F00801C164C06C4FF48064D2
:1008100000F0080005900120CDE900400020084DBF
:10082000029003906946284600F05AFA00222146B9
:10083000284600F040FB07B030BD00000010024029
:10084000000C0048FEE702F0D9B802F0DAB802F076
:10085000ADB87047012000F037BA4FF4004000F007
:1008600033BA10B5072000F099FB022000F02CFAF3
:10087000BDE81040072000F09CBB704710B50A206F
:1008800000F08CFB102000F01FFABDE810400A2099
:1008900000F08FBB4FF4407000F016BA00BFFEE7C7
:1008A00070B5044600F00CFB0546601C00D0641CCB
:1008B00000F006FB401BA042FAD370BD38B50546D8
:1008C0004FF40041EC4800F0F1FA002870D13220DA
:1008D000FFF7E6FF4FF40041E74800F0E7FA002891
:1008E00066D1E64801F0FAF9FFF7ADFFE448007879
:1008F000401CE349087008460078401F082845D28C
:10090000DFE800F0040C141C242C343C0520DD49E5
:1009100048714FF47A7001F0CFFC38E00620D949D5
:1009200048714FF47A7001F0C7FC30E00720D549D8
:1009300048714FF47A7001F0BFFC28E00820D149DB
:1009400048714FF47A7001F0B7FC20E00920CD49DE
:10095000487140F2DC5001F0AFFC18E00A20C949B0
:1009600048714FF4FA6001F0A7FC10E00B20C54974
:10097000487140F6B83001F09FFC08E00C20C149F6
:10098000487141F2883001F097FC00E000BF00BFE1
:100990000C2002230090BA4802780C21122001F0AA
:1009A0005DFEB74800780B2802DD0420B4490870CA
:1009B0004FF48071B44800F079FA58BB3220FFF749
:1009C0006FFF4FF48071B04800F070FA10BBAB4875
:1009D00001F084F9FFF737FFAC480078401C40B2C3
:1009E000AA490870AA4891F9001050F82100A549B9
:1009F00008600C200090084609230021026830207E
:100A000001F02CFEA14890F90000042802DBFF2031
:100A10009E4908704FF400719B4800F047FA002887
:100A20003ED13220FFF73CFF4FF40071964800F0B2
:100A30003DFAA8BB02F03EFD58B109E001F08CFC84
:100A4000182394A20021084601F044FE01F088FD1D
:100A5000F4E7002091490880914908809149088075
:100A60000C20032300908D4802882C210C2001F0DB
:100A7000F5FD0C2003230090894802882C213020AA
:100A800001F0ECFD0C2003230090864802882C2105
:100A9000542001F0E3FDFFF7D8FE784801F012F989
:100AA000FFF7D5FE01287DD102F00DFA04464FF67E
:100AB000FF7002F0BEF904F00100F8B101224021FC
:100AC0004FF0904000F0F7F974480088401C7349DB
:100AD000088008460088B0F57A7F01DB0020088096
:100AE0000C20032300906D48028830210C2001F077
:100AF000B5FDFFF7AAFE02F0E1F8B9E004F042000C
:100B00000228FAD15F48007A012801D102F09DF94C
:100B1000FFF799FE644801F0F9FF61480088401C26
:100B20005F49088008460088B0F57A7F01DB002025
:100B300008800C2003230090594802883021084681
:100B400001F08CFD0A2259495748FFF76AFB00283B
:100B500079D15748007B40B2564908705448807A92
:100B600040B2554908705248007A40B25349087063
:100B7000002220214FF0904000F09DF93220FFF735
:100B80008FFE4D4890F90000002818DA0C234CA283
:100B90002421182001F09EFD47480078404240B2D1
:100BA000454900E065E008700C20042300900846E9
:100BB00090F9002024211E2001F050FD0FE00C23AD
:100BC00040A22421182001F085FD0C200423009070
:100BD000394890F9002024211E2001F03FFD3548BE
:100BE00090F90000002816DA0C2335A224215A209F
:100BF00001F070FD2F480078404240B22D49087046
:100C00000C2004230090084690F900202421602045
:100C100001F024FD0FE00C232AA224215A2001F028
:100C200059FD0C2004230090224890F90020242133
:100C3000602001F013FD012220214FF0904000F0D0
:100C40003AF90CE0FFE717480088401C1549088076
:100C500008460088B0F57A7F01DB002008800C2070
:100C6000032300900F4802883021542001F0F6FC45
:100C700000BF00F03DFA38BD0004004868000020C5
:100C80005F00002010000020000C004860000020E1
:100C90003000002045526F52000000004400002048
:100CA0004600002048000020480A002024000020C0
:100CB000E0000020570000205500002058000020D0
:100CC0002D00000020000000044910B50A6802420F
:100CD00002D00860FFF7F2FD10BD000014040140CF
:100CE0002DE9F84FDFF8A091002209F1040A0AF17A
:100CF000040B4FF00F080BF1040EBEE001249440EA
:100D0000234075D04D68022D01D0122D11D1D50888
:100D100000EB85073E6A5507ED0E08FA05FC26EA4A
:100D20000C06D1F810C00CFA05FC4CEA060CC7F80A
:100D300020C007685500032691F804C0AE400CF0AF
:100D4000030CB7430CFA05FC4CEA070CC0F800C0D2
:100D50004F68012F05D0022F03D0112F01D0122F81
:100D600015D18768D1F80CC0B7430CFA05FC4CEAE2
:100D7000070CC0F808C0476891F804C0A743CCF33B
:100D8000001C0CFA02FC4CEA070CC0F804C0D1F8B5
:100D900004C06FEA0C07BF0706D1C76AA743CCF3AC
:100DA000C00494403C43C462C468B4438E68AE40FF
:100DB0002643C6604C68E4005ED5344C256E45F091
:100DC00001052566246E22F0030504F00104009459
:100DD0002F4C2E19B7689407250F08FA05F4A7437E
:100DE000B0F1904F05D02B4CA04204D101241CE05F
:100DF00042E0002419E0284CA04201D1022414E072
:100E0000264CA04201D103240FE0254CA04201D181
:100E100004240AE0234CA04201D1052405E0224C21
:100E2000A04201D1062400E00724AC403C43B4605A
:100E3000D9F800404D464E689C43F60300D51C434C
:100E40002C60DAF8004055464E689C43B60300D546
:100E50001C432C60DBF800405D464E689C43F60264
:100E600000D51C432C60DEF8004075464E689C435C
:100E7000B60200D51C432C60521C0B6833FA02F4F6
:100E80007FF43CAFBDE8F88F000401400010024041
:100E9000000001400004004800080048000C004821
:100EA000001000480014004800180048006908407D
:100EB00000D0012070470AB181617047816270479C
:100EC00001480068704700000000002002480168E7
:100ED000491C0160704700000000002010B503208D
:100EE00000F092F8002000F005F800F017F800205C
:100EF00010BD000010B5044607484FF47A71006831
:100F0000B0FBF1F000F049FE00222146501E00F037
:100F10005BF8002010BD0000200000201E4808B52E
:100F2000016E41F001010166016E01F001010091C5
:100F3000816D41F080518165806D00F0805000909E
:100F4000032000F061F8002211466FF00B0000F062
:100F50003BF8002211466FF00A0000F035F800223D
:100F600011466FF0090000F02FF800221146501FC3
:100F700000F02AF800221146101F00F025F8002288
:100F80001146901E00F020F80022BDE808401146EE
:100F9000501E00F019B800000010024000F01F02BF
:100FA000012191404009800000F1E020C0F880114B
:100FB000704700F01F02012191404009800000F1BC
:100FC000E020C0F800117047F0B40E4B1B68C3F36B
:100FD0000223C3F10704042C00D904241D1D072D8E
:100FE00001D2002300E0DB1E012606FA04F56D1E87
:100FF0000D409D409E40761E164045EA0601F0BC1D
:1010000001F09AB90CED00E0064A00F00701106803
:101010004FF6FF03184040EA0120034908431060DF
:10102000704700000CED00E00000FA051549B0F52E
:10103000007F0868C0F3412009D0022805D0086865
:1010400020F4C06040F480600860002070470128F0
:10105000FBD0086820F4C06040F4007008600A48C3
:101060000A4A0068B0FBF2F03222504300E0401E12
:1010700010B14A695205FAD448694005E5D5032004
:1010800070470000007000402000002040420F0028
:101090000C49086820F4804008600B480B4A00683F
:1010A000B0FBF2F03222504300E0401E10B14A691A
:1010B0009205FAD44869800501D5032070470020C5
:1010C00070470000007000402000002040420F00E8
:1010D0000248016841F4804101607047007000409F
:1010E0000248006800F4C0607047000000700040D3
:1010F0000248016821F002010160704710ED00E034
:101100000248016841F002010160704710ED00E003
:101110000E4A10B5002850690C460FD0C043800518
:1011200001D5FFF7D5FF0A48016821F004010160ED
:10113000012C08D040BF20BF20BF10BD8005F2D5D4
:10114000FFF7A6FFEFE730BF10BD000000700040C2
:1011500010ED00E02DE9F047DFF8648104460E460B
:10116000D8F8000000F00700B0420CD2D8F8001008
:1011700021F007013143C8F80010D8F8000000F052
:101180000700B04272D120784E4F800705D5B8686D
:10119000A16820F0F0000843B8602078C00754D060
:1011A0006068022818D0032819D03968D0B14905E1
:1011B00000295BDAB96821F003010143B960FFF748
:1011C0007FFE0546606841F28831022812D003286C
:1011D0001DD0894638B333E039688903E8E73968B8
:1011E0008901E5E78907E3E7FFF76AFE411B494507
:1011F00001D922E08946B868C0F381000228F3D102
:1012000023E0FFF75DFE411B494501D915E0894602
:10121000B868C0F381000328F3D116E0FFF750FE51
:10122000411B494509D8B86810F00C0FF6D10CE005
:10123000FFF746FE411B494502D90320BDE8F08770
:10124000B868C0F381000128F2D1D8F800104046F8
:1012500001F00701B1420BD9016821F007013143C8
:101260000160006800F00700B04201D00120E5E70E
:101270002078400705D5B868E16820F4E0600843AD
:10128000B8602078000706D5B868216920F460505E
:1012900040EAC100B86000F051F8B968F02292FA53
:1012A000A2F201F0F001B2FA82F2D140064A515C9A
:1012B000C840064908600020FFF71CFE0020BDE77B
:1012C00000200240001002401465000820000020A9
:1012D00001480068704700002000002008480949C4
:1012E000006889684FF4E06292FAA2F201F4E061CA
:1012F000B2FA82F2D140044A515CC8407047000003
:1013000020000020001002405465000808480949E8
:10131000006889684FF4605292FAA2F201F46051B9
:10132000B2FA82F2D140044A515CC84070470000D2
:1013300020000020001002405465000870B53B4BAF
:101340000022104699683A4C11F00C0F4FEA6405E0
:1013500014D09968C1F38101032904D1D96801F03F
:10136000030101290AD09968C1F38101012921D023
:101370009968C1F3810102291ED01EE0196809078E
:1013800006D4D3F894104FF4706201F4706103E056
:101390001968F02201F0F00192FAA2F2B2FA82F298
:1013A000D140244A52F82120996811F00C0F04D141
:1013B000104602E0204600E028469968C1F381010A
:1013C000032931D1D868D96800F00300702696FA55
:1013D000A6F601F07001B6FA86F6F140491C4FF40A
:1013E000FE46022804D0032805D0B2FBF1F004E049
:1013F000B4FBF1F001E0B5FBF1F0D96896FAA6F282
:1014000001F4FE41B2FA82F2D1404843D9684FF06C
:10141000C06292FAA2F201F0C061B2FA82F2D14047
:10142000491C4900B0FBF1F070BD00000010024003
:101430000024F400246500082DE9F84304460078F0
:10144000FD4DC00663D5A86810F00C0F0AD0A06946
:101450000028286878D040F001002860FFF730FDB0
:1014600006465AE02868800702D5A06900286AD09D
:10147000216A28684FF0F006000703D5286800F0BD
:10148000F00003E0D5F8940006EA1010814216D966
:10149000084601F05DF9002855D1286840F00800A1
:1014A00028602868216A20F0F000084328606868F6
:1014B000E16920F47F4040EA0120686015E0286877
:1014C00040F0080028602868216A20F0F0000843F6
:1014D00028606868E16920F47F4040EA0120686084
:1014E000206A01F035F90028D6D1FFF727FFA96857
:1014F00096FAA6F201F0F001B2FA82F2D140CF4A98
:10150000515CC840CE4908600020FFF7F3FC2AE098
:10151000FFF7D6FC801B02287ED828688007F7D505
:10152000286840F0080028602868216A20F0F00050
:10153000084328606868E16920F47F4040EA0120A0
:10154000686010E000E0B3E020F001002860FFF7E1
:10155000B7FC064604E0FFF7B3FC801B0228DBD88B
:1015600028688007F7D42078C00746D0A868C0F361
:10157000810002281DD0A868C0F38100032803D190
:10158000E868C043800714D06068B0F5803F17D08A
:10159000B0F5A02F286817D020F480302860286884
:1015A00020F4802028606068D8B1FFF789FC0646E7
:1015B00013E02868800320D56068002878D01CE0FC
:1015C000286840F48030EDE740F480202860F7E799
:1015D000FFF776FC801B64289ED828688003F7D527
:1015E0000BE0FFF76DFC064604E0FFF769FC801B8B
:1015F000642891D828688003F7D42078800747D5DD
:10160000A8684FF0F857C0F38100012816D0A868E9
:10161000C0F38100032800E0AAE004D1E86800F0EC
:10162000030002280AD0E0680028286821D040F48E
:1016300080702860FFF744FC06460BE028684005F0
:101640000BD5E0680028B9D007E0FFF739FC801B14
:10165000022884D828684005F7D5686897FAA7F269
:101660002169B2FA82F220F0F85091400843686094
:101670000EE020F480702860FFF722FC064604E0AC
:10168000FFF71EFC801B022872D828684005F7D49B
:101690002078000728D560690028D5F8940012D07A
:1016A00040F00100C5F89400FFF70AFC064605E08B
:1016B000F6E0FFF705FC801B022859D8D5F8940006
:1016C0008007F6D510E020F00100C5F89400FFF780
:1016D000F7FB064604E0FFF7F3FB801B022847D820
:1016E000D5F894008007F6D42078400762D5A86D1D
:1016F0000027C00008D4A86D40F08050A865A86DF0
:10170000012700F0805000904E480168C90511D4AF
:101710000168804641F480710160FFF7D1FB064605
:1017200004E0FFF7CDFB801B022821D8D8F8000089
:10173000C005F6D5A068012815D00528D5F8900079
:1017400017D020F00100C5F89000D5F8900020F0E7
:101750000400C5F89000A06841F28838C0B1FFF7D6
:10176000AFFB06460FE0D5F8900040F00100F0E72F
:1017700061E040F00400C5F89000F4E7FFF7A0FB3B
:10178000811B414557D8D5F890008007F6D50CE06D
:10179000FFF796FB064604E0FFF792FB811B4145ED
:1017A00076D8D5F890008007F6D41FB1A86D20F048
:1017B0008050A865A06AE8B3A968C1F38101032934
:1017C0006ED00228286820F08070286011D0286828
:1017D000000106D42868800003D4E86820F00300E4
:1017E000E860E86818490840E860FFF769FB0446CC
:1017F00051E0FFF765FB064604E0FFF761FB801B45
:10180000022845D828688001F7D4206BE16A0001DE
:1018100010380843616BA26B0902120941EA424188
:101820000843A18F094A490802EB4151084394F843
:1018300040100DE032E02BE000100240146500087B
:101840002000002000700040FFFFEEFE0000E0FFDF
:101850004908120102EB41610843E860286840F042
:1018600080702860E86840F08070E860FFF728FB2F
:10187000044604E0FFF724FB001B022808D8286870
:101880008001F7D50AE0FFF71BFB001B022802D9F5
:101890000320BDE8F88328688001F4D40020F8E72D
:1018A0000120F6E72DE9F041040005D00025A562EE
:1018B00094F85D0018B107E00120BDE8F08184F8DC
:1018C0005C50204600F044F8022684F85D602068F1
:1018D000016821F040010160E0684FF4E06290424D
:1018E00001D9002101E04FF48051B0F5706F02D0B2
:1018F000904200D0A562276B012327B9904201D9FD
:10190000266300E02363D4E901021043D4E90426EE
:1019100032431043228B02F400721043E2691043F9
:10192000226A1043A26A104322681060626B606AE8
:10193000A66910430427E26807EA164632431043BB
:10194000084321684860256684F85D300020B4E7CC
:1019500070472DE9F05F044690F85C000127DDF840
:1019600028809A4616460D464FF0000901280ED0F1
:10197000012084F85C00FFF7A3FA834694F85D0029
:10198000616801280CD0B1F5827F07D102E0022006
:10199000BDE8F09FA16809B9042801D002206EE0DB
:1019A00035B32EB3BAF1000F22D094F85D000428AD
:1019B00002D0052084F85D00002020662664A4F88B
:1019C00046A0A4F844A0A563A4F83EA0A4F83CA0B7
:1019D000E0642065E0684FF4E061884203D8B4F821
:1019E0004600012806D92068426822F4805205E0AA
:1019F000012044E02068426842F48052426020683E
:101A00000268520603D4026842F040020260E068B5
:101A10008842606844D910B1E08F012838D121682C
:101A200035F8020BC860E08F401EE08730E067B1F8
:101A3000E08F50B120688168890706D535F8021B10
:101A4000C160E08F401EE0870027B4F8460060B117
:101A500020688168C90708D0C06826F8020BB4F86E
:101A60004600401EA4F846000127B8F1FF3F0FD002
:101A7000FFF726FAA0EB0B01414509D3032081466D
:101A8000012084F85D00002084F85C0048467FE770
:101A9000E08F0028CBD1B4F846000028C7D162E01F
:101AA00010B1E08F012857D1E08F012806D92168B5
:101AB00035F8020BC860E08F801E05E0216815F83C
:101AC000010B0873E08F401EE08745E0AFB1E08F67
:101AD00098B12068816889070FD5E18F012905D960
:101AE00035F8021BC160E08F801E04E015F8011B71
:101AF0000173E08F401EE0870027B4F8460010B362
:101B000020688168C9071ED0B4F84610012911D990
:101B1000C06826F8020BB4F84600801EA4F8460000
:101B2000B4F8460001280DD82068416841F480517E
:101B3000416007E0007B06F8010BB4F84600401E48
:101B4000A4F846000127B8F1FF3F05D0FFF7B8F928
:101B5000A0EB0B01414591D2E08F0028B6D1B4F83B
:101B600046000028B2D15A464146204600F02EFEDB
:101B700008B120202066206E00287FF439AF7FE76F
:101B80004FF0E0210428086903D020F00400086128
:101B9000704740F00400FAE7704710B5401EB0F1FE
:101BA000807F01D3012010BD4FF0E02460610F2140
:101BB000601700F0C1FB0020A06107202061002019
:101BC00010BD10B5FFF7E8FF10BD7047704700006B
:101BD00030B590F83820012A1FD0012280F8382033
:101BE00003685A689D680E4CA34202D00D4CA34274
:101BF00003D122F470044A68224322F070040A6878
:101C00008968224325F0800421435A60026891606C
:101C1000002180F83810084630BD022030BD000099
:101C2000002C01400034014010B5040003D094F8AA
:101C3000390010B107E0012010BD002084F8380001
:101C4000204600F00DF8022084F83900211D20689C
:101C500001F02AFD012084F83900002010BD0000A9
:101C600008B50068144A154990420ED1886D40F0BD
:101C700002008865886D012200F002000090114684
:101C80001D20FFF7A1F91D2010E00D4A904211D14F
:101C9000886D40F004008865886D012200F0040022
:101CA000009011461E20FFF78FF91E20BDE8084066
:101CB000FFF77FB908BD000000040040001002409B
:101CC000000800400168CA6842F00102CA6000686A
:101CD000016841F001010160002070470168CA6895
:101CE00022F00102CA600068016A41F21112114239
:101CF00007D1016A9210114203D1016821F001015C
:101D0000016000207047000070B5044690F838006C
:101D1000012817D0012584F83850022084F83900B2
:101D200020688268354E324022F47F428260086823
:101D3000502838D00DDC20285AD005DC90B310286C
:101D400042D152E0022070BD302854D040283BD10F
:101D500040E060282FD070280CD0B0F5805F03D011
:101D6000B0F5005F30D112E020688168234A7032FC
:101D700011400AE0CB68D1E90121206801F0F0FCB4
:101D800020688168314041F0770181601CE0CB68B8
:101D9000D1E90121206801F0E3FC2068816841F469
:101DA0008041F2E71EE0CA684968206801F0EAFC59
:101DB0005021206806E0CA684968206801F0F3FCF9
:101DC0006021206801F0D6FC84F83950002084F8A6
:101DD000380070BDCA684968206801F0D3FC402112
:101DE0002068EFE700212068ECE710212068E9E790
:101DF00020212068E6E730212068E3E788FFFEFF26
:101E0000704770B50446006801694FF00005C9438A
:101E1000890715D4C168C943890711D4E91E016136
:101E200001202076206880698007204602D0FFF7D5
:101E3000E7FF04E000F098F8204600F096F82576D9
:101E400020680169C943490717D4C168C9434907D4
:101E500013D46FF0040101610220207620688069AC
:101E600010F4407F204602D0FFF7CAFF04E000F0E4
:101E70007BF8204600F079F8257620680169C9438F
:101E8000090716D4C168C943090712D46FF00801C5
:101E90000161042020762068C0698007204602D0B6
:101EA000FFF7AEFF04E000F05FF8204600F05DF8B9
:101EB000257620680169C943C90617D4C168C9439A
:101EC000C90613D46FF01001016108202076206844
:101ED000C06910F4407F204602D0FFF791FF04E074
:101EE00000F042F8204600F040F8257620680169AD
:101EF000C943C90708D1C168C943C90704D1891EAC
:101F00000161204600F032F820680169C9430906E2
:101F100009D4C168C943090605D46FF08001016185
:101F20002046FFF752FE20680169C943490609D4DB
:101F3000C168C943490605D46FF0400101612046DC
:101F400000F036F820680169C94389060BD4C168DE
:101F5000C943890607D46FF0200101612046BDE81E
:101F60007040FFF733BE70BD7047704710B5044630
:101F700000F0D4FF0B4908800846B0F900000A4978
:101F8000B1F9001088420ADA002240214FF0904057
:101F9000FEF791FFFEF759FC044800F0B9FEFFF789
:101FA000A7F810BD5C0000205A000020240000208B
:101FB000704710B5040003D094F8690010B107E031
:101FC000012010BD002084F86800204600F026F8AB
:101FD000242084F869002068016821F00101016073
:101FE000204601F085FC0128EBD0606A10B1204644
:101FF00001F0EBFB2068416821F4904141602068CA
:10200000816821F02A0181602068016841F00101A6
:1020100001602046BDE8104001F03BBC00B50068FF
:10202000124987B088421FD11148816D41F40031B7
:102030008165806D694600F4003005900C200090A9
:1020400002200190012002900320039007200490B9
:102050004FF09040FEF744FE002211462620FEF786
:10206000B3FF2620FEF7A5FF07B000BD00440040E7
:1020700000100240FEE7000070B501220B4D540233
:1020800021462846FEF717FF012216023146284650
:10209000FEF711FF002221462846FEF70CFF3146CD
:1020A0002846BDE870400022FEF705BF0004004846
:1020B00070B50A4C012211022046FEF7FCFE4FF4D7
:1020C0000075002229462046FEF7F5FE29462046E7
:1020D000BDE870400122FEF7EEBE0000000400489B
:1020E00070B50122064D140221462846FEF7E3FE94
:1020F00021462846BDE870400022FEF7DCBE000005
:102100000004004830B51C4887B0C16C41F00201A2
:10211000C164C16C01F002010591C16C41F008017C
:10212000C164C06C154D00F0080005904FF40040EC
:10213000CDE900050124694602941148FEF7D0FD5F
:102140004FF44070CDE90005694602940D48FEF752
:10215000C7FD002201211720FEF736FF1720FEF7EA
:1021600028FF002201212820FEF72EFF2820FEF75D
:1021700020FF07B030BD0000001002400000211019
:1021800000040048000C00480F4810B5C16C86B030
:1021900041F00101C164C06C4FF0904400F00100B7
:1021A0000590012270212046FEF785FE7021112046
:1021B000CDE9001000210291039169462046FEF707
:1021C0008FFD06B010BD0000001002402D4A2E49C0
:1021D000106808442D49884237D2107900F00F0169
:1021E00011710A2931D8A2F10C000B290ED2DFE8B7
:1021F00001F0433D37312E09060D403A34009FED82
:10220000240A01E09FED230A80ED010A517901F0D3
:102210000F014B1F5171082B17D20223491E8B400F
:1022200000EE103AD0ED010AB8EEC00A80EE201A96
:1022300080ED021A907900F007009071401E04288A
:1022400003D292F90700162819DD002070479FED90
:10225000120AD9E79FED110AD6E79FED110AD3E7DD
:102260009FED100AD0E79FED100ACDE79FED0F0A12
:10227000CAE79FED0F0AC7E79FED0E0AC4E70120EA
:10228000704700001000002080E58FE70184D71719
:102290000000FA4300007A430000FA4200007A424C
:1022A00014AE26420000FA41D7A3A6417B147A411E
:1022B00052B8264185EBF94010B5124988B0104A52
:1022C0000A604FF6FF120024401E4A60C1E9024036
:1022D00008460C61FFF7A8FC00280ED14FF480508F
:1022E000039003A90748FFF70FFD002805D10094CC
:1022F000694604480294FFF76BFC08B010BD00006B
:1023000000040040680000200948084901604FF4BB
:10231000E1314160002181600C22C160C0E90412FA
:102320008161C16101624162FFF743BE0044004028
:1023300058050020FEE770470907090E002806DA55
:1023400000F00F0000F1E02080F8141D704700F14C
:10235000E02080F80014704730B40021084B0A4692
:10236000002003EBC004401CC0B262548028F8D3A4
:10237000491CC9B20829F3D330BC00F0F1B8000001
:10238000C805002010B57F2816D83F2914D8072388
:10239000A3EBD10301F00701C1F107040121A14022
:1023A000064CDBB204EBC000002AC25CC9B201D00B
:1023B0000A4300E08A43C25410BD0000C805002053
:1023C000F0B5604887B0C16C41F00201C164C16CD6
:1023D00001F002010591C16C41F00801C164C06CBB
:1023E0004FF4407500F0080005900126564FCDE9E6
:1023F00000560224694603943846FEF771FC012218
:1024000029463846FEF757FDED0003944F4CCDE9C1
:10241000005669462046FEF763FC01222946204605
:10242000FEF749FD0022F1022046FEF744FD01229D
:10243000150329462046FEF73EFD7820FEF730FAC8
:10244000002229462046FEF736FD7820FEF728FABE
:10245000012229462046FEF72EFD0021AE2000F085
:102460005BF90021022000F057F90021102000F054
:1024700053F90021402000F04FF90021812000F0A5
:102480004BF90021FF2000F047F90021A12000F0C6
:1024900043F90021C02000F03FF90021A62000F000
:1024A0003BF90021A82000F037F900213F2000F07F
:1024B00033F90021D32000F02FF90021084600F065
:1024C0002BF90021D52000F027F90021802000F011
:1024D00023F90021D92000F01FF90021F12000F09C
:1024E0001BF90021DA2000F017F90021122000F07A
:1024F00013F90021DB2000F00FF90021402000F04B
:102500000BF90021202000F007F90021022000F043
:1025100003F900218D2000F0FFF80021142000F0C5
:10252000FBF80021A42000F0F7F80021A62000F01D
:10253000F3F80021AF2000F0EFF8FFF70DFF07B030
:10254000F0BD00000010024000040048000C0048EC
:102550000346012000E05843491EC9B2FBD2704730
:1025600070B5104E002505F1B000C0B2002100F09A
:10257000D3F80021022000F0CFF80021102000F055
:10258000CBF8002406EBC4000121405D00F0C4F844
:10259000641CE4B2802CF5D36D1CEDB2082DE2D39F
:1025A00070BD0000C80500202DE9F84F83461E4687
:1025B0000F468A46580700D0012000EBD60071086C
:1025C00010FB01F0203AC0B202F0FF090025009094
:1025D00039E00C2E0FD0102E11D0182E36D11C49F8
:1025E00009EBC90001EB80004FF00008445D2006B4
:1025F00009D50A9A0AE009EB49001649F2E716499B
:1026000001EB0910F0E70A9890B1002239465846CC
:10261000FFF7B8FE60067F1C040EFFB2A7EB0A00AE
:10262000B04207D10BF10100574600F0FF0B08E064
:102630000122EBE708F1010000F0FF08B8F1080FF4
:10264000D5D36D1CEDB200988542C2D3BDE8F88F9A
:10265000B6570008524D0008C65100082DE9FF4F3B
:1026600081B00027DDF838B01D46924680463C46D2
:102670004FF001094FEA5B0627E0281B401EC1B25C
:102680000A20FFF765FFBAFBF0F00A21B0FBF1F278
:1026900001FB120027B9691E8C4201DA48B10127FB
:1026A0003030C2B206FB0480C0B25B46CDF8009069
:1026B00006E006FB0480C0B25B462022CDF8009005
:1026C0000299FFF771FF641CE4B2AC42D5D305B0A8
:1026D000BDE8F08F2DE9F8431F4615460E46044627
:1026E0004FF00109C3F180080FE03B463146204618
:1026F000CDF80090FFF758FF04EB5700C4B2A04597
:1027000002DA0024B61CF6B26D1C2A78A2F1200071
:102710005E28EAD9BDE8F88370B50C460546FFF798
:10272000ABFC782000F01EFFFFF7DAFC0CB1402074
:1027300000E0002000F016FFFFF7D2FC284600F072
:1027400011FFFFF7CDFCBDE87040FFF7B1BC70474B
:10275000F8B51C4E05460024B06DC00002D5FEF74A
:10276000BFFC0DE0B06D40F08050B065B06D00F082
:1027700080500090FEF7B4FCB16D21F08051B1653E
:10278000B0F5007F04D0802D07D94FF003040AE094
:10279000802D08D9A02D01D804E001D1022402E047
:1027A000702D00D101240848016821F00701214360
:1027B0000160006800F00700A04201D00120F8BDD0
:1027C0000020F8BD0010024000200240F8B5154678
:1027D0000E460B460092044600224FF4C05100F012
:1027E00019F888B93346002280212046009500F070
:1027F00060F848B9334600224FF4C0612046009586
:1028000000F008F8002804D0206E40F02000206678
:102810000320F8BD2DE9F8431D4616460F46044631
:102820004FF4C069DDF820803CE04F4505D126B962
:10283000007B8DF800009DF80000681C32D02DB19F
:10284000FEF73EFBA0EB0800A8422BD320684168AE
:1028500021F0E00141606068B0F5827F0BD1A06893
:10286000B0F5004F02D0B0F5806F04D12068016848
:1028700021F040010160A06AB0F5005F09D1206835
:10288000016821F4005101602068016841F40051A1
:102890000160012084F85D00002084F85C000320C2
:1028A000BDE8F883206881683940B142BDD100207D
:1028B000F6E72DE9F0411D4617460E460446DDF8C1
:1028C000188034E0681C32D02DB1FEF7F9FAA0EB85
:1028D0000800A8422BD32068416821F0E001416044
:1028E0006068B0F5827F0BD1A068B0F5004F02D0D0
:1028F000B0F5806F04D12068016821F040010160CB
:10290000A06AB0F5005F09D12068016821F4005188
:1029100001602068016841F400510160012084F8E1
:102920005D00002084F85C000320BDE8F081206891
:10293000806836EA000004D00020B842C2D10020EE
:10294000F3E70120F9E7704710B520B1002000F04F
:102950006FF9012003E0012000F06AF90020BDE8D2
:10296000104000F089B9000004210148FEF79EBA2A
:10297000000400480B4800B5C16C87B041F002016B
:10298000C164C06C694600F002000590042000900C
:10299000002001900290012003900348FEF7A0F967
:1029A00007B000BD001002400004004802210148A9
:1029B000FEF77CBA000400480D4800B5C16C87B032
:1029C00041F00201C164C06C0A4900F002000590A8
:1029D0000220CDE900010290039069460648FEF707
:1029E0007FF9002201210720FEF7EEFA07B000BDB3
:1029F0000010024000001110000400480720FEF7FC
:102A0000CDBA0720FEF7D5BA0E4800B5C16C87B025
:102A100041F00401C164C06C694600F004000590F7
:102A2000102000900848019002200290039007486F
:102A3000FEF756F9002201210A20FEF7C5FA07B079
:102A400000BD000000100240000011100008004806
:102A500010B5FFF7B1FFFFF7D7FFFFF78BFF01209E
:102A600000F010F8002000F0E3F8BDE8104000206E
:102A700000F002B902464FF400414FF09040FEF7DB
:102A80001ABA000030B50F49044687B0C86C40F050
:102A90000100C864C86C012100F00100059080208D
:102AA000CDE900010220CDE902104FF090456946C2
:102AB0002846FEF715F9224680212846FEF7FBF945
:102AC00007B030BD0010024001B582B04FF47A70FB
:102AD0000090012301AA02A90248FEF73AFF9DF8DF
:102AE00004000EBDF000002010B50A20FDF7D8FE4E
:102AF0000020FFF7C7FF1420FDF7D2FE0120FFF7EB
:102B0000C1FFBDE810400A20FDF7CABE70B50546FA
:102B10000A4800F0E2F94FF6FF7000F08AF9084821
:102B2000074C007A0E3410B9204600F003FA214613
:102B30002846BDE8704000F0ECB90000E00000203D
:102B400010000020F0B585B04FF400400125CDE91C
:102B5000000500200224CDE9020469464FF09040B0
:102B6000FEF7BEF860028DE8310006260C4FCDE975
:102B7000034669463846FEF7B3F8A002009069465E
:102B800004963846FEF7ACF8E0028DE83100CDE956
:102B9000034669463846FEF7A3F805B0F0BD0000CD
:102BA0000008004838B51F48C16C41F00101C164FC
:102BB000C16C01F001010091C16C41F00401C164DC
:102BC000C16C01F004010091816D41F40041816507
:102BD000806D00F400400090FFF7B4FF134C1248E2
:102BE0004FF4E06120604FF4827060600020C4E91F
:102BF00002014FF400712061C4E905011021C4E90C
:102C0000071007216062C4E90A012063606320465F
:102C1000FEF748FE00B1FEE72068016841F0400180
:102C2000016038BD00100240003C0040F000002070
:102C300030B50F49044687B0C86C40F00400C86442
:102C4000C86C012100F0040005902020CDE90001AE
:102C50000220CDE90210074D69462846FEF740F8EC
:102C6000224620212846FEF726F907B030BD000095
:102C7000001002400008004830B50E49044687B0F5
:102C8000C86C40F00200C864C86C012100F002006A
:102C9000009105900220CDE90210074D019169468F
:102CA0002846FEF71DF8224601212846FEF703F9C3
:102CB00007B030BD001002400004004810B50120EC
:102CC00000F012FB00F090F8012000F09FFA0020C5
:102CD000FFF73AFE4FF6FF7000F0ABF800231A46FC
:102CE00040F2022140F2422000F0E1F9002000F021
:102CF00023FB002000F0F6F90021084600F0B9F9A6
:102D0000BDE81040014800F0DABA0000FFFF2F00D4
:102D100010B50446012000F0E7FA00F065F8012044
:102D200000F074FA0120FFF70FFE4FF6FF7000F07D
:102D300080F8002340F201201A46014600F0B7F95E
:102D400000F00AFA0021084600F093F90348044A0B
:102D5000817B2046BDE8104000F07FB910000020C4
:102D6000FFFF2F0001B501226946892000F058FBC2
:102D700008BD0000174908B5884204D9E1208DF844
:102D80000000E9201EE01449884204D9D7208DF8BC
:102D90000000D82016E01149884204D9C1208DF8DE
:102DA0000000C5200EE00E49884204D975208DF838
:102DB0000000812006E00B49884205D96B208DF880
:102DC00000006F208DF8010002226946982000F073
:102DD00027FB08BD00E9A43580F8A9328044E52D21
:102DE000000B6B1B40FC541910B500F040F80004B8
:102DF000000C06D000F014F8BDE810407F20FFF76B
:102E0000B1BF10BD054810B5007808B1062801D142
:102E100000F0D6FABDE8104000F0CABA0400002065
:102E200008B50020009002226946072000F0F8FA59
:102E300008BD08B5010A8DF800108DF801000222C6
:102E40006946104600F0ECFA08BD10B5002140F6C6
:102E5000021000F006FB40F64414204600F0CFF8C4
:102E600040F002012046BDE8104000F0FABA1CB55F
:102E700000200090019002226946172000F09FF880
:102E80009DF8000000F001008DF805009DF801009C
:102E90009DF80410820962F38611420962F345111C
:102EA000020962F30411C20862F3C301820862F3EB
:102EB0008201420862F3410160F300018DF80410C1
:102EC000BDF804001CBD08B502226946122000F0BE
:102ED00076F8BDF8000040BA08BD38B504460322B4
:102EE0006946142000F06BF89DF800004042401045
:102EF00020819DF80100802801D2800802E0A0F521
:102F00008070801060819DF8020040424010A081D6
:102F100038BD0A780146002000F02EB808B501221D
:102F20006946152000F04BF89DF80000404240F340
:102F3000470008BD38B5044602226946132000F058
:102F40003EF840F2047000F05AF8C00904D040F294
:102F5000027000F054F801E09DF80000207038BDC8
:102F600008B500208DF8000001226946C02000F05D
:102F700026F89DF8000008BD70B515460E460446BB
:102F8000FFF740FF0020FFF775FD1E20FFF79CFDB7
:102F90002046FFF799FD0020FFF796FD002405E08D
:102FA0000020FFF791FD3055641CA4B2AC42F7D36A
:102FB0000120FFF75FFDBDE8704000F0F9B970B582
:102FC00015460E460446FFF71DFF0020FFF752FD91
:102FD0002046FFF779FD0020FFF776FD002405E08D
:102FE0000020FFF771FD3055641CA4B2AC42F7D34A
:102FF0000120FFF73FFDBDE8704000F0D9B908B5EA
:103000000122694600F003F89DF8000008BD70B584
:1030100015460E460446FFF7F5FE0020FFF72AFD91
:103020001D20FFF751FD200AFFF74EFDE0B2FFF72C
:103030004BFD0020FFF748FD002405E00020FFF7CE
:1030400043FD3055641CA4B2AC42F7D30120FFF716
:1030500011FDBDE8704000F0ABB910B514460A464A
:103060000146002000F0BDF92046BDE8104000F008
:103070006AB908B502228DF800008DF80110694682
:103080008F2000F0CDF908BD08B500F007008DF8DD
:103090000000080C8DF80100080A8DF802008DF878
:1030A000031004226946972000F0BAF908BD1CB548
:1030B000040A8DF800408DF80100080A8DF802001E
:1030C000100A8DF804008DF80520180A8DF8060006
:1030D0008DF8031008228DF807306946104600F07D
:1030E0009FF91CBD01B501226946A02000F098F9A6
:1030F00008BD00007CB50020164B00900190597966
:103100008DF8001019798DF801109A798DF8022048
:10311000A3F10C0204249268B2F1834F00DD012078
:103120008DF8030040F68905062928460CD0FFF7E4
:1031300066FF40F00401284600F093F922466946F4
:103140008B2000F06DF97CBDFFF759FF00F0FB010B
:10315000F1E70000100000201CB500201B4C00907F
:1031600001906079052801D0062804D1A0890C2897
:1031700001D20C20A081A0890622010A8DF800103E
:103180008DF80100207A8DF80200A07B8DF80300F5
:10319000607A8DF80400A07A8DF8050069468C20CD
:1031A00000F03EF9A07A40F236740128204607D09C
:1031B000FFF725FF40F00401204600F052F91CBD46
:1031C000FFF71DFF20F00401F6E7000010000020CB
:1031D00008B58DF800008DF801108DF802208DF8EB
:1031E000033004226946952000F01AF908BD01B5A4
:1031F0009DF8000020B9002140F2AC6000F031F9E8
:10320000012269468A2000F00BF908BD01B50122B0
:103210006946962000F004F908BD000010B5044688
:103220001D481E4920442DED028B82B0884204D3F4
:10323000012002B0BDEC028B10BD2046FFF79AFDC5
:103240009FED171B9FED180B00F0E6FC53EC102BC5
:103250009FED170B51EC100BFCF7F0FF41EC180B36
:103260002046FDF75AF853EC182BFCF7E7FFFDF763
:1032700061F8010E8DF80010010C8DF80110010AA3
:103280008DF802108DF8030004226946862000F0B4
:10329000C7F80020CDE7000080E58FE781FB651EC1
:1032A0000000000000003940000000000000004065
:1032B0000000000080847E41052100F058B838B538
:1032C00004464FF6FF70FFF7B4FD200C8DF80000A8
:1032D000200A8DF801008DF8024003226946822001
:1032E00000F09EF838BD000031B54FF6FF740122A2
:1032F0006946802000F094F8FFF732FE9DF8000048
:103300000C4D50B9FFF72CFEC0F30210641E0228CA
:1033100001D0002CF6D1012009E0FFF721FEC0F317
:103320000210641E032801D0002CF6D10220287060
:1033300038BD00000400002001B5012269469F202D
:1033400000F06EF808BD38B504464FF6FF70FFF781
:1033500070FD200C8DF80000200A8DF801008DF81A
:10336000024003226946832000F05AF838BD38B580
:103370000D460446162801DD162404E06FF0020015
:10338000844200DA04460123002207210420FFF7CB
:103390001FFF382140F6E70000F063F88DF8004089
:1033A0008DF80150022269468E2000F039F838BDB0
:1033B00010B5FFF7DFFAFFF7D7FA0128FBD010BDF1
:1033C00010B50020FFF756FBC020FFF77DFB002063
:1033D000FFF77AFB0120FFF74DFBBDE81040FFF738
:1033E000E7BF70B515460E460446FFF70BFD0020FB
:1033F000FFF740FB0E20FFF767FB2046FFF764FB5B
:10340000002404E0305DFFF75FFB641CA4B2AC4213
:10341000F8D30120FFF72EFBBDE87040FFF7C8BFCF
:103420002DE9F04115460E460746FFF7EBFC00205C
:10343000FFF720FB3846FFF747FB002404E0305D30
:10344000FFF742FB641CA4B2AC42F8D30120FFF7A3
:1034500011FB842F03D0BDE8F041FFF7A9BFBDE801
:10346000F08113B5012201A900F001F81CBD70B56F
:1034700015460E460446FFF7C5FC0020FFF7FAFA92
:103480000D20FFF721FB200AFFF71EFBE0B2FFF73C
:103490001BFB002404E0305DFFF716FB641CA4B2A4
:1034A000AC42F8D30120FFF7E5FABDE87040FFF722
:1034B0007FBF000010B5FEF789FEB0B3FFF772FBC7
:1034C000FFF7C6FAFFF710FBFFF77AFF0020FFF7C0
:1034D0000BFF40F6D8042046FFF791FD40F01E0197
:1034E0002046FFF7BEFF0120FFF790FEFFF798FC94
:1034F0004FF4A0710520FFF7C7FD2F2140F61110F2
:10350000FFF7AFFF7F20FFF72DFC0120FFF76FFED5
:1035100040F2027409212046FFF7A3FF2046FFF77F
:103520006EFD092804D0022010BDFFE70120FBE753
:10353000962140F6AC00FFF794FF094C2068FFF796
:103540006DFE94F90700FFF7B7FE00210846FFF76C
:1035500090FDFFF7CFFDFFF7FFFD0020E4E700003F
:10356000100000202DE9F041134E054600244FF4D1
:1035700000784FF48077002239463046FDF79BFCF7
:10358000280601D5012200E0002241463046FDF721
:1035900092FC012239463046FDF78DFC0022394667
:1035A0003046FDF788FC6806641C050EE4B2082C62
:1035B000E1D3BDE8F08100000004004810B5FDF73C
:1035C00085FCBDE81040FEF7FCBA00B597B00220BC
:1035D000C10103911021009004910A900121CDE9CD
:1035E0000B0108210D910721CDE90E1010906846BE
:1035F000FDF722FF08B1FDF751F90F2011900320CC
:1036000012900020139014901590032111A8FDF73B
:10361000A1FD08B1FDF742F94FF40070FDF706FD7A
:1036200008B1FDF73BF9FDF753FE4FF47A71B0FB9B
:10363000F1F0FEF7B2FA0420FEF7A2FA00221146DA
:10364000501EFDF7C1FC17B000BD00000D48016819
:1036500041F4700101600C48016841F00101016012
:10366000002181600268094B1A4002608214C26026
:10367000026822F48022026081610249C00380391D
:103680000860704788ED00E000100240FFFFF6EA96
:103690000148FEF7B6BB0000680000200148FEF7B5
:1036A000B0BB0000A40000202DE9F0470268244CC4
:1036B000244D254E254F264B4FF0804AA04209D07D
:1036C000504507D0A84205D0B04203D0B84201D03F
:1036D000984204D122F0700C4A6842EA0C02DFF8EA
:1036E00074C0DFF87480DFF87490A0420FD05045AA
:1036F0000DD0A8420BD0B04209D0B84207D09842B2
:1037000005D0604503D0404501D0484503D122F49F
:103710004075CA682A4302608A68C2620A68826287
:10372000A04207D0984205D0604503D0404501D063
:10373000484501D10969016301214161BDE8F08774
:10374000002C01400004004000080040000C004034
:103750000034014000400140004401400048014065
:1037600010B5846842EA032224F47F440A432243CA
:10377000826010BD826822F070020A4342F00701A5
:103780008160704710B5046A036A23F00103036285
:10379000836923F0F00343EA021324F00A020A4388
:1037A0008361026210BD10B5036A23F01003036247
:1037B0008469036A24F4704444EA023223F0A003CB
:1037C00043EA01118261016210BD90F82410C9071B
:1037D00006D001684A68836A22F400321A434A60BC
:1037E00090F82410890706D501684A68C36A22F454
:1037F00080321A434A6090F82410490706D50168C0
:103800004A68036B22F480221A434A6090F824101D
:10381000090706D501684A68436B22F400421A433F
:103820004A6090F82410C90606D501688A68836B3F
:1038300022F480521A438A6090F82410890606D533
:1038400001688A68C36B22F400521A438A6090F8B8
:103850002410490611D501684A68036C22F48012CD
:103860001A434A60016CB1F5801F06D101684A68AD
:10387000436C22F4C0021A434A6090F824100906EF
:1038800006D501684A68806C22F4002202434A602F
:103890007047F8B500250446C566FDF711FB0746DD
:1038A000206800686FF07E46000708D53B4600227E
:1038B0004FF400112046009600F064F960B92068CA
:1038C000006840070AD53B4600224FF4800120469D
:1038D000009600F057F908B10320F8BD202084F8C5
:1038E000690084F86A0084F868500020F8BD000080
:1038F0002DE9F041044600682769A168D4F81CC08E
:10390000394367691025002247EA0C073943914B78
:1039100007681646DFF840C207EA0C070F43076046
:1039200020684168E76821F44051394341602168CB
:10393000A069994201D0276A38438F6827F430671D
:1039400007438F60854F21688548B9420DD1D0F873
:10395000880010F0030006D001285AD0022856D063
:10396000032859D157E0012556E07E4FB9420BD1CB
:10397000D0F8880010F00C0047D0042849D008285F
:1039800045D00C2848D146E0774FB9420BD1D0F84A
:10399000880010F0300038D010283AD0202836D0D7
:1039A000302839D137E0714FB9420BD1D0F88800B7
:1039B00010F0C00029D040282BD0802827D0C02864
:1039C0002AD128E06A4FB9420ED1D0F8880010F40D
:1039D00040701AD0B0F5807F1BD0B0F5007F16D0B4
:1039E000B0F5407F18D116E0994215D1D0F8880083
:1039F00010F4406009D0B0F5806F0AD0B0F5006FC8
:103A000005D0B0F5406F07D105E0002504E00225A0
:103A100002E0042500E00825564F4FF4004099428B
:103A200044D135B1022D07D0042D07D0082D10D177
:103A300007E0FDF753FC03E0384602E0FDF77EFCAB
:103A400098B3626802EB4201814202D8B0EB023FB8
:103A500001D901267BE000276DB1022D0ED0042D87
:103A600013D0082D1AD00126434AA0F54071914287
:103A7000EFD821686AE0FDF731FC08E050083F49C3
:103A80000FE00023FCF79CFBEEE7FDF757FC6268B4
:103A9000010E0302500818187941F2E750084FF45C
:103AA0000001401847F10001EBE750E0E369834271
:103AB00026D1092D1DD2DFE805F00508121C151CC2
:103AC0001C1C1800FDF70AFC01E0FDF71FFC41007B
:103AD000606801EB5001B1FBF0F082B20AE02849C6
:103AE0006068F6E7FDF72AFCF1E74FF48031606883
:103AF000EFE7012622F00F00C2F342010843B8E7C6
:103B0000092DA6D2DFE805F006090C05120505050A
:103B10001C009EE7FDF7E2FB0AE0FDF7F7FB07E07C
:103B2000606807EB5002B2FBF0F00EE0FDF706FC18
:103B30000146606801EB5001B1FBF0F080B298E7FC
:103B4000626800EB5200B0FBF2F080B2C860304611
:103B5000BDE8F08100800040F369FFEF00380140CC
:103B6000001002400044004000480040004C00406B
:103B7000005000400024F400FFFC0F00000024F47B
:103B80000048E8012DE9F0411E46174688460446E4
:103B9000069D1CE0681C1AD025B1FDF791F9801B29
:103BA000A84214D92068016821F4D071016020680E
:103BB000816821F001018160202084F8690084F887
:103BC0006A00002084F868000320BDE8F0812068C6
:103BD000C16938EA010004D00020B842DAD00020E0
:103BE000F3E70120F9E7FEE703B4019841000098EC
:103BF00050EAC12018BF04204A0D18BF40F0010050
:103C000040F2FF72B2EB515F08BF40F002000128A2
:103C100008BF052002B070472DE9F04D2DED040BD3
:103C20002DED0C8B96B0DDE92350259CDDF888A0A6
:103C300025F0004624F00048BAF1000F14BF01211E
:103C4000002101EB4502FE4953184A1093422AD342
:103C5000002814BF0123002303EB44030B44F9495C
:103C60008B4220D358EA00019FEDF78B6FD0DFF82D
:103C7000E0B35D4503D1BAF1000F05D187E0BAF199
:103C8000000F08BF002100D0012101EB450111F513
:103C9000001F08D8002814BF0121002101EB4401B6
:103CA00011F5001F0BD99DED241B9DED220B16B0C5
:103CB000BDEC0C8B04B0BDE8F04D00F05DBE0027FC
:103CC000002DBCBFE349884521DAE3498845A8BFF8
:103CD00002271CDAC3451ADCE04901EB28511429FC
:103CE00008DDC1F1340220FA02F101FA02F2824247
:103CF0000DD108E058B9C1F1140228FA02F101FA15
:103D000002F2424503D101F00101C1F1020756EA76
:103D10000A011DD1002C1BDA002D18BF022F01D083
:103D2000012F0AD0022000F073FE16B0BDEC0C8B00
:103D300004B0BDE8F04D00F007BE022000F068FEC0
:103D400000F002FE51EC100B81F0004183E01EE018
:103D50009FEDC39B9FEDC4AB002872D1BD48804549
:103D60002DD105F1804010F5801008BFBAF1000F89
:103D70000DD0B34515DC002CA1BF9DED240B16B072
:103D8000BDEC0C8B04B0A8BFBDE8F08D12E0B0EE26
:103D9000480AF0EE680A16B0BDEC0C8B04B0BDE822
:103DA000F08D002C06DA9DED240B51EC100B81F008
:103DB000004150E0AE48784490ED000BEBE7D84569
:103DC0004FD1002C4ADA2EB186423BD1BAF1000F16
:103DD00044D126E0BAF1000F13D0022000F018FE03
:103DE00000F0E6FD8DED020B9DED220B8DED000B3D
:103DF00010EE900A039961F31E0003909DED020BF3
:103E0000C9E78DED029B9DED220B19EE901A10EE85
:103E1000900A8DED000B61F31E0003909DED020BE7
:103E2000B9E78DED02AB9DED220B1AEE901A10EE64
:103E3000900A8DED000B61F31E0003909DED020BC7
:103E4000A9E729E00ADA9DED220B51EC180B53EC9F
:103E5000102BFCF7F3F941EC100B9CE79DED220BC6
:103E600099E7864218DAB4F1804F0DD0A4F10050E2
:103E7000B0F1FF5010D1002D0EDB9DED220B51EC67
:103E8000100B00F02FFFE6E79DED220B53EC102BFB
:103E900051EC100B00F0AEBC9DED220B51EC100B61
:103EA00000F0BCFDBAF1000FCDE90C0134D19FED5B
:103EB000720BDEB1A6F1E040B0F17F602CD1002D95
:103EC00001DD002C0DDA002D01DD002C1FDB002DA3
:103ED00016DA002C14DB012F08BF9FED690B3FF4AD
:103EE0005AAFB0EE490AF0EE690A54E7022F18BF44
:103EF000002D0CD0012F0AD1002DFFF64CAF06E0AB
:103F0000002DB8BF002C07DA012F3FF444AFB0EE0C
:103F10004A0AF0EE6A0A3EE7012000EBE57A5AEA27
:103F200007000CD05848002580457CDD574958488B
:103F3000884514DDB0420DDB002C19DB2BE001209D
:103F400000F066FD16B0BDEC0C8B04B0BDE8F04D82
:103F500000F01EBDB34502DC002C09DC1BE08642EC
:103F600002DA002C17DA03E05E4527DD002C12DDB3
:103F7000022000F04DFD00F01BFD10EE901A19EE2E
:103F8000900A8DED020B8DED009B61F31E000390F6
:103F90009DED020BFFE6022000F03AFD00F018FD57
:103FA00010EE901A18EE900A8DED020B8DED008B3D
:103FB00061F31E0003909DED020BECE69DED220BDC
:103FC00053EC182B51EC100BFCF7EAFA9FED320B77
:103FD000CDE90A0153EC102B9DED0A0B51EC100BAF
:103FE000FCF7E4FA9FED2E1B53EC112BFCF7DBFAE8
:103FF0009DED0A1B53EC112BFCF7D8FA9FED2A1B01
:1040000053EC112BFCF7CFFA9DED0A0B41EC190B89
:1040100053EC102B51EC100BFCF7C8FA53EC192B96
:10402000FCF7C4FA00E07EE09FED210B41EC1A0B97
:1040300053EC102B9DED0A0B51EC100B3CE00000F3
:10404000FFFF1F00FFFF0F00000000000000F03F17
:104050000000F03F0000F07F0000404301FCFFFF44
:10406000000000000000F07F0000000000000000E1
:104070002E2800000000000000000000000000806A
:10408000000000000000F0FF0000E0410000F043ED
:10409000FFFFEF3F00000000000000000000D03FE5
:1040A000555555555555D53F000000000000E03FDF
:1040B000000000604715F73FFCF778FA41EC190B58
:1040C0009FEDFD0B51EC1A0B53EC102BFCF76EFA25
:1040D00041EC1A0B9FEDFA0B53EC102B9DED0A0BE4
:1040E00051EC100BFCF762FA53EC1A2BFCF758FA60
:1040F00041EC1A0B51EC190B53EC1A2BFCF7AFF9EE
:104100000690CDE906519DED060B53EC192B51ECB1
:10411000100BFCF745FA53EC1A2BFCF744FA41EC70
:10412000100B00F09FB90020B6F5801F0EDA9FED4E
:10413000E60B53EC102B9DED0C0B51EC100BFCF728
:1041400035FACDE90C016FF034000E4600EB265035
:10415000A0F2FF38C6F31300DD4940F07F6646F059
:1041600040568842D8BF002409DDDA498142C8BFE1
:10417000012404DC0024A6F5801608F10108D648C5
:10418000784400EBC4000D9690ED00BB9DED0C0B48
:1041900053EC1B2B51EC100BFCF702FA9DED0C0BB2
:1041A00041EC1A0B53EC1B2B51EC100BFCF757F99D
:1041B00041EC100B51EC180B53EC102BFCF73EF8B4
:1041C00041EC1C0B51EC1A0B53EC1C2BFCF7EEF9D9
:1041D00041EC190BC1488DED109B7844109590ED82
:1041E000000B4FF0005040EA660000EB84408DED7C
:1041F0000A0B00F500200B909DED0A0B53EC1B2BD6
:1042000051EC100BFCF7CCF99DED0C1B53EC112B72
:10421000FCF7C9F941EC100B53EC102B9DED100B82
:1042200051EC100BFCF7C2F99DED0A0B41EC1B0B96
:1042300053EC102B9DED100B51EC100BFCF7B6F965
:1042400053EC1A2BFCF7AFF953EC1B2BFCF7A8F936
:1042500053EC1C2BFCF7AAF941EC1B0B53EC192B6C
:1042600051EC190BFCF7A2F941EC1A0B9C48062102
:10427000B0EE4A0AF0EE6A0A784400F0E9FAB0EECD
:1042800040CAF0EE60CA53EC1A2B51EC1A0BFCF743
:104290008DF953EC1C2BFCF789F99DED100B41ECCB
:1042A0001A0B53EC192B51EC100BFCF7D8F853EC0C
:1042B0001B2BFCF77BF953EC1A2BFCF7D0F89DED88
:1042C000100B41EC1A0B53EC102B51EC100BFCF7BC
:1042D0006DF941EC1C0B9FED84DB53EC1D2BFCF7BF
:1042E000BEF853EC1A2BFCF7BAF80A90CDE90A5144
:1042F0009DED0A0B53EC1D2B51EC100BFCF750F904
:1043000053EC1C2BFCF74CF953EC1A2BFCF74BF934
:104310009DED0A0B41EC1C0B53EC102B9DED100B8B
:1043200051EC100BFCF742F941EC1A0B53EC192B32
:1043300051EC1C0BFCF73AF99DED0A0B41EC190B03
:1043400053EC102B51EC1B0BFCF730F953EC192BF1
:10435000FCF785F841EC190B51EC1A0B53EC192BB7
:10436000FCF77DF81090CDE910519DED100B53EC4A
:104370001A2B51EC100BFCF713F953EC192BFCF72B
:1043800012F941EC190B9FED5A0B53EC102B9DEDDC
:10439000100B51EC100BFCF709F941EC1A0B9FEDD7
:1043A000560B51EC190B53EC102BFCF7FFF841ECBA
:1043B000190B9FED530B53EC102B9DED100B51EC93
:1043C000100BFCF7F3F853EC192BFCF748F841EC11
:1043D000100B4D48784400EBC40090ED001B51ECED
:1043E000100B53EC112BFCF73AF841EC190B40463B
:1043F000FCF765F9CDE90A0153EC192B51EC1A0BC6
:10440000FCF72DF841EC100B4048784400EBC40059
:1044100090ED00BB51EC100B53EC1B2BFCF71FF87D
:104420009DED0A1B53EC112BFCF719F80690CDE912
:1044300006519DED0A0B53EC102B9DED060B51EC34
:10444000100BFCF7ADF853EC1B2BFCF7A9F853EC61
:104450001A2BFCF7A5F853EC192BFCF7A4F841EC48
:10446000100B00BF781EB0EE48AAF0EE68AA5AEA18
:10447000000008BF9FED268B9DED241B53EC102BF5
:104480008DED001B00959DED240B51EC100BFCF7FE
:104490008DF89DED000B41EC190B53EC102B9DEDAD
:1044A000240B51EC100BFCF77BF89DED061B53EC35
:1044B000112BFCF77BF82FE0FE822B654715F73FA9
:1044C00044DF5DF80BAE543E0000000000004043A6
:1044D0008E9803007AB60B00DC2300000A2400004B
:1044E000142300000000000000000000000008404D
:1044F000000000E009C7EE3FFD033ADC09C7EE3FCC
:10450000F5015B14E02F3EBEA821000062210000EF
:10451000000000000000F0BF53EC192BFBF79FFFD9
:104520009DED060B41EC190B53EC102B9DED000B90
:1045300051EC100BFCF73AF8CDE910019DED100B92
:1045400051EC190B53EC102BFBF789FFCDE902015D
:104550000C46AB498C422FDB611A084318D19DED04
:10456000100B53EC102B9DED020B51EC100BFCF7D4
:1045700017F841EC1B0B9FEDA40B51EC190B53ECFE
:10458000102BFBF76CFF53EC1B2BFCF7A9F82DD27B
:10459000022000F03DFA00F00BFA10EE901A18EE2F
:1045A000900A8DED020B8DED008B61F31E000390E0
:1045B0009DED020BFFF7EFBB954A24F000419142BD
:1045C00014D39449214408437FF4E5AC9DED100BCE
:1045D00053EC102B9DED020B51EC100BFBF7E0FFA1
:1045E00053EC192BFCF77CF87FF6D5AC24F0004097
:1045F00089498A4A002601EB205182422BDA481C65
:104600004FF4801121FA00F02044854AC0F30A518A
:104610007A44A1F2FF3192ED000B824A8DED0A0B34
:10462000CA4020EA0202C0F3130040F48010C1F136
:10463000140120FA01F60B92002CB8BF76429DEDD2
:104640000A0B53EC102B9DED100B51EC100BFBF7EC
:10465000A7FFCDE910019DED100B51EC190B53ECA8
:10466000102BFBF7FCFE9FED700B0A90CDE90A5171
:1046700053EC102B9DED0A0B51EC100BFBF796FF42
:1046800041EC1B0B9FED6A0B53EC102B9DED0A0BBD
:1046900051EC100BFBF78AFF9DED100B41EC1C0B4E
:1046A00053EC102B9DED0A0B51EC100BFBF778FF30
:1046B00053EC192BFBF777FF9FED5F1B53EC112B8E
:1046C000FBF774FF53EC1C2BFBF7C9FE41EC190BF5
:1046D00051EC1B0B53EC192BFBF7C1FECDE902018A
:1046E0009DED020B53EC1B2B51EC100BFBF758FF0D
:1046F00053EC192BFBF757FF9DED020B41EC190B07
:1047000053EC102B51EC100BFBF750FFCDE90A01D5
:104710004B489DED0A0B0521784400F099F89DED7A
:104720000A1B51EC100B53EC112BFBF73FFF9DEDD7
:10473000021B53EC112BFBF736FFCDE906019DED73
:10474000020B53EC192B51EC100BFBF72FFF53EC22
:10475000192BFBF784FE9FED3C0B41EC190B53EC3E
:10476000102B9DED060B51EC100BFBF719FF9DED87
:10477000060B41EC1B0B53EC102B9DED020B51EC87
:10478000100BFBF713FF53EC1B2BFBF757FD53EC00
:10479000192BFBF705FF9DED021B53EC112BFBF7CB
:1047A000FFFE53EC1A2BFBF7FEFECDE9020101EBF5
:1047B000065001150029C8BF039015DC9DED020BC2
:1047C000324651EC100BFBF763FFFFF70DFA04289C
:1047D00008BF00F0FDF832469DED020B51EC100BC6
:1047E000FBF756FFCDE902019DED020B51EC180BD2
:1047F00053EC102BFBF7DAFEFFF72DBB0000000097
:104800000000904000000000FE822B654715973C99
:1048100000CC904000346F3F01FCFFFF0000E03F00
:10482000D41F0000FFFF0F0000000000432EE63FF2
:10483000396CA80C615C20BEEF39FAFE422EE63FCF
:10484000A41E000000000000000000000000004066
:1048500070B504462DED028B4D1E00EBC500B0EE89
:10486000408AF0EE608A90ED000B35F0060017D01C
:1048700053EC182B51EC100BFBF798FE41EC100B8E
:104880006D1E04EBC50090ED001B51EC100B53ECBA
:10489000112BFBF7E4FD41EC100B35F00600E7D1DE
:1048A000022D36D0042D1CD0062D1CBFBDEC028B72
:1048B00070BD53EC182B51EC100BFBF777FE94ED09
:1048C0000A1B53EC112BFBF7CAFD53EC182BFBF71B
:1048D0006DFE94ED081B53EC112BFBF7C0FD41EC72
:1048E000100B53EC182B51EC100BFBF75FFE94ED03
:1048F000061B53EC112BFBF7B2FD53EC182BFBF707
:1049000055FE94ED040B53EC102BFBF7A8FD41EC86
:10491000100B53EC182B51EC100BFBF747FE94EDEA
:10492000021B53EC112BFBF79AFD53EC182BFBF7F2
:104930003DFE94ED001B53EC112BFBF790FDBDECFD
:10494000028B41EC100B70BD9FED070B10B553ECC3
:10495000102B9FED070B51EC100BFBF76FFC41EC9C
:10496000100B10BD0000000000000000000000005F
:10497000000000000000F03F10B553EC112B51EC8B
:10498000100BFBF76CFD41EC100B10BD000000009C
:104990009FED050B10B553EC102B51EC100BFBF7F2
:1049A0004DFC41EC100B10BD0000000000000000A9
:1049B0009FED050B10B553EC102B51EC100BFBF7D2
:1049C000F5FD41EC100B10BD000000000000007070
:1049D0009FED050B10B553EC102B51EC100BFBF7B2
:1049E000E5FD41EC100B10BD0000000000000010C0
:1049F00002E008C8121F08C1002AFAD170477047A8
:104A0000002001E001C1121F002AFBD17047000005
:104A100001490860704700006400002082B0CDE9C1
:104A2000000121F0004001909DED000B02B051EC1F
:104A3000100B704708B5FCF751FAFEF7C6FDFDF7FD
:104A4000A3FBFDF75FFBFBF7D9FEFDF7B9FCFDF714
:104A50005BFC8648006886490860042008710920CC
:104A60004871022088711620C87100200872012048
:104A7000487200208872082088810A208873FEF717
:104A800019FD58B109E0FDF767FC182379A2002150
:104A90000846FDF71FFEFDF763FDF4E7FEF70EF98C
:104AA00073484079401F082825D2DFE800F0040849
:104AB0000C1014181C200520704908701BE00620FB
:104AC0006E49087017E007206C49087013E0082051
:104AD0006A4908700FE00920684908700BE00A2055
:104AE0006649087007E00B206449087003E00C2059
:104AF0006249087000BF00BF0C2361A20021084674
:104B0000FDF7E8FD0C2000905948092300210268B8
:104B10003020FDF7A3FD0C235EA219460020FDF70F
:104B2000D9FD0C2002230090544802780C21122059
:104B3000FDF794FD0C2358A219462A20FDF7CAFD63
:104B40000C2003230090554890ED000ABCEEC00AEB
:104B500010EE102A0C213C20FDF780FD0C2350A202
:104B600018210020FDF7B6FD0C2351A224210020BE
:104B7000FDF7B0FD0C234CA224213C20FDF7AAFD3B
:104B80000C234DA230210020FDF7A4FD0C200323AF
:104B900000904A48028830210C20FDF75FFD0C236D
:104BA00047A230212420FDF795FD0C20032300901F
:104BB0004448028830210846FDF750FD0C2342A2EC
:104BC00030214820FDF786FD0C20032300903F484C
:104BD000028830215420FDF741FDFDF7C1FC002281
:104BE0004FF480613A48FCF766F901218803FCF72D
:104BF0008FFA40F2DC50FDF75FFB3648FDF76EF8A8
:104C00003448FDF75FF82FE03348B0F90000002882
:104C100016DA0C2331A218215420FDF75BFD2E4833
:104C20000088404200B22C4908800C2004230090E8
:104C30000846B0F9002018215A20FDF70FFD0FE0BB
:104C40000C2327A218215420FDF744FD0C20042337
:104C500000902148B0F9002018215A20FDF7FEFCF1
:104C6000FCF74EFAFDF77CFCCEE700003000002098
:104C7000100000204552526F520000004A000020F0
:104C80004C4F52412D54583A2020202020202020E3
:104C900020487A0053463A0042573A000800002064
:104CA00043757272656E745F525353493A00000047
:104CB000534E523A00000000543A000044000020D5
:104CC000523A000046000020453A0000480000200B
:104CD000000C0048680000205C0000202D0000004F
:104CE0002000000000B52DED048B83B041EC190BC2
:104CF000FBF732FD41EC180B18EE100A18EE901A73
:104D00008DED008B002818BF0120084320F00040E3
:104D1000C0F17F6000F1E040C00F14D019EE101A0E
:104D200019EE900A8DED009B002918BF0121084360
:104D300020F00040C0F17F6000F1E040C00F04BFF0
:104D40000120FFF765FE51EC180B03B0BDEC048B9E
:104D500000BD000000000000000000000000000096
:104D600000003F4000000000000000003000400054
:104D700030004000000009000BC03D000BC03D00AA
:104D8000090018C024407FE0224031800000180054
:104D900024C01B000D803240018003801C4027404E
:104DA0001C80074000401000600000000000000070
:104DB00000000000000000001F8020404020000094
:104DC000402020401F8000000000090006001F80D6
:104DD000060009000000040004003F8004000400F5
:104DE000000000100060000000000000000004004F
:104DF0000400040004000400000000000040000063
:104E0000000000000000002001C006003800400043
:104E100000001F802040204020401F800000000034
:104E200010403FC000400000000018C02140224058
:104E300024401840000010802040244024401B8063
:104E4000000002000D0011003FC0014000003C8046
:104E5000244024402440238000001F80244024401C
:104E60003440038000003000200027C038002000BC
:104E700000001B802440244024401B8000001C00B4
:104E800022C0224022401F80000000000000084095
:104E900000000000000000000000046000000000AE
:104EA0000000000004000A001100208040400900BA
:104EB00009000900090009000000000040402080AE
:104EC00011000A00040018002000234024001800EC
:104ED00000001F802040274029401F400000004064
:104EE00007C039000F0001C0004020403FC02440EF
:104EF00024401B8000001F80204020402040308044
:104F0000000020403FC0204020401F800000204083
:104F10003FC024402E4030C0000020403FC024400D
:104F20002E00300000000F0010802040224033800F
:104F3000020020403FC0040004003FC02040204049
:104F400020403FC020402040000000602020202062
:104F50003FC02000200020403FC024400B0030C054
:104F6000204020403FC020400040004000C03FC0E3
:104F70003C0003C03C003FC0000020403FC00C404C
:104F800023003FC020001F802040204020401F8081
:104F9000000020403FC024402400180000001F8073
:104FA0002140214020E01FA0000020403FC02440BD
:104FB000260019C0004018C02440244022403180FF
:104FC0000000300020403FC02040300000002000A2
:104FD0003F80004000403F80200020003E0001C094
:104FE000070038002000380007C03C0007C0380028
:104FF0000000204039C0060039C0204000002000D9
:10500000384007C0384020000000304021C0264012
:10501000384020C00000000000007FE04020402019
:105020000000000070000C00038000400000000041
:10503000402040207FE000000000000020004000F1
:1050400020000000000000100010001000100010F0
:105050000010000000004000000000000000000000
:1050600002800540054003C0004020003FC00440CE
:105070000440038000000000038004400440064018
:10508000000000000380044024403FC000400000B6
:1050900003800540054003400000000004401FC09D
:1050A000244024402000000002E005500550065036
:1050B000042020403FC00440040003C00040000022
:1050C000044027C000400000000000100010041041
:1050D00027E00000000020403FC00140070004C05E
:1050E0000440204020403FC000400040000007C076
:1050F000040007C0040003C00000044007C00440CF
:10510000040003C00040000003800440044003800A
:105110000000041007F00450044003800000000069
:1051200003800440045007F00010044007C0024010
:10513000040004000000000006400540054004C0D3
:105140000000000004001F80044000400000040034
:1051500007800040044007C000400400070004C06E
:10516000018006000400060001C0070001C006001F
:105170000000044006C0010006C004400000041006
:10518000071004E00180060004000000044005C090
:105190000640044000000000000004007BE04020C6
:1051A0000000000000000000FFF000000000000010
:1051B00040207BE004000000000040008000400030
:1051C000200020004000000000000000000000005F
:1051D0000000000000000000000000001FCC000CD8
:1051E000000000000000000008003000600008001F
:1051F000300060000000022003FC1E20022003FC9F
:105200001E200220000000000E1811043FFF108431
:105210000C78000000000F0010840F3800C00778E1
:1052200018840078000000780F8410C411240E98B0
:1052300000E400840008080068007000000000001E
:1052400000000000000000000000000007E0181847
:10525000200440020000000040022004181807E06B
:105260000000000000000240024001800FF00180B9
:105270000240024000000080008000800FF80080A3
:105280000080008000000001000D000E0000000002
:10529000000000000000000000800080008000800E
:1052A0000080008000800000000C000C0000000066
:1052B00000000000000000000006001800600180EF
:1052C000060018002000000007F008081004100471
:1052D000080807F000000000080408041FFC000490
:1052E00000040000000000000E0C101410241044F4
:1052F00011840E0C000000000C181004110411049D
:1053000012880C700000000000E003200424082430
:105310001FFC0024000000001F98108411041104D9
:10532000108810700000000007F0088811041104B4
:1053300018880070000000001C00100010FC130012
:105340001C001000000000000E381144108410846E
:1053500011440E38000000000700088C104410446F
:10536000088807F00000000000000000030C030C98
:105370000000000000000000000000010106000025
:105380000000000000000000008001400220041026
:10539000080810040000022002200220022002203F
:1053A000022002200000000010040808041002205F
:1053B00001400080000000000E001200100C106C74
:1053C00010800F00000003E00C1813E4142417C42D
:1053D000082807D000000004003C03C41C4007401C
:1053E00000E4001C000410041FFC1104110411044B
:1053F0000E880070000003E00C1810041004100464
:1054000010081C10000010041FFC100410041004ED
:10541000080807F0000010041FFC1104110417C451
:1054200010040818000010041FFC1104110017C01C
:1054300010000800000003E00C18100410041044D1
:105440001C780040000010041FFC108400800080C5
:1054500010841FFC10040000100410041FFC100432
:1054600010040000000000030001100110011FFEE5
:1054700010001000000010041FFC110403801464CD
:10548000181C1004000010041FFC10040004000489
:105490000004000C000010041FFC1F0000FC1F0093
:1054A0001FFC1004000010041FFC0C04030000E0AB
:1054B00010181FFC100007F0080810041004100456
:1054C000080807F0000010041FFC108410801080F2
:1054D00010800F00000007F0081810241024101C82
:1054E000080A07F2000010041FFC1104110011C08B
:1054F00011300E0C000400000E1C110410841084E6
:1055000010441C3800001800100010041FFC100488
:1055100010001800000010001FF810040004000420
:1055200010041FF8100010001E0011E0001C007095
:1055300013801C0010001FC0103C00E01F0000E0A2
:10554000103C1FC000001004180C163401C001C02C
:105550001634180C100410001C00130400FC130473
:105560001C00100000000804101C106410841304B8
:105570001C04101800000000000000007FFE400224
:10558000400240020000000030000C000380006078
:10559000001C0003000000004002400240027FFEA9
:1055A000000000000000000000002000400040005B
:1055B0004000200000000001000100010001000186
:1055C0000001000100010000400040002000000038
:1055D0000000000000000000009801240144014484
:1055E000014400FC000410001FFC008801040104B9
:1055F00000880070000000000070008801040104B1
:10560000010400880000000000700088010401040B
:1056100011081FFC0004000000F80144014401448B
:10562000014400C800000000010401040FFC110443
:10563000110411001800000000D6012901290129D8
:1056400001C90106000010041FFC008401000100D4
:10565000010400FC000400000104190419FC00040A
:105660000004000000000000000300010101190116
:1056700019FE0000000010041FFC0024004001B4CB
:10568000010C010400000000100410041FFC0004C1
:10569000000400000000010401FC0104010001FC01
:1056A0000104010000FC010401FC00840100010070
:1056B000010400FC0004000000F8010401040104DE
:1056C000010400F80000010101FF0085010401044C
:1056D00000880070000000000070008801040104D0
:1056E000010501FF00010104010401FC0084010423
:1056F000010001800000000000CC012401240124ED
:1057000001240198000000000100010007F80104D5
:10571000010400000000010001F80004000400047E
:10572000010801FC0004010001800170000C001060
:1057300001600180010001F0010C003001C0003067
:10574000010C01F0010000000104018C00740170E3
:10575000018C01040000010101810171000E00189B
:1057600001600180010000000184010C013401444A
:105770000184010C00000000000000000000010096
:105780003EFC400240020000000000000000FFFF5D
:105790000000000000000000400240023EFC01004A
:1057A0000000000000000000600080008000400059
:1057B0004000200020000000000000000000000069
:1057C00000000000000000000000000000000000D9
:1057D00000000000000000000000000000000000C9
:1057E0000000000000000000000F80380FFE380F9E
:1057F00080380000000000000000000000000000F1
:10580000000000000100000600000C00003800004D
:105810003100000600000C000038000030000000DD
:1058200000000000000061800067F807F980006157
:10583000800061800061800061800067F807F98066
:1058400000618000000000000000000001C0E003D3
:10585000E0F00630080418081FFFFE040E08078752
:10586000F00381E000000000000001F000060C00E1
:10587000040408060C7001F9C0000E00003BE000B3
:10588000EC18070808040C180003E00000000001F1
:10589000E00007F003F818041C0804170807E1D01B
:1058A00003C0E00023B0003C080020080000100006
:1058B00000000000000100003100003200001C0068
:1058C00000000000000000000000000000000000D8
:1058D00000000000000000000000000000000000C8
:1058E0000000000000007F0001FFC00780F00C00F6
:1058F0001810000420000200000000000020000238
:105900001000040C00180780F001FFC0007F0000A9
:105910000000000000000000000000000000000087
:1059200000004200006600006600003C0000180015
:1059300003FFC0001800003C000066000066000085
:1059400042000000000008000008000008000008F5
:105950000000080001FFC000080000080000080067
:1059600000080000080000000000000100003100F5
:10597000003200001C0000000000000000000000D9
:10598000000000000000000000000000000008000F
:1059900000080000080000080000080000080000DF
:1059A00008000008000008000008000000000000D7
:1059B000000000000000380000380000380000003F
:1059C00000000000000000000000000000000000D7
:1059D000000000000000000600001C000070000134
:1059E00080000E0000380000C0000700001C00000E
:1059F000300000000000000000007F8001FFE00395
:105A000080700600180400080400080600180380CF
:105A10007001FFE0007F8000000000000000000037
:105A200001000801000801000803FFF807FFF80063
:105A3000000800000800000800000000000000004E
:105A40000001C03802C0580400980401180402186C
:105A5000040418061C1803F81801E0F80000000000
:105A6000000000000001C0E003C0F00400080408CA
:105A70000804080806180803F41801E7F00001E01C
:105A8000000000000000000000000300000D000006
:105A9000110000610000810803010807FFF80FFFF3
:105AA000F80001080001080000000000000000E00C
:105AB00007FCD0060808061008061008061008069D
:105AC0001838060FF00607C00000000000000000B4
:105AD00000003F8001FFE003843002081804100832
