:020000040800F2
:10000000900A00209D010008AF2100080720000889
:10001000AD210008F9070008833A0008000000003D
:10002000000000000000000000000000732A00082B
:100030000708000800000000D32500087D380008EC
:10004000B7010008B7010008B7010008B7010008B0
:10005000B7010008B70100080908000817080008E0
:10006000B70100082F08000831080008B701000890
:10007000B7010008B7010008B7010008B701000880
:10008000B7010008B7010008B7010008B701000870
:10009000B7010008B7010008B701000849080008C7
:1000A000B7010008B7010008B7010008B701000850
:1000B000B70100084939000855390008B7010008A0
:1000C000B7010008B7010008B7010008B701000830
:1000D000B7010008B7010008B7010008B701000820
:1000E0000F080008B7010008B7010008B7010008B1
:1000F000B7010008B7010008B7010008B701000800
:10010000B7010008B7010008B7010008B7010008EF
:10011000B7010008B7010008B7010008B7010008DF
:10012000B7010008B7010008B7010008B7010008CF
:10013000B7010008B7010008B7010008B7010008BF
:10014000B7010008B7010008B7010008B7010008AF
:10015000B7010008B7010008B7010008B70100089F
:10016000B7010008B7010008B7010008B70100088F
:10017000B7010008B7010008B7010008000000003F
:10018000B7010008B7010008DFF80CD000F08CFAC6
:10019000004800471D490008900A00200648804793
:1001A00006480047FEE7FEE7FEE7FEE7FEE7FEE75C
:1001B000FEE7FEE7FEE7FEE70539000889010008D3
:1001C00030B504460020034600E05B1C934203D296
:1001D000E05CCD5C401BF8D030BD2DE9FE4F81EADC
:1001E000030404F0004421F0004100944FF0000BA0
:1001F00023F0004350EA01045ED052EA03045BD0CE
:10020000C3F30A54C1F30A552C44A4F2F334019405
:10021000A0FB0254C1F3130141F48011C3F3130393
:1002200043F4801301FB024400FB034E840A970A47
:1002300044EA815447EA8357A4FB076802958D0A74
:1002400005FB07854FEA932C04FB0C542705029D00
:100250004FEA065847EA1637B5EB08056EEB070C70
:10026000870E920E47EA811742EA8312A7FB02012A
:10027000B6EB0B0164EB00042B0D43EA0C335E1864
:1002800044EB1C50DA465146E7FB0201C5F3130468
:100290004FEA0B3343EA14534FEA0432019C43EA1A
:1002A0000603A4F10C040294009CCDE900B400F014
:1002B000BDF803B000F003B800200146F9E730BCF8
:1002C000BDE8C08F2DE9F04D81EA030404F0004B36
:1002D00021F0004514464FF0000A23F0004150EA97
:1002E000050220D054EA01021DD0C5F30A57024688
:1002F000C5F31303C1F31300C1F30A5640F480158C
:1003000043F48013A7EB0608101BD64608F2FD380D
:1003100073EB050002D308F1010801E092185B417C
:10032000B8F1000F03DA00200146BDE8F08D00208F
:100330004FF48011064684460EE0171B73EB050749
:1003400005D3121B63EB050306434CEA010C490875
:100350004FEA300092185B4150EA0107EDD152EAB2
:10036000030012D082EA040083EA0501084305D0A5
:10037000101BAB4106D20122002306E000224FF001
:10038000004302E06FF0010253101AEB06004CEB41
:10039000085110EB0A0041EB0B01BDE8F04D00F0F5
:1003A00036B80EB540F2334102910021CDE900117B
:1003B0000A460B4600F03AF803B000BDC1F30A52FA
:1003C00010B5C1F3130140F2FF3341F480119A429A
:1003D00001DA002010BD40F233439A42A2F23342C8
:1003E00003DC524200F003F810BD904010BD202AFB
:1003F00004DB203A21FA02F00021704721FA02F3CF
:10040000D040C2F12002914008431946704710B510
:10041000141E73F1000408DA401C41F10001921827
:100420005B411A4301D120F0010010BD2DE9F04DD0
:1004300092469B4611B1B1FA81F202E0B0FA80F225
:100440002032904600F042F904460F4640EA0A0086
:1004500041EA0B0153465A46084313D0114653EA6A
:10046000010019D0C8F140025046FFF7C0FF054611
:100470000E4650465946424600F028F9084305D03A
:10048000012004E020463946BDE8F08D00200543F8
:1004900046EAE0762C4337430A986305E40AA0EB6A
:1004A00008000022FD0A44EA47540A3002D5002021
:1004B0000146E9E7010510196941DDE90845001920
:1004C0006941BDE8F04DA2E72DE9FE4F804681EA83
:1004D0000300C00F0C46009021F0004123F00045BE
:1004E000B8EB0200A94105D24046214690461C4681
:1004F0000B46024623F00040104347D0270DC7F3B8
:100500000A00C3F30A510290401A019040286BDAA6
:10051000C3F3130040F4801B0098924620B10023DF
:10052000D2EB030A63EB0B0B01985946C0F1400272
:10053000504600F0CBF806460D4650465946019A03
:1005400000F0D3F810EB08006141002487EA115253
:1005500084EAE7731A4340D0009A62B3019A012AF1
:100560004FEA075215DC001B61EB02014FF000421D
:1005700002EA0752CDE90042001C41F580113246E3
:100580002B46FFF753FF03B000F045B84046214625
:10059000F9E7001B61EB0201001C41F58013001814
:1005A0005B412018A2F5001747EB030140EAD57024
:1005B000B6196D4111E06D084FEA360645EAC0757F
:1005C0004FEA0752001B61EB0201001C41F580114C
:1005D00049084FEA30000019514132462B4603B01A
:1005E00000F01CB8FFF713BF009801224000002361
:1005F000D0EB020263EBE073009821464FEAE0740F
:10060000B8EB000061EB0401E9E783F000435BE72E
:1006100081F0004158E730BCBDE8C08F30BCBDE878
:10062000C04FFFF7DFBF70B521F0004303430CD08C
:10063000C1F30A550024D5EB040564EB0403D61777
:10064000AD1AB34102DB0020014670BD201841EB1A
:10065000025170BD0EB5C10F80EAE0700844CA07B0
:10066000002140F233438DE80E000A460B46FFF7A7
:10067000DDFE03B000BD000030B5041E71F10004C2
:1006800004DB4FF00044404264EB0101141E73F19F
:10069000000405DB1C464FF00043524263EB0403A9
:1006A000994208BF904230BD064C074D06E0E06815
:1006B00040F0010394E8070098471034AC42F6D3A9
:1006C000FFF766FDF065000810660008202A04DBCD
:1006D000203A00FA02F1002070479140C2F1200355
:1006E00020FA03F3194390407047202A06DBCB170A
:1006F000203A41FA02F043EAE07306E041FA02F3DD
:10070000D040C2F1200291400843194670472DE9BC
:10071000F04D00231A461B1A8A4103DB00200146D4
:10072000BDE8F08DC1F30A52C1F3130141F4801505
:100730004FF0000BD10702D100186D41521E002767
:10074000044640F2FF11384601EB620A3E468046FD
:10075000024600204FF48011FFF749FEC219714193
:10076000BB1846EB0100B4EB030C75EB000C04D393
:10077000E41A65EB000517460E46241908F101003E
:100780006D4180463428E3DDF91946EB0600091B6C
:10079000A84103D24FF0FF32134601E00022134676
:1007A0001BEB070046EB0A51BDE8F04DFFF72FBEEB
:1007B00030B50F4887B0C16C41F00801C164C06C0E
:1007C0004FF4806400F0080005900120CDE900405E
:1007D0000020084D029003906946284600F06AF90F
:1007E00000222146284600F053FA07B030BD000031
:1007F00000100240000C0048FEE702F095B902F03C
:1008000096B902F069B97047012000F047B94FF47A
:10081000004000F043B910B5072000F0ADFA022007
:1008200000F03CF9BDE81040072000F0B0BA704776
:1008300010B50A2000F0A0FA102000F02FF9BDE852
:1008400010400A2000F0A3BA4FF4407000F026B91F
:1008500070B5044600F022FA0546601C00D0641C06
:1008600000F01CFA401BA042FAD370BD38B5054613
:100870004FF400417B4800F006FA00285CD132209A
:10088000FFF7E6FF4FF40041764800F0FCF900283E
:1008900052D1754801F062FA74480078401C7349DF
:1008A000087008460078012804D002280CD00328DC
:1008B0001CD113E04FF496506D49886041F28830A6
:1008C000C8608000486112E04FF4164068498860B3
:1008D00049F64040C8608000486108E065486449C6
:1008E00088604010C8608000486100E000BF00BF21
:1008F0000C2000905E4806230C218268302001F015
:10090000ECFD0C2000905A4806231821C2681E20D6
:1009100001F0E3FD0C200090554806232421426994
:100920003C2001F0DAFD01F057FD50480078032823
:1009300002DD00204D4908704FF480714E4800F0F0
:10094000A2F968BB3220FFF783FF4FF480714A4859
:1009500000F099F920BB444801F000FAFFF74DFF81
:1009600046480078401C40B244490870444891F918
:10097000001050F821003E4908600C200090084605
:100980000923002102682A2001F0A7FD01F024FDBF
:100990003A4890F90000042802DBFF20374908702C
:1009A0004FF40071344800F06EF900283ED1322037
:1009B000FFF74EFF4FF400712F4800F064F9A8BB19
:1009C00002F0B0FE58B109E001F002FC18232DA29C
:1009D0000021084601F0C0FD01F0FEFCF4E7002014
:1009E0002A4908802A4908802A4908800C200323C4
:1009F00000902648028830210C2001F06EFD0C206A
:100A000003230090224802883021084601F065FD4A
:100A10000C20032300901F4802883021542001F04D
:100A20005CFD01F0D9FC104801F088F9FFF7E9FE00
:100A3000012815D102F005FB04464FF6FF7002F0C5
:100A4000B6FA04F0010018B102201349087006E05C
:100A500004F04200022802D101200F49087000BFB3
:100A600038BD000000040048CC000020C400002075
:100A70001000002090D00300000C0048C5000020AA
:100A8000A400002045526F5200000000B800002072
:100A9000BA000020BC000020C3000020044910B5AB
:100AA0000A68024202D00860FFF7E0FE10BD0000B5
:100AB000140401402DE9F84FDFF8A091002209F15C
:100AC000040A0AF1040B4FF00F080BF1040EBEE00C
:100AD00001249440234075D04D68022D01D0122D81
:100AE00011D1D50800EB85073E6A5507ED0E08FACF
:100AF00005FC26EA0C06D1F810C00CFA05FC4CEAFD
:100B0000060CC7F820C007685500032691F804C0FA
:100B1000AE400CF0030CB7430CFA05FC4CEA070C92
:100B2000C0F800C04F68012F05D0022F03D0112F4D
:100B300001D0122F15D18768D1F80CC0B7430CFA39
:100B400005FC4CEA070CC0F808C0476891F804C0DF
:100B5000A743CCF3001C0CFA02FC4CEA070CC0F8CB
:100B600004C0D1F804C06FEA0C07BF0706D1C76AFA
:100B7000A743CCF3C00494403C43C462C468B4436C
:100B80008E68AE402643C6604C68E4005ED5344CA7
:100B9000256E45F001052566246E22F0030504F05C
:100BA000010400942F4C2E19B7689407250F08FAFA
:100BB00005F4A743B0F1904F05D02B4CA04204D1CF
:100BC00001241CE042E0002419E0284CA04201D19D
:100BD000022414E0264CA04201D103240FE0254C4E
:100BE000A04201D104240AE0234CA04201D10524F3
:100BF00005E0224CA04201D1062400E00724AC40CD
:100C00003C43B460D9F800404D464E689C43F6031F
:100C100000D51C432C60DAF8004055464E689C43D2
:100C2000B60300D51C432C60DBF800405D464E68DF
:100C30009C43F60200D51C432C60DEF8004075464C
:100C40004E689C43B60200D51C432C60521C0B68B6
:100C500033FA02F47FF43CAF00F012B80004014014
:100C60000010024000000140000400480008004855
:100C7000000C00480010004800140048001800480C
:100C800018BCBDE8E08F0069084000D00120704723
:100C90000AB18161704781627047000001480068B5
:100CA000704700000000002002480168491C0160F4
:100CB000704700000000002010B5032000F092F8FB
:100CC000002000F005F800F017F8002010BD00002B
:100CD00010B5044607484FF47A710068B0FBF1F094
:100CE00000F098FF00222146501E00F05BF8002023
:100CF00010BD0000340000201E4808B5016E41F010
:100D000001010166016E01F001010091816D41F068
:100D100080518165806D00F080500090032000F0CC
:100D200061F8002211466FF00B0000F03BF8002242
:100D300011466FF00A0000F035F8002211466FF0FE
:100D4000090000F02FF800221146501F00F02AF889
:100D500000221146101F00F025F800221146901EB7
:100D600000F020F80022BDE808401146501E00F0B7
:100D700019B800000010024000F01F02012191404C
:100D80004009800000F1E020C0F88011704700F0B9
:100D90001F02012191404009800000F1E020C0F8CD
:100DA00000117047F0B40E4B1B68C3F30223C3F16C
:100DB0000704042C00D904241D1D072D01D2002393
:100DC00000E0DB1E012606FA04F56D1E0D409D4075
:100DD0009E40761E164045EA0601F0BC01F0E8B9D7
:100DE0000CED00E0064A00F0070110684FF6FF0323
:100DF000184040EA01200349084310607047000092
:100E00000CED00E00000FA051549B0F5007F086818
:100E1000C0F3412009D0022805D0086820F4C06042
:100E200040F480600860002070470128FBD008680B
:100E300020F4C06040F4007008600A480A4A006864
:100E4000B0FBF2F03222504300E0401E10B14A697C
:100E50005205FAD448694005E5D5032070470000E3
:100E6000007000403400002040420F00024800683B
:100E700000F4C06070470000007000402DE9F84F9A
:100E8000044600250088E44E2F46010504F1200B9E
:100E90001DD5606E78B1B0F5800F11D0B0F5000FA0
:100EA00004D0B0F5400F22D001250FE0F06840F4E7
:100EB0008030F0601BE00021201D01F08BFB03E07F
:100EC0000021584601F03CFC050010D02F46208838
:100ED000C00426D5A06EC0B1B0F1807F1AD0B0F1A9
:100EE000007F0DD0B0F1407F19D0012518E0D6F871
:100EF0008800616E20F440000843C6F88800E6E7E9
:100F0000F06840F48030F06009E00021201D01F01D
:100F100061FB03E00021584601F012FC0546F5B1E3
:100F20002F462068800366D5B06D4FF00009C000E1
:100F300009D4B06D40F08050B065B06D4FF001093C
:100F400000F080500090DFF8D4A2DAF8001041F4ED
:100F50008071CAF80010FFF7A1FE804610E0D6F8B5
:100F60008800A16E20F040700843C6F88800D8E7DA
:100F7000FFF794FEA0EB0800022801D9032532E018
:100F8000DAF80000C005F3D56DBBD6F8900010F478
:100F9000407015D0D4F88410814211D0D6F890005A
:100FA000D6F8901020F4407041F48031C6F89010CB
:100FB000D6F8901021F48031C6F89010C6F8900051
:100FC000C0074ED0FFF76AFE804641F2883A05E03E
:100FD000FFF764FEA0EB08015145CFD8D6F890008A
:100FE0008007F5D5EDB32F46B9F1000F03D0B06DF2
:100FF00020F08050B0652078C00707D0D6F8880070
:10100000A16B20F003000843C6F888002078800711
:1010100007D5D6F88800E16B20F00C000843C6F82D
:1010200088002078400707D5D6F88800216C20F08A
:1010300030000843C6F888002078000707D5D6F8A6
:101040008800616C20F0C0000843C6F88800207852
:10105000C00609D5D6F88800A16C20F4407008437A
:1010600000E05AE0C6F888002078800607D5D6F858
:101070008800E16C20F440600843C6F888002088AE
:10108000800507D5D6F88800E16D20F4402008439C
:10109000C6F888002088400507D5D6F88800216E5C
:1010A00020F440100843C6F888002078400607D591
:1010B000D6F88800216D20F440500843C6F8880017
:1010C0002078000607D5D6F88800616D20F44040EE
:1010D0000843C6F888002088C00507D5D6F88800E0
:1010E000A16D20F440300843C6F8880020884FF0F6
:1010F000006580044FF0806821D5D6F88800E16E45
:1011000020F040600843C6F88800E06EA8420ED187
:10111000F06840F48010F06011E0D6F89000D4F848
:10112000841020F440700843C6F890005CE7404506
:1011300005D10121201D01F04DFA00B107462068BC
:10114000000317D5D6F88800216F20F040600843CF
:10115000C6F88800206FA84204D1F06840F48010DF
:10116000F06007E0404505D10121201D01F032FA71
:1011700000B107462068400317D5D6F88800616F94
:1011800020F040600843C6F88800606FA84204D190
:10119000F06840F48010F06007E0404505D101217F
:1011A000201D01F017FA00B10746208840041AD527
:1011B000D6F88800A16F20F040500843C6F8880098
:1011C000A06FB0F1805F03D0B0F1005F05D00AE0FE
:1011D0000221201D01F0FEF903E00221584601F032
:1011E000AFFA00B107462088000407D5D6F888007A
:1011F000E16F20F080400843C6F888002068C003F3
:1012000007D556F8880FD4F8801020F00040084326
:101210003060384600F004B8001002400070004012
:1012200018BCBDE8E08F00002DE9F047DFF86481CD
:1012300004460E46D8F8000000F00700B0420CD279
:10124000D8F8001021F007013143C8F80010D8F891
:10125000000000F00700B04272D120784E4F8007A6
:1012600005D5B868A16820F0F0000843B860207880
:10127000C00754D06068022818D0032819D03968F4
:10128000D0B1490500295BDAB96821F003010143B7
:10129000B960FFF703FD0546606841F28831022816
:1012A00012D003281DD0894638B333E0396889034A
:1012B000E8E739688901E5E78907E3E7FFF7EEFC2E
:1012C000411B494501D922E08946B868C0F3810035
:1012D0000228F3D123E0FFF7E1FC411B494501D986
:1012E00015E08946B868C0F381000328F3D116E001
:1012F000FFF7D4FC411B494509D8B86810F00C0F22
:10130000F6D10CE0FFF7CAFC411B494502D9032086
:10131000BDE8F087B868C0F381000128F2D1D8F8A1
:101320000010404601F00701B1420BD9016821F0DD
:10133000070131430160006800F00700B04201D0AE
:101340000120E5E72078400705D5B868E16820F47A
:10135000E0600843B8602078000706D5B8682169C6
:1013600020F4605040EAC100B86000F021F8B9688C
:10137000F02292FAA2F201F0F001B2FA82F2D14028
:10138000064A515CC840064908600020FFF7A0FCEF
:101390000020BDE700200240001002402065000848
:1013A000340000200148006870470000340000202D
:1013B00070B53B4B0022104699683A4C11F00C0F67
:1013C0004FEA640514D09968C1F38101032904D15F
:1013D000D96801F0030101290AD09968C1F381019C
:1013E000012921D09968C1F3810102291ED01EE094
:1013F0001968090706D4D3F894104FF4706201F409
:10140000706103E01968F02201F0F00192FAA2F293
:10141000B2FA82F2D140244A52F82120996811F0A0
:101420000C0F04D1104602E0204600E028469968DF
:10143000C1F38101032931D1D868D96800F00300D4
:10144000702696FAA6F601F07001B6FA86F6F1401B
:10145000491C4FF4FE46022804D0032805D0B2FBF5
:10146000F1F004E0B4FBF1F001E0B5FBF1F0D96874
:1014700096FAA6F201F4FE41B2FA82F2D140484354
:10148000D9684FF0C06292FAA2F201F0C061B2FADC
:1014900082F2D140491C4900B0FBF1F070BD000060
:1014A000001002400024F400306500082DE9F843E4
:1014B00004460078FD4DC00663D5A86810F00C0FF7
:1014C0000AD0A0690028286878D040F00100286080
:1014D000FFF7E4FB06465AE02868800702D5A069BA
:1014E00000286AD0216A28684FF0F006000703D56B
:1014F000286800F0F00003E0D5F8940006EA101028
:10150000814216D9084601F0B9F9002855D128685A
:1015100040F0080028602868216A20F0F0000843A5
:1015200028606868E16920F47F4040EA0120686033
:1015300015E0286840F0080028602868216A20F03B
:10154000F000084328606868E16920F47F4040EAC1
:1015500001206860206A01F091F90028D6D1FFF7D8
:1015600027FFA96896FAA6F201F0F001B2FA82F21A
:10157000D140CF4A515CC840CE4908600020FFF7F7
:10158000A7FB2AE0FFF78AFB801B02287ED8286889
:101590008007F7D5286840F0080028602868216A8D
:1015A00020F0F000084328606868E16920F47F407B
:1015B00040EA0120686010E000E0B3E020F00100A4
:1015C0002860FFF76BFB064604E0FFF767FB801B14
:1015D0000228DBD828688007F7D42078C00746D0D7
:1015E000A868C0F3810002281DD0A868C0F381005C
:1015F000032803D1E868C043800714D06068B0F5C1
:10160000803F17D0B0F5A02F286817D020F4803085
:101610002860286820F4802028606068D8B1FFF72F
:101620003DFB064613E02868800320D5606800284B
:1016300078D01CE0286840F48030EDE740F480204A
:101640002860F7E7FFF72AFB801B64289ED82868EC
:101650008003F7D50BE0FFF721FB064604E0FFF718
:101660001DFB801B642891D828688003F7D420785C
:10167000800747D5A8684FF0F857C0F381000128CC
:1016800016D0A868C0F38100032800E0AAE004D1C6
:10169000E86800F0030002280AD0E0680028286803
:1016A00021D040F480702860FFF7F8FA06460BE07E
:1016B000286840050BD5E0680028B9D007E0FFF79F
:1016C000EDFA801B022884D828684005F7D56868A1
:1016D00097FAA7F22169B2FA82F220F0F85091400D
:1016E000084368600EE020F480702860FFF7D6FAA7
:1016F000064604E0FFF7D2FA801B022872D8286859
:101700004005F7D42078000728D560690028D5F86F
:10171000940012D040F00100C5F89400FFF7BEFA23
:10172000064605E0F6E0FFF7B9FA801B022859D813
:10173000D5F894008007F6D510E020F00100C5F838
:101740009400FFF7ABFA064604E0FFF7A7FA801B08
:10175000022847D8D5F894008007F6D420784007AF
:1017600062D5A86D0027C00008D4A86D40F0805055
:10177000A865A86D012700F0805000904E480168D0
:10178000C90511D40168804641F480710160FFF7FA
:1017900085FA064604E0FFF781FA801B022821D86B
:1017A000D8F80000C005F6D5A068012815D0052896
:1017B000D5F8900017D020F00100C5F89000D5F8BA
:1017C000900020F00400C5F89000A06841F288382D
:1017D000C0B1FFF763FA06460FE0D5F8900040F07D
:1017E0000100F0E761E040F00400C5F89000F4E784
:1017F000FFF754FA811B414557D8D5F89000800770
:10180000F6D50CE0FFF74AFA064604E0FFF746FA81
:10181000811B414576D8D5F890008007F6D41FB1DA
:10182000A86D20F08050A865A06AE8B3A968C1F34C
:10183000810103296ED00228286820F0807028607A
:1018400011D02868000106D42868800003D4E86815
:1018500020F00300E860E86818490840E860FFF7F6
:101860001DFA044651E0FFF719FA064604E0FFF7B7
:1018700015FA801B022845D828688001F7D4206B10
:10188000E16A000110380843616BA26B090212097A
:1018900041EA42410843A18F094A490802EB4151FC
:1018A000084394F840100DE032E02BE000100240B5
:1018B000206500083400002000700040FFFFEEFEAD
:1018C0000000E0FF4908120102EB41610843E860B3
:1018D000286840F080702860E86840F08070E86018
:1018E000FFF7DCF9044604E0FFF7D8F9001B0228F3
:1018F00008D828688001F7D50AE0FFF7CFF9001B68
:10190000022802D90320BDE8F88328688001F4D4B6
:101910000020F8E70120F6E72DE9F041040005D0AA
:101920000025A56294F85D0018B107E00120BDE82C
:10193000F08184F85C50204600F044F8022684F8D8
:101940005D602068016821F040010160E0684FF4AB
:10195000E062904201D9002101E04FF48051B0F5DE
:10196000706F02D0904200D0A562276B012327B987
:10197000904201D9266300E02363D4E901021043B9
:10198000D4E9042632431043228B02F40072104340
:10199000E2691043226A1043A26A10432268106071
:1019A000626B606AA66910430427E26807EA16467C
:1019B00032431043084321684860256684F85D304F
:1019C0000020B4E770472DE9F05F044690F85C0012
:1019D0000127DDF828809A4616460D464FF000098B
:1019E00001280ED0012084F85C00FFF757F98346E8
:1019F00094F85D00616801280CD0B1F5827F07D1B1
:101A000002E0022000F0F6B8A16809B9042801D06C
:101A100002206EE035B32EB3BAF1000F22D094F855
:101A20005D00042802D0052084F85D0000202066B7
:101A30002664A4F846A0A4F844A0A563A4F83EA098
:101A4000A4F83CA0E0642065E0684FF4E0618842BF
:101A500003D8B4F84600012806D92068426822F469
:101A6000805205E0012044E02068426842F4805240
:101A7000426020680268520603D4026842F04002C5
:101A80000260E0688842606844D910B1E08F0128A4
:101A900038D1216835F8020BC860E08F401EE0871E
:101AA00030E067B1E08F50B120688168890706D5C2
:101AB00035F8021BC160E08F401EE0870027B4F8B4
:101AC000460060B120688168C90708D0C06826F860
:101AD000020BB4F84600401EA4F846000127B8F1F6
:101AE000FF3F0FD0FFF7DAF8A0EB0B01414509D318
:101AF00003208146012084F85D00002084F85C000A
:101B000048467FE7E08F0028CBD1B4F84600002894
:101B1000C7D162E010B1E08F012857D1E08F0128D2
:101B200006D9216835F8020BC860E08F801E05E0F9
:101B3000216815F8010B0873E08F401EE08745E02F
:101B4000AFB1E08F98B12068816889070FD5E18F28
:101B5000012905D935F8021BC160E08F801E04E021
:101B600015F8011B0173E08F401EE0870027B4F8D1
:101B7000460010B320688168C9071ED0B4F846102B
:101B8000012911D9C06826F8020BB4F84600801E5E
:101B9000A4F84600B4F8460001280DD82068416832
:101BA00041F48051416007E0007B06F8010BB4F876
:101BB0004600401EA4F846000127B8F1FF3F05D0BB
:101BC000FFF76CF8A0EB0B01414591D2E08F0028A4
:101BD000B6D1B4F846000028B2D15A464146204654
:101BE00000F08AFE08B120202066206E00287FF4D5
:101BF00039AF7FE730BCBDE8C09F4FF0E02104283B
:101C0000086903D020F004000861704740F0040028
:101C1000FAE7704710B5401EB0F1807F01D3012074
:101C200010BD4FF0E02460610F21601700F0C0FA92
:101C30000020A06107202061002010BD10B5FFF733
:101C4000E8FF10BD7047704730B590F83820012A82
:101C50001FD0012280F8382003685A689D680E4C16
:101C6000A34202D00D4CA34203D122F470044A686F
:101C7000224322F070040A688968224325F0800418
:101C800021435A6002689160002180F838100846AC
:101C900030BD022030BD0000002C01400034014066
:101CA00010B5040003D094F8390010B107E001200A
:101CB00010BD002084F83800204600F00DF8022006
:101CC00084F83900211D206801F04AFE012084F8C3
:101CD0003900002010BD000008B50068144A1549FD
:101CE00090420ED1886D40F002008865886D002218
:101CF00000F00200009011461D20FFF753F81D2050
:101D000010E00D4A904211D1886D40F004008865C2
:101D1000886D002200F00400009011461E20FFF79D
:101D200041F81E20BDE80840FFF731B808BD0000AB
:101D300000040040001002400008004002686FF0FC
:101D4000010111610168CA6842F00102CA600068BD
:101D5000016841F001010160002070470168CA6814
:101D600022F00102CA600068016A41F211121142B8
:101D700007D1016A9210114203D1016821F00101DB
:101D8000016000207047000070B5044690F83800EC
:101D9000012817D0012584F83850022084F8390032
:101DA00020688268354E324022F47F4282600868A3
:101DB000502838D00DDC20285AD005DC90B31028EC
:101DC00042D152E0022070BD302854D040283BD18F
:101DD00040E060282FD070280CD0B0F5805F03D091
:101DE000B0F5005F30D112E020688168234A70327C
:101DF00011400AE0CB68D1E90121206801F00CFE16
:101E000020688168314041F0770181601CE0CB6837
:101E1000D1E90121206801F0FFFD2068816841F4CB
:101E20008041F2E71EE0CA684968206801F006FEBA
:101E30005021206806E0CA684968206801F00FFE5A
:101E40006021206801F0F2FD84F83950002084F808
:101E5000380070BDCA684968206801F0EFFD402174
:101E60002068EFE700212068ECE710212068E9E70F
:101E700020212068E6E730212068E3E788FFFEFFA5
:101E8000704770B50446006801694FF00005C9430A
:101E9000890715D4C168C943890711D4E91E0161B6
:101EA00001202076206880698007204602D0FFF755
:101EB000E7FF04E000F098F8204600F096F8257659
:101EC00020680169C943490717D4C168C943490754
:101ED00013D46FF00401016102202076206880692C
:101EE00010F4407F204602D0FFF7CAFF04E000F064
:101EF0007BF8204600F079F8257620680169C9430F
:101F0000090716D4C168C943090712D46FF0080144
:101F10000161042020762068C0698007204602D035
:101F2000FFF7AEFF04E000F05FF8204600F05DF838
:101F3000257620680169C943C90617D4C168C94319
:101F4000C90613D46FF010010161082020762068C3
:101F5000C06910F4407F204602D0FFF791FF04E0F3
:101F600000F042F8204600F040F82576206801692C
:101F7000C943C90708D1C168C943C90704D1891E2B
:101F80000161204600F032F820680169C943090662
:101F900009D4C168C943090605D46FF08001016105
:101FA0002046FFF74FFE20680169C943490609D45E
:101FB000C168C943490605D46FF04001016120465C
:101FC00000F020F820680169C94389060BD4C16874
:101FD000C943890607D46FF0200101612046BDE89E
:101FE0007040FFF730BE70BD7047704703498842AC
:101FF00002D10321024A117070470000CC0000207A
:10200000C30000207047FEE770B501220B4D54025B
:1020100021462846FEF73CFE01221602314628469C
:10202000FEF736FE002221462846FEF731FE3146F5
:102030002846BDE870400022FEF72ABE0004004892
:1020400070B50A4C012211022046FEF721FE4FF422
:102050000075002229462046FEF71AFE2946204632
:10206000BDE870400122FEF713BE000000040048E6
:1020700070B50122064D140221462846FEF708FEDF
:1020800021462846BDE870400022FEF701BE000050
:102090000004004830B51C4887B0C16C41F0020113
:1020A000C164C16C01F002010591C16C41F00801ED
:1020B000C164C06C154D00F0080005904FF400405D
:1020C000CDE900050124694602941148FEF7F2FCAF
:1020D0004FF44070CDE90005694602940D48FEF7C3
:1020E000E9FC002201211720FEF75CFE1720FEF715
:1020F0004EFE002201212820FEF754FE2820FEF784
:1021000046FE07B030BD0000001002400000211064
:1021100000040048000C00480F4810B5C16C86B0A0
:1021200041F00101C164C06C4FF0904400F0010027
:102130000590012270212046FEF7AAFD7021112092
:10214000CDE9001000210291039169462046FEF777
:10215000B1FC06B010BD00000010024010B51249DD
:1021600088B0104A0A604FF6FF120024401E4A60F1
:10217000C1E9024008460C61FFF792FD00280ED12C
:102180004FF48050039003A90748FFF7FDFD002896
:1021900005D10094694604480294FFF755FD08B044
:1021A00010BD000000040040CC000020FEE7704796
:1021B0000907090E002806DA00F00F0000F1E02000
:1021C00080F8141D704700F1E02080F8001470477B
:1021D00030B40021084B0A46002003EBC004401C29
:1021E000C0B262548028F8D3491CC9B20829F3D37D
:1021F00030BC00F0F1B80000A801002010B57F2825
:1022000016D83F2914D80723A3EBD10301F0070107
:10221000C1F107040121A140064CDBB204EBC00070
:10222000002AC25CC9B201D00A4300E08A43C2540A
:1022300010BD0000A8010020F0B5604887B0C16C57
:1022400041F00201C164C16C01F002010591C16C51
:1022500041F00801C164C06C4FF4407500F0080003
:1022600005900126564FCDE9005602246946039495
:102270003846FEF71FFC012229463846FEF708FDC6
:10228000ED0003944F4CCDE9005669462046FEF719
:1022900011FC012229462046FEF7FAFC0022F10239
:1022A0002046FEF7F5FC0122150329462046FEF7DD
:1022B000EFFC7820FEF7CCFA002229462046FEF7F4
:1022C000E7FC7820FEF7C4FA012229462046FEF7F3
:1022D000DFFC0021AE2000F061F90021022000F0B7
:1022E0005DF90021102000F059F90021402000F094
:1022F00055F90021812000F051F90021FF2000F064
:102300004DF90021A12000F049F90021C02000F082
:1023100045F90021A62000F041F90021A82000F095
:102320003DF900213F2000F039F90021D32000F0D1
:1023300035F90021084600F031F90021D52000F0E0
:102340002DF90021802000F029F90021D92000F08A
:1023500025F90021F12000F021F90021DA2000F018
:102360001DF90021122000F019F90021DB2000F0F6
:1023700015F90021402000F011F90021202000F083
:102380000DF90021022000F009F900218D2000F054
:1023900005F90021142000F001F90021A42000F02B
:1023A000FDF80021A62000F0F9F80021AF2000F090
:1023B000F5F8FFF70DFF07B0F0BD00000010024078
:1023C00000040048000C00480346012000E0584388
:1023D000491EC9B2FBD2704770B5104E002505F1F9
:1023E000B000C0B2002100F0D9F80021022000F0B6
:1023F000D5F80021102000F0D1F8002406EBC4002D
:102400000121405D00F0CAF8641CE4B2802CF5D3D1
:102410006D1CEDB2082DE2D370BD0000A8010020B4
:102420002DE9F84F83461E460F468A46580700D0CE
:10243000012000EBD600710810FB01F0203AC0B279
:1024400002F0FF090025009039E00C2E0FD0102E6D
:1024500011D0182E36D11C4909EBC90001EB8000C0
:102460004FF00008445D200609D50A9A0AE009EBFE
:1024700049001649F2E7164901EB0910F0E70A98FE
:1024800090B1002239465846FFF7B8FE60067F1C1F
:10249000040EFFB2A7EB0A00B04207D10BF1010016
:1024A000574600F0FF0B08E00122EBE708F10100BE
:1024B00000F0FF08B8F1080FD5D36D1CEDB20098FD
:1024C0008542C2D300F006B812570008AE4C00088F
:1024D0002251000818BCBDE8E08F2DE9FF4F81B004
:1024E0000027DDF838B01D46924680463C464FF046
:1024F00001094FEA5B0627E0281B401EC1B20A20F3
:10250000FFF762FFBAFBF0F00A21B0FBF1F201FB2A
:10251000120027B9691E8C4201DA48B10127303018
:10252000C2B206FB0480C0B25B46CDF8009006E064
:1025300006FB0480C0B25B462022CDF800900299D1
:10254000FFF76EFF641CE4B2AC42D5D305B000F0D7
:1025500000B830BCBDE8C08F2DE9F8431F461546D2
:102560000E4604464FF00109C3F180080FE03B46D8
:1025700031462046CDF80090FFF752FF04EB57009C
:10258000C4B2A04502DA0024B61CF6B26D1C2A784B
:10259000A2F120005E28EAD9BDE8F88370B50C46A8
:1025A0000546FFF731FD782001F03CF9FFF760FDAB
:1025B0000CB1402000E0002001F034F9FFF758FD95
:1025C000284601F02FF9FFF753FDBDE87040FFF7F3
:1025D00037BD70472DE9F041554E05468846F068F5
:1025E0000024820728684FF0700113D0F26802F0CF
:1025F000030282420CD158B1F06891FAA1F100F0C7
:102600007000B1FA81F1C8406968401C884221D04D
:1026100001248AE0012809D002280AD00328F7D132
:102620003268920309D43268520304E03268920798
:1026300001E032685205002AEADAF26891FAA1F163
:1026400022F073036A68B1FA81F1521E8A40134383
:102650000343F360306820F080603060FEF71EFBBB
:10266000074604E0FEF71AFBC01B022853D8306867
:102670000001F7D4DCBB4FF4FE40B8F1000F23D0CB
:1026800090FAA0F0A968B8F1010FB0FA80F04FF00D
:10269000FF3201FA00F12BD0686902EB50004FF0D5
:1026A000C06292FAA2F2B2FA82F29040014330691B
:1026B000204A104001433161306840F08060306052
:1026C000FEF7ECFA074628E090FAA0F0A968B0FA05
:1026D00080F08140E8684FF4003292FAA2F20009DB
:1026E000B2FA82F2904001433069134AE1E71CE0FC
:1026F000286902EB50004FF4C00292FAA2F2B2FA3B
:1027000082F29040014330690C4AD2E7FEF7C6FAE4
:10271000C01B022801D9032407E030680001F5D569
:102720001CB93069A969084330612046BDE8F081D1
:1027300000100240FF80FFF9FF80FDFFFF809FFF38
:102740002DE9F0414A4E05468846F068002481078D
:1027500028684FF0700213D0F16801F00301814244
:102760000CD158B1F06892FAA2F100F07000B1FA01
:1027700081F1C8406968401C884221D0012473E07F
:10278000012809D002280AD00328F7D1316889032B
:1027900009D43168490304E03168890701E03168F0
:1027A00049050029EADAF16892FAA2F221F07303EE
:1027B0006968B2FA82F2491E91400B430343F36009
:1027C000306820F080503060FEF768FA074604E079
:1027D000FEF764FAC01B02283CD830688000F7D4AA
:1027E00094BB4FF4FE4191FAA1F1A868B8F1000F33
:1027F000B1FA81F100FA01F019D029694FF0FF32E6
:1028000002EB51014FF0C06292FAA2F2B2FA82F2E8
:10281000914008437169174A11400843706130685C
:1028200040F080503060FEF739FA074614E0E9685E
:102830004FF4003292FAA2F20909B2FA82F2914000
:10284000084371690C4AE7E70EE0FEF727FAC01B60
:10285000022801D9032407E030688000F5D51CB9AF
:1028600070696969084370612046BDE8F081000025
:1028700000100240FF80FFF9FF80FDFFF8B51C4EFD
:1028800005460024B06DC00002D5FEF7EFFA0DE05A
:10289000B06D40F08050B065B06D00F08050009099
:1028A000FEF7E4FAB16D21F08051B165B0F5007F1B
:1028B00004D0802D07D94FF003040AE0802D08D9F9
:1028C000A02D01D804E001D1022402E0702D00D136
:1028D00001240848016821F00701214301600068D4
:1028E00000F00700A04201D00120F8BD0020F8BD93
:1028F0000010024000200240F8B515460E460B4677
:102900000092044600224FF4C05100F019F888B933
:102910003346002280212046009500F060F848B937
:10292000334600224FF4C0612046009500F008F8BD
:10293000002804D0206E40F0200020660320F8BD5F
:102940002DE9F8431D4616460F4604464FF4C0696C
:10295000DDF820803CE04F4505D126B9007B8DF89D
:1029600000009DF80000681C32D02DB1FEF796F9EA
:10297000A0EB0800A8422BD32068416821F0E001B9
:1029800041606068B0F5827F0BD1A068B0F5004F60
:1029900002D0B0F5806F04D12068016821F04001B9
:1029A0000160A06AB0F5005F09D12068016821F4D8
:1029B000005101602068016841F40051016001206C
:1029C00084F85D00002084F85C000320BDE8F883F3
:1029D000206881683940B142BDD10020F6E72DE979
:1029E000F0411D4617460E460446DDF8188034E0D7
:1029F000681C32D02DB1FEF751F9A0EB0800A842B7
:102A00002BD32068416821F0E00141606068B0F597
:102A1000827F0BD1A068B0F5004F02D0B0F5806F77
:102A200004D12068016821F040010160A06AB0F57E
:102A3000005F09D12068016821F40051016020681D
:102A4000016841F400510160012084F85D0000201C
:102A500084F85C000320BDE8F0812068806836EAD5
:102A6000000004D00020B842C2D10020F3E70120CA
:102A7000F9E7704710B520B1002000F0EBF9012014
:102A800003E0012000F0E6F90020BDE8104000F06E
:102A900005BA000004210148FEF7F5B8000400481B
:102AA0000B4800B5C16C87B041F00201C164C06C35
:102AB000694600F00200059004200090002001907B
:102AC0000290012003900348FDF7F4FF07B000BD1A
:102AD000001002400004004802210148FEF7D3B86C
:102AE000000400480D4800B5C16C87B041F00201F8
:102AF000C164C06C0A4900F0020005900220CDE9D3
:102B000000010290039069460648FDF7D3FF0022BA
:102B100001210720FEF746F907B000BD0010024072
:102B200000001110000400480720FEF725B9072017
:102B3000FEF72DB90E4800B5C16C87B041F0040115
:102B4000C164C06C694600F004000590102000903C
:102B5000084801900220029003900748FDF7AAFF61
:102B6000002201210A20FEF71DF907B000BD000078
:102B70000010024000001110000800480F49104AE0
:102B8000086802440F48824214D288680E4BA0F5B0
:102B900016729A420ED24A69B2F5965F0AD30B4A70
:102BA000904207D8088B41F6FF72411E914201D234
:102BB000082801D90020704701207047100000202C
:102BC000009876F68171162F8991040020A10700E4
:102BD00070B505460B4800F03EFA4FF6FF7000F066
:102BE000E6F90848074C08302634407F012802D116
:102BF000204600F04AFA21462846BDE8704000F021
:102C00003FBA00000800002010B5012000F086FC4B
:102C100000F0A8F9012000F011FC0020FFF72AFFC6
:102C20004FF6FF7000F0C3F900231A4640F202216C
:102C300040F2422000F007FB002000F097FC00F07B
:102C40009BFB0021084600F0BFFABDE81040014898
:102C500000F04FBC00C4090010B50446012000F08C
:102C60005DFC00F07FF9012000F0E8FB0120FFF798
:102C700001FF4FF6FF7000F09AF9002340F20120A7
:102C80001A46014600F0DFFA00F076FB0021084604
:102C900000F09AFA0348044A817F2046BDE81040BC
:102CA00000F086BA10000020FFFF2F0010B5FFF7DC
:102CB00019FFFFF73FFFFFF7F3FE012000F010F8C8
:102CC000002000F0C7F8BDE81040002000F0E6B892
:102CD00002464FF400414FF09040FDF7D9BF00008D
:102CE00030B50F49044687B0C86C40F00100C86495
:102CF000C86C012100F0010005908020CDE90001A1
:102D00000220CDE902104FF0904569462846FDF7B4
:102D1000D1FE224680212846FDF7BAFF07B030BD1C
:102D20000010024001B582B04FF47A700090012388
:102D300001AA02A90248FEF746FE9DF804000EBD56
:102D40004401002010B50A20FDF782FD0020FFF7A6
:102D5000C7FF1420FDF77CFD0120FFF7C1FFBDE890
:102D600010400A20FDF774BDF0B585B04FF4004067
:102D70000125CDE9000500200224CDE902046946C1
:102D80004FF09040FDF796FE60028DE83100062678
:102D90000C4FCDE9034669463846FDF78BFEA0028D
:102DA0000090694604963846FDF784FEE0028DE8FF
:102DB0003100CDE9034669463846FDF77BFE05B094
:102DC000F0BD00000008004838B51F48C16C41F054
:102DD0000101C164C16C01F001010091C16C41F0BD
:102DE0000401C164C16C01F004010091816D41F4E2
:102DF00000418165806D00F400400090FFF7B4FF52
:102E0000134C12484FF4E06120604FF48270606010
:102E10000020C4E902014FF400712061C4E90501FA
:102E20000821C4E9071007216062C4E90A01206390
:102E300060632046FEF770FD00B1FEE72068016880
:102E400041F04001016038BD00100240003C0040EC
:102E50004401002030B50F49044687B0C86C40F0EB
:102E60000400C864C86C012100F004000590202013
:102E7000CDE900010220CDE90210074D6946284640
:102E8000FDF718FE224620212846FDF701FF07B076
:102E900030BD0000001002400008004830B50E4967
:102EA000044687B0C86C40F00200C864C86C0121B9
:102EB00000F00200009105900220CDE90210074DBC
:102EC000019169462846FDF7F5FD22460121284675
:102ED000FDF7DEFE07B030BD0010024000040048E0
:102EE00001B501226946892000F0D2FB08BD00002F
:102EF000174908B5884204D9E1208DF80000E9207F
:102F00001EE01449884204D9D7208DF80000D8204B
:102F100016E01149884204D9C1208DF80000C5206F
:102F20000EE00E49884204D975208DF800008120FA
:102F300006E00B49884205D96B208DF800006F2010
:102F40008DF8010002226946982000F0A1FB08BD1F
:102F500000E9A43580F8A9328044E52D000B6B1BF5
:102F600040FC541910B500F040F80004000C06D0E5
:102F700000F014F8BDE810407F20FFF7B1BF10BD8E
:102F8000054810B5007808B1062801D100F050FBC3
:102F9000BDE8104000F044BB0400002008B500204C
:102FA000009002226946072000F072FB08BD08B5B8
:102FB000010A8DF800108DF80100022269461046C2
:102FC00000F066FB08BD10B5002140F6021000F0CD
:102FD00080FB40F64414204600F0BCF840F00201AB
:102FE0002046BDE8104000F074BB1CB500200090E6
:102FF000019002226946172000F08CF89DF800002D
:1030000000F001008DF805009DF801009DF8041006
:10301000820962F38611420962F34511020962F3E3
:103020000411C20862F3C301820862F382014208FC
:1030300062F3410160F300018DF80410BDF8040053
:103040001CBD08B502226946122000F063F8BDF8E5
:10305000000040BA08BD38B5044603226946142072
:1030600000F058F89DF8000060719DF801004042A2
:103070004010E0719DF8020040424010A07138BD40
:103080000A780146002000F022B838B50446022232
:103090006946132000F03EF840F2047000F05AF840
:1030A000C00904D040F2027000F054F801E09DF82D
:1030B0000000207038BD08B500208DF80000012206
:1030C0006946C02000F026F89DF8000008BD70B5E4
:1030D00015460E460446FFF753FF0020FFF7F8FDA4
:1030E0001E20FFF71FFE2046FFF71CFE0020FFF703
:1030F00019FE002405E00020FFF714FE3055641C83
:10310000A4B2AC42F7D30120FFF7E2FDBDE8704066
:1031100000F086BA70B515460E460446FFF730FF3C
:103120000020FFF7D5FD2046FFF7FCFD0020FFF74C
:10313000F9FD002405E00020FFF7F4FD3055641C84
:10314000A4B2AC42F7D30120FFF7C2FDBDE8704046
:1031500000F066BA08B50122694600F003F89DF850
:10316000000008BD70B515460E460446FFF708FF7F
:103170000020FFF7ADFD1D20FFF7D4FD200AFFF76B
:10318000D1FDE0B2FFF7CEFD0020FFF7CBFD00241C
:1031900005E00020FFF7C6FD3055641CA4B2AC4228
:1031A000F7D30120FFF794FDBDE8704000F038BA76
:1031B00010B514460A460146002000F04AFA20469F
:1031C000BDE8104000F0E2B908B502228DF8000019
:1031D0008DF8011069468F2000F05AFA08BD08B535
:1031E000010A8DF800108DF801000222694640F2B4
:1031F000BE6000F074FA08BD08B5010A8DF8001031
:103200008DF801000222694640F2BC6000F067FAC6
:1032100008BD01B5012269469D2000F039FA08BDBC
:1032200008B500F007008DF80000080C8DF80100CB
:10323000080A8DF802008DF80310042269469720D1
:1032400000F026FA08BD1CB5040A8DF800408DF880
:103250000100080A8DF80200100A8DF804008DF8AC
:103260000520180A8DF806008DF8031008228DF845
:1032700007306946104600F00BFA1CBD30B500203F
:103280002DED028B83B0324C009001900825A06890
:10329000FDF787F841EC100B9FED2E8B53EC102BB4
:1032A00051EC180BFDF70EF89FED2C1B53EC112B76
:1032B000FCF793FFFDF782F8010C8DF80010010A6E
:1032C0008DF801108DF80200207C8DF803006169F3
:1032D00071B1244A002052F830308B4233D802EBCF
:1032E000C0039B688B422ED302EBC000007B00E042
:1032F0001F208DF804009FED1C1B9FED1D0B00F09F
:10330000DBFB53EC102B51EC180BFCF7DBFF41EC13
:10331000180BE068FDF745F853EC182BFCF7D2FFCB
:10332000FDF74CF8010C8DF80510010A8DF8061018
:103330008DF807002A4669468B2000F0A9F903B0F2
:10334000BDEC028B30BD401CC0B21528C3D3FEE7D4
:10335000100000200000000080847E41000000007A
:103360000000404070640008000000000000394088
:1033700000000000000000403EB500201F4C0090FF
:1033800001900290E07FF12802D0F2280AD012E0EA
:103390004FF6FF70FFF730FF48F20500FFF71FFF01
:1033A000022008E041F60F50FFF726FF41F221000E
:1033B000FFF715FF0620218B09224B098DF80030FD
:1033C000C9008DF80110A17E8DF80210E17EC900C0
:1033D0008DF80310217F8DF80410617F8DF80510A2
:1033E000A17F8DF806108DF8070094F820008DF865
:1033F000080069468C2000F04BF93EBD100000200B
:1034000008B58DF800008DF801108DF802208DF8B8
:10341000033004226946952000F03AF908BD01B551
:103420009DF8000020B9002140F2AC6000F051F995
:10343000012269468A2000F02BF908BD01B501225E
:103440006946962000F024F908BD000010B51E4C16
:103450001E491F4A2DED028B82B020680144914223
:1034600004D3012002B0BDEC028B10BDFFF740FD7C
:103470009FED181B9FED190B00F01EFB53EC102B5A
:103480009FED180B51EC100BFCF71CFF41EC180BD7
:103490002068FCF786FF53EC182BFCF713FFFCF7B2
:1034A0008DFF010E8DF80010010C8DF80110010A3E
:1034B0008DF802108DF8030004226946862000F082
:1034C000E7F80020CEE700001000002080E58FE73D
:1034D00081FB651E00000000000039400000000074
:1034E000000000400000000080847E41052100F0C3
:1034F00061B838B504464FF6FF70FFF758FD200C51
:103500008DF80000200A8DF801008DF8024003229A
:103510006946822000F0BCF838BD000031B54FF696
:10352000FF7401226946802000F0B2F8FFF7C3FD66
:103530009DF800000C4D50B9FFF7BDFDC0F302101F
:10354000641E022801D0002CF6D1012009E0FFF70B
:10355000B2FDC0F30210641E032801D0002CF6D186
:103560000220287038BD00000400002001B50122AF
:1035700069469F2000F08CF808BD10B5014608226E
:103580004FF4D86000F0ABF8002010BD38B5044609
:103590004FF6FF70FFF70BFD200C8DF80000200A9E
:1035A0008DF801008DF8024003226946832000F067
:1035B0006FF838BD38B50D460446162801DD1624CF
:1035C00004E06FF00200844200DA04460123002286
:1035D00007210420FFF714FF382140F6E70000F030
:1035E00078F88DF800408DF80150022269468E204F
:1035F00000F04EF838BD70B504464FF4D765284644
:10360000FFF7A8FD00F0FE00C4F3002101432846A7
:1036100000F05FF8E1B2681CBDE8704000F059B8F6
:1036200010B5FFF73DFAFFF735FA0128FBD010BDC2
:1036300010B50020FFF74CFBC020FFF773FB002004
:10364000FFF770FB0120FFF743FBBDE81040FFF7D9
:10365000E7BF70B515460E460446FFF791FC002003
:10366000FFF736FB0E20FFF75DFB2046FFF75AFB06
:10367000002404E0305DFFF755FB641CA4B2AC42AB
:10368000F8D30120FFF724FBBDE87040FFF7C8BF67
:103690002DE9F04115460E460746FFF771FC002064
:1036A000FFF716FB3846FFF73DFB002404E0305DD2
:1036B000FFF738FB641CA4B2AC42F8D30120FFF73B
:1036C00007FB842F03D0BDE8F041FFF7A9BFBDE899
:1036D000F08113B5012201A900F001F81CBD70B5FD
:1036E00015460E460446FFF74BFC0020FFF7F0FAA4
:1036F0000D20FFF717FB200AFFF714FBE0B2FFF7DE
:1037000011FB002404E0305DFFF70CFB641CA4B245
:10371000AC42F8D30120FFF7DBFABDE87040FFF7B9
:103720007FBF00007CB5FFF729FAC8B3FFF74CFB59
:10373000FFF7BCFAFFF706FBFFF77AFF0020FFF761
:10374000EDFE40F6D8042046FFF704FD40F01E01D0
:103750002046FFF7BEFF0120FFF770FEFFF71EFCBB
:103760004FF4A0710520FFF75BFD0120FFF751FD2D
:103770002F2140F61110FFF7ACFF7F20FFF7B0FBC1
:103780000020FFF74CFE40F2027409212046FFF7AB
:10379000A0FF2046FFF7DEFC092804D002207CBDF4
:1037A000FFE70120FBE7962140F6AC00FFF791FF11
:1037B000194C2068FFF74AFE94F90400FFF796FEC3
:1037C00000210846FFF700FDFFF758FDFFF7D4FD85
:1037D000217F40F2CD65012903D111212846FFF751
:1037E00078FF207F022808D111212846FFF771FFBA
:1037F000122140F2CE60FFF76CFF08A0D0E9001064
:10380000CDE900106846FFF7B8FE40F2FF10FFF761
:10381000F2FE0020C3E7000010000020C194C100A8
:10382000000000002DE9F041134E054600244FF43E
:1038300000784FF48077002239463046FDF728FAA9
:10384000280601D5012200E0002241463046FDF75E
:103850001FFA012239463046FDF71AFA002239468E
:103860003046FDF715FA6806641C050EE4B2082C14
:10387000E1D3BDE8F08100000004004810B5FDF779
:1038800013FABDE81040FEF7D9B930B5B9B002203F
:10389000C10125911021229026912C900121CDE982
:1038A0002D0108212F910721CDE93010329022A857
:1038B000FDF7FCFD002403250F20CDE9345433909F
:1038C0003694294633A83794FDF7AEFC00950E9444
:1038D00068460F94FDF7D2FA4FF40070FDF794FAA2
:1038E000FDF760FD4FF47A71B0FBF1F0FEF792F94D
:1038F0000420FEF782F900221146501EFDF752FA0D
:1039000039B030BD0D48016841F4700101600C48C8
:10391000016841F001010160002181600268094BEA
:103920001A4002608214C260026822F4802202609F
:1039300081610249C00380390860704788ED00E06A
:1039400000100240FFFFF6EA0148FEF79ABA0000B5
:10395000CC0000200148FEF794BA000008010020C6
:103960002DE9F0470268244C244D254E254F264B67
:103970004FF0804AA04209D0504507D0A84205D058
:10398000B04203D0B84201D0984204D122F0700C6A
:103990004A6842EA0C02DFF874C0DFF87480DFF88E
:1039A0007490A0420FD050450DD0A8420BD0B04229
:1039B00009D0B84207D0984205D0604503D04045B1
:1039C00001D0484503D122F44075CA682A430260F9
:1039D0008A68C2620A688262A04207D0984205D013
:1039E000604503D0404501D0484501D109690163D4
:1039F00001214161BDE8F087002C01400004004036
:103A000000080040000C004000340140004001402C
:103A1000004401400048014010B5846842EA032296
:103A200024F47F440A432243826010BD826822F05E
:103A300070020A4342F007018160704710B5046AC2
:103A4000036A23F001030362836923F0F00343EA6E
:103A5000021324F00A020A438361026210BD10B50A
:103A6000036A23F0100303628469036A24F4704438
:103A700044EA023223F0A00343EA011182610162A9
:103A800010BDFEE703B401984100009850EAC12040
:103A900018BF04204A0D18BF40F0010040F2FF7229
:103AA000B2EB515F08BF40F00200012808BF0520BB
:103AB00002B07047000000002DE9F04D2DED040B21
:103AC0002DED0E8B96B0DDE92550279CDDF890A0FA
:103AD00025F0004624F00048BAF1000F14BF012180
:103AE000002101EB4502FC4953184A1093422AD3A6
:103AF000002814BF0123002303EB44030B44F749C0
:103B00008B4220D358EA00019FEDF59B76D0DFF879
:103B1000D8B35D4503D1BAF1000F05D188E0BAF101
:103B2000000F08BF002100D0012101EB450111F574
:103B3000001F08D8002814BF0121002101EB440117
:103B400011F5001F0BD99DED261B9DED240B16B022
:103B500000F0DABD04B0BDE8F04D00F081BE0027F2
:103B6000002DBCBFE149884521DAE1498845A8BF5D
:103B700002271CDAC3451ADCDE4901EB285114295F
:103B800008DDC1F1340220FA02F101FA02F28242A8
:103B90000DD108E058B9C1F1140228FA02F101FA76
:103BA00002F2424503D101F00101C1F1020756EAD8
:103BB0000A0124D1002C22DA002D18BF022F01D0D7
:103BC000012F0AD0022000F097FE16B000F0A2BD2F
:103BD00004B0BDE8F04D00F02BBE022000F08CFEDA
:103BE00000F026FE51EC100B81F0004141EC100B6F
:103BF00016B000F095BD04B0BDE8F08D18E09FED63
:103C0000BEAB9FEDBF8B002871D1B848804522D153
:103C100005F1804010F5801008BFBAF1000F07D001
:103C2000B3450ADC002CA8BF9DED260BE0DA0DE0C1
:103C3000B0EE490AF0EE690ADAE7002C06DA9DEDEB
:103C4000260B51EC100B81F000416FE0AE48784438
:103C500090ED000BCCE7D8454DD1002C48DA2EB1C1
:103C600086423AD1BAF1000F42D126E0BAF1000FF4
:103C700013D0022000F040FE00F00EFE8DED020B8E
:103C80009DED240B8DED000B10EE900A039961F36E
:103C90001E0003909DED020BAAE78DED02AB9DED9A
:103CA000240B1AEE901A10EE900A8DED000B61F3C2
:103CB0001E0003909DED020B9AE78DED028B9DEDAA
:103CC000240B18EE901A10EE900A8DED000B61F3A4
:103CD0001E0003909DED020B8AE709DA9DED240B8F
:103CE00051EC190B53EC102BFCF7ECFA1EE020E022
:103CF0009DED240B7CE786421BDAB4F1804F0DD09A
:103D0000A4F10050B0F1FF5013D1002D11DB9DED57
:103D1000240B51EC100B00F093FF07E09DED240BFA
:103D200053EC102B51EC100B00F0C2BC41EC100B0B
:103D30005EE79DED240B51EC100B00F0E3FDBAF1B2
:103D4000000FCDE90E0142D19FED710B46B3A6F1F4
:103D5000E040B0F17F600CD05E4538D1002D00DA34
:103D6000A7B3022F0CBF01204FF0FF30FCF772FC0D
:103D7000DCE7002D01DD002C0DDA002D01DD002C2B
:103D80001FDB002D16DA002C14DB012F08BF9FED7E
:103D9000620B3FF42DAFB0EE4A0AF0EE6A0A27E755
:103DA000022F18BF002D0CD0012F0AD1002DFFF6D5
:103DB0001FAF06E0002DB8BF002C08DA012F3FF43A
:103DC00017AFB0EE480AF0EE680A11E71BE00120D9
:103DD00000EBE57050EA070115D0791EB0EE498A74
:103DE000F0EE698A084308BF9FED4D8B4E480025D1
:103DF000804570DD4D494E48884514DDB0420DDBED
:103E0000002C19DB2FE0012000F076FD16B000F049
:103E10008DBC04B0BDE8F04D00F02EBDB34502DC12
:103E2000002C09DC1FE0864202DA002C1BDA03E0DA
:103E30005E452BDD002C16DD022000F05DFD00F05C
:103E40002BFD8DED020B53EC1A2B51EC180BFCF7EC
:103E5000C4F9CDE900010399019861F31E000390B4
:103E60009DED020BC4E6022000F046FD00F024FDAB
:103E700010EE901A18EE900A8DED020B8DED008B6E
:103E800061F31E0003909DED020BB1E69DED0E0B5C
:103E900053EC192B51EC100BFCF7B7FB9FED260BE5
:103EA000CDE9080153EC102B9DED080B51EC100BE4
:103EB000FCF793F99FED221B53EC112BFCF7A8FBA9
:103EC0009DED081B53EC112BFCF787F99FED1E1B92
:103ED00053EC112B3CE08CE0FFFF1F00FFFF0F00B5
:103EE000000000000000F03F0000F03F0000F07F05
:103EF0000000404301FCFFFF000000000000F07FD5
:103F000000000000000000009629000000000000F2
:103F10000000000000000080000000000000F0FF32
:103F2000000000000000F0BF0000E0410000F0438E
:103F3000FFFFEF3F00000000000000000000D03F46
:103F4000555555555555D53F000000000000E03F40
:103F5000FCF75EFB9DED080B41EC1A0B53EC102BAC
:103F600051EC100BFCF739F953EC1A2BFCF735F92F
:103F700041EC1A0B9FEDFE0B53EC102B9DED080B43
:103F800051EC100BFCF729F941EC1B0B9FEDFA0BE0
:103F900051EC1A0B53EC102BFCF71FF941EC1A0BE8
:103FA0009FEDF70B53EC102B9DED080B51EC100B14
:103FB000FCF713F953EC1A2BFCF727FB41EC1A0B17
:103FC00051EC1B0B53EC1A2BFCF77EFA0690CDE953
:103FD00006519DED060B53EC1B2B51EC100BFCF71F
:103FE00014FB53EC1A2BFCF713FB41EC100B00F005
:103FF000A1B90020B6F5801F0EDA9FEDE30B53EC5C
:10400000102B9DED0E0B51EC100BFCF7E6F8CDE9F3
:104010000E016FF034000E4600EB2650A0F2FF3781
:10402000C6F31300DA4940F07F6646F040568842F6
:10403000D8BF002408DDD7498142C8BF012403DC72
:104040000024A6F580167F1CD348784400EBC400FA
:104050000F9690ED00CB9DED0E0B53EC1C2B51EC0D
:10406000100BFCF7D2FA9DED0E0B41EC1B0B53EC41
:104070001C2B51EC100BFCF727FA41EC100B51EC08
:10408000190B53EC102BFCF71DF941EC1D0B51ECF7
:104090001B0B53EC1D2BFCF7A0F841EC1A0BBF488F
:1040A0008DED10AB7844109590ED000B4FF0005063
:1040B00040EA660000EB84408DED080B00F500201F
:1040C00009909DED080B53EC1C2B51EC100BFCF7E9
:1040D0009CFA9DED0E1B53EC112BFCF799FA41EC69
:1040E000100B53EC102B9DED100B51EC100BFCF74B
:1040F00074F89DED080B41EC1C0B53EC102B9DED5F
:10410000100B51EC100BFCF768F853EC1B2BFCF771
:104110007FFA53EC1C2BFCF778FA53EC1D2BFCF7C1
:104120005CF841EC1C0B53EC1A2B51EC1A0BFCF70E
:1041300054F841EC1B0B9A480621B0EE4B0AF0EE06
:104140006B0A784400F0F8FAB0EE401AF0EE601A0C
:10415000B0EE41DAF0EE61DA53EC1B2B51EC1B0BA5
:10416000FCF73BF853EC1D2BFCF737F89DED100BDB
:1041700041EC1B0B53EC1A2B51EC100BFCF7A4F980
:1041800053EC1C2BFCF729F853EC1B2BFCF79CF988
:104190009DED100B41EC1B0B53EC102B51EC100B55
:1041A000FCF71BF841EC1D0B9FED7FEB53EC1E2B36
:1041B000FCF78AF953EC1B2BFCF786F90890CDE944
:1041C00008519DED080B53EC1E2B51EC100BFCF726
:1041D0001CFA53EC1D2BFCF718FA53EC1B2BFCF7C5
:1041E00017FA9DED080B41EC1D0B53EC102B9DEDC8
:1041F000100B51EC100BFBF7F0FF41EC1B0B53ECD9
:104200001A2B51EC1D0BFBF7E8FF9DED080B41EC61
:104210001A0B53EC102B51EC1C0BFBF7DEFF53EC8D
:104220001A2BFCF751F941EC1A0B51EC1B0B53EC18
:104230001A2BFCF749F90C90CDE90C519DED0C0BB4
:1042400053EC1B2B51EC100BFCF7DFF953EC1A2B42
:10425000FCF7DEF941EC1B0B9FED550B53EC102BDB
:104260009DED0C0B51EC100BFBF7B7FF41EC1A0B5B
:104270009FED510B51EC1B0B53EC102BFBF7ADFFDB
:1042800041EC1B0B9FED4E0B53EC102B9DED0C0BDB
:1042900051EC100BFBF7A1FF53EC1B2BFCF714F9AF
:1042A00041EC100B4848784400EBC40090ED001B33
:1042B00051EC100B53EC112BFCF706F941EC1B0BE6
:1042C0003846FCF7C7F9CDE9080153EC1B2B51EC3C
:1042D0001A0BFCF7F9F841EC100B3C48784400EB62
:1042E000C40090ED00CB51EC100B53EC1C2BFCF7F1
:1042F000EBF89DED081B53EC112BFCF7E5F806904D
:10430000CDE906519DED080B53EC102B9DED060BEE
:1043100051EC100BFCF779F953EC1C2BFCF775F9F9
:1043200053EC1A2BFCF771F953EC1B2BFCF770F9CB
:1043300041EC100B9DED261B53EC102B8DED001B5B
:1043400000959DED260B51EC100BFBF746FF9DED04
:10435000000B41EC1A0B53EC102B9DED260B51EC8E
:10436000100BFCF752F99DED061B53EC112B2FE0BF
:10437000000000604715F73FFE822B654715F73FA9
:1043800044DF5DF80BAE543E0000000000004043E7
:104390008E9803007AB60B0012250000402500001D
:1043A0004A24000000000000000000000000084057
:1043B000000000E009C7EE3FFD033ADC09C7EE3F0D
:1043C000F5015B14E02F3EBED622000090220000D3
:1043D000FBF703FF53EC1A2BFCF776F89DED060B69
:1043E00041EC1A0B53EC102B9DED000B51EC100B14
:1043F000FBF7F3FECDE90C019DED0C0B51EC1A0B14
:1044000053EC102BFCF760F8CDE902010C46AA49E9
:104410008C422FDB611A084318D19DED0C0B53EC35
:10442000102B9DED020B51EC100BFCF7EEF841EC5C
:104430001B0B9FEDA30B51EC1A0B53EC102BFCF74D
:1044400043F853EC1B2BFCF717F92DD2022000F098
:1044500053FA00F021FA10EE901A18EE900A8DED42
:10446000020B8DED008B61F31E0003909DED020B9E
:10447000FFF7BEBB944A24F00041914214D3934904
:10448000214408437FF4EFAC9DED0C0B53EC102B53
:104490009DED020B51EC100BFCF7B7F853EC1A2B07
:1044A000FCF7EAF87FF6DFAC24F000408849894A3F
:1044B000002601EB205182422BDA481C4FF4801178
:1044C00021FA00F02044844AC0F30A517A44A1F250
:1044D000FF3192ED000B814A8DED080BCA4020EAB6
:1044E0000202C0F3130040F48010C1F1140120FA5D
:1044F00001F60992002CB8BF76429DED080B53ECF3
:10450000102B9DED0C0B51EC100BFCF77EF8CDE958
:104510000C019DED0C0B51EC1A0B53EC102BFBF71F
:10452000D3FF9FED6F0B0890CDE9085153EC102B92
:104530009DED080B51EC100BFBF74FFE41EC1B0BF4
:104540009FED690B53EC102B9DED080B51EC100BFC
:10455000FBF743FE9DED0C0B41EC1C0B53EC102BB9
:104560009DED080B51EC100BFCF74FF853EC1A2B98
:10457000FCF74EF89FED5E1B53EC112BFBF72DFE65
:1045800053EC1C2BFBF7A0FF41EC1A0B51EC1B0B5F
:1045900053EC1A2BFBF798FFCDE902019DED020BBE
:1045A00053EC1B2B51EC100BFCF72FF853EC1A2B90
:1045B000FCF72EF89DED020B41EC1A0B53EC102B7F
:1045C00051EC100BFBF709FECDE908014A489DEDBF
:1045D000080B0521784400F0AFF89DED081B51EC65
:1045E000100B53EC112BFBF7F8FD9DED021B53EC68
:1045F000112BFCF70DF8CDE906019DED020B53ECF4
:104600001A2B51EC100BFBF7E8FD53EC1A2BFBF7C0
:104610005BFF9FED3B0B41EC1A0B53EC102B9DED18
:10462000060B51EC100BFBF7F0FF9DED060B41EC78
:104630001B0B53EC102B9DED020B51EC100BFBF7F9
:10464000CCFD53EC1B2BFBF73DFE53EC1A2BFBF779
:10465000DCFF9DED021B53EC112BFBF7D6FF53EC57
:10466000192BFBF7D5FFCDE9020101EB065001152F
:104670000029C8BF039015DC9DED020B324651ECBA
:10468000100BFBF7D0FFFFF7FDF9042808BF00F07F
:1046900013F932469DED020B51EC100BFBF7C3FFF3
:1046A000CDE902019DED020B51EC180B53EC102BE0
:1046B000FBF793FDFFF73ABB0000904000000000BD
:1046C000FE822B654715973C00CC904000346F3F2D
:1046D00001FCFFFF0000E03F18210000FFFF0F007A
:1046E00000000000432EE63F396CA80C615C20BE40
:1046F000EF39FAFE422EE63FE81F000000000000FE
:104700000000000000000040BDEC088BBDEC06CBB3
:10471000FFF720BABDEC088BBDEC06CBFFF758BA0B
:10472000BDEC088BBDEC06CBFFF765BABDEC088B82
:10473000BDEC06CBFFF76DBB70B504462DED028BCB
:104740004D1E00EBC500B0EE408AF0EE608A90EDA1
:10475000000B35F0060017D053EC182B51EC100B62
:10476000FBF73BFD41EC100B6D1E04EBC50090ED1B
:10477000001B51EC100B53EC112BFBF7A5FE41EC89
:10478000100B35F00600E7D1022D36D0042D1CD0D9
:10479000062D1CBFBDEC028B70BD53EC182B51ECE9
:1047A000100BFBF71AFD94ED0A1B53EC112BFBF7D2
:1047B0008BFE53EC182BFBF710FD94ED081B53EC0C
:1047C000112BFBF781FE41EC100B53EC182B51EC35
:1047D000100BFBF702FD94ED061B53EC112BFBF7BE
:1047E00073FE53EC182BFBF7F8FC94ED040B53EC21
:1047F000102BFBF769FE41EC100B53EC182B51EC1E
:10480000100BFBF7EAFC94ED021B53EC112BFBF7AA
:104810005BFE53EC182BFBF7E0FC94ED001B53EC14
:10482000112BFBF751FEBDEC028B41EC100B70BD60
:104830009FED070B10B553EC102B9FED070B51ECC0
:10484000100BFBF73FFD41EC100B10BD000000000A
:104850000000000000000000000000000000F03F29
:1048600010B553EC112B51EC100BFBF72DFE41EC66
:10487000100B10BD000000009FED050B10B553ECB0
:10488000102B51EC100BFBF71DFD41EC100B10BD74
:1048900000000000000000009FED050B10B553EC78
:1048A000102B51EC100BFBF798FC41EC100B10BDDA
:1048B00000000000000000709FED050B10B553ECE8
:1048C000102B51EC100BFBF788FC41EC100B10BDCA
:1048D000000000000000001002E008C8121F08C11C
:1048E000002AFAD170477047002001E001C1121F71
:1048F000002AFBD1704700000149086070470000A2
:10490000C800002082B0CDE9000121F000400190F4
:104910009DED000B02B051EC100B704708B5FCF791
:10492000CBF9FEF7B2FFFDF7F7FBFDF7B3FBFDF7A1
:1049300083FCFBF73DFF9F4800689F4908601620F5
:1049400008714FF49650886041F28830C86080004A
:1049500048610B2008740520088304208876032012
:10496000C87601200877487764208877F220C877D6
:10497000012081F82000FEF7D5FE58B109E0FDF7CF
:1049800027FC18238DA200210846FDF7E5FDFDF761
:1049900023FDF4E74FF47A70FDF7E0FB8948FDF75B
:1049A000DDF90C2388A200210846FDF7D5FD0C2077
:1049B000009081480923002102682A20FDF78DFD1F
:1049C0000C2386A219460020FDF7C6FD0C2000909E
:1049D000794806230C2182683020FDF77EFD0C23E8
:1049E00083A218210020FDF7B7FD0C20009072482B
:1049F00006231821C2681E20FDF76FFD0C2380A23C
:104A000024210020FDF7A8FD0C2000906A48062311
:104A1000242142693C20FDF760FD0C237DA230215A
:104A20000020FDF799FD0C20032300907A480288AE
:104A300030210C20FDF751FD0C2378A230212420D9
:104A4000FDF78AFD0C200323009075480288302171
:104A50000846FDF742FD0C2372A230214820FDF7E5
:104A60007BFD0C20032300906F48028830215420E6
:104A7000FDF733FDFDF7B0FC5248FDF75FF997E015
:104A80006A48007801283CD0022814D0032803D0BB
:104A9000042872D100BF88E0042064490870002215
:104AA00040214FF09040FCF7F3F8FBF7A8FE604878
:104AB000FEF7D2F879E004205C4908700122402119
:104AC0004FF09040FCF7E4F80020FEF727FD524835
:104AD0000088401C5049088008460088B0F57A7F5D
:104AE00001DB002008800C20032300904A48028844
:104AF00030210C20FDF7F1FCFBF781FEFEF784F876
:104B000053E00420494908702B48407F08B9FEF75C
:104B10005AFAFBF772FE4748FEF75AF840480088F9
:104B2000401C3F49088008460088B0F57A7F01DBC9
:104B3000002008800C20032300903948028830218F
:104B40000846FDF7CAFC0A2239493A48FBF738FB08
:104B5000A0B93948807939490870002220214FF0E6
:104B60009040FCF795F83220FBF772FE01222021DD
:104B70004FF09040FCF78CF815E015E02A480088CB
:104B8000401C2949088008460088B0F57A7F01DB7F
:104B9000002008800C200323009023480288302145
:104BA0005420FDF79AFC00E000BF00BFFDF714FCA5
:104BB00066E70000A4000020100000204552526F5C
:104BC00052000000CC00002046534B2D54583A2090
:104BD000202020202020202020487A004269745282
:104BE0006174653A2020202020202062707300002C
:104BF000466465763A20202020202020487A000054
:104C000042616E6477696474683A20202020202015
:104C100020487A00543A0000B8000020523A0000C0
:104C2000BA000020453A0000BC000020C30000206C
:104C3000380000202806002008000020C2000020C4
:104C400000B52DED048B83B041EC190BFBF75FFD34
:104C500041EC180B18EE100A18EE901A8DED008B2F
:104C6000002818BF0120084320F00040C0F17F60F9
:104C700000F1E040C00F14D019EE101A19EE900A9E
:104C80008DED009B002918BF0121084320F0004052
:104C9000C0F17F6000F1E040C00F04BF0120FFF7CA
:104CA0002BFE51EC180B03B0BDEC048B00BD0000D3
:104CB00000000000000000000000000000003F4075
:104CC0000000000000000000300040003000400004
:104CD000000009000BC03D000BC03D00090018C0DA
:104CE00024407FE0224031800000180024C01B00D7
:104CF0000D803240018003801C4027401C8007400B
:104D000000401000600000000000000000000000F3
:104D1000000000001F802040402000004020204074
:104D20001F8000000000090006001F800600090027
:104D30000000040004003F80040004000000001094
:104D400000600000000000000000040004000400F7
:104D5000040004000000000000400000000000000B
:104D60000000002001C006003800400000001F8045
:104D70002040204020401F800000000010403FC025
:104D800000400000000018C021402240244018408C
:104D9000000010802040244024401B8000000200BE
:104DA0000D0011003FC0014000003C802440244021
:104DB0002440238000001F8024402440344003808E
:104DC00000003000200027C03800200000001B80B9
:104DD0002440244024401B8000001C0022C02240AC
:104DE00022401F800000000000000840000000007A
:104DF000000000000000046000000000000000004F
:104E000004000A0011002080404009000900090048
:104E100009000900000000004040208011000A0045
:104E200004001800200023402400180000001F8008
:104E30002040274029401F400000004007C03900A3
:104E40000F0001C0004020403FC0244024401B8090
:104E500000001F8020402040204030800000204083
:104E60003FC0204020401F80000020403FC0244021
:104E70002E4030C0000020403FC024402E003000B3
:104E800000000F00108020402240338002002040AC
:104E90003FC0040004003FC02040204020403FC0ED
:104EA0002040204000000060202020203FC0200043
:104EB000200020403FC024400B0030C02040204054
:104EC0003FC020400040004000C03FC03C0003C045
:104ED0003C003FC0000020403FC00C4023003FC0CA
:104EE00020001F802040204020401F8000002040E4
:104EF0003FC024402400180000001F8021402140B2
:104F000020E01FA0000020403FC02440260019C020
:104F1000004018C02440244022403180000030006E
:104F200020403FC020403000000020003F80004073
:104F300000403F80200020003E0001C007003800F4
:104F40002000380007C03C0007C0380000002040A7
:104F500039C0060039C0204000002000384007C09A
:104F6000384020000000304021C02640384020C09A
:104F70000000000000007FE0402040200000000012
:104F800070000C0003800040000000004020402022
:104F90007FE0000000000000200040002000000032
:104FA00000000010001000100010001000100000A1
:104FB00000004000000000000000000002800540EA
:104FC000054003C0004020003FC00440044003806F
:104FD0000000000003800440044006400000000080
:104FE0000380044024403FC000400000038005408F
:104FF000054003400000000004401FC0244024403E
:105000002000000002E0055005500650042020401A
:105010003FC00440040003C000400000044027C01B
:1050200000400000000000100010041027E0000005
:10503000000020403FC00140070004C00440204061
:1050400020403FC000400040000007C0040007C0EF
:10505000040003C00000044007C00440040003C073
:10506000004000000380044004400380000004105E
:1050700007F0045004400380000000000380044057
:10508000045007F00010044007C002400400040070
:105090000000000006400540054004C0000000007C
:1050A00004001F800440004000000400078000400E
:1050B000044007C000400400070004C0018006004F
:1050C0000400060001C0070001C006000000044003
:1050D00006C0010006C0044000000410071004E0F0
:1050E0000180060004000000044005C006400440A2
:1050F00000000000000004007BE0402000000000F1
:1051000000000000FFF000000000000040207BE0F5
:10511000040000000000400080004000200020004B
:10512000400000000000000000000000000000003F
:1051300000000000000000001FCC000C0000000078
:10514000000000000800300060000800300060002F
:105150000000022003FC1E20022003FC1E2002206F
:10516000000000000E1811043FFF10840C780000AE
:1051700000000F0010840F3800C0077818840078F2
:10518000000000780F8410C411240E9800E40084FD
:105190000008080068007000000000000000000027
:1051A000000000000000000007E018182004400282
:1051B0000000000040022004181807E00000000072
:1051C00000000240024001800FF0018002400240D6
:1051D00000000080008000800FF8008000800080C8
:1051E00000000001000D000E0000000000000000A3
:1051F00000000000008000800080008000800080AF
:1052000000800000000C000C000000000000000006
:105210000000000000060018006001800600180071
:105220002000000007F0080810041004080807F028
:1052300000000000080408041FFC00040004000033
:10524000000000000E0C10141024104411840E0CE9
:10525000000000000C1810041104110412880C70D6
:105260000000000000E00320042408241FFC0024A8
:10527000000000001F9810841104110410881070A1
:105280000000000007F0088811041104188800705D
:10529000000000001C00100010FC13001C00100097
:1052A000000000000E3811441084108411440E38A0
:1052B000000000000700088C10441044088807F024
:1052C0000000000000000000030C030C00000000C0
:1052D00000000000000000010106000000000000C6
:1052E00000000000008001400220041008081004A3
:1052F00000000220022002200220022002200220C0
:105300000000000010040808041002200140008082
:10531000000000000E001200100C106C10800F0036
:10532000000003E00C1813E4142417C4082807D065
:1053300000000004003C03C41C40074000E4001CC3
:10534000000410041FFC1104110411040E880070E5
:10535000000003E00C1810041004100410081C10C6
:10536000000010041FFC100410041004080807F0CB
:10537000000010041FFC1104110417C410040818C5
:10538000000010041FFC1104110017C010000800D9
:10539000000003E00C181004100410441C780040B6
:1053A000000010041FFC10840080008010841FFC8B
:1053B00010040000100410041FFC1004100400006E
:1053C000000000030001100110011FFE100010007A
:1053D000000010041FFC110403801464181C100446
:1053E000000010041FFC1004000400040004000C62
:1053F000000010041FFC1F0000FC1F001FFC100415
:10540000000010041FFC0C04030000E010181FFC37
:10541000100007F00808100410041004080807F032
:10542000000010041FFC10841080108010800F00FA
:10543000000007F0081810241024101C080A07F2B6
:10544000000010041FFC1104110011C011300E0CDB
:10545000000400000E1C11041084108410441C3839
:1054600000001800100010041FFC100410001800A9
:10547000000010001FF810040004000410041FF8BE
:10548000100010001E0011E0001C007013801C00B2
:1054900010001FC0103C00E01F0000E0103C1FC0C7
:1054A00000001004180C163401C001C01634180C8A
:1054B000100410001C00130400FC13041C00100056
:1054C00000000804101C1064108413041C0410183D
:1054D00000000000000000007FFE40024002400289
:1054E0000000000030000C0003800060001C00037E
:1054F000000000004002400240027FFE0000000069
:10550000000000000000200040004000400020009B
:105510000000000100010001000100010001000184
:1055200000010000400040002000000000000000DA
:10553000000000000098012401440144014400FCE3
:10554000000410001FFC00880104010400880070A2
:1055500000000000007000880104010401040088BC
:1055600000000000007000880104010411081FFC05
:105570000004000000F8014401440144014400C853
:1055800000000000010401040FFC110411041100CB
:105590001800000000D601290129012901C90106CE
:1055A000000010041FFC008401000100010400FC45
:1055B000000400000104190419FC000400040000A8
:1055C00000000000000300010101190119FE0000A4
:1055D000000010041FFC0024004001B4010C010471
:1055E00000000000100410041FFC00040004000070
:1055F0000000010401FC0104010001FC01040100A0
:1056000000FC010401FC008401000100010400FC15
:105610000004000000F8010401040104010400F882
:105620000000010101FF00850104010400880070F1
:10563000000000000070008801040104010501FF62
:1056400000010104010401FC008401040100018047
:105650000000000000CC0124012401240124019851
:10566000000000000100010007F80104010400002F
:105670000000010001F8000400040004010801FC1E
:105680000004010001800170000C00100160018025
:10569000010001F0010C003001C00030010C01F0EC
:1056A000010000000104018C00740170018C0104F0
:1056B0000000010101810171000E001801600180EC
:1056C000010000000184010C013401440184010C3B
:1056D0000000000000000000000001003EFC40024D
:1056E00040020000000000000000FFFF000000007A
:1056F00000000000400240023EFC010000000000EB
:105700000000000060008000800040004000200099
:105710002000000000000000000000000000000069
:105720000000000000000000000000000000000079
:105730000000000000000000000000000000000069
:1057400000000000000F80380FFE380F8038000086
:105750000000000000000000000000000000000049
:105760000100000600000C000038000031000006B7
:1057700000000C00003800003000000000000000B5
:10578000000061800067F807F98000618000618097
:105790000061800061800067F807F9800061800087
:1057A000000000000000000001C0E003E0F006304F
:1057B000080418081FFFFE040E080787F00381E0A5
:1057C00000000000000001F000060C0004040806C0
:1057D0000C7001F9C0000E00003BE000EC18070857
:1057E00008040C180003E00000000001E00007F0CE
:1057F00003F818041C0804170807E1D003C0E000F0
:1058000023B0003C08002008000010000000000049
:10581000000100003100003200001C000000000008
:105820000000000000000000000000000000000078
:105830000000000000000000000000000000000068
:1058400000007F0001FFC00780F00C00181000046A
:105850002000020000000000002000021000040CE4
:1058600000180780F001FFC0007F0000000000006A
:1058700000000000000000000000000000004200E6
:10588000006600006600003C0000180003FFC00036
:105890001800003C000066000066000042000000A6
:1058A00000000800000800000800000800000800D0
:1058B00001FFC00008000008000008000008000008
:1058C000080000000000000100003100003200006C
:1058D0001C000000000000000000000000000000AC
:1058E00000000000000000000000080000080000A8
:1058F0000800000800000800000800000800000878
:105900000000080000080000000000000000000087
:1059100000003800003800003800000000000000DF
:105920000000000000000000000000000000000077
:105930000000000600001C000070000180000E0046
:1059400000380000C0000700001C0000300000000C
:105950000000000000007F8001FFE003807006006F
:105960001804000804000806001803807001FFE016
:10597000007F80000000000000000000010008011E
:10598000000801000803FFF807FFF8000008000006
:105990000800000800000000000000000001C038FE
:1059A00002C05804009804011804021804041806E0
:1059B0001C1803F81801E0F80000000000000000C7
:1059C0000001C0E003C0F00400080408080408084F
:1059D00006180803F41801E7F00001E000000000D9
:1059E0000000000000000300000D00001100006135
:1059F0000000810803010807FFF80FFFF800010805
:105A00000001080000000000000000E007FCD006D4
:105A10000808061008061008061008061838060FB1
:105A2000F00607C0000000000000000000003F80FA
:105A300001FFE00384300208180410080410080471
:105A40001008071810030FF00007C0000000000046
:105A50000000000003C0000700000600000600F878
:105A60000607F806180006E0000700000600000020
:105A7000000000000001E1E003F7F0063410041814
:105A800008041808040C08040C0806161803F3F0A0
:105A900001C1E000000000000000F80003FC30033A
:105AA000063804020804020804020804041003086B
:105AB000F001FFC0007F00000000000000000000B7
:105AC0000000000000000000000070380070380086
:105AD000703800000000000000000000000000001E
