:020000040800F2
:10000000C80900209D010008CB220008E71F000856
:10001000C9220008F90700084B3B00080000000057
:10002000000000000000000000000000CF2B0008CE
:1000300007080008000000002D27000845390008C7
:10004000B7010008B7010008B7010008B7010008B0
:10005000B7010008B70100080908000817080008E0
:10006000B70100082F08000831080008B701000890
:10007000B7010008B7010008B7010008B701000880
:10008000B7010008B7010008B7010008B701000870
:10009000B7010008B7010008B701000849080008C7
:1000A000B7010008B7010008B7010008B701000850
:1000B000B7010008113A00081D3A0008B70100080E
:1000C000B7010008B7010008B7010008B701000830
:1000D000B7010008B7010008B7010008B701000820
:1000E0000F080008B7010008B7010008B7010008B1
:1000F000B7010008B7010008B7010008B701000800
:10010000B7010008B7010008B7010008B7010008EF
:10011000B7010008B7010008B7010008B7010008DF
:10012000B7010008B7010008B7010008B7010008CF
:10013000B7010008B7010008B7010008B7010008BF
:10014000B7010008B7010008B7010008B7010008AF
:10015000B7010008B7010008B7010008B70100089F
:10016000B7010008B7010008B7010008B70100088F
:10017000B7010008B7010008B7010008000000003F
:10018000B7010008B7010008DFF80CD000F08CFAC6
:1001900000480047E5490008C80900200648804794
:1001A00006480047FEE7FEE7FEE7FEE7FEE7FEE75C
:1001B000FEE7FEE7FEE7FEE7CD390008890100080B
:1001C00030B504460020034600E05B1C934203D296
:1001D000E05CCD5C401BF8D030BD2DE9F04D81EAEC
:1001E000030404F0004B21F0004514464FF0000AD0
:1001F00023F0004150EA050220D054EA01021DD04C
:10020000C5F30A570246C5F31303C1F31300C1F344
:100210000A5640F4801543F48013A7EB0608101B20
:10022000D64608F2FD3873EB050002D308F1010849
:1002300001E092185B41B8F1000F03DA002001469B
:10024000BDE8F08D00204FF48011064684460EE094
:10025000171B73EB050705D3121B63EB050306435E
:100260004CEA010C49084FEA300092185B4150EA11
:100270000107EDD152EA030012D082EA040083EABA
:100280000501084305D0101BAB4106D20122002313
:1002900006E000224FF0004302E06FF0010253102D
:1002A0001AEB06004CEB085110EB0A0041EB0B0176
:1002B000BDE8F04D00F036B80EB540F23341029182
:1002C0000021CDE900110A460B4600F03AF803B0D0
:1002D00000BDC1F30A5210B5C1F3130140F2FF3360
:1002E00041F480119A4201DA002010BD40F23343FC
:1002F0009A42A2F2334203DC524200F003F810BDEE
:10030000904010BD202A04DB203A21FA02F000219F
:10031000704721FA02F3D040C2F120029140084315
:100320001946704710B5141E73F1000408DA401C1A
:1003300041F1000192185B411A4301D120F0010004
:1003400010BD2DE9F04D92469B4611B1B1FA81F2F4
:1003500002E0B0FA80F22032904600F0B7F904468D
:100360000F4640EA0A0041EA0B0153465A46084349
:1003700013D0114653EA010019D0C8F1400250468B
:10038000FFF7C0FF05460E4650465946424600F06C
:100390009DF9084305D0012004E020463946BDE818
:1003A000F08D0020054346EAE0762C4337430A9857
:1003B0006305E40AA0EB08000022FD0A44EA475462
:1003C0000A3002D500200146E9E70105101969410C
:1003D000DDE9084500196941BDE8F04DA2E72DE9C6
:1003E000FE4F804681EA0300C00F0C46009021F0CA
:1003F000004123F00045B8EB0200A94105D2404678
:10040000214690461C460B46024623F0004010430E
:1004100047D0270DC7F30A00C3F30A510290401AD0
:10042000019040286BDAC3F3130040F4801B00985E
:10043000924620B10023D2EB030A63EB0B0B019829
:100440005946C0F14002504600F040F906460D46BC
:1004500050465946019A00F048F910EB08006141F6
:10046000002487EA115284EAE7731A4340D0009AC5
:1004700062B3019A012A4FEA075215DC001B61EBB7
:1004800002014FF0004202EA0752CDE90042001C8F
:1004900041F5801132462B46FFF753FF03B000F0C1
:1004A00045B840462146F9E7001B61EB0201001CFC
:1004B00041F5801300185B412018A2F5001747EBA7
:1004C000030140EAD570B6196D4111E06D084FEA9D
:1004D000360645EAC0754FEA0752001B61EB020180
:1004E000001C41F5801149084FEA300000195141C4
:1004F00032462B4603B000F01CB8FFF713BF00983C
:10050000012240000023D0EB020263EBE07300986D
:1005100021464FEAE074B8EB000061EB0401E9E723
:1005200083F000435BE781F0004158E730BCBDE851
:10053000C08F30BCBDE8C04FFFF7DFBF2DE9FE4FD5
:1005400081EA030404F0004421F0004100944FF0DC
:10055000000B23F0004350EA01045ED052EA03048A
:100560005BD0C3F30A54C1F30A552C44A4F2F3340C
:100570000194A0FB0254C1F3130141F48011C3F3B1
:10058000130343F4801301FB024400FB034E840A6F
:10059000970A44EA815447EA8357A4FB0768029507
:1005A0008D0A05FB07854FEA932C04FB0C542705A5
:1005B000029D4FEA065847EA1637B5EB08056EEB81
:1005C000070C870E920E47EA811742EA8312A7FBB7
:1005D0000201B6EB0B0164EB00042B0D43EA0C3374
:1005E0005E1844EB1C50DA465146E7FB0201C5F3A6
:1005F00013044FEA0B3343EA14534FEA0432019CCD
:1006000043EA0603A4F10C040294009CCDE900B473
:10061000FFF797FE03B000F003B800200146F9E7AA
:1006200030BCBDE8C08F70B521F0004303430CD04F
:10063000C1F30A550024D5EB040564EB0403D61777
:10064000AD1AB34102DB0020014670BD201841EB1A
:10065000025170BD0EB5C10F80EAE0700844CA07B0
:10066000002140F233438DE80E000A460B46FFF7A7
:1006700068FE03B000BD000030B5041E71F1000437
:1006800004DB4FF00044404264EB0101141E73F19F
:10069000000405DB1C464FF00043524263EB0403A9
:1006A000994208BF904230BD064C074D06E0E06815
:1006B00040F0010394E8070098471034AC42F6D3A9
:1006C000FFF766FD80660008A0660008202A04DBAC
:1006D000203A00FA02F1002070479140C2F1200355
:1006E00020FA03F3194390407047202A06DBCB170A
:1006F000203A41FA02F043EAE07306E041FA02F3DD
:10070000D040C2F1200291400843194670472DE9BC
:10071000F04D00231A461B1A8A4103DB00200146D4
:10072000BDE8F08DC1F30A52C1F3130141F4801505
:100730004FF0000BD10702D100186D41521E002767
:10074000044640F2FF11384601EB620A3E468046FD
:10075000024600204FF48011FFF7D4FDC219714109
:10076000BB1846EB0100B4EB030C75EB000C04D393
:10077000E41A65EB000517460E46241908F101003E
:100780006D4180463428E3DDF91946EB0600091B6C
:10079000A84103D24FF0FF32134601E00022134676
:1007A0001BEB070046EB0A51BDE8F04DFFF7BABD61
:1007B00030B50F4887B0C16C41F00801C164C06C0E
:1007C0004FF4806400F0080005900120CDE900405E
:1007D0000020084D029003906946284600F04AF92F
:1007E00000222146284600F033FA07B030BD000051
:1007F00000100240000C0048FEE702F079BA02F057
:100800007ABA02F04DBA7047012000F027B94FF4D0
:10081000004000F023B910B5072000F08DFA022047
:1008200000F01CF9BDE81040072000F090BA7047B6
:1008300010B50A2000F080FA102000F00FF9BDE892
:1008400010400A2000F083BA4FF4407000F006B95F
:1008500070B5044600F002FA0546601C00D0641C26
:1008600000F0FCF9401BA042FAD370BD2DE9F84F0F
:10087000DFF8C4A14FF400494946504600F0E3F9BF
:1008800005276E4C6E4E0C254FF00408B0BB32208D
:10089000FFF7DEFF4946504600F0D5F970BB6948C6
:1008A00001F03CFAB078401CC1B2B170FF20491F82
:1008B000082915D2DFE801F00406090B2C333A4170
:1008C00067710DE0062060710AE0072100E0082151
:1008D0006171009000230A221621012002F063FDBD
:1008E00000950223B2780C21122001F090FE01F055
:1008F0000DFEB0780B2801D986F80280DFF8489108
:100900004FF4807A5146484600F09DF9E0B13FE04F
:100910000921617100230A221721009012E00A21A7
:10092000617100230A46182100900BE00B216171D0
:1009300000230A221921009004E0657100230A2295
:100940001A2100900220C9E73220FFF781FF5146AB
:10095000484600F078F9D8B93A4801F0DFF9FFF7D6
:100960004CFFF0783649401C40B21431F07051F819
:1009700020202260092300213020009501F047FE4D
:1009800001F0C4FD96F90300042801DBFF20F0709C
:100990004FF4007A51464D46484600F054F978BB72
:1009A0003220FFF755FF5146284600F04CF938BB7E
:1009B00002F042FF50B101F0A5FC0021182323A250
:1009C000084601F063FE01F0A1FDF4E70022F28089
:1009D0003281102506232C211820009501F017FEE6
:1009E0000095032332892C21502001F010FE01F0E4
:1009F0008DFD02F007FB002002F006FB86F8058063
:100A0000FFF7FFFE012814D102F0F3FB0546C007F3
:100A100001D00320707105F04200022806D1207A2F
:100A2000012801D102F0A7FB02207071280600D531
:100A3000777100F00FB8000000040048100000209B
:100A40002400002050000020000C004845526F5246
:100A50000000000018BCBDE8E08F0000044910B59C
:100A60000A68024202D00860FFF700FF10BD0000D4
:100A7000140401402DE9F84FDFF8A091002209F19C
:100A8000040A0AF1040B4FF00F080BF1040EBEE04C
:100A900001249440234075D04D68022D01D0122DC1
:100AA00011D1D50800EB85073E6A5507ED0E08FA0F
:100AB00005FC26EA0C06D1F810C00CFA05FC4CEA3D
:100AC000060CC7F820C007685500032691F804C03B
:100AD000AE400CF0030CB7430CFA05FC4CEA070CD3
:100AE000C0F800C04F68012F05D0022F03D0112F8E
:100AF00001D0122F15D18768D1F80CC0B7430CFA7A
:100B000005FC4CEA070CC0F808C0476891F804C01F
:100B1000A743CCF3001C0CFA02FC4CEA070CC0F80B
:100B200004C0D1F804C06FEA0C07BF0706D1C76A3A
:100B3000A743CCF3C00494403C43C462C468B443AC
:100B40008E68AE402643C6604C68E4005ED5344CE7
:100B5000256E45F001052566246E22F0030504F09C
:100B6000010400942F4C2E19B7689407250F08FA3A
:100B700005F4A743B0F1904F05D02B4CA04204D10F
:100B800001241CE042E0002419E0284CA04201D1DD
:100B9000022414E0264CA04201D103240FE0254C8E
:100BA000A04201D104240AE0234CA04201D1052433
:100BB00005E0224CA04201D1062400E00724AC400D
:100BC0003C43B460D9F800404D464E689C43F60360
:100BD00000D51C432C60DAF8004055464E689C4313
:100BE000B60300D51C432C60DBF800405D464E6820
:100BF0009C43F60200D51C432C60DEF8004075468D
:100C00004E689C43B60200D51C432C60521C0B68F6
:100C100033FA02F47FF43CAF00F012B80004014054
:100C20000010024000000140000400480008004895
:100C3000000C00480010004800140048001800484C
:100C400018BCBDE8E08F0069084000D00120704763
:100C50000AB18161704781627047000001480068F5
:100C6000704700000000002002480168491C016034
:100C7000704700000000002010B5032000F092F83B
:100C8000002000F005F800F017F8002010BD00006B
:100C900010B5044607484FF47A710068B0FBF1F0D4
:100CA00000F098FF00222146501E00F05BF8002063
:100CB00010BD0000200000201E4808B5016E41F064
:100CC00001010166016E01F001010091816D41F0A9
:100CD00080518165806D00F080500090032000F00D
:100CE00061F8002211466FF00B0000F03BF8002283
:100CF00011466FF00A0000F035F8002211466FF03F
:100D0000090000F02FF800221146501F00F02AF8C9
:100D100000221146101F00F025F800221146901EF7
:100D200000F020F80022BDE808401146501E00F0F7
:100D300019B800000010024000F01F02012191408C
:100D40004009800000F1E020C0F88011704700F0F9
:100D50001F02012191404009800000F1E020C0F80D
:100D600000117047F0B40E4B1B68C3F30223C3F1AC
:100D70000704042C00D904241D1D072D01D20023D3
:100D800000E0DB1E012606FA04F56D1E0D409D40B5
:100D90009E40761E164045EA0601F0BC01F096BA68
:100DA0000CED00E0064A00F0070110684FF6FF0363
:100DB000184040EA012003490843106070470000D2
:100DC0000CED00E00000FA051549B0F5007F086859
:100DD000C0F3412009D0022805D0086820F4C06083
:100DE00040F480600860002070470128FBD008684C
:100DF00020F4C06040F4007008600A480A4A0068A5
:100E0000B0FBF2F03222504300E0401E10B14A69BC
:100E10005205FAD448694005E5D503207047000023
:100E2000007000402000002040420F00024800688F
:100E300000F4C06070470000007000402DE9F84FDA
:100E4000044600250088E44E2F46010504F1200BDE
:100E50001DD5606E78B1B0F5800F11D0B0F5000FE0
:100E600004D0B0F5400F22D001250FE0F06840F427
:100E70008030F0601BE00021201D01F059FC03E0F0
:100E80000021584601F00AFD050010D02F462088A9
:100E9000C00426D5A06EC0B1B0F1807F1AD0B0F1E9
:100EA000007F0DD0B0F1407F19D0012518E0D6F8B1
:100EB0008800616E20F440000843C6F88800E6E729
:100EC000F06840F48030F06009E00021201D01F05E
:100ED0002FFC03E00021584601F0E0FC0546F5B187
:100EE0002F462068800366D5B06D4FF00009C00022
:100EF00009D4B06D40F08050B065B06D4FF001097D
:100F000000F080500090DFF8D4A2DAF8001041F42D
:100F10008071CAF80010FFF7A1FE804610E0D6F8F5
:100F20008800A16E20F040700843C6F88800D8E71A
:100F3000FFF794FEA0EB0800022801D9032532E058
:100F4000DAF80000C005F3D56DBBD6F8900010F4B8
:100F5000407015D0D4F88410814211D0D6F890009A
:100F6000D6F8901020F4407041F48031C6F890100B
:100F7000D6F8901021F48031C6F89010C6F8900091
:100F8000C0074ED0FFF76AFE804641F2883A05E07E
:100F9000FFF764FEA0EB08015145CFD8D6F89000CA
:100FA0008007F5D5EDB32F46B9F1000F03D0B06D32
:100FB00020F08050B0652078C00707D0D6F88800B0
:100FC000A16B20F003000843C6F888002078800752
:100FD00007D5D6F88800E16B20F00C000843C6F86E
:100FE00088002078400707D5D6F88800216C20F0CB
:100FF00030000843C6F888002078000707D5D6F8E7
:101000008800616C20F0C0000843C6F88800207892
:10101000C00609D5D6F88800A16C20F440700843BA
:1010200000E05AE0C6F888002078800607D5D6F898
:101030008800E16C20F440600843C6F888002088EE
:10104000800507D5D6F88800E16D20F440200843DC
:10105000C6F888002088400507D5D6F88800216E9C
:1010600020F440100843C6F888002078400607D5D1
:10107000D6F88800216D20F440500843C6F8880057
:101080002078000607D5D6F88800616D20F440402E
:101090000843C6F888002088C00507D5D6F8880020
:1010A000A16D20F440300843C6F8880020884FF036
:1010B000006580044FF0806821D5D6F88800E16E85
:1010C00020F040600843C6F88800E06EA8420ED1C8
:1010D000F06840F48010F06011E0D6F89000D4F889
:1010E000841020F440700843C6F890005CE7404547
:1010F00005D10121201D01F01BFB00B1074620682E
:10110000000317D5D6F88800216F20F0406008430F
:10111000C6F88800206FA84204D1F06840F480101F
:10112000F06007E0404505D10121201D01F000FBE2
:1011300000B107462068400317D5D6F88800616FD4
:1011400020F040600843C6F88800606FA84204D1D0
:10115000F06840F48010F06007E0404505D10121BF
:10116000201D01F0E5FA00B10746208840041AD599
:10117000D6F88800A16F20F040500843C6F88800D8
:10118000A06FB0F1805F03D0B0F1005F05D00AE03E
:101190000221201D01F0CCFA03E00221584601F0A3
:1011A0007DFB00B107462088000407D5D6F88800EB
:1011B000E16F20F080400843C6F888002068C00333
:1011C00007D556F8880FD4F8801020F00040084367
:1011D0003060384600F004B8001002400070004053
:1011E00018BCBDE8E08F00002DE9F047DFF864810E
:1011F00004460E46D8F8000000F00700B0420CD2BA
:10120000D8F8001021F007013143C8F80010D8F8D1
:10121000000000F00700B04272D120784E4F8007E6
:1012200005D5B868A16820F0F0000843B8602078C0
:10123000C00754D06068022818D0032819D0396834
:10124000D0B1490500295BDAB96821F003010143F7
:10125000B960FFF703FD0546606841F28831022856
:1012600012D003281DD0894638B333E0396889038A
:10127000E8E739688901E5E78907E3E7FFF7EEFC6E
:10128000411B494501D922E08946B868C0F3810075
:101290000228F3D123E0FFF7E1FC411B494501D9C6
:1012A00015E08946B868C0F381000328F3D116E041
:1012B000FFF7D4FC411B494509D8B86810F00C0F62
:1012C000F6D10CE0FFF7CAFC411B494502D90320C7
:1012D000BDE8F087B868C0F381000128F2D1D8F8E2
:1012E0000010404601F00701B1420BD9016821F01E
:1012F000070131430160006800F00700B04201D0EF
:101300000120E5E72078400705D5B868E16820F4BA
:10131000E0600843B8602078000706D5B868216906
:1013200020F4605040EAC100B86000F021F8B968CC
:10133000F02292FAA2F201F0F001B2FA82F2D14068
:10134000064A515CC840064908600020FFF7A0FC2F
:101350000020BDE70020024000100240AC650008FC
:101360002000002001480068704700002000002095
:1013700070B53B4B0022104699683A4C11F00C0FA7
:101380004FEA640514D09968C1F38101032904D19F
:10139000D96801F0030101290AD09968C1F38101DC
:1013A000012921D09968C1F3810102291ED01EE0D4
:1013B0001968090706D4D3F894104FF4706201F449
:1013C000706103E01968F02201F0F00192FAA2F2D4
:1013D000B2FA82F2D140244A52F82120996811F0E1
:1013E0000C0F04D1104602E0204600E02846996820
:1013F000C1F38101032931D1D868D96800F0030015
:10140000702696FAA6F601F07001B6FA86F6F1405B
:10141000491C4FF4FE46022804D0032805D0B2FB35
:10142000F1F004E0B4FBF1F001E0B5FBF1F0D968B4
:1014300096FAA6F201F4FE41B2FA82F2D140484394
:10144000D9684FF0C06292FAA2F201F0C061B2FA1C
:1014500082F2D140491C4900B0FBF1F070BD0000A0
:10146000001002400024F400BC6500082DE9F84398
:1014700004460078FD4DC00663D5A86810F00C0F37
:101480000AD0A0690028286878D040F001002860C0
:10149000FFF7E4FB06465AE02868800702D5A069FA
:1014A00000286AD0216A28684FF0F006000703D5AB
:1014B000286800F0F00003E0D5F8940006EA101068
:1014C000814216D9084601F087FA002855D12868CC
:1014D00040F0080028602868216A20F0F0000843E6
:1014E00028606868E16920F47F4040EA0120686074
:1014F00015E0286840F0080028602868216A20F07C
:10150000F000084328606868E16920F47F4040EA01
:1015100001206860206A01F05FFA0028D6D1FFF749
:1015200027FFA96896FAA6F201F0F001B2FA82F25A
:10153000D140CF4A515CC840CE4908600020FFF737
:10154000A7FB2AE0FFF78AFB801B02287ED82868C9
:101550008007F7D5286840F0080028602868216ACD
:1015600020F0F000084328606868E16920F47F40BB
:1015700040EA0120686010E000E0B3E020F00100E4
:101580002860FFF76BFB064604E0FFF767FB801B54
:101590000228DBD828688007F7D42078C00746D017
:1015A000A868C0F3810002281DD0A868C0F381009C
:1015B000032803D1E868C043800714D06068B0F501
:1015C000803F17D0B0F5A02F286817D020F48030C6
:1015D0002860286820F4802028606068D8B1FFF770
:1015E0003DFB064613E02868800320D5606800288C
:1015F00078D01CE0286840F48030EDE740F480208B
:101600002860F7E7FFF72AFB801B64289ED828682C
:101610008003F7D50BE0FFF721FB064604E0FFF758
:101620001DFB801B642891D828688003F7D420789C
:10163000800747D5A8684FF0F857C0F3810001280C
:1016400016D0A868C0F38100032800E0AAE004D106
:10165000E86800F0030002280AD0E0680028286843
:1016600021D040F480702860FFF7F8FA06460BE0BE
:10167000286840050BD5E0680028B9D007E0FFF7DF
:10168000EDFA801B022884D828684005F7D56868E1
:1016900097FAA7F22169B2FA82F220F0F85091404D
:1016A000084368600EE020F480702860FFF7D6FAE7
:1016B000064604E0FFF7D2FA801B022872D8286899
:1016C0004005F7D42078000728D560690028D5F8B0
:1016D000940012D040F00100C5F89400FFF7BEFA64
:1016E000064605E0F6E0FFF7B9FA801B022859D854
:1016F000D5F894008007F6D510E020F00100C5F879
:101700009400FFF7ABFA064604E0FFF7A7FA801B48
:10171000022847D8D5F894008007F6D420784007EF
:1017200062D5A86D0027C00008D4A86D40F0805095
:10173000A865A86D012700F0805000904E48016810
:10174000C90511D40168804641F480710160FFF73A
:1017500085FA064604E0FFF781FA801B022821D8AB
:10176000D8F80000C005F6D5A068012815D00528D6
:10177000D5F8900017D020F00100C5F89000D5F8FA
:10178000900020F00400C5F89000A06841F288386D
:10179000C0B1FFF763FA06460FE0D5F8900040F0BD
:1017A0000100F0E761E040F00400C5F89000F4E7C4
:1017B000FFF754FA811B414557D8D5F890008007B0
:1017C000F6D50CE0FFF74AFA064604E0FFF746FAC2
:1017D000811B414576D8D5F890008007F6D41FB11B
:1017E000A86D20F08050A865A06AE8B3A968C1F38D
:1017F000810103296ED00228286820F080702860BB
:1018000011D02868000106D42868800003D4E86855
:1018100020F00300E860E86818490840E860FFF736
:101820001DFA044651E0FFF719FA064604E0FFF7F7
:1018300015FA801B022845D828688001F7D4206B50
:10184000E16A000110380843616BA26B09021209BA
:1018500041EA42410843A18F094A490802EB41513C
:10186000084394F840100DE032E02BE000100240F5
:10187000AC6500082000002000700040FFFFEEFE75
:101880000000E0FF4908120102EB41610843E860F3
:10189000286840F080702860E86840F08070E86058
:1018A000FFF7DCF9044604E0FFF7D8F9001B022833
:1018B00008D828688001F7D50AE0FFF7CFF9001BA8
:1018C000022802D90320BDE8F88328688001F4D4F7
:1018D0000020F8E70120F6E72DE9F041040005D0EB
:1018E0000025A56294F85D0018B107E00120BDE86D
:1018F000F08184F85C50204600F044F8022684F819
:101900005D602068016821F040010160E0684FF4EB
:10191000E062904201D9002101E04FF48051B0F51E
:10192000706F02D0904200D0A562276B012327B9C7
:10193000904201D9266300E02363D4E901021043F9
:10194000D4E9042632431043228B02F40072104380
:10195000E2691043226A1043A26A104322681060B1
:10196000626B606AA66910430427E26807EA1646BC
:1019700032431043084321684860256684F85D308F
:101980000020B4E770472DE9F05F044690F85C0052
:101990000127DDF828809A4616460D464FF00009CB
:1019A00001280ED0012084F85C00FFF757F9834628
:1019B00094F85D00616801280CD0B1F5827F07D1F1
:1019C00002E0022000F0F6B8A16809B9042801D0AD
:1019D00002206EE035B32EB3BAF1000F22D094F896
:1019E0005D00042802D0052084F85D0000202066F8
:1019F0002664A4F846A0A4F844A0A563A4F83EA0D9
:101A0000A4F83CA0E0642065E0684FF4E0618842FF
:101A100003D8B4F84600012806D92068426822F4A9
:101A2000805205E0012044E02068426842F4805280
:101A3000426020680268520603D4026842F0400205
:101A40000260E0688842606844D910B1E08F0128E4
:101A500038D1216835F8020BC860E08F401EE0875E
:101A600030E067B1E08F50B120688168890706D502
:101A700035F8021BC160E08F401EE0870027B4F8F4
:101A8000460060B120688168C90708D0C06826F8A0
:101A9000020BB4F84600401EA4F846000127B8F136
:101AA000FF3F0FD0FFF7DAF8A0EB0B01414509D358
:101AB00003208146012084F85D00002084F85C004A
:101AC00048467FE7E08F0028CBD1B4F846000028D5
:101AD000C7D162E010B1E08F012857D1E08F012813
:101AE00006D9216835F8020BC860E08F801E05E03A
:101AF000216815F8010B0873E08F401EE08745E070
:101B0000AFB1E08F98B12068816889070FD5E18F68
:101B1000012905D935F8021BC160E08F801E04E061
:101B200015F8011B0173E08F401EE0870027B4F811
:101B3000460010B320688168C9071ED0B4F846106B
:101B4000012911D9C06826F8020BB4F84600801E9E
:101B5000A4F84600B4F8460001280DD82068416872
:101B600041F48051416007E0007B06F8010BB4F8B6
:101B70004600401EA4F846000127B8F1FF3F05D0FB
:101B8000FFF76CF8A0EB0B01414591D2E08F0028E4
:101B9000B6D1B4F846000028B2D15A464146204694
:101BA00000F058FF08B120202066206E00287FF446
:101BB00039AF7FE730BCBDE8C09F4FF0E02104287B
:101BC000086903D020F004000861704740F0040069
:101BD000FAE7704710B5401EB0F1807F01D30120B5
:101BE00010BD4FF0E02460610F21601700F06EFB24
:101BF0000020A06107202061002010BD10B5FFF774
:101C0000E8FF10BD7047704730B590F83820012AC2
:101C10001FD0012280F8382003685A689D680E4C56
:101C2000A34202D00D4CA34203D122F470044A68AF
:101C3000224322F070040A688968224325F0800458
:101C400021435A6002689160002180F838100846EC
:101C500030BD022030BD0000002C014000340140A6
:101C600010B5040003D094F8390010B107E001204A
:101C700010BD002084F83800204600F00DF8022046
:101C800084F83900211D206801F0CEFE012084F87F
:101C90003900002010BD000008B50068144A15493D
:101CA00090420ED1886D40F002008865886D002258
:101CB00000F00200009011461D20FFF753F81D2090
:101CC00010E00D4A904211D1886D40F00400886503
:101CD000886D002200F00400009011461E20FFF7DE
:101CE00041F81E20BDE80840FFF731B808BD0000EC
:101CF00000040040001002400008004002686FF03D
:101D0000010111610168CA6842F00102CA600068FD
:101D1000016841F001010160002070470168CA6854
:101D200022F00102CA600068016A41F211121142F8
:101D300007D1016A9210114203D1016821F001011B
:101D4000016000207047000070B5044690F838002C
:101D5000012817D0012584F83850022084F8390072
:101D600020688268354E324022F47F4282600868E3
:101D7000502838D00DDC20285AD005DC90B310282C
:101D800042D152E0022070BD302854D040283BD1CF
:101D900040E060282FD070280CD0B0F5805F03D0D1
:101DA000B0F5005F30D112E020688168234A7032BC
:101DB00011400AE0CB68D1E90121206801F090FED2
:101DC00020688168314041F0770181601CE0CB6878
:101DD000D1E90121206801F083FE2068816841F487
:101DE0008041F2E71EE0CA684968206801F08AFE77
:101DF0005021206806E0CA684968206801F093FE17
:101E00006021206801F076FE84F83950002084F8C3
:101E1000380070BDCA684968206801F073FE40212F
:101E20002068EFE700212068ECE710212068E9E74F
:101E300020212068E6E730212068E3E788FFFEFFE5
:101E4000704770B50446006801694FF00005C9434A
:101E5000890715D4C168C943890711D4E91E0161F6
:101E600001202076206880698007204602D0FFF795
:101E7000E7FF04E000F098F8204600F096F8257699
:101E800020680169C943490717D4C168C943490794
:101E900013D46FF00401016102202076206880696C
:101EA00010F4407F204602D0FFF7CAFF04E000F0A4
:101EB0007BF8204600F079F8257620680169C9434F
:101EC000090716D4C168C943090712D46FF0080185
:101ED0000161042020762068C0698007204602D076
:101EE000FFF7AEFF04E000F05FF8204600F05DF879
:101EF000257620680169C943C90617D4C168C9435A
:101F0000C90613D46FF01001016108202076206803
:101F1000C06910F4407F204602D0FFF791FF04E033
:101F200000F042F8204600F040F82576206801696C
:101F3000C943C90708D1C168C943C90704D1891E6B
:101F40000161204600F032F820680169C9430906A2
:101F500009D4C168C943090605D46FF08001016145
:101F60002046FFF74FFE20680169C943490609D49E
:101F7000C168C943490605D46FF04001016120469C
:101F800000F030F820680169C94389060BD4C168A4
:101F9000C943890607D46FF0200101612046BDE8DE
:101FA0007040FFF730BE70BD704770470A4910B5EA
:101FB000884203D109490420487110BD084988426C
:101FC000FBD100F099F901F01DF8002001F01CF898
:101FD000BDE8104000F098BB500000202400002015
:101FE0008C0000207047FEE770B501220B4D5402B3
:101FF00021462846FEF72CFE0122160231462846CD
:10200000FEF726FE002221462846FEF721FE314635
:102010002846BDE870400022FEF71ABE00040048C2
:1020200070B50A4C012211022046FEF711FE4FF452
:102030000075002229462046FEF70AFE2946204662
:10204000BDE870400122FEF703BE00000004004816
:1020500070B50122064D140221462846FEF7F8FD10
:1020600021462846BDE870400022FEF7F1BD000081
:102070000004004830B51C4887B0C16C41F0020133
:10208000C164C16C01F002010591C16C41F008010D
:10209000C164C06C154D00F0080005904FF400407D
:1020A000CDE900050124694602941148FEF7E2FCDF
:1020B0004FF44070CDE90005694602940D48FEF7E3
:1020C000D9FC002201211720FEF74CFE1720FEF755
:1020D0003EFE002201212820FEF744FE2820FEF7C4
:1020E00036FE07B030BD0000001002400000211095
:1020F00000040048000C00480F4810B5C16C86B0C1
:1021000041F00101C164C06C4FF0904400F0010047
:102110000590012270212046FEF79AFD70211120C2
:10212000CDE9001000210291039169462046FEF797
:10213000A1FC06B010BD0000001002402D4A2E493F
:10214000106808442D49884237D2107900F00F01F9
:1021500011710A2931D8A2F10C000B290ED2DFE847
:1021600001F0433D37312E09060D403A34009FED12
:10217000240A01E09FED230A80ED010A517901F064
:102180000F014B1F5171082B17D20223491E8B40A0
:1021900000EE103AD0ED010AB8EEC00A80EE201A27
:1021A00080ED021A907900F007009071401E04281B
:1021B00003D292F90700162819DD002070479FED21
:1021C000120AD9E79FED110AD6E79FED110AD3E76E
:1021D0009FED100AD0E79FED100ACDE79FED0F0AA3
:1021E000CAE79FED0F0AC7E79FED0E0AC4E701207B
:1021F000704700001000002080E58FE70184D717AA
:102200000000FA4300007A430000FA4200007A42DC
:1022100014AE26420000FA41D7A3A6417B147A41AE
:1022200052B8264185EBF94010B5124988B0104AE2
:102230000A604FF6FF120024401E4A60C1E90240C6
:1022400008460C61FFF70CFD00280ED14FF48050BA
:10225000039003A90748FFF777FD002805D10094F4
:10226000694604480294FFF7CFFC08B010BD000097
:10227000000400405000002010B5124988B0104AF8
:102280000A604FF6FF120024401E4A60C1E9024076
:1022900008460C61FFF7E4FC00280ED14FF4805093
:1022A000039003A90748FFF74FFD002805D10094CC
:1022B000694604480294FFF7A7FC08B010BD00006F
:1022C000000800408C000020FEE770470907090E57
:1022D000002806DA00F00F0000F1E02080F8141D5D
:1022E000704700F1E02080F8001470470148FFF7C4
:1022F00015BD0000500000200148FFF70FBD000091
:102300008C00002030B40021084B0A46002003EB6B
:10231000C004401CC0B262548028F8D3491CC9B222
:102320000829F3D330BC00F0F1B800003C010020D4
:1023300010B57F2816D83F2914D80723A3EBD10363
:1023400001F00701C1F107040121A140064CDBB2F5
:1023500004EBC000002AC25CC9B201D00A4300E00D
:102360008A43C25410BD00003C010020F0B5604813
:1023700087B0C16C41F00201C164C16C01F002017F
:102380000591C16C41F00801C164C06C4FF4407507
:1023900000F0080005900126564FCDE900560224B2
:1023A000694603943846FEF765FB01222946384604
:1023B000FEF74EFCED0003944F4CCDE90056694604
:1023C0002046FEF757FB012229462046FEF740FC37
:1023D0000022F1022046FEF73BFC012215032946AC
:1023E0002046FEF735FC7820FEF732FA0022294617
:1023F0002046FEF72DFC7820FEF72AFA0122294616
:102400002046FEF725FC0021AE2000F061F90021F6
:10241000022000F05DF90021102000F059F90021A0
:10242000402000F055F90021812000F051F90021F1
:10243000FF2000F04DF90021A12000F049F9002112
:10244000C02000F045F90021A62000F041F900214C
:10245000A82000F03DF900213F2000F039F90021CB
:10246000D32000F035F90021084600F031F90021B1
:10247000D52000F02DF90021802000F029F900215D
:10248000D92000F025F90021F12000F021F90021E8
:10249000DA2000F01DF90021122000F019F90021C6
:1024A000DB2000F015F90021402000F011F9002197
:1024B000202000F00DF90021022000F009F9002190
:1024C0008D2000F005F90021142000F001F9002111
:1024D000A42000F0FDF80021A62000F0F9F800216A
:1024E000AF2000F0F5F8FFF70DFF07B0F0BD0000DA
:1024F0000010024000040048000C00480346012080
:1025000000E05843491EC9B2FBD2704770B5104E67
:10251000002505F1B000C0B2002100F0D9F800217B
:10252000022000F0D5F80021102000F0D1F800249E
:1025300006EBC4000121405D00F0CAF8641CE4B25F
:10254000802CF5D36D1CEDB2082DE2D370BD0000D8
:102550003C0100202DE9F84F83461E460F468A466F
:10256000580700D0012000EBD600710810FB01F0E5
:10257000203AC0B202F0FF090025009039E00C2E8D
:102580000FD0102E11D0182E36D11C4909EBC900DE
:1025900001EB80004FF00008445D200609D50A9A3F
:1025A0000AE009EB49001649F2E7164901EB091068
:1025B000F0E70A9890B1002239465846FFF7B8FE76
:1025C00060067F1C040EFFB2A7EB0A00B04207D1E1
:1025D0000BF10100574600F0FF0B08E00122EBE78A
:1025E00008F1010000F0FF08B8F1080FD5D36D1C09
:1025F000EDB200988542C2D300F006B84E580008EC
:10260000EA4D00085E52000818BCBDE8E08F2DE9D5
:10261000FF4F81B00027DDF838B01D469246804656
:102620003C464FF001094FEA5B0627E0281B401E9D
:10263000C1B20A20FFF762FFBAFBF0F00A21B0FB3B
:10264000F1F201FB120027B9691E8C4201DA48B190
:1026500001273030C2B206FB0480C0B25B46CDF821
:10266000009006E006FB0480C0B25B462022CDF855
:1026700000900299FFF76EFF641CE4B2AC42D5D320
:1026800005B000F000B830BCBDE8C08F2DE9F843BC
:102690001F4615460E4604464FF00109C3F1800857
:1026A0000FE03B4631462046CDF80090FFF752FF41
:1026B00004EB5700C4B2A04502DA0024B61CF6B2FF
:1026C0006D1C2A78A2F120005E28EAD9BDE8F883C3
:1026D00070B50C460546FFF787FC782001F006F937
:1026E000FFF7B6FC0CB1402000E0002001F0FEF83E
:1026F000FFF7AEFC284601F0F9F8FFF7A9FCBDE8AA
:102700007040FFF78DBC00000148FFF7F7BA0000EA
:102710005000002010B542F21070FFF7ADFDBDE88B
:1027200010400148FFF7EABA8C0000207047000013
:102730002DE9F041554E05468846F0680024820791
:1027400028684FF0700113D0F26802F00302824251
:102750000CD158B1F06891FAA1F100F07000B1FA13
:1027600081F1C8406968401C884221D001248AE078
:10277000012809D002280AD00328F7D13268920331
:1027800009D43268520304E03268920701E03268EB
:102790005205002AEADAF26891FAA1F122F07303F5
:1027A0006A68B1FA81F1521E8A4013430343F36011
:1027B000306820F080603060FEF750FA074604E091
:1027C000FEF74CFAC01B022853D830680001F7D43A
:1027D000DCBB4FF4FE40B8F1000F23D090FAA0F01C
:1027E000A968B8F1010FB0FA80F04FF0FF3201FA9A
:1027F00000F12BD0686902EB50004FF0C06292FAF2
:10280000A2F2B2FA82F2904001433069204A1040AD
:1028100001433161306840F080603060FEF71EFA9D
:10282000074628E090FAA0F0A968B0FA80F081404D
:10283000E8684FF4003292FAA2F20009B2FA82F28A
:10284000904001433069134AE1E71CE0286902EB3C
:1028500050004FF4C00292FAA2F2B2FA82F2904013
:10286000014330690C4AD2E7FEF7F8F9C01B022891
:1028700001D9032407E030680001F5D51CB930699F
:10288000A969084330612046BDE8F081001002408C
:10289000FF80FFF9FF80FDFFFF809FFF2DE9F041E2
:1028A0004A4E05468846F0680024810728684FF0A4
:1028B000700213D0F16801F0030181420CD158B1CC
:1028C000F06892FAA2F100F07000B1FA81F1C8400C
:1028D0006968401C884221D0012473E0012809D096
:1028E00002280AD00328F7D13168890309D4316856
:1028F000490304E03168890701E03168490500298E
:10290000EADAF16892FAA2F221F073036968B2FA86
:1029100082F2491E91400B430343F360306820F07C
:1029200080503060FEF79AF9074604E0FEF796F90A
:10293000C01B02283CD830688000F7D494BB4FF409
:10294000FE4191FAA1F1A868B8F1000FB1FA81F146
:1029500000FA01F019D029694FF0FF3202EB510162
:102960004FF0C06292FAA2F2B2FA82F291400843AA
:102970007169174A114008437061306840F0805017
:102980003060FEF76BF9074614E0E9684FF4003257
:1029900092FAA2F20909B2FA82F2914008437169EF
:1029A0000C4AE7E70EE0FEF759F9C01B022801D9EF
:1029B000032407E030688000F5D51CB970696969A7
:1029C000084370612046BDE8F0810000001002401D
:1029D000FF80FFF9FF80FDFFF8B51C4E054600247F
:1029E000B06DC00002D5FEF721FA0DE0B06D40F0E9
:1029F0008050B065B06D00F080500090FEF716FA80
:102A0000B16D21F08051B165B0F5007F04D0802D0B
:102A100007D94FF003040AE0802D08D9A02D01D872
:102A200004E001D1022402E0702D00D10124084805
:102A3000016821F0070121430160006800F00700F0
:102A4000A04201D00120F8BD0020F8BD00100240D6
:102A500000200240F8B515460E460B46009204468B
:102A600000224FF4C05100F019F888B93346002213
:102A700080212046009500F060F848B933460022D6
:102A80004FF4C0612046009500F008F8002804D0FB
:102A9000206E40F0200020660320F8BD2DE9F843A9
:102AA0001D4616460F4604464FF4C069DDF82080E7
:102AB0003CE04F4505D126B9007B8DF800009DF81C
:102AC0000000681C32D02DB1FEF7C8F8A0EB08005A
:102AD000A8422BD32068416821F0E0014160606882
:102AE000B0F5827F0BD1A068B0F5004F02D0B0F5F1
:102AF000806F04D12068016821F040010160A06A64
:102B0000B0F5005F09D12068016821F4005101602F
:102B10002068016841F400510160012084F85D00E3
:102B2000002084F85C000320BDE8F88320688168F9
:102B30003940B142BDD10020F6E72DE9F0411D46F4
:102B400017460E460446DDF8188034E0681C32D083
:102B50002DB1FEF783F8A0EB0800A8422BD3206824
:102B6000416821F0E00141606068B0F5827F0BD1DF
:102B7000A068B0F5004F02D0B0F5806F04D1206896
:102B8000016821F040010160A06AB0F5005F09D141
:102B90002068016821F4005101602068016841F457
:102BA00000510160012084F85D00002084F85C0081
:102BB0000320BDE8F0812068806836EA000004D078
:102BC0000020B842C2D10020F3E70120F9E77047A6
:102BD00010B5002000F0A6F9BDE81040002000F07C
:102BE000C5B910B520B1002000F09CF9012003E028
:102BF000012000F097F90020BDE8104000F0B6B9C0
:102C000004210148FEF71FB8000400480B4800B536
:102C1000C16C87B041F00201C164C06C694600F02C
:102C200002000590042000900020019002900120F5
:102C300003900348FDF71EFF07B000BD00100240DF
:102C40000004004810B500F065FA002000F006FD11
:102C5000BDE8104000F0A2BB08B5002000F0FEFC6B
:102C6000012000F072FC012000F07EFCFF200090AB
:102C700000230A221621012000F095FB0020FFF717
:102C8000B0FF4FF6FF7000F06AFA002301B01A4659
:102C900080214FF4C0705DF804EB00F0B6BB00007B
:102CA00002210148FDF7CFBF000400480D4800B5E0
:102CB000C16C87B041F00201C164C06C0A4900F0E8
:102CC000020005900220CDE90001029003906946C0
:102CD0000648FDF7CFFE002201210720FEF742F84B
:102CE00007B000BD001002400000111000040048B1
:102CF0000720FEF721B80720FEF729B80E4800B5D7
:102D0000C16C87B041F00401C164C06C694600F039
:102D100004000590102000900848019002200290C5
:102D200003900748FDF7A6FE002201210A20FEF7C6
:102D300019F807B000BD000000100240000011109B
:102D40000008004810B5FFF7B1FFFFF7D7FFFFF706
:102D50005DFF012000F010F8002000F0E3F8BDE86E
:102D60001040002000F002B902464FF400414FF03D
:102D70009040FDF76DBF000030B50F49044687B0A5
:102D8000C86C40F00100C864C86C012100F001006B
:102D900005908020CDE900010220CDE902104FF01E
:102DA000904569462846FDF765FE22468021284663
:102DB000FDF74EFF07B030BD0010024001B582B0F4
:102DC0004FF47A700090012301AA02A90248FEF78D
:102DD000DAFD9DF804000EBDD800002010B50A20D1
:102DE000FDF736FD0020FFF7C7FF1420FDF730FD8B
:102DF0000120FFF7C1FFBDE810400A20FDF728BD04
:102E000070B505460A4800F0FEF94FF6FF7000F075
:102E1000A6F90848074C007A0E3410B9204600F095
:102E200013FA21462846BDE8704000F008BA0000B9
:102E3000C800002010000020F0B585B04FF400401D
:102E40000125CDE9000500200224CDE902046946F0
:102E50004FF09040FDF70EFE60028DE8310006262F
:102E60000C4FCDE9034669463846FDF703FEA00244
:102E70000090694604963846FDF7FCFDE0028DE8B7
:102E80003100CDE9034669463846FDF7F3FD05B04C
:102E9000F0BD00000008004838B51F48C16C41F083
:102EA0000101C164C16C01F001010091C16C41F0EC
:102EB0000401C164C16C01F004010091816D41F411
:102EC00000418165806D00F400400090FFF7B4FF81
:102ED000134C12484FF4E06120604FF48270606040
:102EE0000020C4E902014FF400712061C4E905012A
:102EF0000821C4E9071007216062C4E90A012063C0
:102F000060632046FEF7E8FC00B1FEE72068016838
:102F100041F04001016038BD00100240003C00401B
:102F2000D800002030B50F49044687B0C86C40F087
:102F30000400C864C86C012100F004000590202042
:102F4000CDE900010220CDE90210074D694628466F
:102F5000FDF790FD224620212846FDF779FE07B0B7
:102F600030BD0000001002400008004830B50E4996
:102F7000044687B0C86C40F00200C864C86C0121E8
:102F800000F00200009105900220CDE90210074DEB
:102F9000019169462846FDF76DFD2246012128462C
:102FA000FDF756FE07B030BD001002400004004897
:102FB00010B50446012000F051FB00F0ABF80120F1
:102FC00000F0D2FA0120FFF70CFE4FF6FF7000F080
:102FD000C6F8002340F201201A46014600F015FA17
:102FE00000F068FA0021084600F0CDF90348044AD1
:102FF000817B2046BDE8104000F0B9B910000020E8
:10300000FFFF2F00FFF728BE10B528B101280ED111
:10301000BDE81040FFF716BE4FF6FF7000F09FF8B6
:10302000002000F01BFBBDE8104000F07BBB10BD92
:1030300010B500F06FF8002000F010FB012000F048
:1030400084FA012000F090FA0020FFF7CAFD4FF645
:10305000FF74204600F083F800231A460221422024
:1030600000F0D3F9002000F021FB002000F0E8F987
:103070000648848100F01EFA0021084600F083F91A
:10308000BDE810406FF07F4000F0C7BA100000208C
:1030900001B501226946892000F084FB08BD0000CB
:1030A000174908B5884204D9E1208DF80000E920CD
:1030B0001EE01449884204D9D7208DF80000D8209A
:1030C00016E01149884204D9C1208DF80000C520BE
:1030D0000EE00E49884204D975208DF80000812049
:1030E00006E00B49884205D96B208DF800006F205F
:1030F0008DF8010002226946982000F053FB08BDBC
:1031000000E9A43580F8A9328044E52D000B6B1B43
:1031100040FC541910B500F040F80004000C06D033
:1031200000F014F8BDE810407F20FFF7B1BF10BDDC
:10313000054810B5007808B1062801D100F002FB5F
:10314000BDE8104000F0F6BA0400002008B50020E9
:10315000009002226946072000F024FB08BD08B554
:10316000010A8DF800108DF8010002226946104610
:1031700000F018FB08BD10B5002140F6021000F069
:1031800032FB40F64414204600F0C3F840F0020140
:103190002046BDE8104000F026BB1CB50020009082
:1031A000019002226946172000F093F89DF8000074
:1031B00000F001008DF805009DF801009DF8041055
:1031C000820962F38611420962F34511020962F332
:1031D0000411C20862F3C301820862F3820142084B
:1031E00062F3410160F300018DF80410BDF80400A2
:1031F0001CBD08B502226946122000F06AF8BDF82D
:10320000000040BA08BD38B50446032269461420C0
:1032100000F05FF89DF800004042401020819DF8CA
:103220000100802801D2800802E0A0F580708010A3
:1032300060819DF8020040424010A08138BD0A78AC
:103240000146002000F022B838B504460222694643
:10325000132000F03EF840F2047000F05AF8C00964
:1032600004D040F2027000F054F801E09DF8000034
:10327000207038BD08B500208DF800000122694695
:10328000C02000F026F89DF8000008BD70B5154676
:103290000E460446FFF74CFF0020FFF765FD1E2099
:1032A000FFF78CFD2046FFF789FD0020FFF786FD24
:1032B000002405E00020FFF781FD3055641CA4B216
:1032C000AC42F7D30120FFF74FFDBDE8704000F09E
:1032D00031BA70B515460E460446FFF729FF0020A7
:1032E000FFF742FD2046FFF769FD0020FFF766FD6E
:1032F000002405E00020FFF761FD3055641CA4B2F6
:10330000AC42F7D30120FFF72FFDBDE8704000F07D
:1033100011BA08B50122694600F003F89DF80000D3
:1033200008BD70B515460E460446FFF701FF0020A4
:10333000FFF71AFD1D20FFF741FD200AFFF73EFDB4
:10334000E0B2FFF73BFD0020FFF738FD002405E069
:103350000020FFF733FD3055641CA4B2AC42F7D314
:103360000120FFF701FDBDE8704000F0E3B910B5A2
:1033700014460A460146002000F0F5F92046BDE853
:10338000104000F09AB908B502228DF800008DF8BF
:10339000011069468F2000F005FA08BD0022114691
:1033A000C52000F0FFB91CB58DF80000049C8DF815
:1033B0000110200C8DF80400200A8DF802208DF8F1
:1033C00005008DF803308DF80640052269468820F7
:1033D00000F0E8F91CBD01B5012269469D2000F00E
:1033E000E1F908BD08B500F007008DF80000080CF1
:1033F0008DF80100080A8DF802008DF803100422F0
:103400006946972000F0CEF908BD1CB5040A8DF876
:1034100000408DF80100080A8DF80200100A8DF8AE
:1034200004008DF80520180A8DF806008DF80310A9
:1034300008228DF807306946104600F0B3F91CBD2C
:1034400001B501226946A02000F0ACF908BD0000DA
:103450007CB50020164B0090019059798DF8001032
:1034600019798DF801109A798DF80220A3F10C02D8
:1034700004249268B2F1834F00DD01208DF803002F
:1034800040F68905062928460CD0FFF742FF40F098
:103490000401284600F0A7F9224669468B2000F077
:1034A00081F97CBDFFF735FF00F0FB01F1E700007B
:1034B000100000201CB500201B4C0090019060798A
:1034C000052801D0062804D1A0890C2801D20C209F
:1034D000A081A0890622010A8DF800108DF8010054
:1034E000207A8DF80200A07B8DF80300607A8DF8B9
:1034F0000400A07A8DF8050069468C2000F052F98E
:10350000A07A40F236740128204607D0FFF701FF69
:1035100040F00401204600F066F91CBDFFF7F9FEFB
:1035200020F00401F6E700001000002008B58DF837
:1035300000008DF801108DF802208DF80330042270
:103540006946952000F02EF908BD01B59DF80000F0
:1035500020B9002140F2AC6000F045F90122694633
:103560008A2000F01FF908BD01B5012269469620A6
:1035700000F018F908BD000010B504461D481E49AA
:1035800020442DED028B82B0884204D3012002B08A
:10359000BDEC028B10BD2046FFF782FD9FED171B8F
:1035A0009FED180B00F0ECFA53EC102B9FED170B6E
:1035B00051EC100BFCF711FE41EC180B2046FCF708
:1035C0007BFE53EC182BFCF708FEFCF782FE010E85
:1035D0008DF80010010C8DF80110010A8DF8021011
:1035E0008DF8030004226946862000F0DBF80020F5
:1035F000CDE7000080E58FE781FB651E000000003D
:103600000000394000000000000000400000000001
:1036100080847E41052100F064B838B504464FF639
:10362000FF70FFF79CFD200C8DF80000200A8DF83C
:1036300001008DF8024003226946822000F0B2F8B2
:1036400038BD000001B501226946842000F0AAF8C7
:1036500001490020087008BD0400002031B54FF674
:10366000FF7401226946802000F09CF8FFF702FEFB
:103670009DF800000C4D50B9FFF7FCFDC0F302109F
:10368000641E022801D0002CF6D1012009E0FFF7CA
:10369000F1FDC0F30210641E032801D0002CF6D106
:1036A0000220287038BD00000400002001B501226E
:1036B00069469F2000F076F808BD38B504464FF6FD
:1036C000FF70FFF74CFD200C8DF80000200A8DF8EC
:1036D00001008DF8024003226946832000F062F861
:1036E00038BD38B50D460446162801DD162404E021
:1036F0006FF00200844200DA044601230022072111
:103700000420FFF713FF382140F6E70000F06BF8C4
:103710008DF800408DF80150022269468E2000F09D
:1037200041F838BD10B50420FFF78CFFBDE810400C
:10373000FFF74EBA10B5FFF769FAFFF761FA0128F3
:10374000FBD010BD10B50020FFF70EFBC020FFF727
:1037500035FB0020FFF732FB0120FFF705FBBDE83A
:103760001040FFF7E7BF70B515460E460446FFF759
:10377000DFFC0020FFF7F8FA0E20FFF71FFB2046C2
:10378000FFF71CFB002404E0305DFFF717FB641C0F
:10379000A4B2AC42F8D30120FFF7E6FABDE87040CE
:1037A000FFF7C8BF2DE9F04115460E460746FFF763
:1037B000BFFC0020FFF7D8FA3846FFF7FFFA0024D5
:1037C00004E0305DFFF7FAFA641CA4B2AC42F8D30F
:1037D0000120FFF7C9FA842F03D0BDE8F041FFF7BD
:1037E000A9BFBDE8F08113B5012201A900F001F8DD
:1037F0001CBD70B515460E460446FFF799FC002027
:10380000FFF7B2FA0D20FFF7D9FA200AFFF7D6FA30
:10381000E0B2FFF7D3FA002404E0305DFFF7CEFA00
:10382000641CA4B2AC42F8D30120FFF79DFABDE8B6
:103830007040FFF77FBF000010B5FEF77FFCC8B3F4
:10384000FFF72AFBFFF77EFAFFF7C8FAFFF77AFFC8
:103850000020FFF703FF40F6D8042046FFF759FD8C
:1038600040F01E012046FFF7BEFF0120FFF77CFE5F
:10387000FFF76CFC4FF4A0710520FFF7B3FD0120AA
:10388000FFF7A9FD2F2140F61110FFF7ACFF7F20B5
:10389000FFF7FEFB0120FFF758FE40F202740921FA
:1038A0002046FFF7A0FF2046FFF733FD092804D08C
:1038B000022010BDFFE70120FBE7962140F6AC0097
:1038C000FFF791FF084C2068FFF756FE94F90700B8
:1038D000FFF7A0FE00210846FFF755FDFFF7B8FDF2
:1038E000FFF7E8FD0020E4E7100000202DE9F0419B
:1038F000134E054600244FF400784FF480770022E1
:1039000039463046FDF7A4F9280601D5012200E02A
:10391000002241463046FDF79BF9012239463046E8
:10392000FDF796F9002239463046FDF791F9680611
:10393000641C050EE4B2082CE1D3BDE8F081000060
:103940000004004810B5FDF78FF9BDE81040FEF700
:1039500055B930B5B9B00220C1012591102122908E
:1039600026912C900121CDE92D0108212F910721CD
:10397000CDE93010329022A8FDF778FD0024032510
:103980000F20CDE9345433903694294633A8379428
:10399000FDF72AFC00950E9468460F94FDF74EFA49
:1039A0004FF40070FDF710FAFDF7DCFC4FF47A716C
:1039B000B0FBF1F0FEF70EF90420FEF7FEF800224E
:1039C0001146501EFDF7CEF939B030BD0D480168E3
:1039D00041F4700101600C48016841F0010101608F
:1039E000002181600268094B1A4002608214C260A3
:1039F000026822F48022026081610249C00380399A
:103A00000860704788ED00E000100240FFFFF6EA12
:103A10000148FEF716BA0000500000200148FEF7EA
:103A200010BA00008C0000202DE9F0470268244CF9
:103A3000244D254E254F264B4FF0804AA04209D0F9
:103A4000504507D0A84205D0B04203D0B84201D0BB
:103A5000984204D122F0700C4A6842EA0C02DFF866
:103A600074C0DFF87480DFF87490A0420FD0504526
:103A70000DD0A8420BD0B04209D0B84207D098422E
:103A800005D0604503D0404501D0484503D122F41C
:103A90004075CA682A4302608A68C2620A68826204
:103AA000A04207D0984205D0604503D0404501D0E0
:103AB000484501D10969016301214161BDE8F087F1
:103AC000002C01400004004000080040000C0040B1
:103AD00000340140004001400044014000480140E2
:103AE00010B5846842EA032224F47F440A43224347
:103AF000826010BD826822F070020A4342F0070122
:103B00008160704710B5046A036A23F00103036201
:103B1000836923F0F00343EA021324F00A020A4304
:103B20008361026210BD10B5036A23F010030362C3
:103B30008469036A24F4704444EA023223F0A00347
:103B400043EA01118261016210BDFEE703B40198EE
:103B50004100009850EAC12018BF04204A0D18BF48
:103B600040F0010040F2FF72B2EB515F08BF40F03D
:103B70000200012808BF052002B0704700000000C5
:103B80002DE9F04D2DED040B2DED0E8B96B0DDE9FA
:103B90002550279CDDF890A025F0004624F0004831
:103BA000BAF1000F14BF0121002101EB4502FC49CD
:103BB00053184A1093422AD3002814BF012300232C
:103BC00003EB44030B44F7498B4220D358EA00012E
:103BD0009FEDF59B76D0DFF8D8B35D4503D1BAF100
:103BE000000F05D188E0BAF1000F08BF002100D016
:103BF000012101EB450111F5001F08D8002814BF71
:103C00000121002101EB440111F5001F0BD99DEDAD
:103C1000261B9DED240B16B000F0DABD04B0BDE804
:103C2000F04D00F081BE0027002DBCBFE149884562
:103C300021DAE1498845A8BF02271CDAC3451ADC0E
:103C4000DE4901EB2851142908DDC1F1340220FAC4
:103C500002F101FA02F282420DD108E058B9C1F135
:103C6000140228FA02F101FA02F2424503D101F0EE
:103C70000101C1F1020756EA0A0124D1002C22DA1F
:103C8000002D18BF022F01D0012F0AD0022000F012
:103C900097FE16B000F0A2BD04B0BDE8F04D00F0F4
:103CA0002BBE022000F08CFE00F026FE51EC100B23
:103CB00081F0004141EC100B16B000F095BD04B04E
:103CC000BDE8F08D18E09FEDBEAB9FEDBF8B0028E7
:103CD00071D1B848804522D105F1804010F580109F
:103CE00008BFBAF1000F07D0B3450ADC002CA8BF0B
:103CF0009DED260BE0DA0DE0B0EE490AF0EE690A20
:103D0000DAE7002C06DA9DED260B51EC100B81F062
:103D100000416FE0AE48784490ED000BCCE7D84509
:103D20004DD1002C48DA2EB186423AD1BAF1000FBB
:103D300042D126E0BAF1000F13D0022000F040FE7D
:103D400000F00EFE8DED020B9DED240B8DED000BB2
:103D500010EE900A039961F31E0003909DED020B93
:103D6000AAE78DED02AB9DED240B1AEE901A10EE32
:103D7000900A8DED000B61F31E0003909DED020B88
:103D80009AE78DED028B9DED240B18EE901A10EE44
:103D9000900A8DED000B61F31E0003909DED020B68
:103DA0008AE709DA9DED240B51EC190B53EC102B2B
:103DB000FCF713FA1EE020E09DED240B7CE7864221
:103DC0001BDAB4F1804F0DD0A4F10050B0F1FF50D8
:103DD00013D1002D11DB9DED240B51EC100B00F0E5
:103DE000CDFF07E09DED240B53EC102B51EC100B95
:103DF00000F0C2BC41EC100B5EE79DED240B51ECD2
:103E0000100B00F0E3FDBAF1000FCDE90E0142D135
:103E10009FED710B46B3A6F1E040B0F17F600CD08E
:103E20005E4538D1002D00DAA7B3022F0CBF012068
:103E30004FF0FF30FCF70EFCDCE7002D01DD002C1D
:103E40000DDA002D01DD002C1FDB002D16DA002C11
:103E500014DB012F08BF9FED620B3FF42DAFB0EED6
:103E60004A0AF0EE6A0A27E7022F18BF002D0CD08D
:103E7000012F0AD1002DFFF61FAF06E0002DB8BFBD
:103E8000002C08DA012F3FF417AFB0EE480AF0EE2D
:103E9000680A11E71BE0012000EBE57050EA07011A
:103EA00015D0791EB0EE498AF0EE698A084308BF42
:103EB0009FED4D8B4E480025804570DD4D494E48A5
:103EC000884514DDB0420DDB002C19DB2FE001200A
:103ED00000F076FD16B000F08DBC04B0BDE8F04DEA
:103EE00000F02EBDB34502DC002C09DC1FE0864249
:103EF00002DA002C1BDA03E05E452BDD002C16DD18
:103F0000022000F05DFD00F02BFD8DED020B53EC67
:103F10001A2B51EC180BFCF711FBCDE900010399AA
:103F2000019861F31E0003909DED020BC4E6022090
:103F300000F046FD00F024FD10EE901A18EE900AF5
:103F40008DED020B8DED008B61F31E0003909DED56
:103F5000020BB1E69DED0E0B53EC192B51EC100B3F
:103F6000FCF7DEFA9FED260BCDE9080153EC102B90
:103F70009DED080B51EC100BFCF7E0FA9FED221BB6
:103F800053EC112BFCF7CFFA9DED081B53EC112BD2
:103F9000FCF7D4FA9FED1E1B53EC112B3CE08CE098
:103FA000FFFF1F00FFFF0F00000000000000F03FB8
:103FB0000000F03F0000F07F0000404301FCFFFFE5
:103FC000000000000000F07F000000000000000082
:103FD0005E290000000000000000000000000080DA
:103FE000000000000000F0FF000000000000F0BF33
:103FF0000000E0410000F043FFFFEF3F0000000041
:10400000000000000000D03F555555555555D53F8F
:10401000000000000000E03FFCF785FA9DED080B72
:1040200041EC1A0B53EC102B51EC100BFCF786FAF9
:1040300053EC1A2BFCF782FA41EC1A0B9FEDFE0BA6
:1040400053EC102B9DED080B51EC100BFCF776FA9E
:1040500041EC1B0B9FEDFA0B51EC1A0B53EC102BA0
:10406000FCF76CFA41EC1A0B9FEDF70B53EC102B9D
:104070009DED080B51EC100BFCF760FA53EC1A2B7A
:10408000FCF74EFA41EC1A0B51EC1B0B53EC1A2BBC
:10409000FCF7A5F90690CDE906519DED060B53EC12
:1040A0001B2B51EC100BFCF73BFA53EC1A2BFCF7D3
:1040B0003AFA41EC100B00F0A1B90020B6F5801FD0
:1040C0000EDA9FEDE30B53EC102B9DED0E0B51EC34
:1040D000100BFCF733FACDE90E016FF034000E46F9
:1040E00000EB2650A0F2FF37C6F31300DA4940F088
:1040F0007F6646F040568842D8BF002408DDD74985
:104100008142C8BF012403DC0024A6F580167F1C71
:10411000D348784400EBC4000F9690ED00CB9DEDA2
:104120000E0B53EC1C2B51EC100BFCF7F9F99DED29
:104130000E0B41EC1B0B53EC1C2B51EC100BFCF742
:104140004EF941EC100B51EC190B53EC102BFCF712
:1041500044F841EC1D0B51EC1B0B53EC1D2BFCF7F1
:10416000EDF941EC1A0BBF488DED10AB784410957A
:1041700090ED000B4FF0005040EA660000EB8440E9
:104180008DED080B00F5002009909DED080B53EC18
:104190001C2B51EC100BFCF7C3F99DED0E1B53ECDF
:1041A000112BFCF7C0F941EC100B53EC102B9DEDDB
:1041B000100B51EC100BFCF7C1F99DED080B41EC15
:1041C0001C0B53EC102B9DED100B51EC100BFCF75E
:1041D000B5F953EC1B2BFCF7A6F953EC1C2BFCF7A1
:1041E0009FF953EC1D2BFCF7A9F941EC1C0B53EC88
:1041F0001A2B51EC1A0BFCF7A1F941EC1B0B9A4856
:104200000621B0EE4B0AF0EE6B0A784400F0F8FAA3
:10421000B0EE401AF0EE601AB0EE41DAF0EE61DA7C
:1042200053EC1B2B51EC1B0BFCF788F953EC1D2BAB
:10423000FCF784F99DED100B41EC1B0B53EC1A2B92
:1042400051EC100BFCF7CBF853EC1C2BFCF776F978
:1042500053EC1B2BFCF7C3F89DED100B41EC1B0B33
:1042600053EC102B51EC100BFCF768F941EC1D0BD3
:104270009FED7FEB53EC1E2BFCF7B1F853EC1B2B9F
:10428000FCF7ADF80890CDE908519DED080B53EC13
:104290001E2B51EC100BFCF743F953EC1D2BFCF7D4
:1042A0003FF953EC1B2BFCF73EF99DED080B41EC5D
:1042B0001D0B53EC102B9DED100B51EC100BFCF76C
:1042C0003DF941EC1B0B53EC1A2B51EC1D0BFCF789
:1042D00035F99DED080B41EC1A0B53EC102B51EC0A
:1042E0001C0BFCF72BF953EC1A2BFCF778F841EC7C
:1042F0001A0B51EC1B0B53EC1A2BFCF770F80C90BB
:10430000CDE90C519DED0C0B53EC1B2B51EC100B1C
:10431000FCF706F953EC1A2BFCF705F941EC1B0BE3
:104320009FED550B53EC102B9DED0C0B51EC100B2E
:10433000FCF704F941EC1A0B9FED510B51EC1B0BF0
:1043400053EC102BFCF7FAF841EC1B0B9FED4E0BD6
:1043500053EC102B9DED0C0B51EC100BFCF7EEF811
:1043600053EC1B2BFCF73BF841EC100B484878440E
:1043700000EBC40090ED001B51EC100B53EC112B23
:10438000FCF72DF841EC1B0B3846FCF763F9CDE93F
:10439000080153EC1B2B51EC1A0BFCF720F841ECF5
:1043A000100B3C48784400EBC40090ED00CB51EC7E
:1043B000100B53EC1C2BFCF712F89DED081B53EC73
:1043C000112BFCF70CF80690CDE906519DED080B7A
:1043D00053EC102B9DED060B51EC100BFCF7A0F8E5
:1043E00053EC1C2BFCF79CF853EC1A2BFCF798F8B9
:1043F00053EC1B2BFCF797F841EC100B9DED261BA3
:1044000053EC102B8DED001B00959DED260B51EC10
:10441000100BFCF793F89DED000B41EC1A0B53ECDD
:10442000102B9DED260B51EC100BFCF779F89DED50
:10443000061B53EC112B2FE0000000604715F73FDF
:10444000FE822B654715F73F44DF5DF80BAE543E07
:1044500000000000000040438E9803007AB60B0075
:10446000DA240000082500001224000000000000EB
:104470000000000000000840000000E009C7EE3F17
:10448000FD033ADC09C7EE3FF5015B14E02F3EBEA9
:104490009E22000058220000FCF750F853EC1A2B23
:1044A000FBF79DFF9DED060B41EC1A0B53EC102B17
:1044B0009DED000B51EC100BFCF740F8CDE90C0121
:1044C0009DED0C0B51EC1A0B53EC102BFBF787FFF7
:1044D000CDE902010C46AA498C422FDB611A084340
:1044E00018D19DED0C0B53EC102B9DED020B51ECF4
:1044F000100BFCF715F841EC1B0B9FEDA30B51ECD7
:104500001A0B53EC102BFBF76AFF53EC1B2BFCF739
:10451000B3F82DD2022000F053FA00F021FA10EE89
:10452000901A18EE900A8DED020B8DED008B61F361
:104530001E0003909DED020BFFF7BEBB944A24F0D2
:104540000041914214D39349214408437FF4EFACD6
:104550009DED0C0B53EC102B9DED020B51EC100B51
:10456000FBF7DEFF53EC1A2BFCF786F87FF6DFAC87
:1045700024F000408849894A002601EB20518242FC
:104580002BDA481C4FF4801121FA00F02044844AB1
:10459000C0F30A517A44A1F2FF3192ED000B814A37
:1045A0008DED080BCA4020EA0202C0F3130040F46C
:1045B0008010C1F1140120FA01F60992002CB8BF55
:1045C00076429DED080B53EC102B9DED0C0B51EC3E
:1045D000100BFBF7A5FFCDE90C019DED0C0B51EC89
:1045E0001A0B53EC102BFBF7FAFE9FED6F0B0890A4
:1045F000CDE9085153EC102B9DED080B51EC100B3D
:10460000FBF79CFF41EC1B0B9FED690B53EC102B50
:104610009DED080B51EC100BFBF790FF9DED0C0B83
:1046200041EC1C0B53EC102B9DED080B51EC100BC7
:10463000FBF776FF53EC1A2BFBF775FF9FED5E1B24
:1046400053EC112BFBF77AFF53EC1C2BFBF7C7FE47
:1046500041EC1A0B51EC1B0B53EC1A2BFBF7BFFE72
:10466000CDE902019DED020B53EC1B2B51EC100B1D
:10467000FBF756FF53EC1A2BFBF755FF9DED020B92
:1046800041EC1A0B53EC102B51EC100BFBF756FFBF
:10469000CDE908014A489DED080B0521784400F05A
:1046A000AFF89DED081B51EC100B53EC112BFBF7F1
:1046B00045FF9DED021B53EC112BFBF734FFCDE9B9
:1046C00006019DED020B53EC1A2B51EC100BFBF77E
:1046D00035FF53EC1A2BFBF782FE9FED3B0B41ECB1
:1046E0001A0B53EC102B9DED060B51EC100BFBF746
:1046F00017FF9DED060B41EC1B0B53EC102B9DEDB2
:10470000020B51EC100BFBF719FF53EC1B2BFBF7C3
:1047100064FD53EC1A2BFBF703FF9DED021B53ECDA
:10472000112BFBF7FDFE53EC192BFBF7FCFECDE93B
:10473000020101EB065001150029C8BF039015DCEA
:104740009DED020B324651EC100BFBF76CFFFFF7AF
:10475000FDF9042808BF00F013F932469DED020B65
:1047600051EC100BFBF75FFFCDE902019DED020B51
:1047700051EC180B53EC102BFBF7E0FEFFF73ABBA4
:104780000000904000000000FE822B654715973C1A
:1047900000CC904000346F3F01FCFFFF0000E03F81
:1047A000E0200000FFFF0F0000000000432EE63F66
:1047B000396CA80C615C20BEEF39FAFE422EE63F50
:1047C000B01F0000000000000000000000000040DA
:1047D000BDEC088BBDEC06CBFFF720BABDEC088B17
:1047E000BDEC06CBFFF758BABDEC088BBDEC06CB91
:1047F000FFF765BABDEC088BBDEC06CBFFF76DBBD0
:1048000070B504462DED028B4D1E00EBC500B0EED9
:10481000408AF0EE608A90ED000B35F0060017D06C
:1048200053EC182B51EC100BFBF788FE41EC100BEE
:104830006D1E04EBC50090ED001B51EC100B53EC0A
:10484000112BFBF7CCFD41EC100B35F00600E7D146
:10485000022D36D0042D1CD0062D1CBFBDEC028BC2
:1048600070BD53EC182B51EC100BFBF767FE94ED69
:104870000A1B53EC112BFBF7B2FD53EC182BFBF783
:104880005DFE94ED081B53EC112BFBF7A8FD41ECEA
:10489000100B53EC182B51EC100BFBF74FFE94ED63
:1048A000061B53EC112BFBF79AFD53EC182BFBF76F
:1048B00045FE94ED040B53EC102BFBF790FD41ECFF
:1048C000100B53EC182B51EC100BFBF737FE94ED4B
:1048D000021B53EC112BFBF782FD53EC182BFBF75B
:1048E0002DFE94ED001B53EC112BFBF778FDBDEC76
:1048F000028B41EC100B70BD9FED070B10B553EC14
:10490000102B9FED070B51EC100BFBF766FC41ECF5
:10491000100B10BD000000000000000000000000AF
:10492000000000000000F03F10B553EC112B51ECDB
:10493000100BFBF754FD41EC100B10BD0000000004
:104940009FED050B10B553EC102B51EC100BFBF742
:1049500044FC41EC100B10BD000000000000000002
:104960009FED050B10B553EC102B51EC100BFBF722
:10497000E5FD41EC100B10BD0000000000000070D0
:104980009FED050B10B553EC102B51EC100BFBF702
:10499000D5FD41EC100B10BD000000000000001020
:1049A00002E008C8121F08C1002AFAD170477047F8
:1049B000002001E001C1121F002AFBD17047000056
:1049C00001490860704700004C00002082B0CDE92A
:1049D000000121F0004001909DED000B02B051EC70
:1049E000100B704708B5FCF747F9FEF7B2FFFBF76D
:1049F000DFFEFDF781FBFDF73DFBFDF7B7FCC64889
:104A0000C64F072500683860042038717D71022088
:104A1000B8711620F87100243C724FF0010987F834
:104A20000990BC724FF0080AA7F80CA04FF00A0BCF
:104A300087F80EB0FEF700FF50B1FDF763FC0021D0
:104A40001823B7A20846FDF721FEFDF75FFDF4E746
:104A500000224FF48061B448FCF7FAF87879AE4E42
:104A6000401F143E4FF00C08082818D2DFE800F071
:104A70000406090B0E101315052000E00620307106
:104A80000DE035710BE086F804A008E00920F6E798
:104A900086F804B003E00B20F1E786F804804FF4B9
:104AA0007A70FDF7C1FBA148FDF738F900210C230E
:104AB0009FA20846FDF7EAFD9848CDF800804546DC
:104AC0000268092300213020FDF7A1FD0C239DA2DF
:104AD00019460020FDF7DAFD0095022332790C21FA
:104AE0001220FDF794FD0C2397A219462A20FDF70A
:104AF000CDFD96480095032390ED000A0C213C2043
:104B0000BCEEC00A10EE102AFDF781FD0C2390A226
:104B10001A210020FDF7BAFD0C238FA21A213C2098
:104B2000FDF7B4FD10238EA22C210020FDF7AEFD71
:104B300010238CA22C214820FDF7A8FD10270097F8
:104B4000032332892C215020FDF761FD00970623B5
:104B5000F2882C211820FDF75AFDFDF7D7FCFBF752
:104B60004EFEFEF74FFA0020FEF74EFAFDF7CCFDA1
:104B700074717079072806D2DFE800F004062F264A
:104B800018A5C70000BFBDE07471002240214FF09E
:104B90009040FCF75DF8FBF732FE604880F80EB0FD
:104BA000A0F80CA07148FEF703FAABE00022202128
:104BB0004FF09040FCF74CF8FDF798FBFBF71FFE19
:104BC0000120FEF721FA9CE0012240214FF09040A5
:104BD000FCF73EF8FEF716FA8EE0FDF78DFBFBF7CB
:104BE0000CFE6248FEF70CF9F0884FF47A78401C0E
:104BF00080B2F080404500D3F48000970623F2880D
:104C00002C211820FDF703FD012220214FF09040B8
:104C1000FCF71EF8404908220A395448FBF7D0FA3D
:104C200060B13089401C80B23081404500D334816E
:104C3000032300972C21328950203FE04C494FF04C
:104C40000C03087B7070887A40B2307000280BDA51
:104C500048A21A211820FDF719FD3078404242B2CF
:104C600032700423009508E043A21A211820FDF7B2
:104C70000DFD009596F9002004231A211E20FDF752
:104C8000C6FC96F901004FF00C0300280BDA39A29C
:104C90001A215A20FDF7FAFC7078404242B2727035
:104CA0000423009508E034A21A215A20FDF7EEFCF7
:104CB000009596F9012004231A216020FDF7A7FC36
:104CC00086F805901EE0FEF794FA80464FF6FF70D6
:104CD000FEF745FA5FEAC85008D5002220214FF0C0
:104CE0009040FBF7B5FF062070710BE001222021F8
:104CF0004FF09040FBF7ACFF0020FEF785F9FDF781
:104D000003FD7471FDF702FC33E7FDF7EFFAFEF7E0
:104D10008FF9FDF7FFFCF4E73800002010000020B9
:104D20004552526F52000000000C00485000002015
:104D30004341442D52583A2020202020202020207A
:104D4000487A000053463A0042573A0008000020D3
:104D5000534E523A00000000525353493A000000AB
:104D600052583A002820202029000000BC050020CD
:104D7000C80000202D0000002000000000B52DED2F
:104D8000048B83B041EC190BFBF7C1FC41EC180B11
:104D900018EE100A18EE901A8DED008B002818BF3F
:104DA0000120084320F00040C0F17F6000F1E040A6
:104DB000C00F14D019EE101A19EE900A8DED009B59
:104DC000002918BF0121084320F00040C0F17F6096
:104DD00000F1E040C00F04BF0120FFF7F1FD51ECEE
:104DE000180B03B0BDEC048B00BD000000000000F8
:104DF000000000000000000000003F400000000034
:104E000000000000300040003000400000000900B9
:104E10000BC03D000BC03D00090018C024407FE0DE
:104E2000224031800000180024C01B000D80324059
:104E3000018003801C4027401C8007400040100078
:104E40006000000000000000000000000000000002
:104E50001F80204040200000402020401F80000094
:104E60000000090006001F80060009000000040081
:104E700004003F80040004000000001000600000F7
:104E8000000000000000040004000400040004000E
:104E900000000000004000000000000000000020B2
:104EA00001C006003800400000001F802040204064
:104EB00020401F800000000010403FC00040000064
:104EC000000018C0214022402440184000001080FB
:104ED0002040244024401B80000002000D001100EF
:104EE0003FC0014000003C802440244024402380F7
:104EF00000001F8024402440344003800000300024
:104F0000200027C03800200000001B8024402440DF
:104F100024401B8000001C0022C0224022401F8031
:104F20000000000000000840000000000000000039
:104F300000000460000000000000000004000A00FF
:104F40001100208040400900090009000900090003
:104F5000000000004040208011000A0004001800FA
:104F6000200023402400180000001F80204027401C
:104F700029401F400000004007C039000F0001C059
:104F8000004020403FC0244024401B8000001F8080
:104F90002040204020403080000020403FC0204082
:104FA00020401F80000020403FC024402E4030C0E1
:104FB000000020403FC024402E00300000000F00C1
:104FC0001080204022403380020020403FC0040077
:104FD00004003FC02040204020403FC020402040EF
:104FE00000000060202020203FC020002000204042
:104FF0003FC024400B0030C0204020403FC0204034
:105000000040004000C03FC03C0003C03C003FC027
:10501000000020403FC00C4023003FC020001F8004
:105020002040204020401F80000020403FC02440FE
:105030002400180000001F802140214020E01FA014
:10504000000020403FC02440260019C0004018C086
:1050500024402440224031800000300020403FC0E6
:1050600020403000000020003F80004000403F8092
:10507000200020003E0001C007003800200038005A
:1050800007C03C0007C038000000204039C00600BF
:1050900039C0204000002000384007C038402000C0
:1050A0000000304021C02640384020C000000000F1
:1050B00000007FE0402040200000000070000C0055
:1050C0000380004000000000402040207FE00000FE
:1050D0000000000020004000200000000000001040
:1050E0000010001000100010001000000000400030
:1050F000000000000000000002800540054003C0E1
:10510000004020003FC00440044003800000000035
:105110000380044004400640000000000380044077
:1051200024403FC00040000003800540054003408C
:105130000000000004401FC0244024402000000064
:1051400002E0055005500650042020403FC00440B6
:10515000040003C000400000044027C000400000DD
:10516000000000100010041027E0000000002040A4
:105170003FC00140070004C00440204020403FC021
:1051800000400040000007C0040007C0040003C046
:105190000000044007C00440040003C000400000B9
:1051A00003800440044003800000041007F0045012
:1051B000044003800000000003800440045007F016
:1051C0000010044007C0024004000400000000007A
:1051D00006400540054004C00000000004001F8098
:1051E000044000400000040007800040044007C065
:1051F00000400400070004C001800600040006000F
:1052000001C0070001C006000000044006C0010004
:1052100006C0044000000410071004E001800600EE
:1052200004000000044005C00640044000000000E7
:10523000000004007BE040200000000000000000AF
:10524000FFF000000000000040207BE004000000B0
:1052500000004000800040002000200040000000CE
:10526000000000000000000000000000000000003E
:10527000000000001FCC000C000000000000000037
:1052800008003000600008003000600000000220CC
:1052900003FC1E20022003FC1E2002200000000050
:1052A0000E1811043FFF10840C78000000000F005E
:1052B00010840F3800C00778188400780000007848
:1052C0000F8410C411240E9800E400840008080024
:1052D00068007000000000000000000000000000F6
:1052E0000000000007E01818200440020000000041
:1052F00040022004181807E00000000000000240EF
:10530000024001800FF00180024002400000008056
:10531000008000800FF80080008000800000000105
:10532000000D000E00000000000000000000000062
:1053300000800080008000800080008000800000ED
:10534000000C000C00000000000000000000000045
:105350000006001800600180060018002000000010
:1053600007F0080810041004080807F00000000007
:10537000080408041FFC00040004000000000000F2
:105380000E0C10141024104411840E0C00000000A8
:105390000C1810041104110412880C700000000095
:1053A00000E00320042408241FFC00240000000067
:1053B0001F98108411041104108810700000000060
:1053C00007F008881104110418880070000000001C
:1053D0001C00100010FC13001C0010000000000056
:1053E0000E3811441084108411440E38000000005F
:1053F0000700088C10441044088807F000000000E3
:1054000000000000030C030C00000000000000007E
:105410000000000101060000000000000000000084
:10542000008001400220041008081004000002203F
:1054300002200220022002200220022000000000A0
:105440001004080804100220014000800000000041
:105450000E001200100C106C10800F00000003E012
:105460000C1813E4142417C4082807D00000000403
:10547000003C03C41C40074000E4001C000410046E
:105480001FFC1104110411040E880070000003E0D9
:105490000C1810041004100410081C100000100454
:1054A0001FFC100410041004080807F0000010048A
:1054B0001FFC1104110417C4100408180000100484
:1054C0001FFC1104110017C010000800000003E0C9
:1054D0000C181004100410441C7800400000100444
:1054E0001FFC10840080008010841FFC100400004A
:1054F000100410041FFC100410040000000000033E
:105500000001100110011FFE100010000000100427
:105510001FFC110403801464181C10040000100404
:105520001FFC1004000400040004000C0000100420
:105530001FFC1F0000FC1F001FFC100400001004D3
:105540001FFC0C04030000E010181FFC100007F003
:105550000808100410041004080807F000001004E4
:105560001FFC10841080108010800F00000007F0D6
:10557000081810241024101C080A07F20000100458
:105580001FFC1104110011C011300E0C00040000AA
:105590000E1C11041084108410441C3800001800E4
:1055A000100010041FFC1004100018000000100070
:1055B0001FF810040004000410041FF8100010006D
:1055C0001E0011E0001C007013801C0010001FC0A2
:1055D000103C00E01F0000E0103C1FC00000100461
:1055E000180C163401C001C01634180C1004100039
:1055F0001C00130400FC13041C001000000008042D
:10560000101C1064108413041C0410180000000007
:10561000000000007FFE4002400240020000000047
:1056200030000C0003800060001C0003000000003C
:105630004002400240027FFE000000000000000027
:105640000000200040004000400020000000000159
:105650000001000100010001000100010001000043
:10566000400040002000000000000000000000009A
:105670000098012401440144014400FC000410008E
:105680001FFC008801040104008800700000000075
:10569000007000880104010401040088000000007B
:1056A000007000880104010411081FFC00040000C0
:1056B00000F8014401440144014400C80000000016
:1056C000010401040FFC1104110411001800000072
:1056D00000D601290129012901C901060000100491
:1056E0001FFC008401000100010400FC0004000014
:1056F0000104190419FC000400040000000000006B
:10570000000300010101190119FE0000000010044E
:105710001FFC0024004001B4010C01040000000043
:10572000100410041FFC0004000400000000010429
:1057300001FC0104010001FC0104010000FC010462
:1057400001FC008401000100010400FC00040000D1
:1057500000F8010401040104010400F80000010143
:1057600001FF0085010401040088007000000000B2
:105770000070008801040104010501FF000101041B
:10578000010401FC0084010401000180000000000C
:1057900000CC012401240124012401980000000010
:1057A0000100010007F801040104000000000100ED
:1057B00001F8000400040004010801FC00040100D9
:1057C00001800170000C001001600180010001F0F7
:1057D000010C003001C00030010C01F0010000009C
:1057E0000104018C00740170018C010400000101AE
:1057F00001810171000E00180160018001000000AC
:105800000184010C013401440184010C00000000FA
:1058100000000000000001003EFC400240020000C9
:10582000000000000000FFFF00000000000000007A
:10583000400240023EFC01000000000000000000A9
:105840006000800080004000400020002000000038
:105850000000000000000000000000000000000048
:105860000000000000000000000000000000000038
:105870000000000000000000000000000000000028
:10588000000F80380FFE380F803800000000000045
:105890000000000000000000000000000100000601
:1058A00000000C00003800003100000600000C0071
:1058B000003800003000000000000000000061809F
:1058C0000067F807F9800061800061800061800056
:1058D00061800067F807F980006180000000000027
:1058E0000000000001C0E003E0F0063008041808E2
:1058F0001FFFFE040E080787F00381E00000000090
:10590000000001F000060C00040408060C7001F908
:10591000C0000E00003BE000EC18070808040C185B
:105920000003E00000000001E00007F003F81804A5
:105930001C0804170807E1D003C0E00023B0003CB6
:105940000800200800001000000000000001000016
:105950003100003200001C000000000000000000C8
:105960000000000000000000000000000000000037
:1059700000000000000000000000000000007F00A8
:1059800001FFC00780F00C00181000042000020086
:1059900000000000002000021000040C0018078026
:1059A000F001FFC0007F00000000000000000000C8
:1059B000000000000000000000004200006600003F
:1059C0006600003C0000180003FFC0001800003C07
:1059D00000006600006600004200000000000800B1
:1059E00000080000080000080000080001FFC000D7
:1059F000080000080000080000080000080000007F
:105A00000000000100003100003200001C00000016
:105A10000000000000000000000000000000000086
:105A20000000000000000800000800000800000856
:105A3000000008000008000008000008000008003E
:105A40000008000000000000000000000000380016
:105A500000380000380000000000000000000000D6
:105A60000000000000000000000000000000000630
:105A700000001C000070000180000E0000380000D3
:105A8000C0000700001C0000300000000000000003
:105A900000007F8001FFE00380700600180400080A
:105AA00004000806001803807001FFE0007F8000FA
:105AB00000000000000000000100080100080100D3
:105AC0000803FFF807FFF8000008000008000008BE
:105AD00000000000000000000001C03802C05804AF
