:020000040800F2
:10000000400E00209D0100089B210008D91E000819
:100010009921000845080008DB38000800000000AE
:10002000000000000000000000000000AB270008F6
:100030005308000800000000B3250008B132000892
:10004000B7010008B7010008B7010008B7010008B0
:10005000B7010008B7010008550800086308000848
:10006000B70100087B0800087D080008B7010008F8
:10007000B7010008B7010008B7010008B701000880
:10008000B7010008B7010008B7010008B701000870
:10009000B7010008B7010008B7010008950800087B
:1000A000B7010008B7010008B7010008B701000850
:1000B000B70100088533000891330008B701000834
:1000C000B7010008B7010008B7010008B701000830
:1000D000B7010008B7010008B7010008B701000820
:1000E0005B080008B7010008B7010008B701000865
:1000F000B7010008B7010008B7010008B701000800
:10010000B7010008B7010008B7010008B7010008EF
:10011000B7010008B7010008B7010008B7010008DF
:10012000B7010008B7010008B7010008B7010008CF
:10013000B7010008B7010008B7010008B7010008BF
:10014000B7010008B7010008B7010008B7010008AF
:10015000B7010008B7010008B7010008B70100089F
:10016000B7010008B7010008B7010008B70100088F
:10017000B7010008B7010008B7010008000000003F
:10018000B7010008B7010008DFF80CD000F0C0FA92
:10019000004800472D470008400E002006488047D1
:1001A00006480047FEE7FEE7FEE7FEE7FEE7FEE75C
:1001B000FEE7FEE7FEE7FEE741330008890100089D
:1001C0002DE9F05F0546002092469B46884606468C
:1001D000814640241BE0284641464746224600F01F
:1001E000D1F853465A46C01A914110D311461846C9
:1001F000224600F0B8F82D1A67EB01084F46224658
:100200000120002100F0AFF817EB00094E41201E3D
:10021000A4F10104DFDC484631462A464346BDE8E6
:10022000F09F30B504460020034600E05B1C93427B
:1002300003D2E05CCD5C401BF8D030BD2DE9F04D21
:1002400081EA030404F0004B21F0004514464FF00E
:10025000000A23F0004150EA050220D054EA0102CE
:100260001DD0C5F30A570246C5F31303C1F31300AB
:10027000C1F30A5640F4801543F48013A7EB060837
:10028000101BD64608F2FD3873EB050002D308F1C7
:10029000010801E092185B41B8F1000F03DA002079
:1002A0000146BDE8F08D00204FF4801106468446DB
:1002B0000EE0171B73EB050705D3121B63EB050359
:1002C00006434CEA010C49084FEA300092185B41A2
:1002D00050EA0107EDD152EA030012D082EA04008D
:1002E00083EA0501084305D0101BAB4106D2012269
:1002F000002306E000224FF0004302E06FF001020D
:1003000053101AEB06004CEB085110EB0A0041EBBE
:100310000B01BDE8F04D00F045B80EB540F2334199
:1003200002910021CDE900110A460B4600F049F880
:1003300003B000BDC1F30A5210B5C1F3130140F27E
:10034000FF3341F480119A4201DA002010BD40F2DF
:1003500033439A42A2F2334203DC524200F012F8D5
:1003600010BD904010BD202A04DB203A00FA02F1B3
:10037000002070479140C2F1200320FA03F3194393
:1003800090407047202A04DB203A21FA02F0002135
:10039000704721FA02F3D040C2F120029140084395
:1003A0001946704710B5141E73F1000408DA401C9A
:1003B00041F1000192185B411A4301D120F0010084
:1003C00010BD2DE9F04D92469B4611B1B1FA81F274
:1003D00002E0B0FA80F220329046FFF7C4FF0446F4
:1003E0000F4640EA0A0041EA0B0153465A460843C9
:1003F00013D0114653EA010019D0C8F1400250460B
:10040000FFF7C0FF05460E46504659464246FFF7E5
:10041000AAFF084305D0012004E020463946BDE884
:10042000F08D0020054346EAE0762C4337430A98D6
:100430006305E40AA0EB08000022FD0A44EA4754E1
:100440000A3002D500200146E9E70105101969418B
:10045000DDE9084500196941BDE8F04DA2E72DE945
:10046000FE4F804681EA0300C00F0C46009021F049
:10047000004123F00045B8EB0200A94105D24046F7
:10048000214690461C460B46024623F0004010438E
:1004900047D0270DC7F30A00C3F30A510290401A50
:1004A000019040286BDAC3F3130040F4801B0098DE
:1004B000924620B10023D2EB030A63EB0B0B0198A9
:1004C0005946C0F140025046FFF74DFF06460D4623
:1004D00050465946019A00F02DF910EB0800614191
:1004E000002487EA115284EAE7731A4340D0009A45
:1004F00062B3019A012A4FEA075215DC001B61EB37
:1005000002014FF0004202EA0752CDE90042001C0E
:1005100041F5801132462B46FFF753FF03B0BDE88B
:10052000F08F40462146F9E7001B61EB0201001CF9
:1005300041F5801300185B412018A2F5001747EB26
:10054000030140EAD570B6196D4111E06D084FEA1C
:10055000360645EAC0754FEA0752001B61EB0201FF
:10056000001C41F5801149084FEA30000019514143
:1005700032462B4603B0BDE8F04FFFF713BF00989B
:10058000012240000023D0EB020263EBE0730098ED
:1005900021464FEAE074B8EB000061EB0401E9E7A3
:1005A00083F000435BE781F0004158E72DE9FE4FFF
:1005B00081EA030404F0004421F0004100944FF06C
:1005C000000B23F0004350EA01045ED052EA03041A
:1005D0005BD0C3F30A54C1F30A552C44A4F2F3349C
:1005E0000194A0FB0254C1F3130141F48011C3F341
:1005F000130343F4801301FB024400FB034E840AFF
:10060000970A44EA815447EA8357A4FB0768029596
:100610008D0A05FB07854FEA932C04FB0C54270534
:10062000029D4FEA065847EA1637B5EB08056EEB10
:10063000070C870E920E47EA811742EA8312A7FB46
:100640000201B6EB0B0164EB00042B0D43EA0C3303
:100650005E1844EB1C50DA465146E7FB0201C5F335
:1006600013044FEA0B3343EA14534FEA0432019C5C
:1006700043EA0603A4F10C040294009CCDE900B403
:10068000FFF79FFE03B0BDE8F08F00200146F9E7B9
:1006900070B521F0004303430CD0C1F30A55002488
:1006A000D5EB040564EB0403D617AD1AB34102DBA6
:1006B0000020014670BD201841EB025170BD0EB5FF
:1006C000C10F80EAE0700844CA07002140F23343BA
:1006D0008DE80E000A460B46FFF773FE03B000BD1F
:1006E00030B5041E71F1000404DB4FF000444042B9
:1006F00064EB0101141E73F1000405DB1C464FF08E
:100700000043524263EB0403994208BF904230BD5C
:10071000064C074D06E0E06840F0010394E807004E
:1007200098471034AC42F6D3FFF732FDF861000869
:1007300018620008202A06DBCB17203A41FA02F0A3
:1007400043EAE07306E041FA02F3D040C2F120022E
:1007500091400843194670472DE9F04D00231A4691
:100760001B1A8A4103DB00200146BDE8F08DC1F36E
:100770000A52C1F3130141F480154FF0000BD10769
:1007800002D100186D41521E0027044640F2FF11AD
:10079000384601EB620A3E468046024600204FF48E
:1007A0008011FFF7EFFDC2197141BB1846EB010044
:1007B000B4EB030C75EB000C04D3E41A65EB0005F5
:1007C00017460E46241908F101006D418046342871
:1007D000E3DDF91946EB0600091BA84103D24FF0EF
:1007E000FF32134601E0002213461BEB070046EBE5
:1007F0000A51BDE8F04DFFF7D5BD000030B50F48F8
:1008000087B0C16C41F00801C164C06C4FF48064D2
:1008100000F0080005900120CDE900400020084DBF
:10082000029003906946284600F0B8F9002221465C
:10083000284600F09EFA07B030BD000000100240CC
:10084000000C0048FEE702F00BB802F00CB801F013
:10085000DFBF7047012000F095B94FF4004000F071
:1008600091B910B5072000F0F7FA022000F08AF9DC
:10087000BDE81040072000F0FABA704710B50A2012
:1008800000F0EAFA102000F07DF9BDE810400A20DF
:1008900000F0EDBA4FF4407000F074B9FEE770B5A7
:1008A000044600F06BFA0546601C00D0641C00F0A2
:1008B00065FA401BA042FAD370BD00002DE9F84F45
:1008C000DFF894824FF400473946404600F04CFA76
:1008D000A24CA34E4FF47A790C2560BB3220FFF76F
:1008E000DEFF3946404600F03FFA20BB9D4801F04C
:1008F00047F9FFF7A8FFF078401CC0B2F070401F26
:1009000008280CD2DFE800F00406202224292E3328
:10091000052000E006206071484601F0FFFB0095CD
:100920000223F2780C21122001F0CAFDF0780B2886
:1009300001D90420F0708C4F4FF48078414638463E
:1009400000F012FAB8B138E00720E4E70820E2E747
:100950000920607140F2DC50DFE70A2060714FF43B
:10096000FA60DAE70B20607140F6B830D5E76571C0
:1009700041F28830D1E73220FFF791FF41463846F7
:1009800000F0F2F9C8B9774801F0FAF8FFF75BFF19
:1009900030797349401C40B21431307151F8202035
:1009A0002260092300213020009501F089FD96F98D
:1009B0000400042801DBFF2030714FF4007A514617
:1009C000384600F0D1F94FF01008002458BB32200F
:1009D000FFF765FF5146384600F0C6F918BB02F034
:1009E000FBFB50B101F0EAFB002118235FA208468F
:1009F00001F0A2FD01F0E6FCF4E7F4803481224628
:100A0000474606232C211820CDF8008001F058FD20
:100A10000097032332892C21502001F051FDFFF76C
:100A200014FF02F07DF8FFF712FF01281CD102F03D
:100A30001BF907464FF6FF7002F00AF9F8074FF06E
:100A4000904A09D0FFF701FF02F06AF80122202145
:100A5000504600F08EF907E007F04200022807D068
:100A6000FFF7F3FE02F05CF8BDE8F84F00F09EBA25
:100A7000FFF7E9FE3F4801F07BFFF0884F46401C3E
:100A800080B2F080B84200D3F480CDF80080062315
:100A9000F2882C21182001F013FD31490A220A3175
:100AA0003448FFF7BEFB38B13089401C80B230813A
:100AB000B842D9D33481D7E700222021504600F034
:100AC00058F92D494FF00C03087B7070887A40B2BA
:100AD0003070097AB17000280BDA28A21A21182088
:100AE00001F02AFD3078404242B232700423009572
:100AF00008E023A21A21182001F01EFD009596F9A6
:100B0000002004231A211E2001F0DAFC96F90100CE
:100B10004FF00C0300280BDA18A21A215A2001F01A
:100B20000BFD7078404242B272700423009508E0D9
:100B300013A21A215A2001F0FFFC009596F901201A
:100B400004231A21602001F0BBFCFFF77EFE094858
:100B500002F00EF888E700000004004810000020B2
:100B60002400002050000020000C004845526F5225
:100B700000000000300A0020C80000202D00000006
:100B800020000000044910B50A68024202D0086043
:100B9000FFF794FE10BD0000140401402DE9F84F4A
:100BA000DFF8A091002209F1040A0AF1040B4FF0CA
:100BB0000F080BF1040EBEE001249440234075D0D1
:100BC0004D68022D01D0122D11D1D50800EB8507FB
:100BD0003E6A5507ED0E08FA05FC26EA0C06D1F828
:100BE00010C00CFA05FC4CEA060CC7F820C00768D8
:100BF0005500032691F804C0AE400CF0030CB74337
:100C00000CFA05FC4CEA070CC0F800C04F68012F35
:100C100005D0022F03D0112F01D0122F15D18768D4
:100C2000D1F80CC0B7430CFA05FC4CEA070CC0F82D
:100C300008C0476891F804C0A743CCF3001C0CFA25
:100C400002FC4CEA070CC0F804C0D1F804C06FEAFB
:100C50000C07BF0706D1C76AA743CCF3C004944072
:100C60003C43C462C468B4438E68AE402643C66049
:100C70004C68E4005ED5344C256E45F001052566D0
:100C8000246E22F0030504F0010400942F4C2E1969
:100C9000B7689407250F08FA05F4A743B0F1904F01
:100CA00005D02B4CA04204D101241CE042E00024DA
:100CB00019E0284CA04201D1022414E0264CA042A5
:100CC00001D103240FE0254CA04201D104240AE005
:100CD000234CA04201D1052405E0224CA04201D1C1
:100CE000062400E00724AC403C43B460D9F800403F
:100CF0004D464E689C43F60300D51C432C60DAF841
:100D0000004055464E689C43B60300D51C432C60FA
:100D1000DBF800405D464E689C43F60200D51C435C
:100D20002C60DEF8004075464E689C43B60200D544
:100D30001C432C60521C0B6833FA02F47FF43CAF66
:100D4000BDE8F88F0004014000100240000001409F
:100D50000004004800080048000C0048001000484B
:100D600000140048001800480069084000D0012025
:100D700070470AB18161704781627047014800681D
:100D8000704700000000002002480168491C016013
:100D9000704700000000002010B5032000F092F81A
:100DA000002000F005F800F017F8002010BD00004A
:100DB00010B5044607484FF47A710068B0FBF1F0B3
:100DC00000F049FE00222146501E00F05BF8002092
:100DD00010BD0000200000201E4808B5016E41F043
:100DE00001010166016E01F001010091816D41F088
:100DF00080518165806D00F080500090032000F0EC
:100E000061F8002211466FF00B0000F03BF8002261
:100E100011466FF00A0000F035F8002211466FF01D
:100E2000090000F02FF800221146501F00F02AF8A8
:100E300000221146101F00F025F800221146901ED6
:100E400000F020F80022BDE808401146501E00F0D6
:100E500019B800000010024000F01F02012191406B
:100E60004009800000F1E020C0F88011704700F0D8
:100E70001F02012191404009800000F1E020C0F8EC
:100E800000117047F0B40E4B1B68C3F30223C3F18B
:100E90000704042C00D904241D1D072D01D20023B2
:100EA00000E0DB1E012606FA04F56D1E0D409D4094
:100EB0009E40761E164045EA0601F0BC01F06EB970
:100EC0000CED00E0064A00F0070110684FF6FF0342
:100ED000184040EA012003490843106070470000B1
:100EE0000CED00E00000FA051549B0F5007F086838
:100EF000C0F3412009D0022805D0086820F4C06062
:100F000040F480600860002070470128FBD008682A
:100F100020F4C06040F4007008600A480A4A006883
:100F2000B0FBF2F03222504300E0401E10B14A699B
:100F30005205FAD448694005E5D503207047000002
:100F4000007000402000002040420F000C4908685B
:100F500020F4804008600B480B4A0068B0FBF2F0B8
:100F60003222504300E0401E10B14A699205FAD483
:100F70004869800501D503207047002070470000B4
:100F8000007000402000002040420F00024801682D
:100F900041F48041016070470070004002480068E1
:100FA00000F4C06070470000007000400248016813
:100FB00021F002010160704710ED00E00248016875
:100FC00041F002010160704710ED00E00E4A10B5DB
:100FD000002850690C460FD0C043800501D5FFF7AB
:100FE000D5FF0A48016821F004010160012C08D0F6
:100FF00040BF20BF20BF10BD8005F2D5FFF7A6FF80
:10100000EFE730BF10BD00000070004010ED00E0C1
:101010002DE9F047DFF8648104460E46D8F8000059
:1010200000F00700B0420CD2D8F8001021F0070100
:101030003143C8F80010D8F8000000F00700B042B3
:1010400072D120784E4F800705D5B868A16820F08E
:10105000F0000843B8602078C00754D060680228C8
:1010600018D0032819D03968D0B1490500295BDAB6
:10107000B96821F003010143B960FFF77FFE05461F
:10108000606841F28831022812D003281DD08946B9
:1010900038B333E039688903E8E739688901E5E75F
:1010A0008907E3E7FFF76AFE411B494501D922E0C2
:1010B0008946B868C0F381000228F3D123E0FFF726
:1010C0005DFE411B494501D915E08946B868C0F36A
:1010D00081000328F3D116E0FFF750FE411B49457C
:1010E00009D8B86810F00C0FF6D10CE0FFF746FEF7
:1010F000411B494502D90320BDE8F087B868C0F319
:1011000081000128F2D1D8F80010404601F0070113
:10111000B1420BD9016821F0070131430160006839
:1011200000F00700B04201D00120E5E72078400739
:1011300005D5B868E16820F4E0600843B86020781D
:10114000000706D5B868216920F4605040EAC10064
:10115000B86000F051F8B968F02292FAA2F201F0FA
:10116000F001B2FA82F2D140064A515CC840064909
:1011700008600020FFF71CFE0020BDE700200240B1
:10118000001002401C610008200000200148006897
:10119000704700002000002008480949006889685D
:1011A0004FF4E06292FAA2F201F4E061B2FA82F244
:1011B000D140044A515CC840704700002000002024
:1011C000001002405C61000808480949006889680D
:1011D0004FF4605292FAA2F201F46051B2FA82F234
:1011E000D140044A515CC8407047000020000020F4
:1011F000001002405C61000870B53B4B00221046B5
:1012000099683A4C11F00C0F4FEA640514D09968B4
:10121000C1F38101032904D1D96801F00301012937
:101220000AD09968C1F38101012921D09968C1F3DD
:10123000810102291ED01EE01968090706D4D3F8DF
:1012400094104FF4706201F4706103E01968F022A9
:1012500001F0F00192FAA2F2B2FA82F2D140244AED
:1012600052F82120996811F00C0F04D1104602E0C9
:10127000204600E028469968C1F38101032931D155
:10128000D868D96800F00300702696FAA6F601F037
:101290007001B6FA86F6F140491C4FF4FE4602286A
:1012A00004D0032805D0B2FBF1F004E0B4FBF1F068
:1012B00001E0B5FBF1F0D96896FAA6F201F4FE411F
:1012C000B2FA82F2D1404843D9684FF0C06292FA34
:1012D000A2F201F0C061B2FA82F2D140491C490089
:1012E000B0FBF1F070BD0000001002400024F400DB
:1012F0002C6100082DE9F84304460078FD4DC00636
:1013000063D5A86810F00C0F0AD0A06900282868DF
:1013100078D040F001002860FFF730FD06465AE023
:101320002868800702D5A06900286AD0216A286849
:101330004FF0F006000703D5286800F0F00003E046
:10134000D5F8940006EA1010814216D9084601F03B
:1013500031F9002855D1286840F008002860286835
:10136000216A20F0F000084328606868E16920F4F1
:101370007F4040EA0120686015E0286840F00800DE
:1013800028602868216A20F0F00008432860686817
:10139000E16920F47F4040EA01206860206A01F0A2
:1013A00009F90028D6D1FFF727FFA96896FAA6F217
:1013B00001F0F001B2FA82F2D140CF4A515CC8404C
:1013C000CE4908600020FFF7F3FC2AE0FFF7D6FCC7
:1013D000801B02287ED828688007F7D5286840F04F
:1013E000080028602868216A20F0F000084328607F
:1013F0006868E16920F47F4040EA0120686010E0FD
:1014000000E0B3E020F001002860FFF7B7FC0646DB
:1014100004E0FFF7B3FC801B0228DBD828688007B4
:10142000F7D42078C00746D0A868C0F3810002280E
:101430001DD0A868C0F38100032803D1E868C04329
:10144000800714D06068B0F5803F17D0B0F5A02FAA
:10145000286817D020F480302860286820F4802085
:1014600028606068D8B1FFF789FC064613E0286859
:10147000800320D56068002878D01CE0286840F4FC
:101480008030EDE740F480202860F7E7FFF776FC36
:10149000801B64289ED828688003F7D50BE0FFF7EF
:1014A0006DFC064604E0FFF769FC801B642891D8B8
:1014B00028688003F7D42078800747D5A8684FF0C4
:1014C000F857C0F38100012816D0A868C0F3810046
:1014D000032800E0AAE004D1E86800F00300022835
:1014E0000AD0E0680028286821D040F48070286085
:1014F000FFF744FC06460BE0286840050BD5E06882
:101500000028B9D007E0FFF739FC801B022884D8F7
:1015100028684005F7D5686897FAA7F22169B2FAFA
:1015200082F220F0F8509140084368600EE020F409
:1015300080702860FFF722FC064604E0FFF71EFCDF
:10154000801B022872D828684005F7D4207800074D
:1015500028D560690028D5F8940012D040F0010029
:10156000C5F89400FFF70AFC064605E0F6E0FFF731
:1015700005FC801B022859D8D5F894008007F6D5C1
:1015800010E020F00100C5F89400FFF7F7FB0646D5
:1015900004E0FFF7F3FB801B022847D8D5F894003E
:1015A0008007F6D42078400762D5A86D0027C000D8
:1015B00008D4A86D40F08050A865A86D012700F000
:1015C000805000904E480168C90511D401688046DA
:1015D00041F480710160FFF7D1FB064604E0FFF79C
:1015E000CDFB801B022821D8D8F80000C005F6D515
:1015F000A068012815D00528D5F8900017D020F054
:101600000100C5F89000D5F8900020F00400C5F85E
:101610009000A06841F28838C0B1FFF7AFFB0646E2
:101620000FE0D5F8900040F00100F0E761E040F0F5
:101630000400C5F89000F4E7FFF7A0FB811B4145CB
:1016400057D8D5F890008007F6D50CE0FFF796FB49
:10165000064604E0FFF792FB811B414576D8D5F89A
:1016600090008007F6D41FB1A86D20F08050A865C7
:10167000A06AE8B3A968C1F3810103296ED00228EA
:10168000286820F08070286011D02868000106D4F6
:101690002868800003D4E86820F00300E860E86868
:1016A00018490840E860FFF769FB044651E0FFF77E
:1016B00065FB064604E0FFF761FB801B022845D866
:1016C00028688001F7D4206BE16A000110380843D4
:1016D000616BA26B0902120941EA42410843A18FE2
:1016E000094A490802EB4151084394F840100DE0C3
:1016F00032E02BE0001002401C61000820000020B6
:1017000000700040FFFFEEFE0000E0FF49081201FC
:1017100002EB41610843E860286840F0807028606F
:10172000E86840F08070E860FFF728FB044604E0BA
:10173000FFF724FB001B022808D828688001F7D592
:101740000AE0FFF71BFB001B022802D90320BDE8BB
:10175000F88328688001F4D40020F8E70120F6E738
:101760002DE9F041040005D00025A56294F85D0044
:1017700018B107E00120BDE8F08184F85C502046F4
:1017800000F044F8022684F85D602068016821F0CA
:1017900040010160E0684FF4E062904201D900210D
:1017A00001E04FF48051B0F5706F02D0904200D04C
:1017B000A562276B012327B9904201D9266300E077
:1017C0002363D4E901021043D4E9042632431043D1
:1017D000228B02F400721043E2691043226A104324
:1017E000A26A104322681060626B606AA6691043A7
:1017F0000427E26807EA164632431043084321688B
:101800004860256684F85D300020B4E770472DE914
:10181000F05F044690F85C000127DDF828809A46C6
:1018200016460D464FF0000901280ED0012084F81D
:101830005C00FFF7A3FA834694F85D006168012815
:101840000CD0B1F5827F07D102E00220BDE8F09F05
:10185000A16809B9042801D002206EE035B32EB387
:10186000BAF1000F22D094F85D00042802D00520C0
:1018700084F85D00002020662664A4F846A0A4F841
:1018800044A0A563A4F83EA0A4F83CA0E0642065B1
:10189000E0684FF4E061884203D8B4F846000128BC
:1018A00006D92068426822F4805205E0012044E015
:1018B0002068426842F48052426020680268520602
:1018C00003D4026842F040020260E0688842606827
:1018D00044D910B1E08F012838D1216835F8020BC6
:1018E000C860E08F401EE08730E067B1E08F50B104
:1018F00020688168890706D535F8021BC160E08F32
:10190000401EE0870027B4F8460060B12068816877
:10191000C90708D0C06826F8020BB4F84600401E7C
:10192000A4F846000127B8F1FF3F0FD0FFF726FAD1
:10193000A0EB0B01414509D303208146012084F827
:101940005D00002084F85C0048467FE7E08F0028B7
:10195000CBD1B4F846000028C7D162E010B1E08FC7
:10196000012857D1E08F012806D9216835F8020BEC
:10197000C860E08F801E05E0216815F8010B087330
:10198000E08F401EE08745E0AFB1E08F98B120685E
:10199000816889070FD5E18F012905D935F8021B28
:1019A000C160E08F801E04E015F8011B0173E08F19
:1019B000401EE0870027B4F8460010B32068816815
:1019C000C9071ED0B4F84610012911D9C06826F8FD
:1019D000020BB4F84600801EA4F84600B4F8460096
:1019E00001280DD82068416841F48051416007E02A
:1019F000007B06F8010BB4F84600401EA4F8460030
:101A00000127B8F1FF3F05D0FFF7B8F9A0EB0B01B4
:101A1000414591D2E08F0028B6D1B4F846000028A5
:101A2000B2D15A464146204600F002FE08B12020BD
:101A30002066206E00287FF439AF7FE74FF0E02169
:101A40000428086903D020F004000861704740F0C2
:101A50000400FAE7704710B5401EB0F1807F01D353
:101A6000012010BD4FF0E02460610F21601700F0ED
:101A700095FB0020A06107202061002010BD10B55B
:101A8000FFF7E8FF10BD70477047000030B590F8D1
:101A90003820012A1FD0012280F8382003685A68B4
:101AA0009D680E4CA34202D00D4CA34203D122F4F8
:101AB00070044A68224322F070040A68896822434D
:101AC00025F0800421435A6002689160002180F86B
:101AD0003810084630BD022030BD0000002C014007
:101AE0000034014010B5040003D094F8390010B15F
:101AF00007E0012010BD002084F83800204600F0E7
:101B00000DF8022084F83900211D206801F046FC00
:101B1000012084F83900002010BD000008B50068DD
:101B2000144A154990420ED1886D40F00200886534
:101B3000886D002200F00200009011461D20FFF782
:101B4000A1F91D2010E00D4A904211D1886D40F09E
:101B500004008865886D002200F0040000901146A2
:101B60001E20FFF78FF91E20BDE80840FFF77FB960
:101B700008BD0000000400400010024000080040C2
:101B80000168CA6822F00102CA600068016A41F275
:101B90001112114207D1016A9210114203D101685A
:101BA00021F00101016000207047000070B504467B
:101BB00090F83800012817D0012584F83850022009
:101BC00084F8390020688268354E324022F47F4222
:101BD00082600868502838D00DDC20285AD005DCF7
:101BE00090B3102842D152E0022070BD302854D06A
:101BF00040283BD140E060282FD070280CD0B0F5B1
:101C0000805F03D0B0F5005F30D112E020688168BA
:101C1000234A703211400AE0CB68D1E901212068E3
:101C200001F018FC20688168314041F07701816043
:101C30001CE0CB68D1E90121206801F00BFC206891
:101C4000816841F48041F2E71EE0CA684968206873
:101C500001F012FC5021206806E0CA68496820683B
:101C600001F01BFC6021206801F0FEFB84F8395074
:101C7000002084F8380070BDCA684968206801F007
:101C8000FBFB40212068EFE700212068ECE71021F2
:101C90002068E9E720212068E6E730212068E3E7B3
:101CA00088FFFEFF704770B50446006801694FF079
:101CB0000005C943890715D4C168C943890711D4F0
:101CC000E91E016101202076206880698007204696
:101CD00002D0FFF7E7FF04E000F098F8204600F09C
:101CE00096F8257620680169C943490717D4C16869
:101CF000C943490713D46FF0040101610220207623
:101D00002068806910F4407F204602D0FFF7CAFFA8
:101D100004E000F07BF8204600F079F82576206892
:101D20000169C943090716D4C168C943090712D418
:101D30006FF008010161042020762068C0698007E7
:101D4000204602D0FFF7AEFF04E000F05FF8204627
:101D500000F05DF8257620680169C943C90617D4EB
:101D6000C168C943C90613D46FF01001016108208E
:101D700020762068C06910F4407F204602D0FFF72B
:101D800091FF04E000F042F8204600F040F825768C
:101D900020680169C943C90708D1C168C943C90797
:101DA00004D1891E0161204600F032F820680169E3
:101DB000C943090609D4C168C943090605D46FF0AF
:101DC000800101612046FFF75EFE20680169C9437A
:101DD000490609D4C168C943490605D46FF04001DA
:101DE0000161204600F015F820680169C9438906A1
:101DF0000BD4C168C943890607D46FF02001016183
:101E00002046BDE87040FFF73FBE70BD7047704789
:101E10007047704710B5040003D094F8690010B102
:101E200007E0012010BD002084F86800204600F083
:101E300027F8242084F869002068016821F0010156
:101E40000160204601F0CEFB0128EBD0606A10B1A2
:101E5000204601F034FB2068416821F49041416044
:101E60002068816821F02A0181602068016841F0C2
:101E7000010101602046BDE8104001F084BB000074
:101E800000B50068124987B088421FD11148816DA2
:101E900041F400318165806D694600F400300590A1
:101EA0000C2000900220019001200290032003905A
:101EB000072004904FF09040FEF770FE002211467C
:101EC0002620FEF7DFFF2620FEF7D1FF07B000BD7A
:101ED0000044004000100240FEE7000070B50122FF
:101EE0000B4D540221462846FEF743FF01221602FD
:101EF00031462846FEF73DFF002221462846FEF7E0
:101F000038FF31462846BDE870400022FEF731BF59
:101F10000004004870B50A4C012211022046FEF769
:101F200028FF4FF40075002229462046FEF721FFC6
:101F300029462046BDE870400122FEF71ABF000086
:101F40000004004870B50122064D140221462846BF
:101F5000FEF70FFF21462846BDE870400022FEF73D
:101F600008BF00000004004830B51C4887B0C16CB1
:101F700041F00201C164C16C01F002010591C16C24
:101F800041F00801C164C06C154D00F008000590D7
:101F90004FF40040CDE90005012469460294114840
:101FA000FEF7FCFD4FF44070CDE900056946029450
:101FB0000D48FEF7F3FD002201211720FEF762FF16
:101FC0001720FEF754FF002201212820FEF75AFFB8
:101FD0002820FEF74CFF07B030BD00000010024083
:101FE0000000211000040048000C00480F4810B504
:101FF000C16C86B041F00101C164C06C4FF09044E7
:1020000000F001000590012270212046FEF7B1FE8C
:1020100070211120CDE90010002102910391694641
:102020002046FEF7BBFD06B010BD000000100240C8
:102030002D4A2E49106808442D49884237D210791C
:1020400000F00F0111710A2931D8A2F10C000B29FF
:102050000ED2DFE801F0433D37312E09060D403A3C
:1020600034009FED240A01E09FED230A80ED010A70
:10207000517901F00F014B1F5171082B17D2022328
:10208000491E8B4000EE103AD0ED010AB8EEC00AAE
:1020900080EE201A80ED021A907900F0070090710E
:1020A000401E042803D292F90700162819DD0020EB
:1020B00070479FED120AD9E79FED110AD6E79FED11
:1020C000110AD3E79FED100AD0E79FED100ACDE784
:1020D0009FED0F0ACAE79FED0F0AC7E79FED0E0AB3
:1020E000C4E70120704700001000002080E58FE762
:1020F0000184D7170000FA4300007A430000FA4237
:1021000000007A4214AE26420000FA41D7A3A6414D
:102110007B147A4152B8264185EBF94010B512493B
:1021200088B0104A0A604FF6FF120024401E4A6031
:10213000C1E9024008460C61FFF7D4FC00280ED12B
:102140004FF48050039003A90748FFF72FFD0028A4
:1021500005D10094694604480294FFF797FC08B043
:1021600010BD00000004004050000020094808494C
:1021700001604FF4E1314160002181600C22C160B7
:10218000C0E904128161C16101624162FFF742BE90
:102190000044004040050020FEE770470907090E93
:1021A000002806DA00F00F0000F1E02080F8141D8E
:1021B000704700F1E02080F80014704730B400212F
:1021C000084B0A46002003EBC004401CC0B2625416
:1021D0008028F8D3491CC9B20829F3D330BC00F0D9
:1021E000F1B80000B005002010B57F2816D83F29AF
:1021F00014D80723A3EBD10301F00701C1F10704B1
:102200000121A140064CDBB204EBC000002AC25CF5
:10221000C9B201D00A4300E08A43C25410BD000095
:10222000B0050020F0B5604887B0C16C41F00201F4
:10223000C164C16C01F002010591C16C41F008015B
:10224000C164C06C4FF4407500F008000590012691
:10225000564FCDE900560224694603943846FEF7EE
:102260009DFC012229463846FEF783FDED000394CC
:102270004F4CCDE9005669462046FEF78FFC0122FF
:1022800029462046FEF775FD0022F1022046FEF7A2
:1022900070FD0122150329462046FEF76AFD7820CD
:1022A000FEF7FDFA002229462046FEF762FD78205F
:1022B000FEF7F5FA012229462046FEF75AFD0021D5
:1022C000AE2000F05BF90021022000F057F9002158
:1022D000102000F053F90021402000F04FF90021B8
:1022E000812000F04BF90021FF2000F047F9002188
:1022F000A12000F043F90021C02000F03FF90021A7
:10230000A62000F03BF90021A82000F037F90021B9
:102310003F2000F033F90021D32000F02FF90021F5
:10232000084600F02BF90021D52000F027F9002104
:10233000802000F023F90021D92000F01FF90021AE
:10234000F12000F01BF90021DA2000F017F900213C
:10235000122000F013F90021DB2000F00FF900211A
:10236000402000F00BF90021202000F007F90021A7
:10237000022000F003F900218D2000F0FFF8002179
:10238000142000F0FBF80021A42000F0F7F8002151
:10239000A62000F0F3F80021AF2000F0EFF8FFF7DF
:1023A0000DFF07B0F0BD000000100240000400481F
:1023B000000C00480346012000E05843491EC9B202
:1023C000FBD2704770B5104E002505F1B000C0B2C9
:1023D000002100F0D3F80021022000F0CFF8002106
:1023E000102000F0CBF8002406EBC4000121405D72
:1023F00000F0C4F8641CE4B2802CF5D36D1CEDB27F
:10240000082DE2D370BD0000B00500202DE9F84F83
:1024100083461E460F468A46580700D0012000EB2F
:10242000D600710810FB01F0203AC0B202F0FF099B
:102430000025009039E00C2E0FD0102E11D0182E50
:1024400036D11C4909EBC90001EB80004FF00008B0
:10245000445D200609D50A9A0AE009EB49001649AD
:10246000F2E7164901EB0910F0E70A9890B1002253
:1024700039465846FFF7B8FE60067F1C040EFFB2CF
:10248000A7EB0A00B04207D10BF10100574600F05C
:10249000FF0B08E00122EBE708F1010000F0FF0864
:1024A000B8F1080FD5D36D1CEDB200988542C2D3A8
:1024B000BDE8F88FBE5300085A490008CE4D000809
:1024C0002DE9FF4F81B00027DDF838B01D46924658
:1024D00080463C464FF001094FEA5B0627E0281B87
:1024E000401EC1B20A20FFF765FFBAFBF0F00A21D7
:1024F000B0FBF1F201FB120027B9691E8C4201DA30
:1025000048B101273030C2B206FB0480C0B25B463E
:10251000CDF8009006E006FB0480C0B25B462022A6
:10252000CDF800900299FFF771FF641CE4B2AC4251
:10253000D5D305B0BDE8F08F2DE9F8431F46154609
:102540000E4604464FF00109C3F180080FE03B46F8
:1025500031462046CDF80090FFF758FF04EB5700B6
:10256000C4B2A04502DA0024B61CF6B26D1C2A786B
:10257000A2F120005E28EAD9BDE8F88370B50C46C8
:102580000546FFF7ABFC782000F066FEFFF7DAFCAB
:102590000CB1402000E0002000F05EFEFFF7D2FC0E
:1025A000284600F059FEFFF7CDFCBDE87040FFF76C
:1025B000B1BC7047F8B51C4E05460024B06DC00094
:1025C00002D5FEF7EBFC0DE0B06D40F08050B06539
:1025D000B06D00F080500090FEF7E0FCB16D21F08E
:1025E0008051B165B0F5007F04D0802D07D94FF040
:1025F00003040AE0802D08D9A02D01D804E001D100
:10260000022402E0702D00D101240848016821F065
:10261000070121430160006800F00700A04201D0DB
:102620000120F8BD0020F8BD00100240002002404B
:10263000F8B515460E460B460092044600224FF4AC
:10264000C05100F019F888B9334600228021204695
:10265000009500F060F848B9334600224FF4C0619D
:102660002046009500F008F8002804D0206E40F0C5
:10267000200020660320F8BD2DE9F8431D461646CC
:102680000F4604464FF4C069DDF820803CE04F451A
:1026900005D126B9007B8DF800009DF80000681C6C
:1026A00032D02DB1FEF76AFBA0EB0800A8422BD375
:1026B0002068416821F0E00141606068B0F5827FE8
:1026C0000BD1A068B0F5004F02D0B0F5806F04D1F7
:1026D0002068016821F040010160A06AB0F5005F48
:1026E00009D12068016821F4005101602068016867
:1026F00041F400510160012084F85D00002084F85D
:102700005C000320BDE8F883206881683940B1424D
:10271000BDD10020F6E72DE9F0411D4617460E46D3
:102720000446DDF8188034E0681C32D02DB1FEF785
:1027300025FBA0EB0800A8422BD32068416821F0BC
:10274000E00141606068B0F5827F0BD1A068B0F510
:10275000004F02D0B0F5806F04D12068016821F0ED
:1027600040010160A06AB0F5005F09D120680168EE
:1027700021F4005101602068016841F400510160BA
:10278000012084F85D00002084F85C000320BDE88F
:10279000F0812068806836EA000004D00020B8424A
:1027A000C2D10020F3E70120F9E7704710B520B14E
:1027B000002000F06FF9012003E0012000F06AF929
:1027C0000020BDE8104000F089B900000421014854
:1027D000FEF7CABA000400480B4800B5C16C87B0C8
:1027E00041F00201C164C06C694600F0020005902E
:1027F00004200090002001900290012003900348E3
:10280000FEF7CCF907B000BD0010024000040048FC
:1028100002210148FEF7A8BA000400480D4800B59F
:10282000C16C87B041F00201C164C06C0A4900F07C
:10283000020005900220CDE9000102900390694654
:102840000648FEF7ABF9002201210720FEF71AFB2C
:1028500007B000BD00100240000011100004004845
:102860000720FEF7F9BA0720FEF701BB0E4800B5B6
:10287000C16C87B041F00401C164C06C694600F0CE
:10288000040005901020009008480190022002905A
:1028900003900748FEF782F9002201210A20FEF783
:1028A000F1FA07B000BD0000001002400000111056
:1028B0000008004810B5FFF7B1FFFFF7D7FFFFF79B
:1028C0008BFF012000F010F8002000F0E3F8BDE8D5
:1028D0001040002000F002B902464FF400414FF0D2
:1028E0009040FEF746BA000030B50F49044687B065
:1028F000C86C40F00100C864C86C012100F0010000
:1029000005908020CDE900010220CDE902104FF0B2
:10291000904569462846FEF741F92246802128461F
:10292000FEF727FA07B030BD0010024001B582B0B3
:102930004FF47A700090012301AA02A90248FEF721
:1029400066FF9DF804000EBDD800002010B50A20D7
:10295000FDF7A5FF0020FFF7C7FF1420FDF79FFF3D
:102960000120FFF7C1FFBDE810400A20FDF797BF27
:1029700070B505460A4800F081F94FF6FF7000F087
:1029800067F90848074C007A0E3410B9204600F069
:1029900096F921462846BDE8704000F08BB900004A
:1029A000C800002010000020F0B585B04FF40040B2
:1029B0000125CDE9000500200224CDE90204694685
:1029C0004FF09040FEF7EAF860028DE831000626ED
:1029D0000C4FCDE9034669463846FEF7DFF8A00202
:1029E0000090694604963846FEF7D8F8E0028DE874
:1029F0003100CDE9034669463846FEF7CFF805B009
:102A0000F0BD00000008004838B51F48C16C41F017
:102A10000101C164C16C01F001010091C16C41F080
:102A20000401C164C16C01F004010091816D41F4A5
:102A300000418165806D00F400400090FFF7B4FF15
:102A4000134C12484FF4E06120604FF482706060D4
:102A50000020C4E902014FF400712061C4E90501BE
:102A60001021C4E9071007216062C4E90A0120634C
:102A700060632046FEF774FE00B1FEE7206801683F
:102A800041F04001016038BD00100240003C0040B0
:102A9000D800002030B50F49044687B0C86C40F01C
:102AA0000400C864C86C012100F0040005902020D7
:102AB000CDE900010220CDE90210074D6946284604
:102AC000FEF76CF8224620212846FEF752F907B09F
:102AD00030BD0000001002400008004830B50E492B
:102AE000044687B0C86C40F00200C864C86C01217D
:102AF00000F00200009105900220CDE90210074D80
:102B0000019169462846FEF749F8224601212846E8
:102B1000FEF72FF907B030BD001002400004004856
:102B200010B5002000F06CFA012000F0F5F900204B
:102B3000FFF73CFE4FF6FF7000F08AF800231A46BC
:102B400040F2022140F2422000F057F9002000F04C
:102B500069FA002000F06CF90021084600F042F903
:102B6000BDE81040014800F036BA0000FFFF2F001A
:102B700010B50446002000F043FA012000F0CCF923
:102B80000120FFF713FE4FF6FF7000F061F80023FD
:102B900040F201201A46014600F02FF900F07EF9BC
:102BA0000021084600F01EF90348044A817B2046B4
:102BB000BDE8104000F00AB910000020FFFF2F0010
:102BC000174908B5884204D9E1208DF80000E920B2
:102BD0001EE01449884204D9D7208DF80000D8207F
:102BE00016E01149884204D9C1208DF80000C520A3
:102BF0000EE00E49884204D975208DF8000081202E
:102C000006E00B49884205D96B208DF800006F2043
:102C10008DF8010002226946982000F094FA08BD60
:102C200000E9A43580F8A9328044E52D000B6B1B28
:102C300040FC5419054810B5007808B1062801D1A8
:102C400000F051FABDE8104000F045BA0400002041
:102C500008B5010A8DF800108DF8010002226946BE
:102C6000104600F070FA08BD08B50222694612202D
:102C700000F05EF8BDF8000040BA08BD38B5044663
:102C800003226946142000F053F89DF800004042EA
:102C9000401020819DF80100802801D2800802E0C8
:102CA000A0F58070801060819DF8020040424010C5
:102CB000A08138BD0A780146002000F016B838B56A
:102CC000044602226946132000F032F840F20470F4
:102CD00000F04EF8C00904D040F2027000F048F84D
:102CE00001E09DF80000207038BD70B515460E4615
:102CF0000446FFF79FFF0020FFF7EEFD1E20FFF7C1
:102D000015FE2046FFF712FE0020FFF70FFE0024FD
:102D100005E00020FFF70AFE3055641CA4B2AC4267
:102D2000F7D30120FFF7D8FDBDE8704000F0D3B91C
:102D300070B515460E460446FFF77CFF0020FFF7EE
:102D4000CBFD2046FFF7F2FD0020FFF7EFFD00244A
:102D500005E00020FFF7EAFD3055641CA4B2AC4248
:102D6000F7D30120FFF7B8FDBDE8704000F0B3B91C
:102D700008B50122694600F003F89DF8000008BD7F
:102D800070B515460E460446FFF754FF0020FFF7C6
:102D9000A3FD1D20FFF7CAFD200AFFF7C7FDE0B223
:102DA000FFF7C4FD0020FFF7C1FD002405E000206F
:102DB000FFF7BCFD3055641CA4B2AC42F7D3012030
:102DC000FFF78AFDBDE8704000F085B910B51446E4
:102DD0000A460146002000F097F92046BDE8104061
:102DE00000F027B908B502228DF800008DF8011017
:102DF00069468F2000F0A7F908BD1CB5040A8DF8BC
:102E000000408DF80100080A8DF80200100A8DF8C4
:102E100004008DF80520180A8DF806008DF80310BF
:102E200008228DF807306946104600F08CF91CBD69
:102E300001B501226946A02000F085F908BD000017
:102E40007CB50021144A0091019150798DF8000061
:102E500013798DF8013092798DF802200E4A0424FE
:102E60000C3A9268B2F1834F00DD01218DF8031016
:102E70000B2801D00C2809D140F689052846FFF718
:102E800077FF00F0FB01284600F07EF922466946F4
:102E90008B2000F058F97CBD100000201CB50020EC
:102EA000009001900C48062281890B0A8DF80030B1
:102EB0008DF80110017A8DF80210817B8DF80310D6
:102EC000417A8DF80410807A8DF8050069468C20CF
:102ED00000F039F91CBD00001000002008B58DF885
:102EE00000008DF801108DF802208DF803300422C7
:102EF0006946952000F027F908BD01B59DF800004E
:102F000020B9002140F2AC6000F03EF90122694690
:102F10008A2000F018F908BD01B501226946962003
:102F200000F011F908BD000010B5204C20492DED2E
:102F3000028B82B0206808441E49884204D30120D5
:102F400002B0BDEC028B10BD002000F059F82068E3
:102F5000FFF736FE9FED181B9FED190B00F0D8FC14
:102F600053EC102B9FED180B51EC100BFDF766F98D
:102F700041EC180B2068FDF7D0F953EC182BFDF746
:102F80005DF9FDF7D7F9010E8DF80010010C8DF8F1
:102F90000110010A8DF802108DF803000422694621
:102FA000862000F0D0F80020CAE7000010000020C2
:102FB00080E58FE781FB651E0000000000003940BE
:102FC00000000000000000400000000080847E41FE
:102FD000052100F042B838B504464FF6FF70FFF700
:102FE00037FE200C8DF80000200A8DF801008DF8C6
:102FF000024003226946822000F0A5F838BD000097
:1030000001B501226946802000F09DF89DF800106E
:10301000034811B10221017008BD0121FBE7000046
:103020000400002001B5012269469F2000F08BF8C2
:1030300008BD38B504464FF6FF70FFF709FE200CB7
:103040008DF80000200A8DF801008DF8024003225F
:103050006946832000F077F838BD38B50D4614284E
:1030600001DD142004E06FF00201884200DA084616
:1030700011282AD0122822D013280AD0142802D0CE
:10308000401D44B222E0162401230022072104201F
:1030900004E016240123002207211AE0FFF71EFF97
:1030A000382140F6E70000F06FF88DF800408DF809
:1030B0000150022269468E2000F045F838BD0123F8
:1030C000002205210320FFF709FF16240123002217
:1030D00003210220E2E710B5FFF77EFBFFF776FB46
:1030E0000128FBD010BD10B50020FFF7F5FBC02074
:1030F000FFF71CFC0020FFF719FC0120FFF7ECFB99
:10310000BDE81040FFF7E7BF70B515460E46044610
:10311000FFF790FD0020FFF7DFFB0E20FFF706FC16
:103120002046FFF703FC002404E0305DFFF7FEFBC0
:10313000641CA4B2AC42F8D30120FFF7CDFBBDE87C
:103140007040FFF7C8BF2DE9F04115460E4607460F
:10315000FFF770FD0020FFF7BFFB3846FFF7E6FBE7
:10316000002404E0305DFFF7E1FB641CA4B2AC4234
:10317000F8D30120FFF7B0FB842F03D0BDE8F04166
:10318000FFF7A9BFBDE8F08113B5012201A900F046
:1031900001F81CBD70B515460E460446FFF74AFD02
:1031A0000020FFF799FB0D20FFF7C0FB200AFFF777
:1031B000BDFBE0B2FFF7BAFB002404E0305DFFF78F
:1031C000B5FB641CA4B2AC42F8D30120FFF784FB2A
:1031D000BDE87040FFF77FBF10B5FEF729FFE8B1EB
:1031E000FFF712FCFFF766FBFFF7B0FBFFF77BFF73
:1031F0000120FFF782FE0020FFF702FF0120FFF70A
:103200007CFE40F2027409212046FFF7BDFF2046F4
:10321000FFF7AEFD092803D0022010BD012010BD2C
:103220000120FFF779FE962140F6AC00FFF7ACFFD6
:10323000084C2068FFF778FE94F90700FFF7C8FEF6
:1032400000210846FFF7CEFDFFF7FAFDFFF726FE47
:10325000002010BD100000202DE9F041134E05465E
:1032600000244FF400784FF480770022394630462E
:10327000FDF77FFD280601D5012200E0002241462E
:103280003046FDF776FD012239463046FDF771FDE7
:10329000002239463046FDF76CFD6806641C050EB9
:1032A000E4B2082CE1D3BDE8F0810000000400483E
:1032B00010B5FDF769FDBDE81040FEF7E0BB00B5B5
:1032C00097B00220C10103911021009004910A904F
:1032D0000121CDE90B0108210D910721CDE90E1047
:1032E00010906846FEF706F808B1FDF7D7FA0F20F0
:1032F0001190032012900020139014901590032138
:1033000011A8FDF785FE08B1FDF7C8FA4FF400706B
:10331000FDF7EAFD08B1FDF7C1FAFDF737FF4FF4FD
:103320007A71B0FBF1F0FEF796FB0420FEF786FB06
:1033300000221146501EFDF7A5FD17B000BD00008C
:103340000D48016841F4700101600C48016841F0CA
:1033500001010160002181600268094B1A4002608E
:103360008214C260026822F48022026081610249F4
:10337000C00380390860704788ED00E0001002400B
:10338000FFFFF6EA0148FEF78EBC00005000002067
:103390000148FEF788BC00008C0000202DE9F047B2
:1033A0000268244C244D254E254F264B4FF0804A71
:1033B000A04209D0504507D0A84205D0B04203D062
:1033C000B84201D0984204D122F0700C4A6842EA17
:1033D0000C02DFF874C0DFF87480DFF87490A0424C
:1033E0000FD050450DD0A8420BD0B04209D0B84202
:1033F00007D0984205D0604503D0404501D04845EC
:1034000003D122F44075CA682A4302608A68C26206
:103410000A688262A04207D0984205D0604503D076
:10342000404501D0484501D109690163012141614D
:10343000BDE8F087002C0140000400400008004077
:10344000000C0040003401400040014000440140B5
:103450000048014010B5846842EA032224F47F4406
:103460000A432243826010BD826822F070020A4340
:1034700042F007018160704710B5046A036A23F0C7
:1034800001030362836923F0F00343EA021324F08B
:103490000A020A438361026210BD10B5036A23F079
:1034A000100303628469036A24F4704444EA02321C
:1034B00023F0A00343EA01118261016210BD90F87C
:1034C0002410C90706D001684A68836A22F40032D2
:1034D0001A434A6090F82410890706D501684A68A3
:1034E000C36A22F480321A434A6090F824104907D4
:1034F00006D501684A68036B22F480221A434A60A9
:1035000090F82410090706D501684A68436B22F435
:1035100000421A434A6090F82410C90606D5016893
:103520008A68836B22F480521A438A6090F82410D0
:10353000890606D501688A68C36B22F400521A43D3
:103540008A6090F82410490611D501684A68036C16
:1035500022F480121A434A60016CB1F5801F06D133
:1035600001684A68436C22F4C0021A434A6090F82A
:103570002410090606D501684A68806C22F40022EE
:1035800002434A607047F8B500250446C566FDF75A
:10359000F5FB0746206800686FF07E46000708D5F7
:1035A0003B4600224FF400112046009600F064F9DB
:1035B00060B92068006840070AD53B4600224FF4F6
:1035C00080012046009600F057F908B10320F8BDAD
:1035D000202084F8690084F86A0084F8685000208C
:1035E000F8BD00002DE9F041044600682769A16894
:1035F000D4F81CC0394367691025002247EA0C073C
:103600003943914B07681646DFF840C207EA0C07BA
:103610000F43076020684168E76821F4405139434F
:1036200041602168A069994201D0276A38438F68B8
:1036300027F4306707438F60854F21688548B9427A
:103640000DD1D0F8880010F0030006D001285AD020
:10365000022856D0032859D157E0012556E07E4F65
:10366000B9420BD1D0F8880010F00C0047D00428E4
:1036700049D0082845D00C2848D146E0774FB942B8
:103680000BD1D0F8880010F0300038D010283AD094
:10369000202836D0302839D137E0714FB9420BD1CC
:1036A000D0F8880010F0C00029D040282BD0802806
:1036B00027D0C0282AD128E06A4FB9420ED1D0F8CD
:1036C000880010F440701AD0B0F5807F1BD0B0F5A0
:1036D000007F16D0B0F5407F18D116E0994215D181
:1036E000D0F8880010F4406009D0B0F5806F0AD09F
:1036F000B0F5006F05D0B0F5406F07D105E00025AB
:1037000004E0022502E0042500E00825564F4FF4AE
:103710000040994244D135B1022D07D0042D07D085
:10372000082D10D107E0FDF737FD03E0384602E031
:10373000FDF762FD98B3626802EB4201814202D854
:10374000B0EB023F01D901267BE000276DB1022DCD
:103750000ED0042D13D0082D1AD00126434AA0F50F
:1037600040719142EFD821686AE0FDF715FD08E04D
:1037700050083F490FE00023FCF722FDEEE7FDF77C
:103780003BFD6268010E0302500818187941F2E708
:1037900050084FF40001401847F10001EBE750E0FA
:1037A000E369834226D1092D1DD2DFE805F0050823
:1037B000121C151C1C1C1800FDF7EEFC01E0FDF7A7
:1037C00003FD4100606801EB5001B1FBF0F082B2F3
:1037D0000AE028496068F6E7FDF70EFDF1E74FF4CF
:1037E00080316068EFE7012622F00F00C2F342014A
:1037F0000843B8E7092DA6D2DFE805F006090C0555
:10380000120505051C009EE7FDF7C6FC0AE0FDF762
:10381000DBFC07E0606807EB5002B2FBF0F00EE063
:10382000FDF7EAFC0146606801EB5001B1FBF0F0E6
:1038300080B298E7626800EB5200B0FBF2F080B211
:10384000C8603046BDE8F08100800040F369FFEFBA
:103850000038014000100240004400400048004091
:10386000004C0040005000400024F400FFFC0F001A
:10387000000024F40048E8012DE9F0411E461746F7
:1038800088460446069D1CE0681C1AD025B1FDF749
:1038900075FA801BA84214D92068016821F4D07100
:1038A00001602068816821F001018160202084F896
:1038B000690084F86A00002084F868000320BDE8ED
:1038C000F0812068C16938EA010004D00020B842C4
:1038D000DAD00020F3E70120F9E7FEE703B401980E
:1038E0004100009850EAC12018BF04204A0D18BFBB
:1038F00040F0010040F2FF72B2EB515F08BF40F0B0
:103900000200012808BF052002B070470000000037
:103910002DE9F04D2DED040B2DED0C8B96B0DDE96E
:103920002350259CDDF888A025F0004624F00048AF
:10393000BAF1000F14BF0121002101EB4502FE493D
:1039400053184A1093422AD3002814BF012300239E
:1039500003EB44030B44F9498B4220D358EA00019E
:103960009FEDF78B6FD0DFF8E0B35D4503D1BAF17F
:10397000000F05D187E0BAF1000F08BF002100D089
:10398000012101EB450111F5001F08D8002814BFE3
:103990000121002101EB440111F5001F0BD99DED20
:1039A000241B9DED220B16B0BDEC0C8B04B0BDE8C2
:1039B000F04D00F05DBE0027002DBCBFE3498845F7
:1039C00021DAE3498845A8BF02271CDAC3451ADC7F
:1039D000E04901EB2851142908DDC1F1340220FA35
:1039E00002F101FA02F282420DD108E058B9C1F1A8
:1039F000140228FA02F101FA02F2424503D101F061
:103A00000101C1F1020756EA0A011DD1002C1BDA9F
:103A1000002D18BF022F01D0012F0AD0022000F084
:103A200073FE16B0BDEC0C8B04B0BDE8F04D00F099
:103A300007BE022000F068FE00F002FE51EC100B01
:103A400081F0004183E01EE09FEDC39B9FEDC4AB7E
:103A5000002872D1BD4880452DD105F1804010F578
:103A6000801008BFBAF1000F0DD0B34515DC002C53
:103A7000A1BF9DED240B16B0BDEC0C8B04B0A8BF0C
:103A8000BDE8F08D12E0B0EE480AF0EE680A16B01C
:103A9000BDEC0C8B04B0BDE8F08D002C06DA9DED7A
:103AA000240B51EC100B81F0004150E0AE487844FB
:103AB00090ED000BEBE7D8454FD1002C4ADA2EB140
:103AC00086423BD1BAF1000F44D126E0BAF1000F93
:103AD00013D0022000F018FE00F0E6FD8DED020B81
:103AE0009DED220B8DED000B10EE900A039961F312
:103AF0001E0003909DED020BC9E78DED029B9DED2D
:103B0000220B19EE901A10EE900A8DED000B61F366
:103B10001E0003909DED020BB9E78DED02AB9DED0C
:103B2000220B1AEE901A10EE900A8DED000B61F345
:103B30001E0003909DED020BA9E729E00ADA9DED36
:103B4000220B51EC180B53EC102BFCF777FB41ECDC
:103B5000100B9CE79DED220B99E7864218DAB4F131
:103B6000804F0DD0A4F10050B0F1FF5010D1002DC6
:103B70000EDB9DED220B51EC100B00F0B7FEE6E7DB
:103B80009DED220B53EC102B51EC100B00F0AEBC52
:103B90009DED220B51EC100B00F0BCFDBAF1000FB3
:103BA000CDE90C0134D19FED720BDEB1A6F1E040FE
:103BB000B0F17F602CD1002D01DD002C0DDA002D3D
:103BC00001DD002C1FDB002D16DA002C14DB012F89
:103BD00008BF9FED690B3FF45AAFB0EE490AF0EE13
:103BE000690A54E7022F18BF002D0CD0012F0AD10B
:103BF000002DFFF64CAF06E0002DB8BF002C07DA11
:103C0000012F3FF444AFB0EE4A0AF0EE6A0A3EE7F5
:103C1000012000EBE57A5AEA07000CD0584800254D
:103C200080457CDD57495848884514DDB0420DDB9E
:103C3000002C19DB2BE0012000F066FD16B0BDEC76
:103C40000C8B04B0BDE8F04D00F01EBDB34502DCA6
:103C5000002C09DC1BE0864202DA002C17DA03E0B4
:103C60005E4527DD002C12DD022000F04DFD00F046
:103C70001BFD10EE901A19EE900A8DED020B8DEDE2
:103C8000009B61F31E0003909DED020BFFE60220F6
:103C900000F03AFD00F018FD10EE901A18EE900AB0
:103CA0008DED020B8DED008B61F31E0003909DEDF9
:103CB000020BECE69DED220B53EC182B51EC100B94
:103CC000FCF76EFC9FED320BCDE90A0153EC102B93
:103CD0009DED0A0B51EC100BFCF768FC9FED2E1BC1
:103CE00053EC112BFCF75FFC9DED0A1B53EC112BE1
:103CF000FCF75CFC9FED2A1B53EC112BFCF753FCEB
:103D00009DED0A0B41EC190B53EC102B51EC100BF1
:103D1000FCF74CFC53EC192BFCF748FC00E07EE070
:103D20009FED210B41EC1A0B53EC102B9DED0A0B70
:103D300051EC100B3CE00000FFFF1F00FFFF0F00E5
:103D4000000000000000F03F0000F03F0000F07FA6
:103D50000000404301FCFFFF000000000000F07F76
:103D600000000000000000003E27000000000000EE
:103D70000000000000000080000000000000F0FFD4
:103D80000000E0410000F043FFFFEF3F00000000B3
:103D9000000000000000D03F555555555555D53F02
:103DA000000000000000E03F000000604715F73F02
:103DB000FCF7FCFB41EC190B9FEDFD0B51EC1A0BD2
:103DC00053EC102BFCF7F2FB41EC1A0B9FEDFA0BB6
:103DD00053EC102B9DED0A0B51EC100BFCF7E6FB9E
:103DE00053EC1A2BFCF7DCFB41EC1A0B51EC190BD2
:103DF00053EC1A2BFCF733FB0690CDE906519DEDF1
:103E0000060B53EC192B51EC100BFCF7C9FB53ECD0
:103E10001A2BFCF7C8FB41EC100B00F09FB90020F7
:103E2000B6F5801F0EDA9FEDE60B53EC102B9DEDDF
:103E30000C0B51EC100BFCF7B9FBCDE90C016FF04A
:103E400034000E4600EB2650A0F2FF38C6F31300F4
:103E5000DD4940F07F6646F040568842D8BF0024D6
:103E600009DDDA498142C8BF012404DC0024A6F53B
:103E7000801608F10108D648784400EBC4000D967E
:103E800090ED00BB9DED0C0B53EC1B2B51EC100B7C
:103E9000FCF786FB9DED0C0B41EC1A0B53EC1B2B36
:103EA00051EC100BFCF7DBFA41EC100B51EC180B4A
:103EB00053EC102BFCF7C2F941EC1C0B51EC1A0B24
:103EC00053EC1C2BFCF772FB41EC190BC1488DED38
:103ED000109B7844109590ED000B4FF0005040EA95
:103EE000660000EB84408DED0A0B00F500200B907E
:103EF0009DED0A0B53EC1B2B51EC100BFCF750FB08
:103F00009DED0C1B53EC112BFCF74DFB41EC100B02
:103F100053EC102B9DED100B51EC100BFCF746FBF6
:103F20009DED0A0B41EC1B0B53EC102B9DED100B80
:103F300051EC100BFCF73AFB53EC1A2BFCF733FB5C
:103F400053EC1B2BFCF72CFB53EC1C2BFCF72EFB30
:103F500041EC1B0B53EC192B51EC190BFCF726FB16
:103F600041EC1A0B9C480621B0EE4A0AF0EE6A0AB0
:103F7000784400F0E9FAB0EE40CAF0EE60CA53ECC3
:103F80001A2B51EC1A0BFCF711FB53EC1C2BFCF712
:103F90000DFB9DED100B41EC1A0B53EC192B51EC62
:103FA000100BFCF75CFA53EC1B2BFCF7FFFA53ECFD
:103FB0001A2BFCF754FA9DED100B41EC1A0B53EC45
:103FC000102B51EC100BFCF7F1FA41EC1C0B9FEDA0
:103FD00084DB53EC1D2BFCF742FA53EC1A2BFCF755
:103FE0003EFA0A90CDE90A519DED0A0B53EC1D2BC8
:103FF00051EC100BFCF7D4FA53EC1C2BFCF7D0FA65
:1040000053EC1A2BFCF7CFFA9DED0A0B41EC1C0B7D
:1040100053EC102B9DED100B51EC100BFCF7C6FA76
:1040200041EC1A0B53EC192B51EC1C0BFCF7BEFAAC
:104030009DED0A0B41EC190B53EC102B51EC1B0BB3
:10404000FCF7B4FA53EC192BFCF709FA41EC190B05
:1040500051EC1A0B53EC192BFCF701FA1090CDE937
:1040600010519DED100B53EC1A2B51EC100BFCF77B
:1040700097FA53EC192BFCF796FA41EC190B9FEDCC
:104080005A0B53EC102B9DED100B51EC100BFCF761
:104090008DFA41EC1A0B9FED560B51EC190B53ECBA
:1040A000102BFCF783FA41EC190B9FED530B53ECEB
:1040B000102B9DED100B51EC100BFCF777FA53EC25
:1040C000192BFCF7CCF941EC100B4D48784400EB70
:1040D000C40090ED001B51EC100B53EC112BFCF7BE
:1040E000BEF941EC190B4046FCF7E9FACDE90A01AB
:1040F00053EC192B51EC1A0BFCF7B1F941EC100BF6
:104100004048784400EBC40090ED00BB51EC100B2C
:1041100053EC1B2BFCF7A3F99DED0A1B53EC112B61
:10412000FCF79DF90690CDE906519DED0A0B53EC85
:10413000102B9DED060B51EC100BFCF731FA53ECF4
:104140001B2BFCF72DFA53EC1A2BFCF729FA53EC36
:10415000192BFCF728FA41EC100B00BF781EB0EECB
:1041600048AAF0EE68AA5AEA000008BF9FED268B25
:104170009DED241B53EC102B8DED001B00959DED48
:10418000240B51EC100BFCF711FA9DED000B41ECE8
:10419000190B53EC102B9DED240B51EC100BFCF77D
:1041A000FFF99DED061B53EC112BFCF7FFF92FE0F7
:1041B000FE822B654715F73F44DF5DF80BAE543E9A
:1041C00000000000000040438E9803007AB60B0008
:1041D000EC2200001A23000024220000000000004E
:1041E0000000000000000840000000E009C7EE3FAA
:1041F000FD033ADC09C7EE3FF5015B14E02F3EBE3C
:10420000B820000072200000000000000000F0BF95
:1042100053EC192BFCF723F99DED060B41EC190B20
:1042200053EC102B9DED000B51EC100BFCF7BEF97D
:10423000CDE910019DED100B51EC190B53EC102B37
:10424000FCF70DF9CDE902010C46AB498C422FDB9E
:10425000611A084318D19DED100B53EC102B9DED06
:10426000020B51EC100BFCF79BF941EC1B0B9FED83
:10427000A40B51EC190B53EC102BFCF7F0F853EC9A
:104280001B2BFCF72DFA2DD2022000F03DFA00F096
:104290000BFA10EE901A18EE900A8DED020B8DEDD0
:1042A000008B61F31E0003909DED020BFFF7EFBB47
:1042B000954A24F00041914214D394492144084383
:1042C0007FF4E5AC9DED100B53EC102B9DED020B34
:1042D00051EC100BFCF764F953EC192BFCF700FAC6
:1042E0007FF6D5AC24F0004089498A4A002601EBCC
:1042F000205182422BDA481C4FF4801121FA00F041
:104300002044854AC0F30A517A44A1F2FF3192ED6C
:10431000000B824A8DED0A0BCA4020EA0202C0F36C
:10432000130040F48010C1F1140120FA01F60B9241
:10433000002CB8BF76429DED0A0B53EC102B9DED7F
:10434000100B51EC100BFCF72BF9CDE910019DED92
:10435000100B51EC190B53EC102BFCF780F89FED70
:10436000700B0A90CDE90A5153EC102B9DED0A0B0E
:1043700051EC100BFCF71AF941EC1B0B9FED6A0B8B
:1043800053EC102B9DED0A0B51EC100BFCF70EF9C2
:104390009DED100B41EC1C0B53EC102B9DED0A0B0B
:1043A00051EC100BFCF7FCF853EC192BFCF7FBF865
:1043B0009FED5F1B53EC112BFCF7F8F853EC1C2B13
:1043C000FCF74DF841EC190B51EC1B0B53EC192B7E
:1043D000FCF745F8CDE902019DED020B53EC1B2BD8
:1043E00051EC100BFCF7DCF853EC192BFCF7DBF865
:1043F0009DED020B41EC190B53EC102B51EC100B03
:10440000FCF7D4F8CDE90A014B489DED0A0B0521D4
:10441000784400F099F89DED0A1B51EC100B53EC19
:10442000112BFCF7C3F89DED021B53EC112BFCF78D
:10443000BAF8CDE906019DED020B53EC192B51ECB6
:10444000100BFCF7B3F853EC192BFCF708F89FEDB1
:104450003C0B41EC190B53EC102B9DED060B51EC72
:10446000100BFCF79DF89DED060B41EC1B0B53EC7C
:10447000102B9DED020B51EC100BFCF797F853EC51
:104480001B2BFBF7DBFE53EC192BFCF789F89DED9A
:10449000021B53EC112BFCF783F853EC1A2BFCF79F
:1044A00082F8CDE9020101EB065001150029C8BFD1
:1044B000039015DC9DED020B324651EC100BFCF71E
:1044C000E7F8FFF70BFA042808BF00F0FDF83246C2
:1044D0009DED020B51EC100BFCF7DAF8CDE902016F
:1044E0009DED020B51EC180B53EC102BFCF75EF812
:1044F000FFF72DBB0000000000009040000000000E
:10450000FE822B654715973C00CC904000346F3FEE
:1045100001FCFFFF0000E03FE41E0000FFFF0F0072
:1045200000000000432EE63F396CA80C615C20BE01
:10453000EF39FAFE422EE63FB41D000000000000F5
:10454000000000000000004070B504462DED028B15
:104550004D1E00EBC500B0EE408AF0EE608A90ED93
:10456000000B35F0060017D053EC182B51EC100B54
:10457000FCF71CF841EC100B6D1E04EBC50090ED30
:10458000001B51EC100B53EC112BFBF768FF41ECB7
:10459000100B35F00600E7D1022D36D0042D1CD0CB
:1045A000062D1CBFBDEC028B70BD53EC182B51ECDB
:1045B000100BFBF7FBFF94ED0A1B53EC112BFBF7E1
:1045C0004EFF53EC182BFBF7F1FF94ED081B53EC57
:1045D000112BFBF744FF41EC100B53EC182B51EC63
:1045E000100BFBF7E3FF94ED061B53EC112BFBF7CD
:1045F00036FF53EC182BFBF7D9FF94ED040B53EC6B
:10460000102BFBF72CFF41EC100B53EC182B51EC4B
:10461000100BFBF7CBFF94ED021B53EC112BFBF7B8
:104620001EFF53EC182BFBF7C1FF94ED001B53EC5E
:10463000112BFBF714FFBDEC028B41EC100B70BD8E
:104640009FED070B10B553EC102B9FED070B51ECB2
:10465000100BFBF7F3FD41EC100B10BD0000000048
:104660000000000000000000000000000000F03F1B
:1046700010B553EC112B51EC100BFBF7F0FE41EC95
:10468000100B10BD000000009FED050B10B553ECA2
:10469000102B51EC100BFBF7D1FD41EC100B10BDB2
:1046A00000000000000000009FED050B10B553EC6A
:1046B000102B51EC100BFBF779FF41EC100B10BDE8
:1046C00000000000000000709FED050B10B553ECDA
:1046D000102B51EC100BFBF769FF41EC100B10BDD8
:1046E000000000000000001002E008C8121F08C10E
:1046F000002AFAD170477047002001E001C1121F63
:10470000002AFBD170470000014908607047000093
:104710004C00002082B0CDE9000121F00040019062
:104720009DED000B02B051EC100B704708B5FCF783
:1047300033FBFEF7C4FDFDF759FCFDF715FCFCF754
:104740005DF8FDF76FFDFDF711FD5448544C4FF037
:104750000908006820600420207184F80580012188
:10476000A1711620E071002020726172A0720A27E8
:10477000A781A773FEF730FD50B1FDF71FFD0021A3
:10478000182348A20846FDF7D7FEFDF71BFEF4E705
:104790006079424D0C26143D401F082816D2DFE8F0
:1047A00000F00406090B0D101214052000E006208D
:1047B00068710BE00720FBE70820F9E785F8058022
:1047C00004E06F7102E00B20F2E76E7100210C2310
:1047D00036A20846FDF7B0FE0096092300213020DE
:1047E0002268FDF76DFE0C2335A219460020FDF767
:1047F000A3FE009602236A790C211220FDF760FEC9
:104800000C2330A219462A20FDF796FE2E4800966A
:10481000032390ED000A0C213C20BCEEC00A10EEF0
:10482000102AFDF74DFE0C2328A21A210020FDF7C7
:1048300083FE0C2327A21A213C20FDF77DFE1023C6
:1048400026A22C210020FDF777FE102324A22C2184
:104850004820FDF771FE1024009403232A892C219F
:104860005020FDF72DFE00940623EA882C21182005
:10487000FDF726FEFDF7A6FD01218803FCF7A6FB48
:104880000022A1011848FCF774FAFBF7DEFFFEF7DF
:1048900047F9FCF793FBFDF795FDFAE73800002098
:1048A000100000204552526F520000004C4F524100
:1048B0002D52583A202020202020202020487A0005
:1048C00053463A0042573A0008000020534E523AED
:1048D00000000000525353493A00000052583A0079
:1048E0002820202029000000000C004800B52DEDF4
:1048F000048B83B041EC190BFBF72EFF41EC180B36
:1049000018EE100A18EE901A8DED008B002818BFD3
:104910000120084320F00040C0F17F6000F1E0403A
:10492000C00F14D019EE101A19EE900A8DED009BED
:10493000002918BF0121084320F00040C0F17F602A
:1049400000F1E040C00F04BF0120FFF7DDFE51EC95
:10495000180B03B0BDEC048B00BD0000000000008C
:10496000000000000000000000003F4000000000C8
:10497000000000003000400030004000000009004E
:104980000BC03D000BC03D00090018C024407FE073
:10499000224031800000180024C01B000D803240EE
:1049A000018003801C4027401C800740004010000D
:1049B0006000000000000000000000000000000097
:1049C0001F80204040200000402020401F80000029
:1049D0000000090006001F80060009000000040016
:1049E00004003F800400040000000010006000008C
:1049F00000000000000004000400040004000400A3
:104A00000000000000400000000000000000002046
:104A100001C006003800400000001F8020402040F8
:104A200020401F800000000010403FC000400000F8
:104A3000000018C02140224024401840000010808F
:104A40002040244024401B80000002000D00110083
:104A50003FC0014000003C8024402440244023808B
:104A600000001F80244024403440038000003000B8
:104A7000200027C03800200000001B802440244074
:104A800024401B8000001C0022C0224022401F80C6
:104A900000000000000008400000000000000000CE
:104AA00000000460000000000000000004000A0094
:104AB0001100208040400900090009000900090098
:104AC000000000004040208011000A00040018008F
:104AD000200023402400180000001F8020402740B1
:104AE00029401F400000004007C039000F0001C0EE
:104AF000004020403FC0244024401B8000001F8015
:104B00002040204020403080000020403FC0204016
:104B100020401F80000020403FC024402E4030C075
:104B2000000020403FC024402E00300000000F0055
:104B30001080204022403380020020403FC004000B
:104B400004003FC02040204020403FC02040204083
:104B500000000060202020203FC0200020002040D6
:104B60003FC024400B0030C0204020403FC02040C8
:104B70000040004000C03FC03C0003C03C003FC0BC
:104B8000000020403FC00C4023003FC020001F8099
:104B90002040204020401F80000020403FC0244093
:104BA0002400180000001F802140214020E01FA0A9
:104BB000000020403FC02440260019C0004018C01B
:104BC00024402440224031800000300020403FC07B
:104BD00020403000000020003F80004000403F8027
:104BE000200020003E0001C00700380020003800EF
:104BF00007C03C0007C038000000204039C0060054
:104C000039C0204000002000384007C03840200054
:104C10000000304021C02640384020C00000000085
:104C200000007FE0402040200000000070000C00E9
:104C30000380004000000000402040207FE0000092
:104C400000000000200040002000000000000010D4
:104C500000100010001000100010000000004000C4
:104C6000000000000000000002800540054003C075
:104C7000004020003FC004400440038000000000CA
:104C8000038004400440064000000000038004400C
:104C900024403FC000400000038005400540034021
:104CA0000000000004401FC02440244020000000F9
:104CB00002E0055005500650042020403FC004404B
:104CC000040003C000400000044027C00040000072
:104CD000000000100010041027E000000000204039
:104CE0003FC00140070004C00440204020403FC0B6
:104CF00000400040000007C0040007C0040003C0DB
:104D00000000044007C00440040003C0004000004D
:104D100003800440044003800000041007F00450A6
:104D2000044003800000000003800440045007F0AA
:104D30000010044007C0024004000400000000000E
:104D400006400540054004C00000000004001F802C
:104D5000044000400000040007800040044007C0F9
:104D600000400400070004C00180060004000600A3
:104D700001C0070001C006000000044006C0010099
:104D800006C0044000000410071004E00180060083
:104D900004000000044005C006400440000000007C
:104DA000000004007BE04020000000000000000044
:104DB000FFF000000000000040207BE00400000045
:104DC0000000400080004000200020004000000063
:104DD00000000000000000000000000000000000D3
:104DE000000000001FCC000C0000000000000000CC
:104DF0000800300060000800300060000000022061
:104E000003FC1E20022003FC1E20022000000000E4
:104E10000E1811043FFF10840C78000000000F00F2
:104E200010840F3800C007781884007800000078DC
:104E30000F8410C411240E9800E4008400080800B8
:104E4000680070000000000000000000000000008A
:104E50000000000007E018182004400200000000D5
:104E600040022004181807E0000000000000024083
:104E7000024001800FF001800240024000000080EB
:104E8000008000800FF8008000800080000000019A
:104E9000000D000E000000000000000000000000F7
:104EA0000080008000800080008000800080000082
:104EB000000C000C000000000000000000000000DA
:104EC00000060018006001800600180020000000A5
:104ED00007F0080810041004080807F0000000009C
:104EE000080408041FFC0004000400000000000087
:104EF0000E0C10141024104411840E0C000000003D
:104F00000C1810041104110412880C700000000029
:104F100000E00320042408241FFC002400000000FB
:104F20001F981084110411041088107000000000F4
:104F300007F00888110411041888007000000000B0
:104F40001C00100010FC13001C00100000000000EA
:104F50000E3811441084108411440E3800000000F3
:104F60000700088C10441044088807F00000000077
:104F700000000000030C030C000000000000000013
:104F80000000000101060000000000000000000019
:104F900000800140022004100808100400000220D4
:104FA0000220022002200220022002200000000035
:104FB00010040808041002200140008000000000D6
:104FC0000E001200100C106C10800F00000003E0A7
:104FD0000C1813E4142417C4082807D00000000498
:104FE000003C03C41C40074000E4001C0004100403
:104FF0001FFC1104110411040E880070000003E06E
:105000000C1810041004100410081C1000001004E8
:105010001FFC100410041004080807F0000010041E
:105020001FFC1104110417C4100408180000100418
:105030001FFC1104110017C010000800000003E05D
:105040000C181004100410441C78004000001004D8
:105050001FFC10840080008010841FFC10040000DE
:10506000100410041FFC10041004000000000003D2
:105070000001100110011FFE1000100000001004BC
:105080001FFC110403801464181C10040000100499
:105090001FFC1004000400040004000C00001004B5
:1050A0001FFC1F0000FC1F001FFC10040000100468
:1050B0001FFC0C04030000E010181FFC100007F098
:1050C0000808100410041004080807F00000100479
:1050D0001FFC10841080108010800F00000007F06B
:1050E000081810241024101C080A07F200001004ED
:1050F0001FFC1104110011C011300E0C000400003F
:105100000E1C11041084108410441C380000180078
:10511000100010041FFC1004100018000000100004
:105120001FF810040004000410041FF81000100001
:105130001E0011E0001C007013801C0010001FC036
:10514000103C00E01F0000E0103C1FC000001004F5
:10515000180C163401C001C01634180C10041000CD
:105160001C00130400FC13041C00100000000804C1
:10517000101C1064108413041C041018000000009C
:10518000000000007FFE40024002400200000000DC
:1051900030000C0003800060001C000300000000D1
:1051A0004002400240027FFE0000000000000000BC
:1051B00000002000400040004000200000000001EE
:1051C00000010001000100010001000100010000D8
:1051D000400040002000000000000000000000002F
:1051E0000098012401440144014400FC0004100023
:1051F0001FFC00880104010400880070000000000A
:10520000007000880104010401040088000000000F
:10521000007000880104010411081FFC0004000054
:1052200000F8014401440144014400C800000000AA
:10523000010401040FFC1104110411001800000006
:1052400000D601290129012901C901060000100425
:105250001FFC008401000100010400FC00040000A8
:105260000104190419FC00040004000000000000FF
:10527000000300010101190119FE000000001004E3
:105280001FFC0024004001B4010C010400000000D8
:10529000100410041FFC00040004000000000104BE
:1052A00001FC0104010001FC0104010000FC0104F7
:1052B00001FC008401000100010400FC0004000066
:1052C00000F8010401040104010400F800000101D8
:1052D00001FF008501040104008800700000000047
:1052E0000070008801040104010501FF00010104B0
:1052F000010401FC008401040100018000000000A1
:1053000000CC0124012401240124019800000000A4
:105310000100010007F80104010400000000010081
:1053200001F8000400040004010801FC000401006D
:1053300001800170000C001001600180010001F08B
:10534000010C003001C00030010C01F00100000030
:105350000104018C00740170018C01040000010142
:1053600001810171000E0018016001800100000040
:105370000184010C013401440184010C000000008F
:1053800000000000000001003EFC4002400200005E
:10539000000000000000FFFF00000000000000000F
:1053A000400240023EFC010000000000000000003E
:1053B00060008000800040004000200020000000CD
:1053C00000000000000000000000000000000000DD
:1053D00000000000000000000000000000000000CD
:1053E00000000000000000000000000000000000BD
:1053F000000F80380FFE380F8038000000000000DA
:105400000000000000000000000000000100000695
:1054100000000C00003800003100000600000C0005
:105420000038000030000000000000000000618033
:105430000067F807F98000618000618000618000EA
:1054400061800067F807F9800061800000000000BB
:105450000000000001C0E003E0F006300804180876
:105460001FFFFE040E080787F00381E00000000024
:10547000000001F000060C00040408060C7001F99D
:10548000C0000E00003BE000EC18070808040C18F0
:105490000003E00000000001E00007F003F818043A
:1054A0001C0804170807E1D003C0E00023B0003C4B
:1054B00008002008000010000000000000010000AB
:1054C0003100003200001C0000000000000000005D
:1054D00000000000000000000000000000000000CC
:1054E00000000000000000000000000000007F003D
:1054F00001FFC00780F00C0018100004200002001B
:1055000000000000002000021000040C00180780BA
:10551000F001FFC0007F000000000000000000005C
:1055200000000000000000000000420000660000D3
:105530006600003C0000180003FFC0001800003C9B
:105540000000660000660000420000000000080045
:1055500000080000080000080000080001FFC0006B
:105560000800000800000800000800000800000013
:105570000000000100003100003200001C000000AB
:10558000000000000000000000000000000000001B
:1055900000000000000008000008000008000008EB
:1055A00000000800000800000800000800000800D3
:1055B00000080000000000000000000000003800AB
:1055C000003800003800000000000000000000006B
:1055D00000000000000000000000000000000006C5
:1055E00000001C000070000180000E000038000068
:1055F000C0000700001C0000300000000000000098
:1056000000007F8001FFE00380700600180400089E
:1056100004000806001803807001FFE0007F80008E
:105620000000000000000000010008010008010067
:105630000803FFF807FFF800000800000800000852
:1056400000000000000000000001C03802C0580443
:105650000098040118040218040418061C1803F822
:105660001801E0F800000000000000000001C0E0A8
:1056700003C0F0040008040808040808061808031A
:10568000F41801E7F00001E0000000000000000055
:1056900000000300000D00001100006100008108FF
:1056A00003010807FFF80FFFF800010800010800D8
:1056B00000000000000000E007FCD006080806100B
:1056C00008061008061008061838060FF00607C06E
:1056D000000000000000000000003F8001FFE00328
:1056E0008430020818041008041008041008071871
:1056F00010030FF00007C0000000000000000000D1
:1057000003C0000700000600000600F80607F806C0
:10571000180006E00007000006000000000000007E
:105720000001E1E003F7F00634100418080418083B
:10573000040C08040C0806161803F3F001C1E0007D
:10574000000000000000F80003FC300306380402EB
:10575000080402080402080404100308F001FFC052
:10576000007F0000000000000000000000000000BA
:105770000000000000007038007038007038000031
:105780000000000000000000000000000000000019
:1057900000000000000000000000301A00301C0073
:1057A00000000000000000000000000000000000F9
:1057B000000000000008000014000022000041006A
:1057C0000080800100400200200400100800080052
:1057D0000000000000002100002100002100002145
:1057E0000000210000210000210000210000210014
:1057F0000021000000000000000000000800080474
:1058000000100200200100400080800041000022C2
:105810000000140000080000000000000003C000A9
:1058200004C000040000080038080F3808083808D1
:1058300010000C300007E00003C000000000000072
:1058400000003F8000FFE0038070020F10067088A8
:1058500004C088048308047F8802C09003012000EC
:10586000FE400000080000180001F8003E0801C2D8
:105870000007020007E20000FE00001FC80001F858
:1058800000003800000804000807FFF807FFF804CC
:10589000080804080804080804080806180803F49F
:1058A0001801E7F00001E0000000000000003F8068
:1058B00001FFE003807002001804000804000804DF
:1058C00000080400100600200780C000000004004B
:1058D0000807FFF807FFF8040008040008040008A0
:1058E00004001802001003807001FFE0007F8000B8
:1058F000000004000807FFF807FFF8040808040880
:1059000008040808040808043E08040008060018F3
:1059100001006000000004000807FFF807FFF8041A
:105920000808040800040800040800043E000600FB
:1059300000060000018000000000000000003F8021
:1059400001FFE00380700600180400080402080448
:1059500002080203F00783F00002000002000400C6
:105960000807FFF807FFF80408080008000008000F
:1059700000080000080004080807FFF807FFF80403
:1059800000080000000000000400080400080400F3
:105990000807FFF807FFF8040008040008040008DF
:1059A00000000000000000000000000600000700EA
:1059B000000104000104000104000307FFFE07FFCB
:1059C000FC04000004000004000004000807FFF8C5
:1059D00007FFF8040C08001800003E0004C780050B
:1059E00003C80600F804003804001800000804008A
:1059F0000807FFF807FFF804000800000800000887
:105A00000000080000080000080000180000600006
:105A1000000004000807FFF807800807FC00007F6B
:105A2000C00003F80007C000780007800807FFF8EF
:105A300007FFF804000804000807FFF80700080340
:105A4000C00000E000003800001E00000700000158
:105A5000C00400F007FFF8040000000000007F8091
:105A600001FFE00380700600180400080400080627
:105A7000001803003001FFE0007F800000000400F8
:105A80000807FFF807FFF8040408040400040400F2
:105A9000040400040400060C0003F80001F00000F8
:105AA0000000000000007F8001FFE003807006001E
:105AB000880400880400C806003C03003E01FFE69D
:105AC000007F8400000004000807FFF807FFF804C7
:105AD0000808040800040C00040F00040BC00610A2
