:020000040800F2
:10000000D80900209D010008352A00089B26000819
:10001000312A000829080008F34500080000000004
:10002000000000000000000000000000393500085A
:100030004908000800000000432F0008AD430008F5
:10004000B7010008B7010008B7010008B7010008B0
:10005000B7010008B70100084B0800086108000854
:10006000B70100087708000879080008B701000800
:10007000B7010008B7010008B7010008B701000880
:10008000B7010008B7010008B7010008B701000870
:10009000B7010008B7010008B70100088F08000881
:1000A000B7010008B7010008B7010008B701000850
:1000B000B701000891440008A1440008B7010008F6
:1000C000B7010008B7010008B7010008B701000830
:1000D000B7010008B7010008B7010008B701000820
:1000E00055080008B7010008B7010008B70100086B
:1000F000B7010008B7010008B7010008B701000800
:10010000B7010008B7010008B7010008B7010008EF
:10011000B7010008B7010008B7010008B7010008DF
:10012000B7010008B7010008B7010008B7010008CF
:10013000B7010008B7010008B7010008B7010008BF
:10014000B7010008B7010008B7010008B7010008AF
:10015000B7010008B7010008B7010008B70100089F
:10016000B7010008B7010008B7010008B70100088F
:10017000B7010008B7010008B7010008000000003F
:10018000B7010008B7010008DFF80CD000F0C0FA92
:10019000004800478D540008D809002006488047D1
:1001A00006480047FEE7FEE7FEE7FEE7FEE7FEE75C
:1001B000FEE7FEE7FEE7FEE741440008890100088C
:1001C00030B504460020034600E05B1C934203D296
:1001D000E05CCD5C401BF8D030BD2DE9FE4F804681
:1001E00081EA0300C00F0C46009021F0004123F08B
:1001F0000045B8EB0200A94105D240462146904691
:100200001C460B46024623F00040104347D0270D02
:10021000C7F30A00C3F30A510290401A0190402824
:100220006BDAC3F3130040F4801B0098924620B1B0
:100230000023D2EB030A63EB0B0B01985946C0F184
:100240004002504600F038F906460D4650465946E1
:10025000019A00F050F910EB08006141002487EA90
:10026000115284EAE7731A4340D0009A62B3019AAC
:10027000012A4FEA075215DC001B61EB02014FF027
:10028000004202EA0752CDE90042001C41F580110C
:1002900032462B4600F050F903B000F045B8404616
:1002A0002146F9E7001B61EB0201001C41F58013B8
:1002B00000185B412018A2F5001747EB030140EA44
:1002C000D570B6196D4111E06D084FEA360645EA62
:1002D000C0754FEA0752001B61EB0201001C41F59B
:1002E000801149084FEA30000019514132462B462F
:1002F00003B000F01CB800F010B9009801224000D3
:100300000023D0EB020263EBE073009821464FEA32
:10031000E074B8EB000061EB0401E9E783F000430F
:100320005BE781F0004158E730BCBDE8C08F30BCCE
:10033000BDE8C04FFFF7DFBF2DE9F04D81EA0304B0
:1003400004F0004B21F0004514464FF0000A23F062
:10035000004150EA050220D054EA01021DD0C5F345
:100360000A570246C5F31303C1F31300C1F30A563B
:1003700040F4801543F48013A7EB0608101BD64603
:1003800008F2FD3873EB050002D308F1010801E023
:1003900092185B41B8F1000F03DA00200146BDE876
:1003A000F08D00204FF48011064684460EE0171BA6
:1003B00073EB050705D3121B63EB050306434CEAF9
:1003C000010C49084FEA300092185B4150EA0107DE
:1003D000EDD152EA030012D082EA040083EA05015B
:1003E000084305D0101BAB4106D20122002306E0D2
:1003F00000224FF0004302E06FF0010253101AEBAD
:1004000006004CEB085110EB0A0041EB0B01BDE874
:10041000F04D00F082B80EB540F233410291002158
:10042000CDE900110A460B4600F086F803B000BD86
:10043000C1F30A5210B5C1F3130140F2FF3341F486
:1004400080119A4201DA002010BD40F233439A42F3
:10045000A2F2334203DC524200F03DF810BD90405E
:1004600010BD00F0004230F000400AD0C10D01F58F
:100470006071C0F3160042EA0151C20840071143FF
:10048000704700200146704730B5041E71F100042A
:1004900004DB4FF00044404264EB0101141E73F191
:1004A000000405DB1C464FF00043524263EB04039B
:1004B000994208BF904230BD202A04DB203A00FA5E
:1004C00002F1002070479140C2F1200320FA03F3AB
:1004D000194390407047202A04DB203A21FA02F0A9
:1004E0000021704721FA02F3D040C2F1200291406E
:1004F000084319467047202A06DBCB17203A41FAF9
:1005000002F043EAE07306E041FA02F3D040C2F1A0
:100510002002914008431946704710B5141E73F12C
:10052000000408DA401C41F1000192185B411A43B3
:1005300001D120F0010010BD2DE9F04D92469B46FF
:1005400011B1B1FA81F202E0B0FA80F220329046A5
:10055000FFF7B2FF04460F4640EA0A0041EA0B01EA
:1005600053465A46084313D0114653EA010019D0A6
:10057000C8F140025046FFF7AEFF05460E46504612
:1005800059464246FFF798FF084305D0012004E092
:1005900020463946BDE8F08D0020054346EAE07666
:1005A0002C4337430A986305E40AA0EB08000022B5
:1005B000FD0A44EA47540A3002D500200146E9E723
:1005C000010510196941DDE9084500196941BDE8D7
:1005D000F04DA2E72DE9FE4F81EA030404F0004448
:1005E00021F0004100944FF0000B23F0004350EA4B
:1005F00001045ED052EA03045BD0C3F30A54C1F392
:100600000A552C44A4F2F3340194A0FB0254C1F324
:10061000130141F48011C3F3130343F4801301FB6E
:10062000024400FB034E840A970A44EA815447EAD5
:100630008357A4FB076802958D0A05FB07854FEADF
:10064000932C04FB0C542705029D4FEA065847EAF9
:100650001637B5EB08056EEB070C870E920E47EACE
:10066000811742EA8312A7FB0201B6EB0B0164EB90
:1006700000042B0D43EA0C335E1844EB1C50DA46A1
:100680005146E7FB0201C5F313044FEA0B3343EA7B
:1006900014534FEA0432019C43EA0603A4F10C040C
:1006A0000294009CCDE900B4FFF746FF03B000F0D0
:1006B00003B800200146F9E730BCBDE8C08F70B533
:1006C00021F0004303430CD0C1F30A550024D5EBBD
:1006D000040564EB0403D617AD1AB34102DB002016
:1006E000014670BD201841EB025170BD0EB5C10F1F
:1006F00080EAE0700844CA07002140F233438DE8E5
:100700000E000A460B46FFF717FF03B000BD0000BE
:10071000064C074D06E0E06840F0010394E807004E
:1007200098471034AC42F6D3FFF732FD1072000840
:10073000307200082DE9F04D00231A461B1A8A4139
:1007400003DB00200146BDE8F08DC1F30A52C1F37E
:10075000130141F480154FF0000BD10702D10018AE
:100760006D41521E0027044640F2FF11384601EB4E
:10077000620A3E468046024600204FF48011FFF791
:10078000AAFEC2197141BB1846EB0100B4EB030C81
:1007900075EB000C04D3E41A65EB000517460E4612
:1007A000241908F101006D4180463428E3DDF91970
:1007B00046EB0600091BA84103D24FF0FF32134657
:1007C00001E0002213461BEB070046EB0A51BDE88F
:1007D000F04DFFF7A2BE000000B587B000BF104883
:1007E000C06C40F008000E49C8640846C06C00F0B8
:1007F0000800019000BF00BF08150290012003907F
:1008000000200490059002A9064800F0A9F90022F2
:100810004FF48061034800F0AFFA07B000BD00005C
:1008200000100240000C004800BFFEE710B502F0C7
:100830001DFF10BD10B502F01EFF10BD10B502F077
:10084000E3FE0446204610BD704710B5012000F0BD
:1008500079F910BD10B54FF4004000F073F910BDE8
:1008600010B5072000F004FB022000F06BF9072010
:1008700000F00CFB10BD704710B50A2000F0F8FA2C
:10088000102000F05FF90A2000F000FB10BD10B549
:100890004FF4407000F056F910BD70B5044600F0FA
:1008A00071FA06462546681C00B16D1C00BF00F0B9
:1008B00069FA801BA842FAD370BD000038B505461E
:1008C0004FF40041924800F04FFA002870D13220D6
:1008D000FFF7E3FF4FF400418D4800F045FA002890
:1008E0007BD18C4801F045FD8B480078401C8A493B
:1008F000087008460078401F08285AD2DFE800F048
:1009000004080C1824303C4805208449487151E003
:100910000620824948714DE0072080494871FF2038
:1009200000230A2216210090012003F037FA41E04B
:1009300008207A494871FF2000230A2216210090DE
:10094000012003F02BFA35E0092074494871FF209B
:1009500000230A2217210090022003F01FFA29E049
:100960000A206E494871FF2000230A2218210090B6
:10097000022003F013FA1DE00B2068494871FF20A4
:1009800000230A2219210090022003F007FA11E047
:100990000C2062494871FF2000230A221A2100908E
:1009A000022003F0FBF941F6583002F011F801E0A3
:1009B00013E000BF00BF0C200223009056480278CD
:1009C0000C21122002F031FA02F080F9524800782E
:1009D0000B2802DD0420504908704FF48071504804
:1009E00000F0C2F968BB3220FFF757FF4FF4807167
:1009F0004B4800F0B9F920BB464801F0BAFCFFF7BC
:100A000015FF48480078401C40B2464908704648E7
:100A100091F9001050F82100404908600C20009026
:100A20000846092300210268302002F0FEF902F096
:100A30004DF93C4890F90000042802DBFF203949B9
:100A400008704FF40071364800F08EF900283ED14E
:100A50003220FFF722FF4FF40071314800F084F993
:100A6000A8BB03F027FC58B109E002F001F81823F5
:100A70002EA20021084602F025FA02F027F9F4E739
:100A800000202C4908802C4908802C4908800C2023
:100A900003230090274802882C210C2002F0C5F97E
:100AA0000C2003230090244802882C21302002F0DF
:100AB000BCF90C2003230090204802882C215420EC
:100AC00002F0B3F902F002F9124801F03FFCFFF71F
:100AD000B5FE01281BD103F06CF804464FF6FF70F9
:100AE00002F0F6FF04F0010018B10220144908706A
:100AF0000CE004F04200022808D10848007A0128DE
:100B000001D102F0F3FF01200D49087000BF38BD8C
:100B10000004004860000020580000200C00002065
:100B2000000C0048590000203800002045526F5248
:100B3000000000004C0000204E000020500000206B
:100B40005700002010B5044604480068204020B13A
:100B5000024804602046FFF7B1FE10BD14040140B6
:100B600078B50346002200240020E5E001269640E7
:100B70000D6805EA0604002C7DD04D68022D02D0D8
:100B80004D68122D13D1D60803F1200555F8260023
:100B90005507EE0E0F25B540A8435607F60E0D6912
:100BA000B5402843D60803F1200545F8260018680B
:100BB00056000325B540A8430D7905F003055600FE
:100BC000B540284318604D68012D08D04D68022DAE
:100BD00005D04D68112D02D04D68122D13D19868A3
:100BE00056000325B540A8435600CD68B5402843BC
:100BF0009860586801259540A8430D79C5F3001504
:100C00009540284358600D7905F00305032D09D15F
:100C1000D86A01259540A8430D79C5F3C0059540D4
:100C20002843D862D86856000325B540A84356002B
:100C30008D68B5402843D8604D6805F08055B5F102
:100C4000805F78D100BF3F4D2D6E45F001053D4ED0
:100C5000356635462D6E05F00105009500BF00BFD5
:100C60004FEAB635960855F8260095072E0F0F2542
:100C7000B540A84300E05EE0B3F1904F01D10025FC
:100C80001EE0314DAB4201D1012519E02F4DAB42A1
:100C900001D1022514E02E4DAB4201D103250FE016
:100CA0002C4DAB4201D104250AE02B4DAB4201D1C2
:100CB000052505E0294DAB4201D1062500E00725B9
:100CC0009607360FB5402843254D960845F826006F
:100CD000244D2868A0434D6805F48035B5F5803F64
:100CE00000D120431F4D28602D1D2868A0434D686A
:100CF00005F40035B5F5003F00D12043194D2D1DF9
:100D000028602D1D2868A0434D6805F48015B5F5B1
:100D1000801F00D12043134D083528602D1D286801
:100D2000A0434D6805F40015B5F5001F00D1204320
:100D30000C4D0C352860521C0D68D540002D7FF4F9
:100D400015AF78BD001002400004004800080048BC
:100D5000000C00480010004800140048001800482B
:100D60000800014000040140024613690B400BB12A
:100D7000012000E0002070470AB1816100E081623B
:100D80007047000001480068704700000000002024
:100D900002480068401C01490860704700000020BC
:100DA00010B5032000F0C0F8002000F005F800F0B6
:100DB00017F8002010BD000070B504460748006811
:100DC0004FF47A71B0FBF1F5284601F010FA0022D9
:100DD0002146501E00F067F8002070BD2000002062
:100DE00008B500BF2148006E40F001001F490866A9
:100DF0000846006E00F00100009000BF00BF00BF79
:100E00000846806D40F0805088650846806D00F08F
:100E10008050009000BF00BF032000F085F8002242
:100E200011466FF00B0000F03EF8002211466FF003
:100E30000A0000F038F8002211466FF0090000F0B7
:100E400032F800221146501F00F02DF80022114602
:100E5000101F00F028F800221146901E00F023F821
:100E600000221146501E00F01EF808BD001002407E
:100E700000BF00F01F0201219140034A430942F8DC
:100E8000231000BF7047000080E100E000BF00F0C9
:100E90001F02012191404209920002F1E022C2F8B2
:100EA000001100BF70472DE9F05F80460D461646E1
:100EB000002701F0C1FD074639462A46334601F0B6
:100EC0000700C0F1070ABAF1040F02D94FF0040A73
:100ED00001E0C0F1070AD14600F1040ABAF1070F98
:100EE00002D24FF0000A01E0A0F1030AD4464FF00D
:100EF000010A0AFA09FAAAF1010A0AEA020A0AFA36
:100F00000CFA4FF0010B0BFA0CFBABF1010B0BEAE7
:100F1000030B4AEA0B042146404601F095FD00F020
:100F200000B830BCBDE8C09F00BF00F00702064B10
:100F300019684FF6FF031940044B0B4343EA0221A3
:100F4000014B196000BF70470CED00E00000FA058E
:100F500002460021B2F5007F29D11D48006800F447
:100F6000C060B0F5007F31D01948006820F4C0603F
:100F700040F40070164B186016480068164BB0FB22
:100F8000F3F0322300FB03F100E0491E31B11048B9
:100F9000406900F48060B0F5806FF6D00C4840697D
:100FA00000F48060B0F5806F10D1032070470848CE
:100FB000006800F4C060B0F5806F07D00448006896
:100FC00020F4C06040F48060014B18600020EDE721
:100FD000007000402000002040420F0002480068DE
:100FE00000F4C06070470000007000402DE9F84335
:100FF0000446002600270025A846208800F400604B
:10100000B0F5006F30D1606E80B1B0F5800F13D0B5
:10101000B0F5000F03D0B0F5400F15D113E0FA483A
:10102000C06840F48030F849C8600FE00021201DFE
:1010300001F088FF054609E0002104F1200002F0DC
:1010400077F8054602E001E0012500BF00BF55B971
:10105000ED488830006820F44000616E0843EA499A
:10106000C1F8880000E0A846208800F48050B0F560
:10107000805F30D1A06E80B1B0F1807F13D0B0F12D
:10108000007F03D0B0F1407F15D113E0DE48C06887
:1010900040F48030DC49C8600FE00021201D01F0E1
:1010A00051FF054609E0002104F1200002F040F85C
:1010B000054602E001E0012500BF00BF55B9D24856
:1010C0008830006820F04070A16E0843CE49C1F816
:1010D000880000E0A846206800F40030B0F5003F2A
:1010E00076D14FF00009C848806D00F0805078B983
:1010F00000BFC548806D40F08050C34988650846F0
:10110000806D00F08050009000BF00BF4FF00109DB
:10111000BE48006840F48070BC490860FFF732FEAA
:10112000074606E0FFF72EFEC01B022801D9032563
:1011300005E0B648006800F480700028F2D000BFD7
:1011400085BBB1489030006800F44076D6B1D4F841
:101150008400B04216D0AC489030006820F440764D
:10116000A948D0F8900040F48030A749C1F8900019
:101170000846D0F8900020F48030C1F8900008466E
:10118000C0F8906006F00100A8B1FFF7FBFD07462C
:1011900009E0FFF7F7FDC01B41F28831884202D910
:1011A000032507E017E098489030006800F002003F
:1011B0000028EED000BF65B993489030006820F455
:1011C0004070D4F8841008438F49C1F8900003E0C0
:1011D0000CE0A84600E0A846B9F1010F05D18A4805
:1011E000806D20F080508849886500BF207800F02D
:1011F000010048B184488830006820F00300A16BEA
:1012000008438149C1F88800207800F002000228D4
:1012100009D17D488830006820F00C00E16B08435C
:101220007949C1F88800207800F00400042809D129
:1012300075488830006820F03000216C08437249FE
:10124000C1F88800207800F00800082809D16E480D
:101250008830006820F0C000616C08436A49C1F81A
:101260008800207800F01000102809D166488830E6
:10127000006820F44070A16C08436349C1F88800FD
:10128000207800F02000202809D15F4888300068CD
:1012900020F44060E16C08435B49C1F88800208875
:1012A00000F40070B0F5007F09D15748883000681D
:1012B00020F44020E16D08435349C1F8880020889C
:1012C00000F48060B0F5806F09D14F488830006825
:1012D00020F44010216E08434B49C1F88800207863
:1012E00000F04000402809D147488830006820F4C9
:1012F0004050216D08434449C1F88800207800F02F
:101300008000802809D140488830006820F440409F
:10131000616D08433C49C1F88800208800F4807062
:10132000B0F5807F09D138488830006820F440301B
:10133000A16D08433449C1F88800208800F40050AA
:10134000B0F5005F1FD130488830006820F0406061
:10135000E16E08432C4988310860E06EB0F1006FFF
:1013600006D12948C06840F480102749C8600AE0C7
:10137000E06EB0F1806F06D10121201D01F0E2FD89
:10138000054605B1A846206800F40020B0F5002FFE
:101390001FD11D488830006820F04060216F08434D
:1013A000194988310860206FB0F1006F06D11648E6
:1013B000C06840F480101449C8600AE0206FB0F1A2
:1013C000806F06D10121201D01F0BCFD054605B14D
:1013D000A846206800F48020B0F5802F23D10A4869
:1013E0008830006820F04060616F0843064988310A
:1013F0000860606FB0F1006F0AD10348C06840F424
:1014000080100149C8600EE00010024000700040EA
:10141000606FB0F1806F06D10121201D01F092FDB7
:10142000054605B1A846208800F48040B0F5804FFD
:101430001FD12248006820F04050A16F08431F4987
:101440000860A06FB0F1805F07D10221201D01F07C
:1014500079FD05466DB1A8460BE0A06FB0F1005FC5
:1014600007D1022104F1200001F062FE054605B11A
:10147000A846208800F40040B0F5004F09D10F487D
:10148000006820F08040E16F08430C498839C1F8BA
:101490008800206800F48030B0F5803F0AD107480A
:1014A000006820F00040D4F88010084303498839D0
:1014B000C1F888004046BDE8F8830000881002406B
:1014C00070B504460D4600267348006800F007001A
:1014D000A8420ED27048006820F0070028436E49E9
:1014E00008600846006800F00700A84201D001200B
:1014F00070BD207800F00200022807D1674880689C
:1015000020F0F000A168084364498860207800F06A
:101510000100002879D06068022806D15F48006881
:1015200000F40030D8B90120E2E76068032806D152
:101530005A48006800F0007088B90120D8E7606858
:1015400030B95648006800F0020040B90120CFE7EA
:101550005248006800F4806008B90120C8E74F488D
:10156000806820F00300616808434C498860FFF7F9
:1015700009FC06466068022810D108E0FFF702FC6B
:10158000801B41F28831884201D90320B0E74348EB
:10159000806800F00C000828F0D136E0606803286D
:1015A00010D108E0FFF7EEFB801B41F28831884242
:1015B00001D903209CE73948806800F00C000C2812
:1015C000F0D122E0606880B908E0FFF7DBFB801B08
:1015D00041F28831884201D9032089E72F48806889
:1015E00000F00C000028F0D10FE008E0FFF7CAFB84
:1015F000801B41F28831884201D9032078E72748CF
:10160000806800F00C000428F0D12348006800F046
:101610000700A8420ED92048006820F007002843A0
:101620001D4908600846006800F00700A84201D084
:1016300001205DE7207800F00400042807D1174856
:10164000806820F4E060E1680843144988602078ED
:1016500000F00800082808D11048806820F4605085
:10166000216940EAC1000D49886000F023F80B4968
:10167000896801F0F001F02292FAA2F2B2FA82F245
:10168000D140074A515CC840064908600020FFF776
:1016900093FB00202CE700000020024000100240D5
:1016A00034710008200000200148006870470000E5
:1016B00020000020F0B50021002300240225022292
:1016C0000020554EB66806F00C065EB1524EB66864
:1016D00006F00C060C2E2DD14F4EF66806F00306D0
:1016E000012E27D14C4E366806F008066EB94A4ED8
:1016F0009436366806F470664FF4706797FAA7F769
:10170000B7FA87F726FA07F10AE0434E366806F083
:10171000F006F02797FAA7F7B7FA87F726FA07F146
:101720003E4E56F821103C4EB66806F00C0686B9BF
:1017300008460EE0384EB66806F00C06042E01D1BD
:10174000374806E0344EB66806F00C06082E00D185
:101750003448314EB66806F00C060C2E5BD12E4E86
:10176000F66806F003042C4EF66806F07006702743
:1017700097FAA7F7B7FA87F7FE40721C012C29D019
:10178000022C02D0032C24D111E0254EB6FBF2F638
:10179000214FFF6807F4FE474FF4FE4C9CFAACFC67
:1017A000BCFA8CFC27FA0CF706FB07F323E01D4E6E
:1017B000B6FBF2F6184FFF6807F4FE474FF4FE4CF5
:1017C0009CFAACFCBCFA8CFC27FA0CF706FB07F37E
:1017D00011E000BFB1FBF2F60F4FFF6807F4FE47C0
:1017E0004FF4FE4C9CFAACFCBCFA8CFC27FA0CF7CC
:1017F00006FB07F300BF00BF074EF66806F0C066A1
:101800004FF0C06797FAA7F7B7FA87F7FE40761C44
:101810007500B3FBF5F0F0BD001002404C710008FC
:101820000024F40000127A00F8B504460025207860
:1018300000F01000102874D1FE48806800F00C0001
:10184000002870D1FB48006800F0020018B1A069C0
:1018500008B90120F8BDF748216A006800F00800C7
:1018600020B1F448006800F0F00005E0F148943041
:10187000006800F47060000981421FD9206A01F0FD
:101880002DFD08B10120E5E700BFEA48006840F0FF
:101890000800E84908600846006820F0F000216A66
:1018A0000843E449086000BF0846406820F47F40D0
:1018B000E16940EA0120DF4948601EE000BFDD48E1
:1018C000006840F00800DB4908600846006820F026
:1018D000F000216A0843D749086000BF0846406805
:1018E00020F47F40E16940EA0120D2494860206A43
:1018F00001F0F4FC08B10120ACE7FFF7DBFECD49B5
:10190000896801F0F001F02292FAA2F2B2FA82F2B2
:10191000D140C94A515CC840C84908600020FFF75F
:101920004BFA4BE0FFE7A06980B3C248006840F083
:101930000100C0490860FFF725FA054606E0FFF7F9
:1019400021FA401B022801D9032083E7B948006827
:1019500000F002000028F2D000BFB648006840F056
:101960000800B44908600846006820F0F000216AC9
:101970000843B049086000BF0846406820F47F4033
:10198000E16940EA0120AB49486017E0FFE7A94858
:10199000006820F00100A7490860FFF7F3F9054649
:1019A00006E0FFF7EFF9401B022801D9032051E7B9
:1019B000A048006800F002000028F2D1207800F072
:1019C0000100002868D09B48806800F00C000828BF
:1019D0000BD09848806800F00C000C280ED1954878
:1019E000C06800F00300032808D19248006800F4A2
:1019F000003088B3606878BB01202BE700BF6068C7
:101A0000B0F5803F06D18B48006840F480308949AA
:101A100008601AE06068B0F5A02F0BD18548006817
:101A200040F48020834908600846006840F4803014
:101A300008600AE07F48006820F480307D49086033
:101A40000846006820F48020086000BF606890B1FC
:101A5000FFF798F9054607E01EE0FFF793F9401BF2
:101A6000642801D90320F5E67248006800F40030CC
:101A70000028F2D010E0FFF785F9054606E0FFF7F1
:101A800081F9401B642801D90320E3E66948006816
:101A900000F400300028F2D1207800F00200022883
:101AA0006AD16448806800F00C0004280BD06148BB
:101AB000806800F00C000C281ED15E48C06800F061
:101AC0000300022818D15B48006800F4806018B158
:101AD000E06808B90120BDE65648406820F0F8509B
:101AE0004FF0F85292FAA2F2B2FA82F221699140D2
:101AF0000843504948603FE0E06830B34D48006813
:101B000040F480704B490860FFF73CF9054606E059
:101B1000FFF738F9401B022801D903209AE645480F
:101B2000006800F480600028F2D04248406820F04D
:101B3000F8504FF0F85292FAA2F2B2FA82F221690A
:101B4000914008433B49486016E03A48006820F459
:101B5000807038490860FFF715F9054606E0FFF781
:101B600011F9401B022801D9032073E631480068AF
:101B700000F480600028F2D1207800F008000828E6
:101B800036D16069D0B12B489430006840F0010034
:101B90002849C1F89400FFF7F5F8054606E0FFF77D
:101BA000F1F8401B022801D9032053E62148943064
:101BB000006800F002000028F1D019E01D489430C0
:101BC000006820F001001B49C1F89400FFF7DAF823
:101BD000054606E0FFF7D6F8401B022801D903208E
:101BE00038E614489430006800F002000028F1D173
:101BF000207800F0040004286FD100260D48806D85
:101C000000F0805070B900BF0A48806D40F08050ED
:101C1000084988650846806D00F08050009000BF3C
:101C200000BF01260648006800F48070F8B9044837
:101C3000006807E000100240347100082000002016
:101C40000070004040F4807087490860FFF79AF800
:101C5000054606E0FFF796F8401B022801D903204D
:101C6000F8E58148006800F480700028F2D000BFD9
:101C7000A068012808D17D48006840F001007B4938
:101C80009039C1F8900021E0A06805280FD177486D
:101C9000006840F0040075499039C1F8900008468A
:101CA000D0F8900040F00100C1F890000EE06F48BD
:101CB000006820F001006D499039C1F89000084695
:101CC000D0F8900020F00400C1F8900000BFA06898
:101CD000A0B1FFF757F8054609E02DE0FFF752F8ED
:101CE000401B41F28831884201D90320B2E55F48A8
:101CF000006800F002000028F0D012E0FFF742F880
:101D0000054608E0FFF73EF8401B41F28831884263
:101D100001D903209EE55548006800F00200002824
:101D2000F0D1012E07D151489038806D20F08050BD
:101D30004E499039886500BFA06AE8B34B48903897
:101D4000806800F00C000C2879D0A06A022853D1DA
:101D500046489038006820F0807044499039086007
:101D6000FFF710F8054606E0FFF70CF8401B0228C5
:101D700001D903206EE53D489038006800F00070FE
:101D80000028F1D1206B401E0101606B41EA002167
:101D9000A06B000941EA4040E16A0843A18F01229B
:101DA000C2EB510140EA41514020005DC2EB5000BE
:101DB00041EA40602D4900E053E09039C860084690
:101DC000006840F0807008600846C06840F080708D
:101DD000C860FEF7D7FF054606E0FEF7D3FF401BBD
:101DE000022801D9032035E520489038006800F02A
:101DF00000700028F1D034E01C489038006820F0D2
:101E000080701A49903908600846006800F0006048
:101E100048B90846006800F0005020B90846C0687C
:101E200020F00300C86011489038C068104908408D
:101E30000E499039C860FEF7A5FF054607E00EE0A1
:101E4000FEF7A0FF401B022801D9032002E5074846
:101E50009038006800F000700028F1D101E0012006
:101E6000F8E40020F6E4000000700040901002400A
:101E7000FFFFEEFE70B504460CB9012070BD606A2C
:101E800000B900BF0021A16294F85D0028B90020CC
:101E900084F85C00204600F04DF8022084F85D00D4
:101EA0002068006820F0400021680860E068B0F514
:101EB000E06F01D9002501E04FF48055E068B0F5EE
:101EC000706F05D0E068B0F5E06F01D00021A1622D
:101ED000206B40B9E068B0F5E06F02D902212163C0
:101EE00001E001212163D4E901010843216908438C
:101EF00061690843218B01F400710843E1690843DB
:101F0000216A0843A16A0843216808600421A06986
:101F100001EA1040616A0843616B0843E1680843C5
:101F200028432168486000202066012084F85D0075
:101F30000020A3E770472DE9FC5F04460D461646D6
:101F40001F46DDF830804FF0000A002001908146E6
:101F50004FF0010B009000BF94F85C00012802D103
:101F6000022000F02CB9012084F85C0000BFFEF7CD
:101F700009FF814694F85DA060680190BAF1010FF5
:101F80000BD00198B0F5827F04D1A06810B9BAF1E6
:101F9000040F02D00220009007E10DB106B117B97D
:101FA0000120009001E194F85D00042802D0052092
:101FB00084F85D00002020662664A4F84670A4F82A
:101FC0004470A563E787A787E0642065E068B0F503
:101FD000E06F03D8B4F84600012806D920684068AD
:101FE00020F480502168486005E02068406840F493
:101FF0008050216848602068006800F04000402858
:1020000005D02068006840F0400021680860E06862
:10201000B0F5E06F47D9606810B1E08F012806D1B4
:1020200028882168C860AD1CE08F401EE08732E040
:10203000BBF1000F10D0E08F70B12068806800F015
:102040000200022808D128882168C860AD1CE08FF2
:10205000401EE0874FF0000BB4F8460078B12068CE
:10206000806800F0010050B12068C0683080B61C64
:10207000B4F84600401EA4F846004FF0010B08F1EA
:10208000010040B1FEF77EFEA0EB0900404502D3FF
:102090000320009089E0E08F0028C9D1B4F8460001
:1020A0000028C5D174E0606810B1E08F012811D11B
:1020B000E08F012807D928882168C860AD1CE08F0F
:1020C000801EE08706E015F8010B21680873E08F99
:1020D000401EE08755E0BBF1000F1BD0E08FC8B178
:1020E0002068806800F00200022813D1E08F0128E8
:1020F00007D928882168C860AD1CE08F801EE08762
:1021000006E015F8010B21680873E08F401EE08798
:102110004FF0000BB4F8460038B32068806800F038
:10212000010010B3B4F84600012813D92068C06834
:102130003080B61CB4F84600801EA4F84600B4F8FF
:10214000460001280FD82068406840F4805021687C
:10215000486008E02068007B06F8010BB4F84600F0
:10216000401EA4F846004FF0010B08F1010040B1F9
:10217000FEF708FEA0EB0900404502D303200090C3
:1021800013E0E08F0028A6D1B4F846000028A2D1C1
:102190004A464146204601F0F1F808B12020206669
:1021A000206E08B10120009000BF012084F85D007E
:1021B00000BF002084F85C0000BF0098D1E63CBC62
:1021C000BDE8C09F042808D14FF0E021096941F023
:1021D00004014FF0E022116107E04FF0E0210969AE
:1021E00021F004014FF0E02211617047704770B593
:1021F00004462546681EB0F1807F01D301200FE020
:10220000681E4FF0E02148610F214FF0FF3000F0D1
:102210001BFC00204FF0E0218861072008610020AE
:1022200070BD10B5FFF7E2FF10BD704770470000AA
:1022300030B502460B4600BF92F83800012801D1A4
:10224000022030BD012082F8380000BF10684168CC
:10225000106884680F4D1068A84203D00E4D1068B6
:10226000A84203D121F470015868014321F07001A4
:102270001868014324F080049868044310684160A2
:102280001068846000BF002082F8380000BF00BFE3
:10229000D7E70000002C01400034014010B504468F
:1022A0000CB9012010BD94F8390028B9002084F839
:1022B0003800204600F00CF8022084F83900211D77
:1022C000206802F0F5F8012084F839000020E9E7E1
:1022D00038B504461A492068884216D100BF19480B
:1022E000806D40F00200174988650846806D00F057
:1022F0000200009000BF00BF002211461D20FEF723
:10230000D2FD1D20FEF7C2FD19E00F49206888426A
:1023100015D100BF0B48806D40F004000949886565
:102320000846806D00F00400009000BF00BF00224E
:1023300011461E20FEF7B7FD1E20FEF7A7FD38BD93
:1023400000040040001002400008004001466FF009
:1023500001000A6810610868C06840F001000A685E
:10236000D0600868006840F001000A681060002032
:10237000704701460868C06820F001000A68D06014
:1023800000BF0868006A41F21112104050B9086895
:10239000006A9210104028B90868006820F0010017
:1023A0000A68106000BF0020704700002DE9F0416E
:1023B00004460D46002600BF94F83800012802D1DB
:1023C0000220BDE8F081012084F8380000BF02201F
:1023D00084F83900206886684148064026F47F4624
:1023E00020688660286850283CD00CDC202861D00A
:1023F00004DC002854D0102866D156E030285ED086
:10240000402861D142E0602836D070280ED0B0F567
:10241000805F03D0B0F5005F56D116E02068806879
:102420002F4970310840216888604EE0D5E90213D9
:102430006A68206802F09CF8206886682848064090
:1024400046F07706206886603FE0D5E902136A68A7
:10245000206802F08DF82068806840F48040216890
:10246000886032E0EA686968206802F097F85021D5
:10247000206802F089F828E0EA686968206802F0BC
:10248000A2F86021206802F07FF81EE0EA6869681F
:10249000206802F083F84021206802F075F814E00B
:1024A0000021206802F070F80FE01021206802F08F
:1024B0006BF80AE02021206802F066F805E0302180
:1024C000206802F061F800E000BF00BF012084F83E
:1024D000390000BF002084F8380000BF00BF70E75B
:1024E00088FFFEFF704710B5044620680069C0F3FE
:1024F0004000D8B12068C068C0F34000B0B16FF0B0
:10250000020021680861012020762068806900F0BF
:10251000030018B12046FFF7E5FF05E0204600F074
:10252000ADF8204600F0ABF8002020762068006966
:10253000C0F38000D8B12068C068C0F38000B0B19B
:102540006FF004002168086102202076206880690D
:1025500000F4407018B12046FFF7C4FF05E02046A4
:1025600000F08CF8204600F08AF8002020762068E1
:102570000069C0F3C000D8B12068C068C0F3C000D3
:10258000B0B16FF00800216808610420207620684F
:10259000C06900F0030018B12046FFF7A3FF05E073
:1025A000204600F06BF8204600F069F80020207605
:1025B00020680069C0F30010D8B12068C068C0F37B
:1025C0000010B0B16FF0100021680861082020767B
:1025D0002068C06900F4407018B12046FFF782FF00
:1025E00005E0204600F04AF8204600F048F80020B8
:1025F00020762068006900F0010058B12068C068AA
:1026000000F0010030B16FF0010021680861204640
:1026100000F036F820680069C0F3C01058B1206897
:10262000C068C0F3C01030B16FF08000216808614D
:102630002046FFF7FAFD20680069C0F3801058B10A
:102640002068C068C0F3801030B16FF0400021688E
:102650000861204600F020F820680069C0F34010AF
:1026600058B12068C068C0F3401030B16FF020004E
:10267000216808612046FFF7D9FD10BD70477047FB
:102680000349884202D10321024A117070470000B9
:102690006000002057000020704700BFFEE70000E8
:1026A00010B5012251020A48FEF766FB0122110211
:1026B0000748FEF761FB00224FF400710448FEF763
:1026C0005BFB00224FF480710148FEF755FB10BD03
:1026D0000004004810B5012211020748FEF74CFB28
:1026E00000224FF400710448FEF746FB012251021C
:1026F0000148FEF741FB10BD0004004810B501225F
:1027000011020548FEF738FB00224FF480710248A1
:10271000FEF732FB10BD00000004004800B587B092
:1027200000BF2148C06C40F002001F49C864084641
:10273000C06C00F00200019000BF00BF00BF08465F
:10274000C06C40F00800C8640846C06C00F0080087
:10275000019000BF00BF4FF4004002901348039067
:102760000120049002A91248FEF7FAF94FF44070D4
:1027700002900E4803900120049002A90D48FEF734
:10278000EFF9002201211720FEF78DFB1720FEF73D
:102790007DFB002201212820FEF785FB2820FEF783
:1027A00075FB07B000BD00000010024000002110C2
:1027B00000040048000C004800B587B000BF104876
:1027C000C06C40F001000E49C8640846C06C00F0BF
:1027D0000100019000BF00BF012270214FF0904026
:1027E000FEF7CAFA70200290112003900020049096
:1027F000059002A94FF09040FEF7B2F907B000BD76
:1028000000100240634800686349884204D361486D
:1028100000686249884201D9002070475D4800790C
:1028200000F00F005B49087108460079032801DCBD
:10283000012000E0002057490979072901DB012127
:1028400000E00021084008B10020E6E75148007987
:102850000B2843D2DFE800F03C302418120C06426B
:10286000362A1E009FED4E0A4E4880ED000A35E0E4
:102870009FED4D0A4B4880ED000A2FE09FED4B0A7B
:10288000484880ED000A29E09FED490A454880ED5F
:10289000000A23E09FED470A424880ED000A1DE050
:1028A0009FED450A3F4880ED000A17E09FED430A7F
:1028B0003C4880ED000A11E09FED410A394880ED67
:1028C000000A0BE09FED3F0A364880ED000A05E064
:1028D0009FED3D0A334880ED000A00BF00BF2D4840
:1028E000407900F00F002B49487108460079042810
:1028F00009D1084640790A2803DA084640790528B4
:1029000001DA002089E723480079052809D1214808
:1029100040790B2803DA1F484079052801DA0020A6
:102920007BE71C480079062809D11A4840790C2811
:1029300003DA18484079052801DA00206DE71548C8
:102940004079401E022101FA00F000EE100AB8EEB4
:10295000C00A1448D0ED000A80EE201A1B4880ED12
:10296000001A0C48807900F007000A49887108466F
:102970008079042803DC08468079012801DA0020E8
:102980004BE7044890F90700162801DD002044E7D2
:10299000012042E70C000020801A701800703839BE
:1029A0000000FA430400002000007A430000FA42CD
:1029B00000007A4214AE26420000FA41D7A3A64195
:1029C0007B147A4152B8264185EBF940080000207B
:1029D00010B588B004461448144908604FF6FF103B
:1029E0004860002111488160601E1049C8600021C4
:1029F0000E480161FFF752FC08B108B010BD4FF45A
:102A00008050049004A90948FFF7D0FC00B1F4E716
:102A100000200190039001A90448FFF709FC00B1D0
:102A2000EBE700BFE9E70000000400406000002081
:102A300000BFFEE77047000002480068C0F30220B4
:102A4000704700000CED00E010B5002807DA0A0717
:102A5000140E054A00F00F031B1FD45403E00A07AD
:102A6000130E024A135410BD18ED00E000E400E01C
:102A700070B500240CE0002506E00020074901EBBA
:102A8000C5010855681CC5B2802DF6DB601CC4B2B8
:102A9000082CF0DB00F01AF970BD00004C0100209A
:102AA000F0B5144600267F2801DC3F2900DDF0BD8B
:102AB0000B46CF1701EB5777FF10C7F10707FAB2A4
:102AC000CF1701EB5777FF10A1EBC707FDB2C5F198
:102AD00007070123BB40DEB24CB10A4B03EBC00336
:102AE0009B5C3343074F07EBC007BB5408E0054B23
:102AF00003EBC0039B5CB343024F07EBC007BB541F
:102B000000BFD4E74C01002000B587B000BF664885
:102B1000C06C40F002006449C8640846C06C00F014
:102B20000200019000BF00BF00BF0846C06C40F02B
:102B30000800C8640846C06C00F00800019000BF9F
:102B400000BF4FF4407002900120039002200590D6
:102B500002A95648FEF704F801224FF44071534889
:102B6000FEF70AF94FF4C0500290012003900220B2
:102B7000059002A94E48FDF7F3FF01224FF4C05122
:102B80004B48FEF7F9F800224FF400614848FEF781
:102B9000F3F8012211034648FEF7EEF87820FDF71E
:102BA0007CFE00224FF480514148FEF7E5F8782082
:102BB000FDF773FE012211033D48FEF7DDF8002109
:102BC000AE2000F0A2F90021022000F09EF90021C1
:102BD000102000F09AF90021402000F096F9002121
:102BE000812000F092F90021FF2000F08EF90021F1
:102BF000A12000F08AF90021C02000F086F9002110
:102C0000A62000F082F90021A82000F07EF9002122
:102C10003F2000F07AF90021D32000F076F900215E
:102C2000084600F072F90021D52000F06EF900216D
:102C3000802000F06AF90021D92000F066F9002117
:102C4000F12000F062F90021DA2000F05EF90021A5
:102C5000122000F05AF90021DB2000F056F9002183
:102C6000402000F052F90021202000F04EF9002110
:102C7000022000F04AF900218D2000F046F90021E1
:102C8000142000F042F90021A42000F03EF90021B8
:102C9000A62000F03AF90021AF2000F036F9FFF746
:102CA000E7FE07B000BD000000100240000400482D
:102CB000000C004810B50246012000E050430B1EF6
:102CC000A1F10104E1B2F9D110BD000070B50024FA
:102CD0001CE004F1B001C8B2002100F016F9002197
:102CE000022000F012F90021102000F00EF900255A
:102CF00008E0084901EBC501085D012100F005F974
:102D0000681CC5B2802DF4DB601CC4B2082CE0DB6B
:102D100070BD00004C0100202DE9F84F80460F46A1
:102D200016461C46BA462046E31704EB5373DB10E5
:102D300021464FEAE47C04EB5C7C4FEAEC0CA4EB0C
:102D4000CC0CBCF1000F02D04FF0010C01E04FF0B1
:102D5000000C6344224604EBD27C4FEA6C0C03FB6C
:102D60000CF303F0FF0BA6F12000C6B200254EE0E5
:102D70000C2C07D106EB4600274901EB8000405D93
:102D8000009013E0102C05D1244800EB0610405DA4
:102D900000900BE0182C07D106EBC600204901EB90
:102DA0008000405D009001E000F03CB84FF0000969
:102DB00027E0009800F0800028B1394640460A9A82
:102DC000FFF76EFE09E00A9808B9012000E0002034
:102DD000024639464046FFF763FE00984006000E63
:102DE0000090781CC7B2A7EB0A00A04205D1574655
:102DF00008F1010000F0FF0806E009F1010000F011
:102E0000FF09B9F1080FD4DB00BF681CC5B25D45EE
:102E1000AEDB00BFC8E7000072590008E65D00089D
:102E2000D663000818BCBDE8E08F2DE9FF4F81B0E4
:102E3000074691461E460E9D4FF0000A002439E0D9
:102E4000301B401EC1B20A20FFF734FFB9FBF0F07F
:102E50000A21B0FBF1F201FB1208BAF1000F16D102
:102E6000701EA04213DDB8F1000F0ED10120AB4659
:102E700005EBDB71491001FB04710090C8B22B46D1
:102E800020220299FFF748FF12E04FF0010A0120CB
:102E9000AB4605EBDB71491001FB04710090C8B231
:102EA00008F13001CAB22B460299FFF735FF00BF87
:102EB000601CC4B2B442C3DB05B000F000B830BC43
:102EC000BDE8C08FF8B506460F4614461D4615E00E
:102ED0000120009022782B4639463046FFF71CFF30
:102EE000284605EBD07106EB6101CEB2C5F180003A
:102EF000B04202DA0026B81CC7B2641C2078202831
:102F000002DB20787E28E3DDF8BD70B505460C466F
:102F1000FFF7C6FB782001F01BFAFFF7EFFB1CB1AF
:102F2000402001F015FA02E0002001F011FAFFF74D
:102F3000E5FB284601F00CFAFFF7E0FBFFF7CAFBC0
:102F400070BD70472DE9F04104460E46002700256C
:102F50007348C06800F00300C0B17148C06800F059
:102F60000300216888420FD1206868B16C48C068AE
:102F700000F07000702191FAA1F1B1FA81F1C8401E
:102F8000401C6168884238D0012536E0206801285D
:102F900004D0022809D003281AD10DE06048006847
:102FA00000F0020000B9012514E05D48006800F45B
:102FB000806000B901250DE05948006800F4003038
:102FC00028B95748006800F4802000B9012501E0C5
:102FD000012500BF00BF85B9D4E90010401E702252
:102FE00092FAA2F2B2FA82F2904008434C49C968C0
:102FF00021F0730108434A49C860002D77D1484841
:10300000006820F0806046490860FDF7BBFE074677
:1030100006E0FDF7B7FEC01B022801D9032505E035
:103020003F48006800F000600028F2D100BF002D8A
:1030300073D1CEB94FF4FE4191FAA1F1B1FA81F109
:10304000A0688840E16809094FF4003292FAA2F2C0
:10305000B2FA82F29140084331490969314A11407C
:1030600008432F49086138E0012E1BD14FF4FE417F
:1030700091FAA1F1B1FA81F1A06888400122216999
:10308000C2EB51014FF4C00292FAA2F2B2FA82F2FC
:103090009140084322490969234A114008432049C5
:1030A00008611AE04FF4FE4191FAA1F1B1FA81F101
:1030B000A068884001226169C2EB51014FF0C062F3
:1030C00092FAA2F2B2FA82F29140084314490969D5
:1030D000164A11400843124908611148006840F03F
:1030E00080600F490860FDF74DFE074607E014E0D9
:1030F000FDF748FEC01B022801D9032505E008485A
:10310000006800F000600028F2D000BF2DB904482C
:103110000069A1690843024908612846BDE8F081B9
:1031200000100240FF80FDFFFF809FFFFF80FFF93E
:103130002DE9F04104460E46002700256448C0688A
:1031400000F00300C0B16248C06800F003002168CD
:1031500088420FD1206868B15D48C06800F07000F7
:10316000702191FAA1F1B1FA81F1C840401C616867
:10317000884238D0012536E02068012804D0022892
:1031800009D003281AD10DE05148006800F0020070
:1031900000B9012514E04E48006800F4806000B9D1
:1031A00001250DE04A48006800F4003028B948487D
:1031B000006800F4802000B9012501E0012500BF6E
:1031C00000BF85B9D4E90010401E702292FAA2F225
:1031D000B2FA82F2904008433D49C96821F0730178
:1031E00008433B49C860002D6FD13948006820F082
:1031F000805037490860FDF7C5FD074606E0FDF73A
:10320000C1FDC01B022801D9032505E03048006834
:1032100000F000500028F2D100BFE5BBCEB94FF45A
:10322000FE4191FAA1F1B1FA81F1A0688840E1680C
:1032300009094FF4003292FAA2F2B2FA82F29140F6
:10324000084323494969234A1140084320494861FA
:103250001AE04FF4FE4191FAA1F1B1FA81F1A068B0
:10326000884001222169C2EB51014FF0C06292FAFD
:10327000A2F2B2FA82F29140084315494969164A0E
:1032800011400843124948611148006840F08050DD
:103290000F49086000E018E0FDF774FD074606E0FE
:1032A000FDF770FDC01B022801D9032505E0084881
:1032B000006800F000500028F2D000BF2DB904488B
:1032C000406961690843024948612846BDE8F081C8
:1032D00000100240FF80FDFFFF80FFF9F8B50446B3
:1032E000002600252348806D00F0805018B1FDF7BE
:1032F00075FE064616E000BF1E48806D40F0805007
:103300001C4988650846806D00F08050009000BF21
:1033100000BFFDF763FE06461648806D20F0805022
:1033200014498865B6F5007F07D1802C10D9A02CF0
:1033300001D902250CE001250AE0802C01D90325E2
:1033400006E0802C01D1022502E0702C00D101257D
:103350000948006820F0070028430749086008462C
:10336000006800F00700A84201D00120F8BD00204D
:10337000FCE700000010024000200240F8B50446BF
:103380000E461546334600224FF4C05120460095A4
:1033900000F026F828B1206E40F0200020660320BF
:1033A000F8BD3346002280212046009500F070F8D9
:1033B00028B1206E40F0200020660320F0E733465D
:1033C00000224FF4C0612046009500F009F828B1B2
:1033D000206E40F0200020660320E1E70020DFE7B8
:1033E0002DE9F84304460E4617461D46DDF82080B9
:1033F00047E0B6F5C06F05D127B92068007B009083
:103400009DF80000681CD8B32DB1FDF7BBFCA0EB04
:103410000800A84235D32068406820F0E000216809
:1034200048606068B0F5827F0DD1A068B0F5004FAC
:1034300003D0A068B0F5806F05D12068006820F047
:10344000400021680860A06AB0F5005F0DD100BFA0
:103450002068006820F40050216808602068006837
:1034600040F400502168086000BF012084F85D002E
:1034700000BF002084F85C0000BF0320BDE8F88393
:10348000FFE7206880683040B842B2D10020F5E7FD
:103490002DE9F04104460E4617461D46DDF818801A
:1034A0003EE0681CD8B32DB1FDF76CFCA0EB080022
:1034B000A84235D32068406820F0E00021684860C9
:1034C0006068B0F5827F0DD1A068B0F5004F03D0E1
:1034D000A068B0F5806F05D12068006820F040003A
:1034E00021680860A06AB0F5005F0DD100BF2068B8
:1034F000006820F40050216808602068006840F4EB
:1035000000502168086000BF012084F85D0000BF02
:10351000002084F85C0000BF0320BDE8F081FFE7D5
:10352000206880683040B04201D1012000E00020D6
:10353000B842B6D10020F0E7704710B5044634B168
:10354000002000F0DDF9012000F002FA05E0012082
:1035500000F0D6F9002000F0FBF910BD70B505466B
:103560000C4600F08FFA002000F0AEFD012000F0C4
:103570002DFD0120FFF7E1FF4FF6FF7000F0A8FAE4
:1035800000231A460121084600F02EFC07488481DA
:1035900000F0AAFC0021084600F0F3FB0348817B01
:1035A0006FF07F42284600F0DFFB70BD0C0000206A
:1035B00010B504210248FDF7D7FB0446204610BD94
:1035C0000004004800B587B000BF0D48C06C40F053
:1035D00002000B49C8640846C06C00F0020001906C
:1035E00000BF00BF0420029000200390049001203F
:1035F000059002A90348FDF7B3FA07B000BD00002B
:10360000001002400004004810B502210248FDF7F6
:10361000ABFB0446204610BD0004004800B587B04F
:1036200000BF0F48C06C40F002000D49C864084656
:10363000C06C00F00200019000BF00BF02200290A9
:103640000848039002200490059002A90648FDF75F
:1036500087FA002201210720FDF725FC07B000BDF5
:1036600000100240000011100004004810B50720AF
:10367000FDF7FEFB10BD10B50720FDF707FC10BDE0
:1036800000B587B000BF0F48C06C40F004000D4982
:10369000C8640846C06C00F00400019000BF00BF81
:1036A000102002900848039002200490059002A97F
:1036B0000648FDF755FA002201210A20FDF7F3FB29
:1036C00007B000BD001002400000111000080048C3
:1036D00010B5FFF7A3FFFFF7D3FFFFF773FF01203C
:1036E00000F012F8002000F00BF9002000F030F993
:1036F00010BD10B5044622464FF400414FF09040F3
:10370000FDF73AFB10BD000010B586B0044600BFBF
:103710001048C06C40F001000E49C8640846C06CF7
:1037200000F00100009000BF00BF80200190012048
:10373000029003900220049001A94FF09040FDF701
:103740000FFA224680214FF09040FDF715FB06B09E
:1037500010BD00000010024001B582B04FF47A7035
:10376000012301AA02A900900248FEF7E4FB9DF89C
:1037700004000EBDE800002010B50A20FDF78DF80A
:103780000020FFF7C1FF1420FDF787F80120FFF7A5
:10379000BBFF0A20FDF781F810BD000010B50446FC
:1037A000094800F019FA4FF6FF7000F091F9074848
:1037B000007A18B905480E3000F038FA03490E3186
:1037C000204600F02AFA10BDD80000200C0000208E
:1037D00000B585B04FF4004000900120019000201A
:1037E00002900220039069464FF09040FDF7B8F92F
:1037F0004FF480600090022001900120029002208E
:1038000003900620049069460E48FDF7A9F94FF48D
:10381000006000900620049069460A48FDF7A0F970
:103820004FF480500090022001900120029002206D
:1038300003900620049069460248FDF791F905B00F
:1038400000BD00000008004808B500BF2948C06C52
:1038500040F001002749C8640846C06C00F0010030
:10386000009000BF00BF00BF0846C06C40F00400DD
:10387000C8640846C06C00F00400009000BF00BFA0
:1038800000BF0846806D40F4004088650846806DA2
:1038900000F40040009000BF00BFFFF799FF1648FA
:1038A000164908604FF48270486000211348816017
:1038B0004FF4E061C1600021016141614FF400718A
:1038C00081610821C1610021016241628162072199
:1038D000C162002101634163FEF7CCFA08B100BF69
:1038E000FEE706480068006840F0400003490968A8
:1038F000086008BD00100240003C0040E8000020C5
:1039000010B586B0044600BF0F48C06C40F00400FC
:103910000D49C8640846C06C00F00400009000BF68
:1039200000BF20200190012002900390022004900B
:1039300001A90648FDF714F9224620210348FDF7A6
:103940001BFA06B010BD000000100240000800483D
:1039500010B586B0044600BF0E48C06C40F00200AF
:103960000C49C8640846C06C00F00200009000BF1B
:1039700000BF01200190029003900220049001A951
:103980000548FDF7EDF8224601210348FDF7F4F95B
:1039900006B010BD001002400004004810B5012020
:1039A00000F092FB00F06EF8012000F00FFB002009
:1039B000FFF7C3FD4FF6FF7000F08AF800231A46A8
:1039C00040F2022140F2422000F00EFA002000F006
:1039D000AFFB002000F02DFA0021084600F0D1F9DD
:1039E000014800F05CFB10BDFFFF2F0001B5012274
:1039F0006946892000F013FC08BD000038B5044674
:103A00001B48844206D9E1208DF80000E9208DF89A
:103A1000010026E01748844206D9D7208DF800001F
:103A2000D8208DF801001CE01348844206D9C1203B
:103A30008DF80000C5208DF8010012E00F48844287
:103A400006D975208DF8000081208DF8010008E06E
:103A50000B48844205D96B208DF800006F208DF84B
:103A6000010002226946982000F0D9FB38BD000011
:103A700000E9A43580F8A9328044E52D000B6B1BCA
:103A800040FC54191CB500F043F80190BDF8040047
:103A900038B100F014F87F2000900098FFF7A6FFDF
:103AA00000BF1CBD10B500F091F818B100F08EF801
:103AB000062801D100F083FB00F078FB10BD08B5AB
:103AC0000020009002226946072000F0A8FB08BDF4
:103AD00038B50446200A8DF80000E0B28DF80100E8
:103AE00002226946104600F09AFB38BD10B500214D
:103AF00040F6021000F0B2FB40F6441000F003F96B
:103B000040F00204214640F6441000F0A7FB10BD2F
:103B10001CB5002001900090022201A9172000F09E
:103B2000D1F89DF8040000F001008DF801009DF827
:103B3000050080099DF8001060F386118DF80010D3
:103B40009DF8050040099DF8001060F345118DF8BF
:103B500000109DF8050000099DF8001060F30411A5
:103B60008DF800109DF80500C0089DF8001060F366
:103B7000C3018DF800109DF8050080089DF8001025
:103B800060F382018DF800109DF8050040089DF853
:103B9000001060F341018DF800109DF805009DF8BC
:103BA000001060F300018DF80010BDF80010084609
:103BB0001CBD08B502226946122000F083F89DF86A
:103BC00001009DF8001040EA012008BD014800787E
:103BD000704700001C00002038B5044603226946E7
:103BE000142000F06FF89DF8000040424010208142
:103BF0009DF80100802804DA9DF8010080106081A2
:103C000005E09DF80100A0F58070801060819DF8AE
:103C1000020040424010A08138BD70B504460D46F8
:103C20002A782146002000F029F870BD38B50446F6
:103C300002226946132000F045F840F2047000F0BB
:103C400062F80121B1EBE01F05D140F2027000F0F3
:103C50005AF8207002E09DF80000207038BD1CB5B5
:103C600000200190012201A9C02000F02BF89DF84E
:103C7000040000909DF8001008461CBD2DE9F0419D
:103C800007460D461646FFF70DFF0020FFF731FDF2
:103C90001E20FFF761FD3846FFF75EFD0020FFF7AD
:103CA0005BFD002405E00020FFF756FD2855601C51
:103CB00084B2B442F7DB0120FFF71BFD00F076FA77
:103CC000BDE8F0812DE9F04107460D461646FFF7A5
:103CD000E9FE0020FFF70DFD3846FFF73DFD00200F
:103CE000FFF73AFD002405E00020FFF735FD2855D9
:103CF000601C84B2B442F7DB0120FFF7FAFC00F04D
:103D000055FABDE8F08138B50446012269462046DF
:103D100000F003F89DF8000038BD2DE9F04104469D
:103D20000E461746FFF7BEFE0020FFF7E2FC1D20FF
:103D3000FFF712FD200AFFF70FFDE0B2FFF70CFDC1
:103D40000020FFF709FD002505E00020FFF704FD36
:103D50007055681C85B2BD42F7DB0120FFF7C9FC36
:103D600000F024FABDE8F08170B504460D46164611
:103D70002A462146002000F032FA304600F0DFF9F2
:103D800070BD38B505460C468DF800508DF80140E1
:103D9000022269468F2000F042FA38BD2DE9FC412D
:103DA00005460E4690461F46089C8DF800508DF83B
:103DB00001608DF802808DF80370200C8DF80400EE
:103DC000200A8DF80500E0B28DF80600052269464C
:103DD000882000F024FABDE8FC8101B50122694683
:103DE0009D2000F01CFA08BD2DE9FC4107460C4659
:103DF00015461E46380A8DF80000F8B28DF801000D
:103E0000200A8DF80200E0B28DF80300280A8DF830
:103E10000400E8B28DF80500300A8DF80600F0B213
:103E20008DF8070008226946104600F0F8F9BDE851
:103E3000FC8101B501226946A02000F0F0F908BD1F
:103E400030B52DED028B83B0002001900290042448
:103E5000214840798DF804001F4800798DF805004D
:103E60001D4880798DF806001C480068FCF7F9FAB7
:103E700041EC180B9FED1A0B53EC102BFCF704FBD5
:103E800003D201208DF8070002E000208DF8070022
:103E90001148007906280BD140F68900FFF733FF5F
:103EA00000F0FB05294640F6890000F0D7F90AE04A
:103EB00040F68900FFF727FF40F00405294640F649
:103EC000890000F0CBF9224601A98B2000F0A7F968
:103ED00003B0BDEC028B30BD0C00002008000020B8
:103EE00000000000000030407CB5002000900190F0
:103EF00024484079052803D022484079062806D175
:103F0000204880890C2802DA0C201E49888106246A
:103F10001C488089000A8DF800001A48007B8DF843
:103F200001001848007A8DF802001648807B8DF851
:103F300003001448407A8DF804001248807A8DF806
:103F40000500224669468C2000F069F90D48807A08
:103F500001280BD140F23670FFF7D5FE20F00405A2
:103F6000294640F2367000F079F90AE040F23670E6
:103F7000FFF7C9FE40F00405294640F2367000F014
:103F80006DF97CBD0C000020F8B504460D461646C0
:103F90001F468DF800408DF801508DF802608DF8B5
:103FA000037004226946952000F039F9F8BD01B587
:103FB0009DF8000020B9002140F2AC6000F04EF9FD
:103FC000012269468A2000F02AF908BD01B50122C4
:103FD0006946962000F023F908BD000030B52DEDAC
:103FE000088B81B005462248854202D82148854287
:103FF00004D2012001B0BDEC088B30BD002428465E
:10400000FFF7FCFC9FED1C1B9FED1D0B00F00CFB54
:10401000B0EE40BAF0EE60BA53EC1B2B9FED1A0BDA
:1040200051EC100BFCF788F941EC190B2846FCF712
:10403000F2F941EC1A0B53EC192BFCF77DF941EC2A
:10404000180BFCF7F5F90446200E8DF80000200C43
:104050008DF80100200A8DF80200E0B28DF803000F
:1040600004226946862000F0DAF80020C2E700004A
:1040700000703839801A70180000000000003940C4
:1040800000000000000000400000000080847E412D
:1040900010B504460521204600F066F810BD38B57D
:1040A00004464FF6FF70FFF713FD200C8DF800005B
:1040B000200A8DF80100E0B28DF802000322694663
:1040C000822000F0ACF838BD11B581B04FF6FF7416
:1040D000012201A9802000F0A2F8FFF7C0FD0090A6
:1040E0009DF8040080B900BFFFF7B9FD0090641E81
:1040F0009DF80000C0F30210022801D0002CF3D17B
:1041000001200A4908700FE000BFFFF7A8FD0090EA
:10411000641E9DF80000C0F30210032801D0002C9B
:10412000F3D10220014908701CBD00001C000020D2
:1041300001B5012269469F2000F071F808BD38B52D
:1041400004464FF6FF70FFF7C3FC200C8DF800000B
:10415000200A8DF80100E0B28DF8020003226946C2
:10416000832000F05CF838BD38B504460D46162CA7
:1041700001DD162404E014F1030F01DA6FF00204EC
:104180000123002207210420FFF7FEFE382140F61C
:10419000E70000F063F8E0B28DF800008DF8015000
:1041A000022269468E2000F03AF838BD10B5FFF7BC
:1041B00009FA00BFFFF7FCF90128FBD010BD10B5CC
:1041C0000020FFF796FAC020FFF7C6FA0020FFF79D
:1041D000C3FA0120FFF78DFAFFF7E8FF10BD2DE9C4
:1041E000F04107460D461646FFF75CFC0020FFF73E
:1041F00080FA0E20FFF7B0FA3846FFF7ADFA002438
:1042000004E0285DFFF7A8FA601C84B2B442F8DB32
:104210000120FFF76EFAFFF7C9FFBDE8F0812DE935
:10422000F04105460E461746FFF73CFC0020FFF71D
:1042300060FA2846FFF790FA002404E0305DFFF7AB
:104240008BFA601C84B2BC42F8DB0120FFF751FA04
:10425000842D01D0FFF7AAFFBDE8F08113B5044615
:10426000012201A9204600F001F81CBD2DE9F04112
:1042700004460E461746FFF715FC0020FFF739FAF3
:104280000D20FFF769FA200AFFF766FAE0B2FFF7A0
:1042900063FA002504E0705DFFF75EFA681C85B2E2
:1042A000BD42F8DB0120FFF724FAFFF77FFFBDE8EE
:1042B000F081000070B5FEF7A5FA08B9012070BDC5
:1042C000FFF7C2FAFFF704FAFFF756FAFFF777FF96
:1042D0000020FFF7F9FE40F6D800FFF714FD40F08C
:1042E0001E05294640F6D800FFF7B8FF0120FFF76A
:1042F0006DFE0120FFF771FD0120FFF758FE00243D
:10430000092140F20270FFF7A9FF40F20270FFF7A7
:10431000FAFC0446092C01D00220D0E7962140F691
:10432000AC00FFF79BFF09490868FFF757FE0749F4
:1043300091F90700FFF7ACFE00210846FFF721FDC9
:10434000FFF77EFDFFF7D0FD0020B8E70C0000204E
:1043500070B50446002523E000224FF48071124816
:10436000FCF70AFD04F0800028B1012251020E483A
:10437000FCF702FD05E000224FF400710A48FCF74B
:10438000FBFC012211020848FCF7F6FC00224FF466
:1043900080710548FCF7F0FC6006040E681CC5B28D
:1043A000082DD9DB70BD00000004004810B5FCF7F3
:1043B000EFFCFDF736FF10BD10B5B8B00220279016
:1043C000C0012A9010202B9002203190022127A8B2
:1043D000C162012101630821416307218163022138
:1043E000C1630164FDF720FA0F202290032023907F
:1043F0000020249025902690032122A8FDF760F844
:104400000320009000200E900F906846FCF7EEFD10
:104410004FF40070FCF79CFDFDF746F94FF47A71FC
:10442000B0FBF1F42046FDF7E2FE0420FDF7CAFEE2
:1044300000221146501EFCF736FD38B010BD0000BA
:104440001048006840F470000E4908600E4800688B
:1044500040F001000C4908600020886008460068B0
:104460000A490840084908608814C860084600687E
:1044700020F48020086000208861C8030149803949
:104480000860704788ED00E000100240FFFFF6EA88
:1044900010B50248FEF727F810BD000060000020AC
:1044A00010B50248FEF71FF810BD00009C00002068
:1044B00000220268264B98420ED0B0F1804F0BD0FC
:1044C000244B984208D0244B984205D0234B984265
:1044D00002D0234B984203D122F070024B681A435A
:1044E0001B4B984217D0B0F1804F14D0194B984213
:1044F00011D0194B98420ED0184B98420BD0184B44
:10450000984208D0174B984205D0174B984202D0DA
:10451000164B984203D122F44072CB681A430260D2
:104520008B68C3620B688362094B98420BD00C4BBB
:10453000984208D00B4B984205D00B4B984202D0C2
:104540000A4B984201D10B69036301234361704711
:10455000002C01400004004000080040000C004016
:104560000034014000400140004401400048014047
:1045700030B50C460021816821F47F4142EA0325D1
:1045800025432943816030BD0A460021816821F01E
:10459000700142F0070319438160704730B50B4644
:1045A000144600210022026A056A25F00105056211
:1045B000816921F0F00141EA041122F00A021A4354
:1045C0008161026230BD30B50B46144600210022E5
:1045D000056A25F0100505628169026A21F47041BF
:1045E00041EA043122F0A00242EA03128161026230
:1045F00030BD00BFFEE703B401984100009850EAC7
:10460000C12018BF04204A0D18BF40F0010040F23D
:10461000FF72B2EB515F08BF40F00200012808BFF3
:10462000052002B0704700002DE9F04D2DED040B80
:104630002DED0E8B96B0DDE92550279CDDF890A07E
:1046400025F0004624F00048BAF1000F14BF012104
:10465000002101EB4502FC4953184A1093422AD32A
:10466000002814BF0123002303EB44030B44F74944
:104670008B4220D358EA00019FEDF59B76D0DFF8FE
:10468000D8B35D4503D1BAF1000F05D188E0BAF186
:10469000000F08BF002100D0012101EB450111F5F9
:1046A000001F08D8002814BF0121002101EB44019C
:1046B00011F5001F0BD99DED261B9DED240B16B0A7
:1046C00000F0DABD04B0BDE8F04D00F081BE002777
:1046D000002DBCBFE149884521DAE1498845A8BFE2
:1046E00002271CDAC3451ADCDE4901EB28511429E4
:1046F00008DDC1F1340220FA02F101FA02F282422D
:104700000DD108E058B9C1F1140228FA02F101FAFA
:1047100002F2424503D101F00101C1F1020756EA5C
:104720000A0124D1002C22DA002D18BF022F01D05B
:10473000012F0AD0022000F097FE16B000F0A2BDB3
:1047400004B0BDE8F04D00F02BBE022000F08CFE5E
:1047500000F026FE51EC100B81F0004141EC100BF3
:1047600016B000F095BD04B0BDE8F08D18E09FEDE7
:10477000BEAB9FEDBF8B002871D1B848804522D1D8
:1047800005F1804010F5801008BFBAF1000F07D086
:10479000B3450ADC002CA8BF9DED260BE0DA0DE046
:1047A000B0EE490AF0EE690ADAE7002C06DA9DED70
:1047B000260B51EC100B81F000416FE0AE487844BD
:1047C00090ED000BCCE7D8454DD1002C48DA2EB146
:1047D00086423AD1BAF1000F42D126E0BAF1000F79
:1047E00013D0022000F040FE00F00EFE8DED020B13
:1047F0009DED240B8DED000B10EE900A039961F3F3
:104800001E0003909DED020BAAE78DED02AB9DED1E
:10481000240B1AEE901A10EE900A8DED000B61F346
:104820001E0003909DED020B9AE78DED028B9DED2E
:10483000240B18EE901A10EE900A8DED000B61F328
:104840001E0003909DED020B8AE709DA9DED240B13
:1048500051EC190B53EC102BFBF76EFD1EE020E022
:104860009DED240B7CE786421BDAB4F1804F0DD01E
:10487000A4F10050B0F1FF5013D1002D11DB9DEDDC
:10488000240B51EC100B01F03DF807E09DED240BDB
:1048900053EC102B51EC100B00F0C2BC41EC100B90
:1048A0005EE79DED240B51EC100B00F0E3FDBAF137
:1048B000000FCDE90E0142D19FED710B46B3A6F179
:1048C000E040B0F17F600CD05E4538D1002D00DAB9
:1048D000A7B3022F0CBF01204FF0FF30FBF706FFFC
:1048E000DCE7002D01DD002C0DDA002D01DD002CB0
:1048F0001FDB002D16DA002C14DB012F08BF9FED03
:10490000620B3FF42DAFB0EE4A0AF0EE6A0A27E7D9
:10491000022F18BF002D0CD0012F0AD1002DFFF659
:104920001FAF06E0002DB8BF002C08DA012F3FF4BE
:1049300017AFB0EE480AF0EE680A11E71BE001205D
:1049400000EBE57050EA070115D0791EB0EE498AF8
:10495000F0EE698A084308BF9FED4D8B4E48002555
:10496000804570DD4D494E48884514DDB0420DDB71
:10497000002C19DB2FE0012000F076FD16B000F0CE
:104980008DBC04B0BDE8F04D00F02EBDB34502DC97
:10499000002C09DC1FE0864202DA002C1BDA03E05F
:1049A0005E452BDD002C16DD022000F05DFD00F0E1
:1049B0002BFD8DED020B53EC1A2B51EC180BFBF772
:1049C00009FECDE900010399019861F31E000390EF
:1049D0009DED020BC4E6022000F046FD00F024FD30
:1049E00010EE901A18EE900A8DED020B8DED008BF3
:1049F00061F31E0003909DED020BB1E69DED0E0BE1
:104A000053EC192B51EC100BFBF788FC9FED260B98
:104A1000CDE9080153EC102B9DED080B51EC100B68
:104A2000FBF7D8FD9FED221B53EC112BFBF779FC14
:104A30009DED081B53EC112BFBF7CCFD9FED1E1BCE
:104A400053EC112B3CE08CE0FFFF1F00FFFF0F0039
:104A5000000000000000F03F0000F03F0000F07F89
:104A60000000404301FCFFFF000000000000F07F59
:104A70000000000000000000462A000000000000C6
:104A80000000000000000080000000000000F0FFB7
:104A9000000000000000F0BF0000E0410000F04313
:104AA000FFFFEF3F00000000000000000000D03FCB
:104AB000555555555555D53F000000000000E03FC5
:104AC000FBF72FFC9DED080B41EC1A0B53EC102B60
:104AD00051EC100BFBF77EFD53EC1A2BFBF77AFD24
:104AE00041EC1A0B9FEDFE0B53EC102B9DED080BC8
:104AF00051EC100BFBF76EFD41EC1B0B9FEDFA0B1D
:104B000051EC1A0B53EC102BFBF764FD41EC1A0B24
:104B10009FEDF70B53EC102B9DED080B51EC100B98
:104B2000FBF758FD53EC1A2BFBF7F8FB41EC1A0B83
:104B300051EC1B0B53EC1A2BFBF74FFB0690CDE906
:104B400006519DED060B53EC1B2B51EC100BFBF7A4
:104B5000E5FB53EC1A2BFBF7E4FB41EC100B00F0E8
:104B6000A1B90020B6F5801F0EDA9FEDE30B53ECE0
:104B7000102B9DED0E0B51EC100BFBF72BFDCDE92F
:104B80000E016FF034000E4600EB2650A0F2FF3706
:104B9000C6F31300DA4940F07F6646F0405688427B
:104BA000D8BF002408DDD7498142C8BF012403DCF7
:104BB0000024A6F580167F1CD348784400EBC4007F
:104BC0000F9690ED00CB9DED0E0B53EC1C2B51EC92
:104BD000100BFBF7A3FB9DED0E0B41EC1B0B53ECF5
:104BE0001C2B51EC100BFBF7F8FA41EC100B51ECBD
:104BF000190B53EC102BFBF79FFB41EC1D0B51ECF9
:104C00001B0B53EC1D2BFBF7E5FC41EC1A0BBF48CB
:104C10008DED10AB7844109590ED000B4FF00050E7
:104C200040EA660000EB84408DED080B00F50020A3
:104C300009909DED080B53EC1C2B51EC100BFBF76E
:104C40006DFB9DED0E1B53EC112BFBF76AFB41EC4A
:104C5000100B53EC102B9DED100B51EC100BFBF7D0
:104C6000B9FC9DED080B41EC1C0B53EC102B9DED9A
:104C7000100B51EC100BFBF7ADFC53EC1B2BFBF7AF
:104C800050FB53EC1C2BFBF749FB53EC1D2BFBF7A4
:104C9000A1FC41EC1C0B53EC1A2B51EC1A0BFBF74B
:104CA00099FC41EC1B0B9A480621B0EE4B0AF0EE42
:104CB0006B0A784400F0F8FAB0EE401AF0EE601A91
:104CC000B0EE41DAF0EE61DA53EC1B2B51EC1B0B2A
:104CD000FBF780FC53EC1D2BFBF77CFC9DED100BD0
:104CE00041EC1B0B53EC1A2B51EC100BFBF775FA34
:104CF00053EC1C2BFBF76EFC53EC1B2BFBF76DFAF4
:104D00009DED100B41EC1B0B53EC102B51EC100BD9
:104D1000FBF760FC41EC1D0B9FED7FEB53EC1E2B72
:104D2000FBF75BFA53EC1B2BFBF757FA0890CDE926
:104D300008519DED080B53EC1E2B51EC100BFBF7AB
:104D4000EDFA53EC1D2BFBF7E9FA53EC1B2BFBF7A9
:104D5000E8FA9DED080B41EC1D0B53EC102B9DED7B
:104D6000100B51EC100BFBF735FC41EC1B0B53EC1B
:104D70001A2B51EC1D0BFBF72DFC9DED080B41ECA4
:104D80001A0B53EC102B51EC1C0BFBF723FC53ECD0
:104D90001A2BFBF722FA41EC1A0B51EC1B0B53ECCC
:104DA0001A2BFBF71AFA0C90CDE90C519DED0C0B68
:104DB00053EC1B2B51EC100BFBF7B0FA53EC1A2BF6
:104DC000FBF7AFFA41EC1B0B9FED550B53EC102B8F
:104DD0009DED0C0B51EC100BFBF7FCFB41EC1A0B9F
:104DE0009FED510B51EC1B0B53EC102BFBF7F2FB1F
:104DF00041EC1B0B9FED4E0B53EC102B9DED0C0B60
:104E000051EC100BFBF7E6FB53EC1B2BFBF7E5F922
:104E100041EC100B4848784400EBC40090ED001BB7
:104E200051EC100B53EC112BFBF7D7F941EC1B0B9A
:104E30003846FBF75BFCCDE9080153EC1B2B51EC2A
:104E40001A0BFBF7CAF941EC100B3C48784400EB15
:104E5000C40090ED00CB51EC100B53EC1C2BFBF776
:104E6000BCF99DED081B53EC112BFBF7B6F906902E
:104E7000CDE906519DED080B53EC102B9DED060B73
:104E800051EC100BFBF74AFA53EC1C2BFBF746FADC
:104E900053EC1A2BFBF742FA53EC1B2BFBF741FAAE
:104EA00041EC100B9DED261B53EC102B8DED001BE0
:104EB00000959DED260B51EC100BFBF78BFB9DED48
:104EC000000B41EC1A0B53EC102B9DED260B51EC13
:104ED000100BFBF723FA9DED061B53EC112B2FE073
:104EE000000000604715F73FFE822B654715F73F2E
:104EF00044DF5DF80BAE543E00000000000040436C
:104F00008E9803007AB60B00C2250000F025000041
:104F1000FA2400000000000000000000000008402B
:104F2000000000E009C7EE3FFD033ADC09C7EE3F91
:104F3000F5015B14E02F3EBE8623000040230000F5
:104F4000FBF748FB53EC1A2BFBF747F99DED060BDB
:104F500041EC1A0B53EC102B9DED000B51EC100B98
:104F6000FBF738FBCDE90C019DED0C0B51EC1A0B56
:104F700053EC102BFBF731F9CDE902010C46AA499D
:104F80008C422FDB611A084318D19DED0C0B53ECBA
:104F9000102B9DED020B51EC100BFBF7BFF941EC10
:104FA0001B0B9FEDA30B51EC1A0B53EC102BFBF7D3
:104FB00014F953EC1B2BFBF767FA2DD2022000F0FB
:104FC00053FA00F021FA10EE901A18EE900A8DEDC7
:104FD000020B8DED008B61F31E0003909DED020B23
:104FE000FFF7BEBB944A24F00041914214D3934989
:104FF000214408437FF4EFAC9DED0C0B53EC102BD8
:105000009DED020B51EC100BFBF788F953EC1A2BBA
:10501000FBF73AFA7FF6DFAC24F000408849894A72
:10502000002601EB205182422BDA481C4FF48011FC
:1050300021FA00F02044844AC0F30A517A44A1F2D4
:10504000FF3192ED000B814A8DED080BCA4020EA3A
:105050000202C0F3130040F48010C1F1140120FAE1
:1050600001F60992002CB8BF76429DED080B53EC77
:10507000102B9DED0C0B51EC100BFBF74FF9CDE90C
:105080000C019DED0C0B51EC1A0B53EC102BFBF7A4
:10509000A4F89FED6F0B0890CDE9085153EC102B4D
:1050A0009DED080B51EC100BFBF794FA41EC1B0B38
:1050B0009FED690B53EC102B9DED080B51EC100B81
:1050C000FBF788FA9DED0C0B41EC1C0B53EC102BFD
:1050D0009DED080B51EC100BFBF720F953EC1A2B4C
:1050E000FBF71FF99FED5E1B53EC112BFBF772FAD8
:1050F00053EC1C2BFBF771F841EC1A0B51EC1B0B1A
:1051000053EC1A2BFBF769F8CDE902019DED020B78
:1051100053EC1B2B51EC100BFBF700F953EC1A2B43
:10512000FBF7FFF89DED020B41EC1A0B53EC102B33
:1051300051EC100BFBF74EFACDE908014A489DED02
:10514000080B0521784400F0AFF89DED081B51ECE9
:10515000100B53EC112BFBF73DFA9DED021B53ECAA
:10516000112BFBF7DEF8CDE906019DED020B53ECA8
:105170001A2B51EC100BFBF72DFA53EC1A2BFBF703
:105180002CF89FED3B0B41EC1A0B53EC102B9DEDD3
:10519000060B51EC100BFBF7C1F89DED060B41EC33
:1051A0001B0B53EC102B9DED020B51EC100BFBF77E
:1051B00011FA53EC1B2BFBF7BFF853EC1A2BFBF740
:1051C000ADF89DED021B53EC112BFBF7A7F853EC48
:1051D000192BFBF7A6F8CDE9020101EB06500115EA
:1051E0000029C8BF039015DC9DED020B324651EC3F
:1051F000100BFBF764FAFFF7FEF9042808BF00F074
:1052000013F932469DED020B51EC100BFBF757FAE8
:10521000CDE902019DED020B51EC180B53EC102B64
:10522000FBF7D8F9FFF73ABB000090400000000000
:10523000FE822B654715973C00CC904000346F3FB1
:1052400001FCFFFF0000E03FC8210000FFFF0F004E
:1052500000000000432EE63F396CA80C615C20BEC4
:10526000EF39FAFE422EE63F9820000000000000D1
:105270000000000000000040BDEC088BBDEC06CB38
:10528000FFF720BABDEC088BBDEC06CBFFF758BA90
:10529000BDEC088BBDEC06CBFFF765BABDEC088B07
:1052A000BDEC06CBFFF76DBB70B504462DED028B50
:1052B0004D1E00EBC500B0EE408AF0EE608A90ED26
:1052C000000B35F0060017D053EC182B51EC100BE7
:1052D000FBF780F941EC100B6D1E04EBC50090ED5F
:1052E000001B51EC100B53EC112BFAF776FF41EC3D
:1052F000100B35F00600E7D1022D36D0042D1CD05E
:10530000062D1CBFBDEC028B70BD53EC182B51EC6D
:10531000100BFBF75FF994ED0A1B53EC112BFAF716
:105320005CFF53EC182BFBF755F994ED081B53EC7D
:10533000112BFAF752FF41EC100B53EC182B51ECE8
:10534000100BFBF747F994ED061B53EC112BFAF702
:1053500044FF53EC182BFBF73DF994ED040B53EC91
:10536000102BFAF73AFF41EC100B53EC182B51ECD1
:10537000100BFBF72FF994ED021B53EC112BFAF7EE
:105380002CFF53EC182BFBF725F994ED001B53EC85
:10539000112BFAF722FFBDEC028B41EC100B70BD14
:1053A0009FED070B10B553EC102B9FED070B51EC45
:1053B000100BFAF7C1FF41EC100B10BD000000000C
:1053C0000000000000000000000000000000F03FAE
:1053D00010B553EC112B51EC100BFAF7FEFE41EC1B
:1053E000100B10BD000000009FED050B10B553EC35
:1053F000102B51EC100BFAF79FFF41EC100B10BD76
:1054000000000000000000009FED050B10B553ECFC
:10541000102B51EC100BFBF7DDF841EC100B10BD1D
:1054200000000000000000709FED050B10B553EC6C
:10543000102B51EC100BFBF7CDF841EC100B10BD0D
:10544000000000000000001002E008C8121F08C1A0
:10545000002AFAD170477047002001E001C1121FF5
:10546000002AFBD170470000014908607047000026
:105470005C00002082B0CDE9000121F000400190E5
:105480009DED000B02B051EC100B70472DED048B1D
:1054900082B0FBF785FCFEF78FFFFDF78DF9FDF776
:1054A0003DF9FDF731FBFBF797F9F1480068F14949
:1054B00008600420087107204871022088711620B6
:1054C000C8710020087201204872002088720820EC
:1054D00088810A208873FEF7EDFE58B109E0FDF7D8
:1054E000C7FA1823E4A200210846FDF7EBFCFDF7FC
:1054F000EDFBF4E700224FF48061E148FBF73CFC50
:10550000DC484079401F082825D2DFE800F0040875
:105510000C1014181C200520DA4908701BE0062026
:10552000D849087017E00720D649087013E0082012
:10553000D44908700FE00920D24908700BE00A2016
:10554000D049087007E00B20CE49087003E00C201A
:10555000CC49087000BF00BF41F27C50FDF738FA1B
:10556000C948FCF706FF0C23C8A200210846FDF736
:10557000A9FC0C200090BF480923002102683020BC
:10558000FDF753FC0C23C6A219460020FDF79AFC38
:105590000C2002230090BB4802780C211220FDF75A
:1055A00044FC0C23BFA219462A20FDF78BFC0C20DB
:1055B00003230090BC4890ED000ABCEEC00A10EE38
:1055C000102A0C213C20FDF730FC0C23B7A21A2135
:1055D0000020FDF777FC0C23B6A21A213C20FDF732
:1055E00071FC0C23B5A22C210020FDF76BFC0C20D4
:1055F00003230090B24802882C210C20FDF715FCF3
:105600000C23B0A22C212420FDF75CFC0C200323EA
:105610000090AD4802882C213020FDF706FC0C23B9
:10562000AAA22C214820FDF74DFC0C20032300905A
:10563000A74802882C215420FDF7F7FBFDF746FB15
:105640009148FCF783FE12E1A248007801285BD064
:10565000022831D0032803D004287DD100BF03E104
:1056600004209C4908709C4890ED000ADFED9B0ADD
:1056700080EE801A11EE105A2846FAF7F2FE41EC3D
:10568000190B9FED970B53EC102BFAF7A6FD41EC8D
:10569000180BFAF7CDFE84B20820764988730022F1
:1056A00040214FF09040FBF767FBFBF7C3F8214622
:1056B0008D48FDF753FFD7E004208649087001228A
:1056C00040214FF09040FBF757FB7D480088401C7D
:1056D0007B49088008460088B0F57A7F01DB00200E
:1056E00008800C2003230090754802882C210C2090
:1056F000FDF79BFB0A205F49887308208881FBF730
:1057000099F8FEF74BF9AFE0042072490870FBF7F7
:105710008DF87648FEF742F86B480088401C6A49CD
:10572000088008460088B0F57A7F01DB00200880F9
:105730000C2003230090644802882C213020FDF7C0
:1057400074FB082268496948FAF73AFD002874D1C9
:105750006748007B40B200E085E066490870644815
:10576000807A40B264490870002220214FF09040B6
:10577000FBF702FB3220FBF790F8012220214FF0CB
:105780009040FBF7F9FA5C4890F90000002816DA1F
:105790000C235AA21A211820FDF794FB56480078D2
:1057A000404240B2544908700C200423009008463F
:1057B00090F900201A211E20FDF737FB0FE00C2383
:1057C0004FA21A211820FDF77DFB0C200423009026
:1057D000494890F900201A211E20FDF726FB454874
:1057E00090F90000002816DA0C2344A21A215A204E
:1057F000FDF768FB3F480078404240B23D490870E1
:105800000C2004230090084690F900201A21602003
:10581000FDF70BFB26E00C2339A21A215A20FDF7D5
:1058200051FB0C2004230090324890F900201A21EB
:105830006020FDF7FAFA15E0FFE725480088401CD4
:105840002349088008460088B0F57A7F01DB0020F4
:1058500008800C20032300901D4802882C2154202E
:10586000FDF7E3FA00E000BF00BFFDF72FFAEBE61B
:10587000380000200C0000204552526F52000000FA
:10588000000C004852000020600000204341442DDD
:1058900054583A202020202020202020487A000040
:1058A00053463A0042573A0004000020534E523A01
:1058B00000000000525353493A000000543A0000DF
:1058C0004C000020523A00004E000020453A0000F3
:1058D0005000002057000020080000200080BB443A
:1058E000000000000000E03F2E000020CC0500205A
:1058F000D800002056000020540000202D00000099
:105900002000000000B52DED048B83B041EC190B95
:10591000FAF710FF41EC180B18EE100A18EE901A67
:105920008DED008B002818BF0120084320F00040B7
:10593000C0F17F6000F1E040C00F14D019EE101AE2
:1059400019EE900A8DED009B002918BF0121084334
:1059500020F00040C0F17F6000F1E040C00F04BFC4
:105960000120FFF781FD51EC180B03B0BDEC048B57
:1059700000BD00000000000000000000000000006A
:1059800000003F4000000000000000003000400028
:1059900030004000000009000BC03D000BC03D007E
:1059A000090018C024407FE0224031800000180028
:1059B00024C01B000D803240018003801C40274022
:1059C0001C80074000401000600000000000000044
:1059D00000000000000000001F8020404020000068
:1059E000402020401F8000000000090006001F80AA
:1059F000060009000000040004003F8004000400C9
:105A00000000001000600000000000000000040022
:105A10000400040004000400000000000040000036
:105A2000000000000000002001C006003800400017
:105A300000001F802040204020401F800000000008
:105A400010403FC000400000000018C0214022402C
:105A500024401840000010802040244024401B8037
:105A6000000002000D0011003FC0014000003C801A
:105A7000244024402440238000001F8024402440F0
:105A80003440038000003000200027C03800200090
:105A900000001B802440244024401B8000001C0088
:105AA00022C0224022401F80000000000000084069
:105AB0000000000000000000000004600000000082
:105AC0000000000004000A0011002080404009008E
:105AD0000900090009000900000000004040208082
