:020000040800F2
:10000000500E00209D0100083F2300087D200008BD
:100010003D23000861080008F33B000800000000D1
:100020000000000000000000000000005B29000844
:100030006F0800080000000063270008C9350008A9
:10004000B7010008B7010008B7010008B7010008B0
:10005000B7010008B7010008710800087F08000810
:10006000B70100089708000899080008B7010008C0
:10007000B7010008B7010008B7010008B701000880
:10008000B7010008B7010008B7010008B701000870
:10009000B7010008B7010008B7010008B10800085F
:1000A000B7010008B7010008B7010008B701000850
:1000B000B70100089D360008A9360008B7010008FE
:1000C000B7010008B7010008B7010008B701000830
:1000D000B7010008B7010008B7010008B701000820
:1000E00077080008B7010008B7010008B701000849
:1000F000B7010008B7010008B7010008B701000800
:10010000B7010008B7010008B7010008B7010008EF
:10011000B7010008B7010008B7010008B7010008DF
:10012000B7010008B7010008B7010008B7010008CF
:10013000B7010008B7010008B7010008B7010008BF
:10014000B7010008B7010008B7010008B7010008AF
:10015000B7010008B7010008B7010008B70100089F
:10016000B7010008B7010008B7010008B70100088F
:10017000B7010008B7010008B7010008000000003F
:10018000B7010008B7010008DFF80CD000F0CEFA84
:10019000004800478D4A0008500E0020064880475E
:1001A00006480047FEE7FEE7FEE7FEE7FEE7FEE75C
:1001B000FEE7FEE7FEE7FEE7593600088901000882
:1001C0002DE9F05F0546002092469B46884606468C
:1001D000814640241BE0284641464746224600F01F
:1001E000D4F853465A46C01A914110D311461846C6
:1001F000224600F0BBF82D1A67EB01084F46224655
:100200000120002100F0B2F817EB00094E41201E3A
:10021000A4F10104DFDC484631462A46434600F09B
:1002200000B830BCBDE8C09F30B50446002003468E
:1002300000E05B1C934203D2E05CCD5C401BF8D035
:1002400030BD2DE9F04D81EA030404F0004B21F0AC
:10025000004514464FF0000A23F0004150EA050221
:1002600020D054EA01021DD0C5F30A570246C5F357
:100270001303C1F31300C1F30A5640F4801543F48D
:100280008013A7EB0608101BD64608F2FD3873EB67
:10029000050002D308F1010801E092185B41B8F1B2
:1002A000000F03DA00200146BDE8F08D00204FF476
:1002B0008011064684460EE0171B73EB050705D335
:1002C000121B63EB050306434CEA010C49084FEA95
:1002D000300092185B4150EA0107EDD152EA030069
:1002E00012D082EA040083EA0501084305D0101BFE
:1002F000AB4106D20122002306E000224FF000436A
:1003000002E06FF0010253101AEB06004CEB0851AB
:1003100010EB0A0041EB0B01BDE8F04D00F045B8D1
:100320000EB540F2334102910021CDE900110A4699
:100330000B4600F049F803B000BDC1F30A5210B5F6
:10034000C1F3130140F2FF3341F480119A4201DA04
:10035000002010BD40F233439A42A2F2334203DC44
:10036000524200F012F810BD904010BD202A04DB6C
:10037000203A00FA02F1002070479140C2F12003B8
:1003800020FA03F3194390407047202A04DB203AF7
:1003900021FA02F00021704721FA02F3D040C2F1A5
:1003A0002002914008431946704710B5141E73F19E
:1003B000000408DA401C41F1000192185B411A4325
:1003C00001D120F0010010BD2DE9F04D92469B4671
:1003D00011B1B1FA81F202E0B0FA80F22032904617
:1003E000FFF7C4FF04460F4640EA0A0041EA0B014A
:1003F00053465A46084313D0114653EA010019D018
:10040000C8F140025046FFF7C0FF05460E46504671
:1004100059464246FFF7AAFF084305D0012004E0F1
:1004200020463946BDE8F08D0020054346EAE076D7
:100430002C4337430A986305E40AA0EB0800002226
:10044000FD0A44EA47540A3002D500200146E9E794
:10045000010510196941DDE9084500196941BDE848
:10046000F04DA2E72DE9FE4F804681EA0300C00F60
:100470000C46009021F0004123F00045B8EB02004B
:10048000A94105D24046214690461C460B460246ED
:1004900023F00040104347D0270DC7F30A00C3F3F1
:1004A0000A510290401A019040286BDAC3F31300FE
:1004B00040F4801B0098924620B10023D2EB030A3F
:1004C00063EB0B0B01985946C0F140025046FFF711
:1004D0004DFF06460D4650465946019A00F038F940
:1004E00010EB08006141002487EA115284EAE773A7
:1004F0001A4340D0009A62B3019A012A4FEA075288
:1005000015DC001B61EB02014FF0004202EA0752CA
:10051000CDE90042001C41F5801132462B46FFF721
:1005200053FF03B000F045B840462146F9E7001BF1
:1005300061EB0201001C41F5801300185B4120189B
:10054000A2F5001747EB030140EAD570B6196D41DB
:1005500011E06D084FEA360645EAC0754FEA0752CA
:10056000001B61EB0201001C41F5801149084FEAB4
:1005700030000019514132462B4603B000F01CB840
:10058000FFF713BF0098012240000023D0EB0202C6
:1005900063EBE073009821464FEAE074B8EB00008B
:1005A00061EB0401E9E783F000435BE781F0004180
:1005B00058E730BCBDE8C08F30BCBDE8C04FFFF786
:1005C000DFBF2DE9FE4F81EA030404F0004421F06F
:1005D000004100944FF0000B23F0004350EA010467
:1005E0005ED052EA03045BD0C3F30A54C1F30A5548
:1005F0002C44A4F2F3340194A0FB0254C1F3130180
:1006000041F48011C3F3130343F4801301FB02444C
:1006100000FB034E840A970A44EA815447EA835751
:10062000A4FB076802958D0A05FB07854FEA932C0A
:1006300004FB0C542705029D4FEA065847EA16377B
:10064000B5EB08056EEB070C870E920E47EA811793
:1006500042EA8312A7FB0201B6EB0B0164EB000434
:100660002B0D43EA0C335E1844EB1C50DA4651461E
:10067000E7FB0201C5F313044FEA0B3343EA1453BB
:100680004FEA0432019C43EA0603A4F10C040294ED
:10069000009CCDE900B4FFF797FE03B000F003B86B
:1006A00000200146F9E730BCBDE8C08F70B521F0ED
:1006B000004303430CD0C1F30A550024D5EB0405D5
:1006C00064EB0403D617AD1AB34102DB00200146E8
:1006D00070BD201841EB025170BD0EB5C10F80EA0C
:1006E000E0700844CA07002140F233438DE80E0051
:1006F0000A460B46FFF768FE03B000BD30B5041E86
:1007000071F1000404DB4FF00044404264EB01014E
:10071000141E73F1000405DB1C464FF000435242E7
:1007200063EB0403994208BF904230BD064C074D6D
:1007300006E0E06840F0010394E8070098471034B1
:10074000AC42F6D3FFF724FDC8650008E865000851
:10075000202A06DBCB17203A41FA02F043EAE07385
:1007600006E041FA02F3D040C2F120029140084372
:10077000194670472DE9F04D00231A461B1A8A418D
:1007800003DB00200146BDE8F08DC1F30A52C1F33E
:10079000130141F480154FF0000BD10702D100186E
:1007A0006D41521E0027044640F2FF11384601EB0E
:1007B000620A3E468046024600204FF48011FFF751
:1007C000E4FDC2197141BB1846EB0100B4EB030C08
:1007D00075EB000C04D3E41A65EB000517460E46D2
:1007E000241908F101006D4180463428E3DDF91930
:1007F00046EB0600091BA84103D24FF0FF32134617
:1008000001E0002213461BEB070046EB0A51BDE84E
:10081000F04DFFF7CABD000030B50F4887B0C16C7E
:1008200041F00801C164C06C4FF4806400F008001E
:1008300005900120CDE900400020084D0290039072
:100840006946284600F05AFA00222146284600F060
:1008500043FB07B030BD000000100240000C004810
:10086000FEE702F0D5B802F0D6B802F0A9B870479A
:10087000012000F037BA4FF4004000F033BA10B551
:10088000072000F09DFB022000F02CFABDE810408C
:10089000072000F0A0BB704710B50A2000F090FBC5
:1008A000102000F01FFABDE810400A2000F093BBB2
:1008B0004FF4407000F016BA00BFFEE770B5044672
:1008C00000F010FB0546601C00D0641C00F00AFB21
:1008D000401BA042FAD370BD38B505464FF4004125
:1008E000EC4800F0F4FA002870D13220FFF7E6FF60
:1008F0004FF40041E74800F0EAFA002866D1E648E4
:1009000001F000FAFFF7ADFFE4480078401CE3492E
:10091000087008460078401F082845D2DFE800F03C
:10092000040C141C242C343C0520DD4948714FF480
:100930007A7001F0C5FC38E00620D94948714FF4BF
:100940007A7001F0BDFC30E00720D549487140F2D3
:10095000DC5001F0B5FC28E00820D149487140F294
:10096000DC5001F0ADFC20E00920CD4948714FF486
:10097000FA6001F0A5FC18E00A20C949487140F668
:10098000C41001F09DFC10E00B20C549487140F6F1
:10099000AC5001F095FC08E00C20C149487141F2CF
:1009A000883001F08DFC00E000BF00BF0C20022366
:1009B0000090BA4802780C21122001F056FEB74888
:1009C00000780B2802DD0420B44908704FF48071D0
:1009D000B44800F07CFA58BB3220FFF76FFF4FF4A9
:1009E0008071B04800F073FA10BBAB4801F08AF98F
:1009F000FFF737FFAC480078401C40B2AA490870A6
:100A0000AA4891F9001050F82100A54908600C206F
:100A100000900846092300210268302001F025FEDD
:100A2000A14890F90000042802DBFF209E490870CD
:100A30004FF400719B4800F04AFA00283ED1322062
:100A4000FFF73CFF4FF40071964800F040FAA8BB56
:100A500002F034FD58B109E001F082FC182394A2A1
:100A60000021084601F040FE01F07EFDF4E7002081
:100A70009149088091490880914908800C200323FE
:100A800000908D4802882C210C2001F0EEFD0C20F6
:100A900003230090894802882C21302001F0E5FDD5
:100AA0000C2003230090864802882C21542001F05A
:100AB000DCFDFFF7D8FE784801F018F9FFF7D5FE06
:100AC00001287DD102F009FA04464FF6FF7002F0CA
:100AD000BAF904F00100F8B1012240214FF0904032
:100AE00000F0FAF974480088401C734908800846F1
:100AF0000088B0F57A7F01DB002008800C200323FA
:100B000000906D4802882C210C2001F0AEFDFFF70B
:100B1000AAFE02F0DDF8B9E004F042000228FAD1A2
:100B20005F48007A012801D102F099F9FFF799FE98
:100B3000644801F0F5FF61480088401C5F49088067
:100B400008460088B0F57A7F01DB002008800C2081
:100B500003230090594802882C21302001F085FDA4
:100B60000A2259495748FFF75FFB002879D15748B7
:100B7000007B40B2564908705448807A40B25549CB
:100B800008705248007A40B2534908700022202170
:100B90004FF0904000F0A0F93220FFF78FFE4D4853
:100BA00090F90000002818DA0C234CA21A21182012
:100BB00001F09AFD47480078404240B2454900E0C4
:100BC00065E008700C2004230090084690F900208E
:100BD0001A211E2001F049FD0FE00C2340A21A212A
:100BE000182001F081FD0C2004230090394890F971
:100BF00000201A211E2001F038FD354890F9000030
:100C0000002816DA0C2335A21A215A2001F06CFDB7
:100C10002F480078404240B22D4908700C20042330
:100C20000090084690F900201A21602001F01DFD77
:100C30000FE00C232AA21A215A2001F055FD0C20A6
:100C400004230090224890F900201A21602001F02E
:100C50000CFD012220214FF0904000F03DF90CE006
:100C6000FFE717480088401C15490880084600889F
:100C7000B0F57A7F01DB002008800C200323009070
:100C80000F4802882C21542001F0EFFC00BF00F037
:100C900041FA38BD00040048600000205A000020DE
:100CA00010000020000C00485B00002030000020F5
:100CB00045526F5200000000440000204600002012
:100CC00048000020400A002024000020D800002016
:100CD0005700002055000020580000202D00000083
:100CE00020000000044910B50A68024202D00860E2
:100CF000FFF7F2FD10BD0000140401402DE9F84F8C
:100D0000DFF8A091002209F1040A0AF1040B4FF068
:100D10000F080BF1040EBEE001249440234075D06F
:100D20004D68022D01D0122D11D1D50800EB850799
:100D30003E6A5507ED0E08FA05FC26EA0C06D1F8C6
:100D400010C00CFA05FC4CEA060CC7F820C0076876
:100D50005500032691F804C0AE400CF0030CB743D5
:100D60000CFA05FC4CEA070CC0F800C04F68012FD4
:100D700005D0022F03D0112F01D0122F15D1876873
:100D8000D1F80CC0B7430CFA05FC4CEA070CC0F8CC
:100D900008C0476891F804C0A743CCF3001C0CFAC4
:100DA00002FC4CEA070CC0F804C0D1F804C06FEA9A
:100DB0000C07BF0706D1C76AA743CCF3C004944011
:100DC0003C43C462C468B4438E68AE402643C660E8
:100DD0004C68E4005ED5344C256E45F0010525666F
:100DE000246E22F0030504F0010400942F4C2E1908
:100DF000B7689407250F08FA05F4A743B0F1904FA0
:100E000005D02B4CA04204D101241CE042E0002478
:100E100019E0284CA04201D1022414E0264CA04243
:100E200001D103240FE0254CA04201D104240AE0A3
:100E3000234CA04201D1052405E0224CA04201D15F
:100E4000062400E00724AC403C43B460D9F80040DD
:100E50004D464E689C43F60300D51C432C60DAF8DF
:100E6000004055464E689C43B60300D51C432C6099
:100E7000DBF800405D464E689C43F60200D51C43FB
:100E80002C60DEF8004075464E689C43B60200D5E3
:100E90001C432C60521C0B6833FA02F47FF43CAF05
:100EA00000F012B8000401400010024000000140B0
:100EB0000004004800080048000C004800100048EA
:100EC000001400480018004818BCBDE8E08F006915
:100ED000084000D0012070470AB1816170478162EB
:100EE00070470000014800687047000000000020C3
:100EF00002480168491C01607047000000000020A2
:100F000010B5032000F092F8002000F005F800F082
:100F100017F8002010BD000010B5044607484FF434
:100F20007A710068B0FBF1F000F04CFE002221461F
:100F3000501E00F05BF8002010BD000020000020D3
:100F40001E4808B5016E41F001010166016E01F015
:100F500001010091816D41F080518165806D00F04B
:100F600080500090032000F061F8002211466FF0DD
:100F70000B0000F03BF8002211466FF00A0000F071
:100F800035F8002211466FF0090000F02FF800221A
:100F90001146501F00F02AF800221146101F00F0E1
:100FA00025F800221146901E00F020F80022BDE82E
:100FB00008401146501E00F019B800000010024011
:100FC00000F01F02012191404009800000F1E02063
:100FD000C0F88011704700F01F02012191404009C4
:100FE000800000F1E020C0F800117047F0B40E4B13
:100FF0001B68C3F30223C3F10704042C00D90424A3
:101000001D1D072D01D2002300E0DB1E012606FA7C
:1010100004F56D1E0D409D409E40761E164045EA2B
:101020000601F0BC01F08CB90CED00E0064A00F0BE
:10103000070110684FF6FF03184040EA01200349FA
:1010400008431060704700000CED00E00000FA0556
:101050001549B0F5007F0868C0F3412009D0022887
:1010600005D0086820F4C06040F48060086000206B
:1010700070470128FBD0086820F4C06040F400707D
:1010800008600A480A4A0068B0FBF2F03222504376
:1010900000E0401E10B14A695205FAD44869400583
:1010A000E5D50320704700000070004020000020BC
:1010B00040420F000C49086820F4804008600B484B
:1010C0000B4A0068B0FBF2F03222504300E0401EB1
:1010D00010B14A699205FAD44869800501D5032008
:1010E0007047002070470000007000402000002082
:1010F00040420F000248016841F48041016070479E
:10110000007000400248006800F4C06070470000B2
:10111000007000400248016821F002010160704740
:1011200010ED00E00248016841F0020101607047E3
:1011300010ED00E00E4A10B5002850690C460FD0A3
:10114000C043800501D5FFF7D5FF0A48016821F0AB
:1011500004010160012C08D040BF20BF20BF10BD9A
:101160008005F2D5FFF7A6FFEFE730BF10BD000006
:101170000070004010ED00E02DE9F047DFF86481D9
:1011800004460E46D8F8000000F00700B0420CD22A
:10119000D8F8001021F007013143C8F80010D8F842
:1011A000000000F00700B04272D120784E4F800757
:1011B00005D5B868A16820F0F0000843B860207831
:1011C000C00754D06068022818D0032819D03968A5
:1011D000D0B1490500295BDAB96821F00301014368
:1011E000B960FFF77FFE0546606841F2883102284A
:1011F00012D003281DD0894638B333E039688903FB
:10120000E8E739688901E5E78907E3E7FFF76AFE60
:10121000411B494501D922E08946B868C0F38100E5
:101220000228F3D123E0FFF75DFE411B494501D9B8
:1012300015E08946B868C0F381000328F3D116E0B1
:10124000FFF750FE411B494509D8B86810F00C0F54
:10125000F6D10CE0FFF746FE411B494502D90320B9
:10126000BDE8F087B868C0F381000128F2D1D8F852
:101270000010404601F00701B1420BD9016821F08E
:10128000070131430160006800F00700B04201D05F
:101290000120E5E72078400705D5B868E16820F42B
:1012A000E0600843B8602078000706D5B868216977
:1012B00020F4605040EAC100B86000F051F8B9680D
:1012C000F02292FAA2F201F0F001B2FA82F2D140D9
:1012D000064A515CC840064908600020FFF71CFE22
:1012E0000020BDE70020024000100240F06400082A
:1012F0002000002001480068704700002000002006
:1013000008480949006889684FF4E06292FAA2F23D
:1013100001F4E061B2FA82F2D140044A515CC84063
:1013200070470000200000200010024030650008D7
:1013300008480949006889684FF4605292FAA2F29D
:1013400001F46051B2FA82F2D140044A515CC840C3
:1013500070470000200000200010024030650008A7
:1013600070B53B4B0022104699683A4C11F00C0FB7
:101370004FEA640514D09968C1F38101032904D1AF
:10138000D96801F0030101290AD09968C1F38101EC
:10139000012921D09968C1F3810102291ED01EE0E4
:1013A0001968090706D4D3F894104FF4706201F459
:1013B000706103E01968F02201F0F00192FAA2F2E4
:1013C000B2FA82F2D140244A52F82120996811F0F1
:1013D0000C0F04D1104602E0204600E02846996830
:1013E000C1F38101032931D1D868D96800F0030025
:1013F000702696FAA6F601F07001B6FA86F6F1406C
:10140000491C4FF4FE46022804D0032805D0B2FB45
:10141000F1F004E0B4FBF1F001E0B5FBF1F0D968C4
:1014200096FAA6F201F4FE41B2FA82F2D1404843A4
:10143000D9684FF0C06292FAA2F201F0C061B2FA2C
:1014400082F2D140491C4900B0FBF1F070BD0000B0
:10145000001002400024F400006500082DE9F84364
:1014600004460078FD4DC00663D5A86810F00C0F47
:101470000AD0A0690028286878D040F001002860D0
:10148000FFF730FD06465AE02868800702D5A069BC
:1014900000286AD0216A28684FF0F006000703D5BB
:1014A000286800F0F00003E0D5F8940006EA101078
:1014B000814216D9084601F055F9002855D128680F
:1014C00040F0080028602868216A20F0F0000843F6
:1014D00028606868E16920F47F4040EA0120686084
:1014E00015E0286840F0080028602868216A20F08C
:1014F000F000084328606868E16920F47F4040EA12
:1015000001206860206A01F02DF90028D6D1FFF78C
:1015100027FFA96896FAA6F201F0F001B2FA82F26A
:10152000D140CF4A515CC840CE4908600020FFF747
:10153000F3FC2AE0FFF7D6FC801B02287ED828683F
:101540008007F7D5286840F0080028602868216ADD
:1015500020F0F000084328606868E16920F47F40CB
:1015600040EA0120686010E000E0B3E020F00100F4
:101570002860FFF7B7FC064604E0FFF7B3FC801BCA
:101580000228DBD828688007F7D42078C00746D027
:10159000A868C0F3810002281DD0A868C0F38100AC
:1015A000032803D1E868C043800714D06068B0F511
:1015B000803F17D0B0F5A02F286817D020F48030D6
:1015C0002860286820F4802028606068D8B1FFF780
:1015D00089FC064613E02868800320D5606800284F
:1015E00078D01CE0286840F48030EDE740F480209B
:1015F0002860F7E7FFF776FC801B64289ED82868F0
:101600008003F7D50BE0FFF76DFC064604E0FFF71B
:1016100069FC801B642891D828688003F7D420785F
:10162000800747D5A8684FF0F857C0F3810001281C
:1016300016D0A868C0F38100032800E0AAE004D116
:10164000E86800F0030002280AD0E0680028286853
:1016500021D040F480702860FFF744FC06460BE080
:10166000286840050BD5E0680028B9D007E0FFF7EF
:1016700039FC801B022884D828684005F7D56868A3
:1016800097FAA7F22169B2FA82F220F0F85091405D
:10169000084368600EE020F480702860FFF722FCA9
:1016A000064604E0FFF71EFC801B022872D828685B
:1016B0004005F7D42078000728D560690028D5F8C0
:1016C000940012D040F00100C5F89400FFF70AFC26
:1016D000064605E0F6E0FFF705FC801B022859D816
:1016E000D5F894008007F6D510E020F00100C5F889
:1016F0009400FFF7F7FB064604E0FFF7F3FB801BBF
:10170000022847D8D5F894008007F6D420784007FF
:1017100062D5A86D0027C00008D4A86D40F08050A5
:10172000A865A86D012700F0805000904E48016820
:10173000C90511D40168804641F480710160FFF74A
:10174000D1FB064604E0FFF7CDFB801B022821D821
:10175000D8F80000C005F6D5A068012815D00528E6
:10176000D5F8900017D020F00100C5F89000D5F80A
:10177000900020F00400C5F89000A06841F288387D
:10178000C0B1FFF7AFFB06460FE0D5F8900040F080
:101790000100F0E761E040F00400C5F89000F4E7D4
:1017A000FFF7A0FB811B414557D8D5F89000800773
:1017B000F6D50CE0FFF796FB064604E0FFF792FB38
:1017C000811B414576D8D5F890008007F6D41FB12B
:1017D000A86D20F08050A865A06AE8B3A968C1F39D
:1017E000810103296ED00228286820F080702860CB
:1017F00011D02868000106D42868800003D4E86866
:1018000020F00300E860E86818490840E860FFF746
:1018100069FB044651E0FFF765FB064604E0FFF76D
:1018200061FB801B022845D828688001F7D4206B13
:10183000E16A000110380843616BA26B09021209CA
:1018400041EA42410843A18F094A490802EB41514C
:10185000084394F840100DE032E02BE00010024005
:10186000F06400082000002000700040FFFFEEFE42
:101870000000E0FF4908120102EB41610843E86003
:10188000286840F080702860E86840F08070E86068
:10189000FFF728FB044604E0FFF724FB001B0228A7
:1018A00008D828688001F7D50AE0FFF71BFB001B6A
:1018B000022802D90320BDE8F88328688001F4D407
:1018C0000020F8E70120F6E72DE9F041040005D0FB
:1018D0000025A56294F85D0018B107E00120BDE87D
:1018E000F08184F85C50204600F044F8022684F829
:1018F0005D602068016821F040010160E0684FF4FC
:10190000E062904201D9002101E04FF48051B0F52E
:10191000706F02D0904200D0A562276B012327B9D7
:10192000904201D9266300E02363D4E90102104309
:10193000D4E9042632431043228B02F40072104390
:10194000E2691043226A1043A26A104322681060C1
:10195000626B606AA66910430427E26807EA1646CC
:1019600032431043084321684860256684F85D309F
:101970000020B4E770472DE9F05F044690F85C0062
:101980000127DDF828809A4616460D464FF00009DB
:1019900001280ED0012084F85C00FFF7A3FA8346EB
:1019A00094F85D00616801280CD0B1F5827F07D101
:1019B00002E0022000F0F6B8A16809B9042801D0BD
:1019C00002206EE035B32EB3BAF1000F22D094F8A6
:1019D0005D00042802D0052084F85D000020206608
:1019E0002664A4F846A0A4F844A0A563A4F83EA0E9
:1019F000A4F83CA0E0642065E0684FF4E061884210
:101A000003D8B4F84600012806D92068426822F4B9
:101A1000805205E0012044E02068426842F4805290
:101A2000426020680268520603D4026842F0400215
:101A30000260E0688842606844D910B1E08F0128F4
:101A400038D1216835F8020BC860E08F401EE0876E
:101A500030E067B1E08F50B120688168890706D512
:101A600035F8021BC160E08F401EE0870027B4F804
:101A7000460060B120688168C90708D0C06826F8B0
:101A8000020BB4F84600401EA4F846000127B8F146
:101A9000FF3F0FD0FFF726FAA0EB0B01414509D31A
:101AA00003208146012084F85D00002084F85C005A
:101AB00048467FE7E08F0028CBD1B4F846000028E5
:101AC000C7D162E010B1E08F012857D1E08F012823
:101AD00006D9216835F8020BC860E08F801E05E04A
:101AE000216815F8010B0873E08F401EE08745E080
:101AF000AFB1E08F98B12068816889070FD5E18F79
:101B0000012905D935F8021BC160E08F801E04E071
:101B100015F8011B0173E08F401EE0870027B4F821
:101B2000460010B320688168C9071ED0B4F846107B
:101B3000012911D9C06826F8020BB4F84600801EAE
:101B4000A4F84600B4F8460001280DD82068416882
:101B500041F48051416007E0007B06F8010BB4F8C6
:101B60004600401EA4F846000127B8F1FF3F05D00B
:101B7000FFF7B8F9A0EB0B01414591D2E08F0028A7
:101B8000B6D1B4F846000028B2D15A4641462046A4
:101B900000F026FE08B120202066206E00287FF489
:101BA00039AF7FE730BCBDE8C09F4FF0E02104288B
:101BB000086903D020F004000861704740F0040079
:101BC000FAE7704710B5401EB0F1807F01D30120C5
:101BD00010BD4FF0E02460610F21601700F0B0FBF2
:101BE0000020A06107202061002010BD10B5FFF784
:101BF000E8FF10BD7047704730B590F83820012AD3
:101C00001FD0012280F8382003685A689D680E4C66
:101C1000A34202D00D4CA34203D122F470044A68BF
:101C2000224322F070040A688968224325F0800468
:101C300021435A6002689160002180F838100846FC
:101C400030BD022030BD0000002C014000340140B6
:101C500010B5040003D094F8390010B107E001205A
:101C600010BD002084F83800204600F00DF8022056
:101C700084F83900211D206801F01CFD012084F842
:101C80003900002010BD000008B50068144A15494D
:101C900090420ED1886D40F002008865886D012267
:101CA00000F00200009011461D20FFF79FF91D2053
:101CB00010E00D4A904211D1886D40F00400886513
:101CC000886D012200F00400009011461E20FFF7ED
:101CD0008DF91E20BDE80840FFF77DB908BD000062
:101CE0000004004000100240000800400168CA687B
:101CF00042F00102CA600068016841F00101016020
:101D0000002070470168CA6822F00102CA600068BA
:101D1000016A41F21112114207D1016A9210114277
:101D200003D1016821F0010101600020704700002B
:101D300070B5044690F83800012817D0012584F8C2
:101D40003850022084F8390020688268354E3240CD
:101D500022F47F4282600868502838D00DDC2028A9
:101D60005AD005DC90B3102842D152E0022070BD59
:101D7000302854D040283BD140E060282FD0702834
:101D80000CD0B0F5805F03D0B0F5005F30D112E029
:101D900020688168234A703211400AE0CB68D1E99B
:101DA0000121206801F0E2FC20688168314041F0A7
:101DB000770181601CE0CB68D1E90121206801F046
:101DC000D5FC2068816841F48041F2E71EE0CA68D2
:101DD0004968206801F0DCFC5021206806E0CA68F0
:101DE0004968206801F0E5FC6021206801F0C8FC2A
:101DF00084F83950002084F8380070BDCA684968FA
:101E0000206801F0C5FC40212068EFE70021206830
:101E1000ECE710212068E9E720212068E6E730217F
:101E20002068E3E788FFFEFF704770B5044600684E
:101E300001694FF00005C943890715D4C168C9433A
:101E4000890711D4E91E016101202076206880698C
:101E50008007204602D0FFF7E7FF04E000F098F883
:101E6000204600F096F8257620680169C9434907A5
:101E700017D4C168C943490713D46FF00401016145
:101E8000022020762068806910F4407F204602D02E
:101E9000FFF7CAFF04E000F07BF8204600F079F875
:101EA000257620680169C943090716D4C168C9436A
:101EB000090712D46FF00801016104202076206820
:101EC000C0698007204602D0FFF7AEFF04E000F0B3
:101ED0005FF8204600F05DF8257620680169C94367
:101EE000C90617D4C168C943C90613D46FF01001DD
:101EF0000161082020762068C06910F4407F2046E8
:101F000002D0FFF791FF04E000F042F8204600F015
:101F100040F8257620680169C943C90708D1C1681E
:101F2000C943C90704D1891E0161204600F032F877
:101F300020680169C943090609D4C168C943090673
:101F400005D46FF0800101612046FFF753FE206841
:101F50000169C943490609D4C168C943490605D482
:101F60006FF040010161204600F026F82068016909
:101F7000C94389060BD4C168C943890607D46FF0E9
:101F8000200101612046BDE87040FFF734BE70BDFE
:101F90007047704710B50446002240214FF0904032
:101FA000FEF79AFFFEF75FFC024800F0BBFEFFF76A
:101FB000B1F810BD24000020704710B5040003D014
:101FC00094F8690010B107E0012010BD002084F8EA
:101FD0006800204600F026F8242084F86900206874
:101FE000016821F001010160204601F087FC012811
:101FF000EBD0606A10B1204601F0EDFB206841682B
:1020000021F4904141602068816821F02A018160BB
:102010002068016841F0010101602046BDE81040E0
:1020200001F03DBC00B50068124987B088421FD15D
:102030001148816D41F400318165806D694600F47D
:10204000003005900C2000900220019001200290A9
:1020500003200390072004904FF09040FEF74EFEBF
:10206000002211462620FEF7C1FF2620FEF7B3FF0F
:1020700007B000BD0044004000100240FEE7000031
:1020800070B501220B4D540221462846FEF724FF6D
:102090000122160231462846FEF71EFF0022214685
:1020A0002846FEF719FF31462846BDE87040002259
:1020B000FEF712BF0004004870B50A4C012211025D
:1020C0002046FEF709FF4FF40075002229462046FE
:1020D000FEF702FF29462046BDE870400122FEF7C8
:1020E000FBBE00000004004870B50122064D14023A
:1020F00021462846FEF7F0FE21462846BDE87040FE
:102100000022FEF7E9BE00000004004830B51C487C
:1021100087B0C16C41F00201C164C16C01F00201E1
:102120000591C16C41F00801C164C06C154D00F00F
:10213000080005904FF40040CDE9000501246946F0
:1021400002941148FEF7DAFD4FF44070CDE9000526
:10215000694602940D48FEF7D1FD002201211720A7
:10216000FEF744FF1720FEF736FF0022012128204A
:10217000FEF73CFF2820FEF72EFF07B030BD000021
:10218000001002400000211000040048000C00482C
:102190000F4810B5C16C86B041F00101C164C06C3C
:1021A0004FF0904400F0010005900122702120467C
:1021B000FEF792FE70211120CDE90010002102915E
:1021C000039169462046FEF799FD06B010BD000058
:1021D000001002402D4A2E49106808442D498842BB
:1021E00037D2107900F00F0111710A2931D8A2F10C
:1021F0000C000B290ED2DFE801F0433D37312E09E8
:10220000060D403A34009FED240A01E09FED230AB9
:1022100080ED010A517901F00F014B1F5171082B1C
:1022200017D20223491E8B4000EE103AD0ED010A6E
:10223000B8EEC00A80EE201A80ED021A907900F004
:1022400007009071401E042803D292F90700162857
:1022500019DD002070479FED120AD9E79FED110AA2
:10226000D6E79FED110AD3E79FED100AD0E79FED67
:10227000100ACDE79FED0F0ACAE79FED0F0AC7E7E7
:102280009FED0E0AC4E701207047000010000020F7
:1022900080E58FE70192FE1E0000FA4300007A43BA
:1022A0000000FA4200007A4214AE26420000FA41D1
:1022B000D7A3A6417B147A4152B8264185EBF94059
:1022C00010B5124988B0104A0A604FF6FF12002478
:1022D000401E4A60C1E9024008460C61FFF7B8FCA5
:1022E00000280ED14FF48050039003A90748FFF750
:1022F0001FFD002805D10094694604480294FFF7A9
:102300007BFC08B010BD000000040040600000200D
:102310000948084901604FF4E131416000218160C2
:102320000C22C160C0E904128161C1610162416295
:10233000FFF743BE0044004050050020FEE7704711
:102340000907090E002806DA00F00F0000F1E0206E
:1023500080F8141D704700F1E02080F800147047E9
:1023600030B40021084B0A46002003EBC004401C97
:10237000C0B262548028F8D3491CC9B20829F3D3EB
:1023800030BC00F0F1B80000C005002010B57F2877
:1023900016D83F2914D80723A3EBD10301F0070176
:1023A000C1F107040121A140064CDBB204EBC000DF
:1023B000002AC25CC9B201D00A4300E08A43C25479
:1023C00010BD0000C0050020F0B5604887B0C16CAA
:1023D00041F00201C164C16C01F002010591C16CC0
:1023E00041F00801C164C06C4FF4407500F0080072
:1023F00005900126564FCDE9005602246946039404
:102400003846FEF77BFC012229463846FEF764FD7C
:10241000ED0003944F4CCDE9005669462046FEF787
:102420006DFC012229462046FEF756FD0022F102EE
:102430002046FEF751FD0122150329462046FEF7EE
:102440004BFD7820FEF73AFA002229462046FEF797
:1024500043FD7820FEF732FA012229462046FEF796
:102460003BFD0021AE2000F061F90021022000F0C8
:102470005DF90021102000F059F90021402000F002
:1024800055F90021812000F051F90021FF2000F0D2
:102490004DF90021A12000F049F90021C02000F0F1
:1024A00045F90021A62000F041F90021A82000F004
:1024B0003DF900213F2000F039F90021D32000F040
:1024C00035F90021084600F031F90021D52000F04F
:1024D0002DF90021802000F029F90021D92000F0F9
:1024E00025F90021F12000F021F90021DA2000F087
:1024F0001DF90021122000F019F90021DB2000F065
:1025000015F90021402000F011F90021202000F0F1
:102510000DF90021022000F009F900218D2000F0C2
:1025200005F90021142000F001F90021A42000F099
:10253000FDF80021A62000F0F9F80021AF2000F0FE
:10254000F5F8FFF70DFF07B0F0BD000000100240E6
:1025500000040048000C00480346012000E05843F6
:10256000491EC9B2FBD2704770B5104E002505F167
:10257000B000C0B2002100F0D9F80021022000F024
:10258000D5F80021102000F0D1F8002406EBC4009B
:102590000121405D00F0CAF8641CE4B2802CF5D340
:1025A0006D1CEDB2082DE2D370BD0000C005002007
:1025B0002DE9F84F83461E460F468A46580700D03D
:1025C000012000EBD600710810FB01F0203AC0B2E8
:1025D00002F0FF090025009039E00C2E0FD0102EDC
:1025E00011D0182E36D11C4909EBC90001EB80002F
:1025F0004FF00008445D200609D50A9A0AE009EB6D
:1026000049001649F2E7164901EB0910F0E70A986C
:1026100090B1002239465846FFF7B8FE60067F1C8D
:10262000040EFFB2A7EB0A00B04207D10BF1010084
:10263000574600F0FF0B08E00122EBE708F101002C
:1026400000F0FF08B8F1080FD5D36D1CEDB200986B
:102650008542C2D300F006B8925700082E4D0008FC
:10266000A251000818BCBDE8E08F2DE9FF4F81B0F2
:102670000027DDF838B01D46924680463C464FF0B4
:1026800001094FEA5B0627E0281B401EC1B20A2061
:10269000FFF762FFBAFBF0F00A21B0FBF1F201FB99
:1026A000120027B9691E8C4201DA48B10127303087
:1026B000C2B206FB0480C0B25B46CDF8009006E0D3
:1026C00006FB0480C0B25B462022CDF80090029940
:1026D000FFF76EFF641CE4B2AC42D5D305B000F046
:1026E00000B830BCBDE8C08F2DE9F8431F46154641
:1026F0000E4604464FF00109C3F180080FE03B4647
:1027000031462046CDF80090FFF752FF04EB57000A
:10271000C4B2A04502DA0024B61CF6B26D1C2A78B9
:10272000A2F120005E28EAD9BDE8F88370B50C4616
:102730000546FFF7A5FC782000F01AFFFFF7D4FC50
:102740000CB1402000E0002000F012FFFFF7CCFCAD
:10275000284600F00DFFFFF7C7FCBDE87040FFF70B
:10276000ABBC7047F8B51C4E05460024B06DC000E8
:1027700002D5FEF7C7FC0DE0B06D40F08050B065AB
:10278000B06D00F080500090FEF7BCFCB16D21F000
:102790008051B165B0F5007F04D0802D07D94FF08E
:1027A00003040AE0802D08D9A02D01D804E001D14E
:1027B000022402E0702D00D101240848016821F0B4
:1027C000070121430160006800F00700A04201D02A
:1027D0000120F8BD0020F8BD00100240002002409A
:1027E000F8B515460E460B460092044600224FF4FB
:1027F000C05100F019F888B93346002280212046E4
:10280000009500F060F848B9334600224FF4C061EB
:102810002046009500F008F8002804D0206E40F013
:10282000200020660320F8BD2DE9F8431D4616461A
:102830000F4604464FF4C069DDF820803CE04F4568
:1028400005D126B9007B8DF800009DF80000681CBA
:1028500032D02DB1FEF746FBA0EB0800A8422BD3E7
:102860002068416821F0E00141606068B0F5827F36
:102870000BD1A068B0F5004F02D0B0F5806F04D145
:102880002068016821F040010160A06AB0F5005F96
:1028900009D12068016821F40051016020680168B5
:1028A00041F400510160012084F85D00002084F8AB
:1028B0005C000320BDE8F883206881683940B1429C
:1028C000BDD10020F6E72DE9F0411D4617460E4622
:1028D0000446DDF8188034E0681C32D02DB1FEF7D4
:1028E00001FBA0EB0800A8422BD32068416821F02F
:1028F000E00141606068B0F5827F0BD1A068B0F55F
:10290000004F02D0B0F5806F04D12068016821F03B
:1029100040010160A06AB0F5005F09D1206801683C
:1029200021F4005101602068016841F40051016008
:10293000012084F85D00002084F85C000320BDE8DD
:10294000F0812068806836EA000004D00020B84298
:10295000C2D10020F3E70120F9E7704710B520B19C
:10296000002000F06FF9012003E0012000F06AF977
:102970000020BDE8104000F089B9000004210148A2
:10298000FEF7A5BA000400480B4800B5C16C87B03B
:1029900041F00201C164C06C694600F0020005907C
:1029A0000420009000200190029001200390034831
:1029B000FEF7A4F907B000BD001002400004004873
:1029C00002210148FEF783BA000400480D4800B513
:1029D000C16C87B041F00201C164C06C0A4900F0CB
:1029E000020005900220CDE90001029003906946A3
:1029F0000648FEF783F9002201210720FEF7F6FAC8
:102A000007B000BD00100240000011100004004893
:102A10000720FEF7D5BA0720FEF7DDBA0E4800B54D
:102A2000C16C87B041F00401C164C06C694600F01C
:102A300004000590102000900848019002200290A8
:102A400003900748FEF75AF9002201210A20FEF7F9
:102A5000CDFA07B000BD00000010024000001110C8
:102A60000008004810B5FFF7B1FFFFF7D7FFFFF7E9
:102A70008BFF012000F010F8002000F0E3F8BDE823
:102A80001040002000F002B902464FF400414FF020
:102A90009040FEF721BA000030B50F49044687B0D8
:102AA000C86C40F00100C864C86C012100F001004E
:102AB00005908020CDE900010220CDE902104FF001
:102AC000904569462846FEF719F922468021284696
:102AD000FEF702FA07B030BD0010024001B582B027
:102AE0004FF47A700090012301AA02A90248FEF770
:102AF00042FF9DF804000EBDE800002010B50A203A
:102B0000FDF7DCFE0020FFF7C7FF1420FDF7D6FE1F
:102B10000120FFF7C1FFBDE810400A20FDF7CEBE3F
:102B200070B505460A4800F0E2F94FF6FF7000F074
:102B30008AF90848074C007A0E3410B9204600F094
:102B4000F7F921462846BDE8704000F0ECB90000D6
:102B5000D800002010000020F0B585B04FF40040F0
:102B60000125CDE9000500200224CDE902046946D3
:102B70004FF09040FEF7C2F860028DE83100062663
:102B80000C4FCDE9034669463846FEF7B7F8A00278
:102B90000090694604963846FEF7B0F8E0028DE8EA
:102BA0003100CDE9034669463846FEF7A7F805B07F
:102BB000F0BD00000008004838B51F48C16C41F066
:102BC0000101C164C16C01F001010091C16C41F0CF
:102BD0000401C164C16C01F004010091816D41F4F4
:102BE00000418165806D00F400400090FFF7B4FF64
:102BF000134C12484FF4E06120604FF48270606023
:102C00000020C4E902014FF400712061C4E905010C
:102C10001021C4E9071007216062C4E90A0120639A
:102C200060632046FEF750FE00B1FEE720680168B1
:102C300041F04001016038BD00100240003C0040FE
:102C4000E800002030B50F49044687B0C86C40F05A
:102C50000400C864C86C012100F004000590202025
:102C6000CDE900010220CDE90210074D6946284652
:102C7000FEF744F8224620212846FEF72DF907B03A
:102C800030BD0000001002400008004830B50E4979
:102C9000044687B0C86C40F00200C864C86C0121CB
:102CA00000F00200009105900220CDE90210074DCE
:102CB000019169462846FEF721F82246012128465F
:102CC000FEF70AF907B030BD0010024000040048CA
:102CD00010B5012000F00CFB00F090F8012000F08E
:102CE00099FA0020FFF73AFE4FF6FF7000F0ABF8BC
:102CF00000231A4640F2022140F2422000F0DCF9A3
:102D0000002000F01DFB002000F0F1F90021084632
:102D100000F0ADF9BDE81040014800F0D4BA000061
:102D2000FFFF2F0010B50446012000F0E1FA00F08B
:102D300065F8012000F06EFA0120FFF70FFE4FF654
:102D4000FF7000F080F8002340F201201A4601468F
:102D500000F0B2F900F004FA0021084600F087F90B
:102D60000348044A817B2046BDE8104000F073B957
:102D700010000020FFFF2F0001B5012269468920C5
:102D800000F052FB08BD0000174908B5884204D97D
:102D9000E1208DF80000E9201EE01449884204D9A2
:102DA000D7208DF80000D82016E01149884204D9B8
:102DB000C1208DF80000C5200EE00E49884204D9DC
:102DC00075208DF80000812006E00B49884205D966
:102DD0006B208DF800006F208DF8010002226946FB
:102DE000982000F021FB08BD00E9A43580F8A93245
:102DF0008044E52D000B6B1B40FC541910B500F00E
:102E000040F80004000C06D000F014F8BDE81040B3
:102E10007F20FFF7B1BF10BD054810B5007808B19D
:102E2000062801D100F0D0FABDE8104000F0C4BA85
:102E30000400002008B50020009002226946072007
:102E400000F0F2FA08BD08B5010A8DF800108DF8FF
:102E5000010002226946104600F0E6FA08BD10B5EE
:102E6000002140F6021000F000FB40F6441420461A
:102E700000F0C3F840F002012046BDE8104000F029
:102E8000F4BA1CB500200090019002226946172078
:102E900000F093F89DF8000000F001008DF80500A7
:102EA0009DF801009DF80410820962F38611420921
:102EB00062F34511020962F30411C20862F3C3010F
:102EC000820862F38201420862F3410160F300016B
:102ED0008DF80410BDF804001CBD08B50222694637
:102EE000122000F06AF8BDF8000040BA08BD38B5FD
:102EF000044603226946142000F05FF89DF80000A4
:102F00004042401020819DF80100802801D28008B5
:102F100002E0A0F58070801060819DF802004042C0
:102F20004010A08138BD0A780146002000F022B888
:102F300038B5044602226946132000F03EF840F2FC
:102F4000047000F05AF8C00904D040F2027000F09A
:102F500054F801E09DF80000207038BD08B500204D
:102F60008DF8000001226946C02000F026F89DF887
:102F7000000008BD70B515460E460446FFF74CFF2D
:102F80000020FFF781FD1E20FFF7A8FD2046FFF778
:102F9000A5FD0020FFF7A2FD002405E00020FFF7BB
:102FA0009DFD3055641CA4B2AC42F7D30120FFF75D
:102FB0006BFDBDE8704000F0FFB970B515460E46D8
:102FC0000446FFF729FF0020FFF75EFD2046FFF7CC
:102FD00085FD0020FFF782FD002405E00020FFF7BB
:102FE0007DFD3055641CA4B2AC42F7D30120FFF73D
:102FF0004BFDBDE8704000F0DFB908B5012269461D
:1030000000F003F89DF8000008BD70B515460E46A7
:103010000446FFF701FF0020FFF736FD1D20FFF7F4
:103020005DFD200AFFF75AFDE0B2FFF757FD0020D3
:10303000FFF754FD002405E00020FFF74FFD305559
:10304000641CA4B2AC42F7D30120FFF71DFDBDE81C
:10305000704000F0B1B910B514460A460146002090
:1030600000F0C3F92046BDE8104000F070B908B583
:1030700002228DF800008DF8011069468F2000F0C3
:10308000D3F908BD01B5012269469D2000F0CCF9B5
:1030900008BD08B500F007008DF80000080C8DF899
:1030A0000100080A8DF802008DF803100422694619
:1030B000972000F0B9F908BD1CB5040A8DF800404E
:1030C0008DF80100080A8DF80200100A8DF804003E
:1030D0008DF80520180A8DF806008DF803100822D7
:1030E0008DF807306946104600F09EF91CBD01B509
:1030F00001226946A02000F097F908BD7CB50020A8
:10310000164B0090019059798DF8001019798DF8BF
:1031100001109A798DF80220A3F10C020424926820
:10312000B2F1834F00DD01208DF8030040F68905E0
:10313000062928460CD0FFF760FF40F0040128461E
:1031400000F093F9224669468B2000F06DF97CBDB2
:10315000FFF753FF00F0FB01F1E700001000002033
:103160001CB500201B4C009001906079052801D00F
:10317000062804D1A0890C2801D20C20A081A089A6
:103180000622010A8DF800108DF80100207A8DF8D2
:103190000200A07B8DF80300607A8DF80400A07A0D
:1031A0008DF8050069468C2000F03EF9A07A40F2C7
:1031B00036740128204607D0FFF71FFF40F00401B6
:1031C000204600F052F91CBDFFF717FF20F0040164
:1031D000F6E700001000002008B58DF800008DF81B
:1031E00001108DF802208DF80330042269469520E5
:1031F00000F01AF908BD01B59DF8000020B90021C2
:1032000040F2AC6000F031F9012269468A2000F0FA
:103210000BF908BD01B501226946962000F004F9BA
:1032200008BD000010B504461D481E4920442DED80
:10323000028B82B0884204D3012002B0BDEC028B25
:1032400010BD2046FFF7A0FD9FED171B9FED180B4B
:1032500000F0EAFC53EC102B9FED170B51EC100B18
:10326000FCF7EFFF41EC180B2046FDF759F853EC43
:10327000182BFCF7E6FFFDF760F8010E8DF8001043
:10328000010C8DF80110010A8DF802108DF8030071
:1032900004226946862000F0C7F80020CDE7000030
:1032A00080E58FE70192FE1E00000000000039401B
:1032B00000000000000000400000000080847E410B
:1032C000052100F058B838B504464FF6FF70FFF7F7
:1032D000BAFD200C8DF80000200A8DF801008DF851
:1032E000024003226946822000F09EF838BD0000AB
:1032F00031B54FF6FF7401226946802000F094F842
:10330000FFF72CFE9DF800000C4D50B9FFF726FE8C
:10331000C0F30210641E022801D0002CF6D1012057
:1033200009E0FFF71BFEC0F30210641E032801D062
:10333000002CF6D10220287038BD000004000020C7
:1033400001B5012269469F2000F06EF808BD38B52E
:1033500004464FF6FF70FFF776FD200C8DF8000055
:10336000200A8DF801008DF802400322694683206F
:1033700000F05AF838BD38B50D460446162801DD70
:10338000162404E06FF00200844200DA04460123B0
:10339000002207210420FFF71FFF382140F6E70035
:1033A00000F063F88DF800408DF801500222694664
:1033B0008E2000F039F838BD10B5FFF7E5FAFFF7B9
:1033C000DDFA0128FBD010BD10B50020FFF75CFB33
:1033D000C020FFF783FB0020FFF780FB0120FFF7F1
:1033E00053FBBDE81040FFF7E7BF70B515460E462A
:1033F0000446FFF711FD0020FFF746FB0E20FFF704
:103400006DFB2046FFF76AFB002404E0305DFFF708
:1034100065FB641CA4B2AC42F8D30120FFF734FB77
:10342000BDE87040FFF7C8BF2DE9F04115460E46D4
:103430000746FFF7F1FC0020FFF726FB3846FFF7B1
:103440004DFB002404E0305DFFF748FB641CA4B290
:10345000AC42F8D30120FFF717FB842F03D0BDE85F
:10346000F041FFF7A9BFBDE8F08113B5012201A922
:1034700000F001F81CBD70B515460E460446FFF776
:10348000CBFC0020FFF700FB0D20FFF727FB200AF5
:10349000FFF724FBE0B2FFF721FB002404E0305DDE
:1034A000FFF71CFB641CA4B2AC42F8D30120FFF769
:1034B000EBFABDE87040FFF77FBF000010B5FEF7E4
:1034C00089FEC8B3FFF778FBFFF7CCFAFFF716FBCE
:1034D000FFF77AFF0020FFF70BFF40F6D8042046E5
:1034E000FFF78BFD40F01E012046FFF7BEFF0120D5
:1034F000FFF790FEFFF79EFC4FF4A0710520FFF749
:10350000C8FD0120FFF7BEFD2F2140F61110FFF787
:10351000ACFF7F20FFF730FC0120FFF76CFE40F28C
:10352000027409212046FFF7A0FF2046FFF765FD42
:10353000092804D0022010BDFFE70120FBE79621F7
:1035400040F6AC00FFF791FF084C2068FFF76AFED9
:1035500094F90700FFF7B4FE00210846FFF787FD46
:10356000FFF7CCFDFFF7FCFD0020E4E71000002092
:103570002DE9F041134E054600244FF400784FF436
:103580008077002239463046FDF7A6FC280601D593
:10359000012200E0002241463046FDF79DFC012259
:1035A00039463046FDF798FC002239463046FDF793
:1035B00093FC6806641C050EE4B2082CE1D3BDE858
:1035C000F08100000004004810B5FDF791FCBDE853
:1035D0001040FEF70BBB00B597B00220C10103916C
:1035E0001021009004910A900121CDE90B010821DE
:1035F0000D910721CDE90E1010906846FDF72EFFC2
:1036000008B1FDF759F90F20119003201290002006
:10361000139014901590032111A8FDF7ADFD08B18A
:10362000FDF74AF94FF40070FDF712FD08B1FDF700
:1036300043F9FDF75FFE4FF47A71B0FBF1F0FEF74E
:10364000C1FA0420FEF7B1FA00221146501EFDF720
:10365000CDFC17B000BD00000D48016841F47001B9
:1036600001600C48016841F00101016000218160A6
:103670000268094B1A4002608214C260026822F498
:103680008022026081610249C0038039086070476E
:1036900088ED00E000100240FFFFF6EA0148FEF767
:1036A000C4BB0000600000200148FEF7BEBB000064
:1036B0009C0000202DE9F0470268244C244D254E43
:1036C000254F264B4FF0804AA04209D0504507D0E5
:1036D000A84205D0B04203D0B84201D0984204D1EC
:1036E00022F0700C4A6842EA0C02DFF874C0DFF87E
:1036F0007480DFF87490A0420FD050450DD0A842DE
:103700000BD0B04209D0B84207D0984205D06045EE
:1037100003D0404501D0484503D122F44075CA6822
:103720002A4302608A68C2620A688262A04207D0A5
:10373000984205D0604503D0404501D0484501D1AD
:103740000969016301214161BDE8F087002C014056
:103750000004004000080040000C0040003401401C
:1037600000400140004401400048014010B5846819
:1037700042EA032224F47F440A432243826010BDBC
:10378000826822F070020A4342F0070181607047AC
:1037900010B5046A036A23F001030362836923F00E
:1037A000F00343EA021324F00A020A43836102622F
:1037B00010BD10B5036A23F0100303628469036A25
:1037C00024F4704444EA023223F0A00343EA0111D6
:1037D0008261016210BD90F82410C90706D001680B
:1037E0004A68836A22F400321A434A6090F824102F
:1037F000890706D501684A68C36A22F480321A43F1
:103800004A6090F82410490706D501684A68036B9E
:1038100022F480221A434A6090F82410090706D542
:1038200001684A68436B22F400421A434A6090F8E8
:103830002410C90606D501688A68836B22F4805279
:103840001A438A6090F82410890606D501688A68B0
:10385000C36B22F400521A438A6090F82410490680
:1038600011D501684A68036C22F480121A434A6039
:10387000016CB1F5801F06D101684A68436C22F4DF
:10388000C0021A434A6090F82410090606D5016860
:103890004A68806C22F4002202434A607047F8B5FF
:1038A00000250446C566FDF71DFB07462068006835
:1038B0006FF07E46000708D53B4600224FF400110A
:1038C0002046009600F064F960B92068006840075F
:1038D0000AD53B4600224FF480012046009600F0B6
:1038E00057F908B10320F8BD202084F8690084F856
:1038F0006A0084F868500020F8BD00002DE9F0410E
:10390000044600682769A168D4F81CC03943676978
:103910001025002247EA0C073943914B07681646E9
:10392000DFF840C207EA0C070F43076020684168D0
:10393000E76821F44051394341602168A069994208
:1039400001D0276A38438F6827F4306707438F60B8
:10395000854F21688548B9420DD1D0F8880010F014
:10396000030006D001285AD0022856D0032859D186
:1039700057E0012556E07E4FB9420BD1D0F88800C0
:1039800010F00C0047D0042849D0082845D00C2856
:1039900048D146E0774FB9420BD1D0F8880010F0FB
:1039A000300038D010283AD0202836D0302839D1ED
:1039B00037E0714FB9420BD1D0F8880010F0C00049
:1039C00029D040282BD0802827D0C0282AD128E011
:1039D0006A4FB9420ED1D0F8880010F440701AD066
:1039E000B0F5807F1BD0B0F5007F16D0B0F5407FDA
:1039F00018D116E0994215D1D0F8880010F4406033
:103A000009D0B0F5806F0AD0B0F5006F05D0B0F5E1
:103A1000406F07D105E0002504E0022502E00425FF
:103A200000E00825564F4FF40040994244D135B18B
:103A3000022D07D0042D07D0082D10D107E0FDF787
:103A40005FFC03E0384602E0FDF78AFC98B3626849
:103A500002EB4201814202D8B0EB023F01D90126BC
:103A60007BE000276DB1022D0ED0042D13D0082D60
:103A70001AD00126434AA0F540719142EFD821683F
:103A80006AE0FDF73DFC08E050083F490FE00023E5
:103A9000FCF796FBEEE7FDF763FC6268010E03029C
:103AA000500818187941F2E750084FF40001401807
:103AB00047F10001EBE750E0E369834226D1092D8D
:103AC0001DD2DFE805F00508121C151C1C1C18008F
:103AD000FDF716FC01E0FDF72BFC4100606801EBEF
:103AE0005001B1FBF0F082B20AE028496068F6E7C5
:103AF000FDF736FCF1E74FF480316068EFE701260F
:103B000022F00F00C2F342010843B8E7092DA6D204
:103B1000DFE805F006090C05120505051C009EE707
:103B2000FDF7EEFB0AE0FDF703FC07E0606807EB3A
:103B30005002B2FBF0F00EE0FDF712FC01466068A7
:103B400001EB5001B1FBF0F080B298E7626800EB46
:103B50005200B0FBF2F080B2C8603046BDE8F081A0
:103B600000800040F369FFEF003801400010024080
:103B70000044004000480040004C0040005000401D
:103B80000024F400FFFC0F00000024F40048E801CA
:103B90002DE9F0411E46174688460446069D1CE066
:103BA000681C1AD025B1FDF79DF9801BA84214D9D5
:103BB0002068016821F4D07101602068816821F0DB
:103BC00001018160202084F8690084F86A000020E7
:103BD00084F868000320BDE8F0812068C16938EAF4
:103BE000010004D00020B842DAD00020F3E7012021
:103BF000F9E7FEE703B401984100009850EAC120BC
:103C000018BF04204A0D18BF40F0010040F2FF72B7
:103C1000B2EB515F08BF40F00200012808BF052049
:103C200002B07047000000002DE9F04D2DED040BAF
:103C30002DED0E8B96B0DDE92550279CDDF890A088
:103C400025F0004624F00048BAF1000F14BF01210E
:103C5000002101EB4502FC4953184A1093422AD334
:103C6000002814BF0123002303EB44030B44F7494E
:103C70008B4220D358EA00019FEDF59B76D0DFF808
:103C8000D8B35D4503D1BAF1000F05D188E0BAF190
:103C9000000F08BF002100D0012101EB450111F503
:103CA000001F08D8002814BF0121002101EB4401A6
:103CB00011F5001F0BD99DED261B9DED240B16B0B1
:103CC00000F0DABD04B0BDE8F04D00F081BE002781
:103CD000002DBCBFE149884521DAE1498845A8BFEC
:103CE00002271CDAC3451ADCDE4901EB28511429EE
:103CF00008DDC1F1340220FA02F101FA02F2824237
:103D00000DD108E058B9C1F1140228FA02F101FA04
:103D100002F2424503D101F00101C1F1020756EA66
:103D20000A0124D1002C22DA002D18BF022F01D065
:103D3000012F0AD0022000F097FE16B000F0A2BDBD
:103D400004B0BDE8F04D00F02BBE022000F08CFE68
:103D500000F026FE51EC100B81F0004141EC100BFD
:103D600016B000F095BD04B0BDE8F08D18E09FEDF1
:103D7000BEAB9FEDBF8B002871D1B848804522D1E2
:103D800005F1804010F5801008BFBAF1000F07D090
:103D9000B3450ADC002CA8BF9DED260BE0DA0DE050
:103DA000B0EE490AF0EE690ADAE7002C06DA9DED7A
:103DB000260B51EC100B81F000416FE0AE487844C7
:103DC00090ED000BCCE7D8454DD1002C48DA2EB150
:103DD00086423AD1BAF1000F42D126E0BAF1000F83
:103DE00013D0022000F040FE00F00EFE8DED020B1D
:103DF0009DED240B8DED000B10EE900A039961F3FD
:103E00001E0003909DED020BAAE78DED02AB9DED28
:103E1000240B1AEE901A10EE900A8DED000B61F350
:103E20001E0003909DED020B9AE78DED028B9DED38
:103E3000240B18EE901A10EE900A8DED000B61F332
:103E40001E0003909DED020B8AE709DA9DED240B1D
:103E500051EC190B53EC102BFCF7F3F91EE020E0AA
:103E60009DED240B7CE786421BDAB4F1804F0DD028
:103E7000A4F10050B0F1FF5013D1002D11DB9DEDE6
:103E8000240B51EC100B00F01BFF07E09DED240B01
:103E900053EC102B51EC100B00F0C2BC41EC100B9A
:103EA0005EE79DED240B51EC100B00F0E3FDBAF141
:103EB000000FCDE90E0142D19FED710B46B3A6F183
:103EC000E040B0F17F600CD05E4538D1002D00DAC3
:103ED000A7B3022F0CBF01204FF0FF30FCF7FDFB12
:103EE000DCE7002D01DD002C0DDA002D01DD002CBA
:103EF0001FDB002D16DA002C14DB012F08BF9FED0D
:103F0000620B3FF42DAFB0EE4A0AF0EE6A0A27E7E3
:103F1000022F18BF002D0CD0012F0AD1002DFFF663
:103F20001FAF06E0002DB8BF002C08DA012F3FF4C8
:103F300017AFB0EE480AF0EE680A11E71BE0012067
:103F400000EBE57050EA070115D0791EB0EE498A02
:103F5000F0EE698A084308BF9FED4D8B4E4800255F
:103F6000804570DD4D494E48884514DDB0420DDB7B
:103F7000002C19DB2FE0012000F076FD16B000F0D8
:103F80008DBC04B0BDE8F04D00F02EBDB34502DCA1
:103F9000002C09DC1FE0864202DA002C1BDA03E069
:103FA0005E452BDD002C16DD022000F05DFD00F0EB
:103FB0002BFD8DED020B53EC1A2B51EC180BFCF77B
:103FC00000FBCDE900010399019861F31E00039005
:103FD0009DED020BC4E6022000F046FD00F024FD3A
:103FE00010EE901A18EE900A8DED020B8DED008BFD
:103FF00061F31E0003909DED020BB1E69DED0E0BEB
:1040000053EC192B51EC100BFCF7CDFA9FED260B5E
:10401000CDE9080153EC102B9DED080B51EC100B72
:10402000FCF7CFFA9FED221B53EC112BFCF7BEFAE5
:104030009DED081B53EC112BFCF7C3FA9FED1E1BE3
:1040400053EC112B3CE08CE0FFFF1F00FFFF0F0043
:10405000000000000000F03F0000F03F0000F07F93
:104060000000404301FCFFFF000000000000F07F63
:104070000000000000000000FE270000000000001B
:104080000000000000000080000000000000F0FFC1
:10409000000000000000F0BF0000E0410000F0431D
:1040A000FFFFEF3F00000000000000000000D03FD5
:1040B000555555555555D53F000000000000E03FCF
:1040C000FCF774FA9DED080B41EC1A0B53EC102B26
:1040D00051EC100BFCF775FA53EC1A2BFCF771FA44
:1040E00041EC1A0B9FEDFE0B53EC102B9DED080BD2
:1040F00051EC100BFCF765FA41EC1B0B9FEDFA0B32
:1041000051EC1A0B53EC102BFCF75BFA41EC1A0B39
:104110009FEDF70B53EC102B9DED080B51EC100BA2
:10412000FCF74FFA53EC1A2BFCF73DFA41EC1A0B53
:1041300051EC1B0B53EC1A2BFCF794F90690CDE9CC
:1041400006519DED060B53EC1B2B51EC100BFCF7AD
:104150002AFA53EC1A2BFCF729FA41EC100B00F069
:10416000A1B90020B6F5801F0EDA9FEDE30B53ECEA
:10417000102B9DED0E0B51EC100BFCF722FACDE944
:104180000E016FF034000E4600EB2650A0F2FF3710
:10419000C6F31300DA4940F07F6646F04056884285
:1041A000D8BF002408DDD7498142C8BF012403DC01
:1041B0000024A6F580167F1CD348784400EBC40089
:1041C0000F9690ED00CB9DED0E0B53EC1C2B51EC9C
:1041D000100BFCF7E8F99DED0E0B41EC1B0B53ECBB
:1041E0001C2B51EC100BFCF73DF941EC100B51EC82
:1041F000190B53EC102BFCF724F841EC1D0B51EC80
:104200001B0B53EC1D2BFCF7DCF941EC1A0BBF48E0
:104210008DED10AB7844109590ED000B4FF00050F1
:1042200040EA660000EB84408DED080B00F50020AD
:1042300009909DED080B53EC1C2B51EC100BFCF777
:10424000B2F99DED0E1B53EC112BFCF7AFF941ECCD
:10425000100B53EC102B9DED100B51EC100BFCF7D9
:10426000B0F99DED080B41EC1C0B53EC102B9DEDB0
:10427000100B51EC100BFCF7A4F953EC1B2BFCF7C3
:1042800095F953EC1C2BFCF78EF953EC1D2BFCF726
:1042900098F941EC1C0B53EC1A2B51EC1A0BFCF760
:1042A00090F941EC1B0B9A480621B0EE4B0AF0EE58
:1042B0006B0A784400F0F8FAB0EE401AF0EE601A9B
:1042C000B0EE41DAF0EE61DA53EC1B2B51EC1B0B34
:1042D000FCF777F953EC1D2BFCF773F99DED100BF0
:1042E00041EC1B0B53EC1A2B51EC100BFCF7BAF8FA
:1042F00053EC1C2BFCF765F953EC1B2BFCF7B2F8C5
:104300009DED100B41EC1B0B53EC102B51EC100BE3
:10431000FCF757F941EC1D0B9FED7FEB53EC1E2B87
:10432000FCF7A0F853EC1B2BFCF79CF80890CDE9A8
:1043300008519DED080B53EC1E2B51EC100BFCF7B4
:1043400032F953EC1D2BFCF72EF953EC1B2BFCF729
:104350002DF99DED080B41EC1D0B53EC102B9DED41
:10436000100B51EC100BFCF72CF941EC1B0B53EC30
:104370001A2B51EC1D0BFCF724F99DED080B41ECB9
:104380001A0B53EC102B51EC1C0BFCF71AF953ECE5
:104390001A2BFCF767F841EC1A0B51EC1B0B53EC92
:1043A0001A2BFCF75FF80C90CDE90C519DED0C0B2E
:1043B00053EC1B2B51EC100BFCF7F5F853EC1A2BBC
:1043C000FCF7F4F841EC1B0B9FED550B53EC102B55
:1043D0009DED0C0B51EC100BFCF7F3F841EC1A0BB4
:1043E0009FED510B51EC1B0B53EC102BFCF7E9F834
:1043F00041EC1B0B9FED4E0B53EC102B9DED0C0B6A
:1044000051EC100BFCF7DDF853EC1B2BFCF72AF8F2
:1044100041EC100B4848784400EBC40090ED001BC1
:1044200051EC100B53EC112BFCF71CF841EC1B0B5F
:104430003846FCF752F9CDE9080153EC1B2B51EC3F
:104440001A0BFCF70FF841EC100B3C48784400EBDA
:10445000C40090ED00CB51EC100B53EC1C2BFCF77F
:1044600001F89DED081B53EC112BFBF7FBFF0690A9
:10447000CDE906519DED080B53EC102B9DED060B7D
:1044800051EC100BFCF78FF853EC1C2BFCF78BF85E
:1044900053EC1A2BFCF787F853EC1B2BFCF786F830
:1044A00041EC100B9DED261B53EC102B8DED001BEA
:1044B00000959DED260B51EC100BFCF782F89DED5D
:1044C000000B41EC1A0B53EC102B9DED260B51EC1D
:1044D000100BFCF768F89DED061B53EC112B2FE039
:1044E000000000604715F73FFE822B654715F73F38
:1044F00044DF5DF80BAE543E000000000000404376
:104500008E9803007AB60B007A230000A8230000DF
:10451000B22200000000000000000000000008407F
:10452000000000E009C7EE3FFD033ADC09C7EE3F9B
:10453000F5015B14E02F3EBE3E210000F820000094
:10454000FCF73FF853EC1A2BFBF78CFF9DED060BA5
:1045500041EC1A0B53EC102B9DED000B51EC100BA2
:10456000FCF72FF8CDE90C019DED0C0B51EC1A0B6B
:1045700053EC102BFBF776FFCDE902010C46AA495C
:104580008C422FDB611A084318D19DED0C0B53ECC4
:10459000102B9DED020B51EC100BFCF704F841ECD5
:1045A0001B0B9FEDA30B51EC1A0B53EC102BFBF7DD
:1045B00059FF53EC1B2BFCF7A1F82DD2022000F081
:1045C00053FA00F021FA10EE901A18EE900A8DEDD1
:1045D000020B8DED008B61F31E0003909DED020B2D
:1045E000FFF7BEBB944A24F00041914214D3934993
:1045F000214408437FF4EFAC9DED0C0B53EC102BE2
:104600009DED020B51EC100BFBF7CDFF53EC1A2B79
:10461000FCF774F87FF6DFAC24F000408849894A43
:10462000002601EB205182422BDA481C4FF4801106
:1046300021FA00F02044844AC0F30A517A44A1F2DE
:10464000FF3192ED000B814A8DED080BCA4020EA44
:104650000202C0F3130040F48010C1F1140120FAEB
:1046600001F60992002CB8BF76429DED080B53EC81
:10467000102B9DED0C0B51EC100BFBF794FFCDE9CB
:104680000C019DED0C0B51EC1A0B53EC102BFBF7AE
:10469000E9FE9FED6F0B0890CDE9085153EC102B0C
:1046A0009DED080B51EC100BFBF78BFF41EC1B0B46
:1046B0009FED690B53EC102B9DED080B51EC100B8B
:1046C000FBF77FFF9DED0C0B41EC1C0B53EC102B0B
:1046D0009DED080B51EC100BFBF765FF53EC1A2B0B
:1046E000FBF764FF9FED5E1B53EC112BFBF769FF9B
:1046F00053EC1C2BFBF7B6FE41EC1A0B51EC1B0BD9
:1047000053EC1A2BFBF7AEFECDE902019DED020B37
:1047100053EC1B2B51EC100BFBF745FF53EC1A2B02
:10472000FBF744FF9DED020B41EC1A0B53EC102BF1
:1047300051EC100BFBF745FFCDE908014A489DED10
:10474000080B0521784400F0AFF89DED081B51ECF3
:10475000100B53EC112BFBF734FF9DED021B53ECB8
:10476000112BFBF723FFCDE906019DED020B53EC66
:104770001A2B51EC100BFBF724FF53EC1A2BFBF711
:1047800071FE9FED3B0B41EC1A0B53EC102B9DED92
:10479000060B51EC100BFBF706FF9DED060B41ECF1
:1047A0001B0B53EC102B9DED020B51EC100BFBF788
:1047B00008FF53EC1B2BFBF744FD53EC1A2BFBF7C4
:1047C000F2FE9DED021B53EC112BFBF7ECFE53ECBC
:1047D000192BFBF7EBFECDE9020101EB06500115A9
:1047E0000029C8BF039015DC9DED020B324651EC49
:1047F000100BFBF75BFFFFF7FDF9042808BF00F083
:1048000013F932469DED020B51EC100BFBF74EFFF6
:10481000CDE902019DED020B51EC180B53EC102B6E
:10482000FBF7CFFEFFF73ABB00009040000000000E
:10483000FE822B654715973C00CC904000346F3FBB
:1048400001FCFFFF0000E03F801F0000FFFF0F00A2
:1048500000000000432EE63F396CA80C615C20BECE
:10486000EF39FAFE422EE63F501E00000000000025
:104870000000000000000040BDEC088BBDEC06CB42
:10488000FFF720BABDEC088BBDEC06CBFFF758BA9A
:10489000BDEC088BBDEC06CBFFF765BABDEC088B11
:1048A000BDEC06CBFFF76DBB70B504462DED028B5A
:1048B0004D1E00EBC500B0EE408AF0EE608A90ED30
:1048C000000B35F0060017D053EC182B51EC100BF1
:1048D000FBF777FE41EC100B6D1E04EBC50090ED6D
:1048E000001B51EC100B53EC112BFBF7BBFD41EC03
:1048F000100B35F00600E7D1022D36D0042D1CD068
:10490000062D1CBFBDEC028B70BD53EC182B51EC77
:10491000100BFBF756FE94ED0A1B53EC112BFBF723
:10492000A1FD53EC182BFBF74CFE94ED081B53EC48
:10493000112BFBF797FD41EC100B53EC182B51ECAE
:10494000100BFBF73EFE94ED061B53EC112BFBF70F
:1049500089FD53EC182BFBF734FE94ED040B53EC5C
:10496000102BFBF77FFD41EC100B53EC182B51EC97
:10497000100BFBF726FE94ED021B53EC112BFBF7FB
:1049800071FD53EC182BFBF71CFE94ED001B53EC50
:10499000112BFBF767FDBDEC028B41EC100B70BDDA
:1049A0009FED070B10B553EC102B9FED070B51EC4F
:1049B000100BFBF746FC41EC100B10BD0000000093
:1049C0000000000000000000000000000000F03FB8
:1049D00010B553EC112B51EC100BFBF743FD41ECE0
:1049E000100B10BD000000009FED050B10B553EC3F
:1049F000102B51EC100BFBF724FC41EC100B10BDFD
:104A000000000000000000009FED050B10B553EC06
:104A1000102B51EC100BFBF7D4FD41EC100B10BD2B
:104A200000000000000000709FED050B10B553EC76
:104A3000102B51EC100BFBF7C4FD41EC100B10BD1B
:104A4000000000000000001002E008C8121F08C1AA
:104A5000002AFAD170477047002001E001C1121FFF
:104A6000002AFBD170470000014908607047000030
:104A70005C00002082B0CDE9000121F000400190EF
:104A80009DED000B02B051EC100B704708B5FCF720
:104A900037FAFEF7A0FDFDF77BFBFDF737FBFBF7D1
:104AA000BBFEFDF791FCFDF733FC6C4800686C49D8
:104AB00008600420087109204871022088711620BE
:104AC000C8710020087201204872002088720820F6
:104AD00088810A208873FEF7F1FC58B109E0FDF7E0
:104AE0003FFC18235FA200210846FDF7FDFDFDF7FE
:104AF0003BFDF4E75A484079401F082825D2DFE8FB
:104B000000F004080C1014181C20052057490870E8
:104B10001BE006205549087017E00720534908702C
:104B200013E00820514908700FE009204F49087030
:104B30000BE00A204D49087007E00B204B49087034
:104B400003E00C204949087000BF00BF0C2348A2B5
:104B500000210846FDF7C8FD0C20009040480923BD
:104B6000002102683020FDF780FD0C2345A2194684
:104B70000020FDF7B9FD0C20022300903B4802788D
:104B80000C211220FDF771FD0C233FA219462A20AB
:104B9000FDF7AAFD0C20032300903C4890ED000A8D
:104BA000BCEEC00A10EE102A0C213C20FDF75DFD82
:104BB0000C2337A21A210020FDF796FD0C2336A204
:104BC0001A213C20FDF790FD0C2335A22C2100205A
:104BD000FDF78AFD0C2003230090324802882C2127
:104BE0000C20FDF742FD0C232FA22C212420FDF7E1
:104BF0007BFD0C20032300902C4802882C213020C0
:104C0000FDF733FD0C232AA22C214820FDF76CFD73
:104C10000C2003230090274802882C215420FDF704
:104C200024FDFDF7A1FC00224FF480612248FCF72F
:104C300053F901218803FCF77DFA4FF4FA60FDF780
:104C40003FFB1E48FDF75EF81C48FDF74FF803E0F8
:104C5000FCF768FAFDF788FCFAE700003000002056
:104C6000100000204552526F520000004A00002000
:104C70004C4F52412D54583A2020202020202020F3
:104C800020487A0053463A0042573A000800002074
:104C9000534E523A00000000525353493A0000006C
:104CA000543A000044000020523A00004600002020
:104CB000453A000048000020000C00486000002039
:104CC00000B52DED048B83B041EC190BFBF752FDC1
:104CD00041EC180B18EE100A18EE901A8DED008BAF
:104CE000002818BF0120084320F00040C0F17F6079
:104CF00000F1E040C00F14D019EE101A19EE900A1E
:104D00008DED009B002918BF0121084320F00040D1
:104D1000C0F17F6000F1E040C00F04BF0120FFF749
:104D2000A3FE51EC180B03B0BDEC048B00BD0000DA
:104D300000000000000000000000000000003F40F4
:104D40000000000000000000300040003000400083
:104D5000000009000BC03D000BC03D00090018C059
:104D600024407FE0224031800000180024C01B0056
:104D70000D803240018003801C4027401C8007408A
:104D80000040100060000000000000000000000073
:104D9000000000001F8020404020000040202040F4
:104DA0001F8000000000090006001F8006000900A7
:104DB0000000040004003F80040004000000001014
:104DC0000060000000000000000004000400040077
:104DD000040004000000000000400000000000008B
:104DE0000000002001C006003800400000001F80C5
:104DF0002040204020401F800000000010403FC0A5
:104E000000400000000018C021402240244018400B
:104E1000000010802040244024401B80000002003D
:104E20000D0011003FC0014000003C8024402440A0
:104E30002440238000001F8024402440344003800D
:104E400000003000200027C03800200000001B8038
:104E50002440244024401B8000001C0022C022402B
:104E600022401F80000000000000084000000000F9
:104E700000000000000004600000000000000000CE
:104E800004000A00110020804040090009000900C8
:104E900009000900000000004040208011000A00C5
:104EA00004001800200023402400180000001F8088
:104EB0002040274029401F400000004007C0390023
:104EC0000F0001C0004020403FC0244024401B8010
:104ED00000001F8020402040204030800000204003
:104EE0003FC0204020401F80000020403FC02440A1
:104EF0002E4030C0000020403FC024402E00300033
:104F000000000F001080204022403380020020402B
:104F10003FC0040004003FC02040204020403FC06C
:104F20002040204000000060202020203FC02000C2
:104F3000200020403FC024400B0030C020402040D3
:104F40003FC020400040004000C03FC03C0003C0C4
:104F50003C003FC0000020403FC00C4023003FC049
:104F600020001F802040204020401F800000204063
:104F70003FC024402400180000001F802140214031
:104F800020E01FA0000020403FC02440260019C0A0
:104F9000004018C0244024402240318000003000EE
:104FA00020403FC020403000000020003F800040F3
:104FB00000403F80200020003E0001C00700380074
:104FC0002000380007C03C0007C038000000204027
:104FD00039C0060039C0204000002000384007C01A
:104FE000384020000000304021C02640384020C01A
:104FF0000000000000007FE0402040200000000092
:1050000070000C00038000400000000040204020A1
:105010007FE00000000000002000400020000000B1
:105020000000001000100010001000100010000020
:105030000000400000000000000000000280054069
:10504000054003C0004020003FC0044004400380EE
:1050500000000000038004400440064000000000FF
:105060000380044024403FC000400000038005400E
:10507000054003400000000004401FC024402440BD
:105080002000000002E0055005500650042020409A
:105090003FC00440040003C000400000044027C09B
:1050A00000400000000000100010041027E0000085
:1050B000000020403FC00140070004C004402040E1
:1050C00020403FC000400040000007C0040007C06F
:1050D000040003C00000044007C00440040003C0F3
:1050E00000400000038004400440038000000410DE
:1050F00007F00450044003800000000003800440D7
:10510000045007F00010044007C0024004000400EF
:105110000000000006400540054004C000000000FB
:1051200004001F800440004000000400078000408D
:10513000044007C000400400070004C001800600CE
:105140000400060001C0070001C006000000044082
:1051500006C0010006C0044000000410071004E06F
:105160000180060004000000044005C00640044021
:1051700000000000000004007BE040200000000070
:1051800000000000FFF000000000000040207BE075
:1051900004000000000040008000400020002000CB
:1051A00040000000000000000000000000000000BF
:1051B00000000000000000001FCC000C00000000F8
:1051C00000000000080030006000080030006000AF
:1051D0000000022003FC1E20022003FC1E200220EF
:1051E000000000000E1811043FFF10840C7800002E
:1051F00000000F0010840F3800C007781884007872
:10520000000000780F8410C411240E9800E400847C
:1052100000080800680070000000000000000000A6
:10522000000000000000000007E018182004400201
:105230000000000040022004181807E000000000F1
:1052400000000240024001800FF001800240024055
:1052500000000080008000800FF800800080008047
:1052600000000001000D000E000000000000000022
:10527000000000000080008000800080008000802E
:1052800000800000000C000C000000000000000086
:1052900000000000000600180060018006001800F1
:1052A0002000000007F0080810041004080807F0A8
:1052B00000000000080408041FFC000400040000B3
:1052C000000000000E0C10141024104411840E0C69
:1052D000000000000C1810041104110412880C7056
:1052E0000000000000E00320042408241FFC002428
:1052F000000000001F981084110411041088107021
:105300000000000007F008881104110418880070DC
:10531000000000001C00100010FC13001C00100016
:10532000000000000E3811441084108411440E381F
:10533000000000000700088C10441044088807F0A3
:105340000000000000000000030C030C000000003F
:105350000000000000000001010600000000000045
:105360000000000000800140022004100808100422
:10537000000002200220022002200220022002203F
:105380000000000010040808041002200140008002
:10539000000000000E001200100C106C10800F00B6
:1053A000000003E00C1813E4142417C4082807D0E5
:1053B00000000004003C03C41C40074000E4001C43
:1053C000000410041FFC1104110411040E88007065
:1053D000000003E00C1810041004100410081C1046
:1053E000000010041FFC100410041004080807F04B
:1053F000000010041FFC1104110417C41004081845
:10540000000010041FFC1104110017C01000080058
:10541000000003E00C181004100410441C78004035
:10542000000010041FFC10840080008010841FFC0A
:1054300010040000100410041FFC100410040000ED
:10544000000000030001100110011FFE10001000F9
:10545000000010041FFC110403801464181C1004C5
:10546000000010041FFC1004000400040004000CE1
:10547000000010041FFC1F0000FC1F001FFC100494
:10548000000010041FFC0C04030000E010181FFCB7
:10549000100007F00808100410041004080807F0B2
:1054A000000010041FFC10841080108010800F007A
:1054B000000007F0081810241024101C080A07F236
:1054C000000010041FFC1104110011C011300E0C5B
:1054D000000400000E1C11041084108410441C38B9
:1054E00000001800100010041FFC10041000180029
:1054F000000010001FF810040004000410041FF83E
:10550000100010001E0011E0001C007013801C0031
:1055100010001FC0103C00E01F0000E0103C1FC046
:1055200000001004180C163401C001C01634180C09
:10553000100410001C00130400FC13041C001000D5
:1055400000000804101C1064108413041C041018BC
:1055500000000000000000007FFE40024002400208
:105560000000000030000C0003800060001C0003FD
:10557000000000004002400240027FFE00000000E8
:10558000000000000000200040004000400020001B
:105590000000000100010001000100010001000104
:1055A000000100004000400020000000000000005A
:1055B000000000000098012401440144014400FC63
:1055C000000410001FFC0088010401040088007022
:1055D000000000000070008801040104010400883C
:1055E00000000000007000880104010411081FFC85
:1055F0000004000000F8014401440144014400C8D3
:1056000000000000010401040FFC1104110411004A
:105610001800000000D601290129012901C901064D
:10562000000010041FFC008401000100010400FCC4
:10563000000400000104190419FC00040004000027
:1056400000000000000300010101190119FE000023
:10565000000010041FFC0024004001B4010C0104F0
:1056600000000000100410041FFC000400040000EF
:105670000000010401FC0104010001FC010401001F
:1056800000FC010401FC008401000100010400FC95
:105690000004000000F8010401040104010400F802
:1056A0000000010101FF0085010401040088007071
:1056B000000000000070008801040104010501FFE2
:1056C00000010104010401FC0084010401000180C7
:1056D0000000000000CC01240124012401240198D1
:1056E000000000000100010007F8010401040000AF
:1056F0000000010001F8000400040004010801FC9E
:105700000004010001800170000C001001600180A4
:10571000010001F0010C003001C00030010C01F06B
:10572000010000000104018C00740170018C01046F
:105730000000010101810171000E0018016001806B
:10574000010000000184010C013401440184010CBA
:105750000000000000000000000001003EFC4002CC
:1057600040020000000000000000FFFF00000000F9
:1057700000000000400240023EFC0100000000006A
:105780000000000060008000800040004000200019
:1057900020000000000000000000000000000000E9
:1057A00000000000000000000000000000000000F9
:1057B00000000000000000000000000000000000E9
:1057C00000000000000F80380FFE380F8038000006
:1057D00000000000000000000000000000000000C9
:1057E0000100000600000C00003800003100000637
:1057F00000000C0000380000300000000000000035
:10580000000061800067F807F98000618000618016
:105810000061800061800067F807F9800061800006
:10582000000000000000000001C0E003E0F00630CE
:10583000080418081FFFFE040E080787F00381E024
:1058400000000000000001F000060C00040408063F
:105850000C7001F9C0000E00003BE000EC180708D6
:1058600008040C180003E00000000001E00007F04D
:1058700003F818041C0804170807E1D003C0E0006F
:1058800023B0003C080020080000100000000000C9
:10589000000100003100003200001C000000000088
:1058A00000000000000000000000000000000000F8
:1058B00000000000000000000000000000000000E8
:1058C00000007F0001FFC00780F00C0018100004EA
:1058D0002000020000000000002000021000040C64
:1058E00000180780F001FFC0007F000000000000EA
:1058F0000000000000000000000000000000420066
:10590000006600006600003C0000180003FFC000B5
:105910001800003C00006600006600004200000025
:10592000000008000008000008000008000008004F
:1059300001FFC00008000008000008000008000087
:1059400008000000000000010000310000320000EB
:105950001C0000000000000000000000000000002B
:105960000000000000000000000008000008000027
:1059700008000008000008000008000008000008F7
:105980000000080000080000000000000000000007
:10599000000038000038000038000000000000005F
:1059A00000000000000000000000000000000000F7
:1059B0000000000600001C000070000180000E00C6
:1059C00000380000C0000700001C0000300000008C
:1059D0000000000000007F8001FFE00380700600EF
:1059E0001804000804000806001803807001FFE096
:1059F000007F80000000000000000000010008019E
:105A0000000801000803FFF807FFF8000008000085
:105A10000800000800000000000000000001C0387D
:105A200002C058040098040118040218040418065F
:105A30001C1803F81801E0F8000000000000000046
:105A40000001C0E003C0F0040008040808040808CE
:105A500006180803F41801E7F00001E00000000058
:105A60000000000000000300000D000011000061B4
:105A70000000810803010807FFF80FFFF800010884
:105A80000001080000000000000000E007FCD00654
:105A90000808061008061008061008061838060F31
:105AA000F00607C0000000000000000000003F807A
:105AB00001FFE003843002081804100804100804F1
:105AC0001008071810030FF00007C00000000000C6
:105AD0000000000003C0000700000600000600F8F8
