:020000040800F2
:10000000800A00209D010008FB200008511F000805
:10001000F9200008E1070008AF39000800000000DF
:10002000000000000000000000000000B3290008EC
:10003000EF0700080000000013250008A93700089A
:10004000B7010008B7010008B7010008B7010008B0
:10005000B7010008B7010008F1070008FF07000812
:10006000B70100081708000819080008B7010008C0
:10007000B7010008B7010008B7010008B701000880
:10008000B7010008B7010008B7010008B701000870
:10009000B7010008B7010008B701000831080008DF
:1000A000B7010008B7010008B7010008B701000850
:1000B000B70100087538000881380008B70100084A
:1000C000B7010008B7010008B7010008B701000830
:1000D000B7010008B7010008B7010008B701000820
:1000E000F7070008B7010008B7010008B7010008CA
:1000F000B7010008B7010008B7010008B701000800
:10010000B7010008B7010008B7010008B7010008EF
:10011000B7010008B7010008B7010008B7010008DF
:10012000B7010008B7010008B7010008B7010008CF
:10013000B7010008B7010008B7010008B7010008BF
:10014000B7010008B7010008B7010008B7010008AF
:10015000B7010008B7010008B7010008B70100089F
:10016000B7010008B7010008B7010008B70100088F
:10017000B7010008B7010008B7010008000000003F
:10018000B7010008B7010008DFF80CD000F080FAD2
:1001900000480047FD470008800A002006488047C5
:1001A00006480047FEE7FEE7FEE7FEE7FEE7FEE75C
:1001B000FEE7FEE7FEE7FEE73138000889010008A8
:1001C00030B504460020034600E05B1C934203D296
:1001D000E05CCD5C401BF8D030BD2DE9FE4F81EADC
:1001E000030404F0004421F0004100944FF0000BA0
:1001F00023F0004350EA01045ED052EA03045BD0CE
:10020000C3F30A54C1F30A552C44A4F2F334019405
:10021000A0FB0254C1F3130141F48011C3F3130393
:1002200043F4801301FB024400FB034E840A970A47
:1002300044EA815447EA8357A4FB076802958D0A74
:1002400005FB07854FEA932C04FB0C542705029D00
:100250004FEA065847EA1637B5EB08056EEB070C70
:10026000870E920E47EA811742EA8312A7FB02012A
:10027000B6EB0B0164EB00042B0D43EA0C335E1864
:1002800044EB1C50DA465146E7FB0201C5F3130468
:100290004FEA0B3343EA14534FEA0432019C43EA1A
:1002A0000603A4F10C040294009CCDE900B400F014
:1002B000BAF803B0BDE8F08F00200146F9E72DE958
:1002C000F04D81EA030404F0004B21F00045144690
:1002D0004FF0000A23F0004150EA050220D054EA12
:1002E00001021DD0C5F30A570246C5F31303C1F33B
:1002F0001300C1F30A5640F4801543F48013A7EBB2
:100300000608101BD64608F2FD3873EB050002D331
:1003100008F1010801E092185B41B8F1000F03DA1F
:1003200000200146BDE8F08D00204FF48011064604
:1003300084460EE0171B73EB050705D3121B63EB16
:10034000050306434CEA010C49084FEA30009218B5
:100350005B4150EA0107EDD152EA030012D082EA74
:10036000040083EA0501084305D0101BAB4106D207
:100370000122002306E000224FF0004302E06FF06C
:10038000010253101AEB06004CEB085110EB0A0067
:1003900041EB0B01BDE8F04D00F036B80EB540F270
:1003A000334102910021CDE900110A460B4600F0CD
:1003B0003AF803B000BDC1F30A5210B5C1F31301FE
:1003C00040F2FF3341F480119A4201DA002010BD5F
:1003D00040F233439A42A2F2334203DC524200F02D
:1003E00003F810BD904010BD202A04DB203A21FA0A
:1003F00002F00021704721FA02F3D040C2F120023E
:10040000914008431946704710B5141E73F100045B
:1004100008DA401C41F1000192185B411A4301D1F6
:1004200020F0010010BD2DE9F04D92469B4611B120
:10043000B1FA81F202E0B0FA80F22032904600F088
:1004400039F904460F4640EA0A0041EA0B015346D7
:100450005A46084313D0114653EA010019D0C8F197
:1004600040025046FFF7C0FF05460E46504659462B
:10047000424600F01FF9084305D0012004E0204661
:100480003946BDE8F08D0020054346EAE0762C436E
:1004900037430A986305E40AA0EB08000022FD0A2E
:1004A00044EA47540A3002D500200146E9E7010535
:1004B00010196941DDE9084500196941BDE8F04DB1
:1004C000A2E72DE9FE4F804681EA0300C00F0C46EB
:1004D000009021F0004123F00045B8EB0200A94153
:1004E00005D24046214690461C460B46024623F064
:1004F0000040104347D0270DC7F30A00C3F30A5149
:100500000290401A019040286BDAC3F3130040F4C4
:10051000801B0098924620B10023D2EB030A63EBC4
:100520000B0B01985946C0F14002504600F0C2F84A
:1005300006460D4650465946019A00F0CAF810EB9F
:1005400008006141002487EA115284EAE7731A43E4
:1005500040D0009A62B3019A012A4FEA075215DC93
:10056000001B61EB02014FF0004202EA0752CDE9A5
:100570000042001C41F5801132462B46FFF753FF25
:1005800003B0BDE8F08F40462146F9E7001B61EB60
:100590000201001C41F5801300185B412018A2F5F0
:1005A000001747EB030140EAD570B6196D4111E021
:1005B0006D084FEA360645EAC0754FEA0752001B40
:1005C00061EB0201001C41F5801149084FEA30003F
:1005D0000019514132462B4603B0BDE8F04FFFF7FA
:1005E00013BF0098012240000023D0EB020263EB0E
:1005F000E073009821464FEAE074B8EB000061EB2D
:100600000401E9E783F000435BE781F0004158E72C
:1006100070B521F0004303430CD0C1F30A55002408
:10062000D5EB040564EB0403D617AD1AB34102DB26
:100630000020014670BD201841EB025170BD0EB57F
:10064000C10F80EAE0700844CA07002140F233433A
:100650008DE80E000A460B46FFF7E5FE03B000BD2D
:1006600030B5041E71F1000404DB4FF00044404239
:1006700064EB0101141E73F1000405DB1C464FF00E
:100680000043524263EB0403994208BF904230BDDD
:10069000064C074D06E0E06840F0010394E80700CF
:1006A00098471034AC42F6D3FFF772FD206400087F
:1006B00040640008202A04DB203A00FA02F10020FE
:1006C00070479140C2F1200320FA03F31943904090
:1006D0007047202A06DBCB17203A41FA02F043EAA2
:1006E000E07306E041FA02F3D040C2F120029140EB
:1006F0000843194670472DE9F04D00231A461B1A8E
:100700008A4103DB00200146BDE8F08DC1F30A52A7
:10071000C1F3130141F480154FF0000BD10702D152
:1007200000186D41521E0027044640F2FF11384662
:1007300001EB620A3E468046024600204FF48011DB
:10074000FFF752FEC2197141BB1846EB0100B4EB32
:10075000030C75EB000C04D3E41A65EB0005174697
:100760000E46241908F101006D4180463428E3DD6E
:10077000F91946EB0600091BA84103D24FF0FF32DE
:10078000134601E0002213461BEB070046EB0A511B
:10079000BDE8F04DFFF738BE30B50F4887B0C16CEB
:1007A00041F00801C164C06C4FF4806400F008009F
:1007B00005900120CDE900400020084D02900390F3
:1007C0006946284600F040F900222146284600F0FC
:1007D00026FA07B030BD000000100240000C0048AF
:1007E000FEE702F041B902F042B902F015B97047D4
:1007F000012000F01DB94FF4004000F019B910B508
:10080000072000F07FFA022000F012F9BDE8104046
:10081000072000F082BA704710B50A2000F072FA83
:10082000102000F005F9BDE810400A2000F075BA6C
:100830004FF4407000F0FCB870B5044600F0F4F9D5
:100840000546601C00D0641C00F0EEF9401BA0427D
:10085000FAD370BD2DE9F843DFF8B4914FF40048A6
:100860004146484600F0D6F96A4D00276A4C0C26EE
:10087000F0BB3220FFF7E0FF4146484600F0CAF9DE
:10088000B0BB664801F01AFA6078401CC0B26070D4
:10089000012804D002280AD0032810D136E04FF4F2
:1008A0009650A86041F28830E860800006E04FF47E
:1008B0001640A86049F64040E860800068610096F4
:1008C00006230C213020AA6801F0AAFD0096062319
:1008D00018211E20EA6801F0A3FD009606232421BA
:1008E0003C206A6901F09CFD01F01CFD607800E08D
:1008F00002E0032800D96770DFF824814FF4807983
:100900004946404600F086F930B129E04548A860E4
:100910004010E8608000D1E73220FFF78DFF4946A4
:10092000404600F077F9D8B93C4801F0C7F9FFF725
:1009300058FFA0783849401C40B27031A07051F87F
:1009400020202A60092300212A20009601F068FD5A
:1009500001F0E8FC94F90200042801DBFF20A070FC
:100960004FF4007949464546404600F053F988BBAC
:100970003220FFF761FF4946284600F04BF948BB9B
:1009800002F06AFE50B101F0C9FB0021182326A233
:10099000084601F081FD01F0C5FCF4E7A780E7807F
:1009A00027813A46032330210C20009601F038FDC0
:1009B000009630210323E288084601F031FD0096BD
:1009C000032322893021542001F02AFDFFF70BFF79
:1009D00002F0BAF8FFF709FF012816D102F0D1FAA8
:1009E00005464FF6FF7002F082FAE80701D00220B8
:1009F0000AE005F04200022805D0FFF7F4FEBDE84A
:100A0000F84302F0A1B80120E070BDE8F8830000CF
:100A1000000400481000002038000020C000002022
:100A2000000C004890D0030045526F5200000000B7
:100A3000044910B50A68024202D00860FFF70AFFB5
:100A400010BD0000140401402DE9F84FDFF8A0911B
:100A5000002209F1040A0AF1040B4FF00F080BF110
:100A6000040EBEE001249440234075D04D68022D51
:100A700001D0122D11D1D50800EB85073E6A55072C
:100A8000ED0E08FA05FC26EA0C06D1F810C00CFAA7
:100A900005FC4CEA060CC7F820C007685500032681
:100AA00091F804C0AE400CF0030CB7430CFA05FCFF
:100AB0004CEA070CC0F800C04F68012F05D0022F88
:100AC00003D0112F01D0122F15D18768D1F80CC097
:100AD000B7430CFA05FC4CEA070CC0F808C047689D
:100AE00091F804C0A743CCF3001C0CFA02FC4CEABA
:100AF000070CC0F804C0D1F804C06FEA0C07BF07A8
:100B000006D1C76AA743CCF3C00494403C43C462F7
:100B1000C468B4438E68AE402643C6604C68E400A7
:100B20005ED5344C256E45F001052566246E22F015
:100B3000030504F0010400942F4C2E19B7689407A4
:100B4000250F08FA05F4A743B0F1904F05D02B4CC0
:100B5000A04204D101241CE042E0002419E0284C0A
:100B6000A04201D1022414E0264CA04201D103246A
:100B70000FE0254CA04201D104240AE0234CA042FE
:100B800001D1052405E0224CA04201D1062400E059
:100B90000724AC403C43B460D9F800404D464E6851
:100BA0009C43F60300D51C432C60DAF80040554600
:100BB0004E689C43B60300D51C432C60DBF8004014
:100BC0005D464E689C43F60200D51C432C60DEF85F
:100BD000004075464E689C43B60200D51C432C600D
:100BE000521C0B6833FA02F47FF43CAFBDE8F88F77
:100BF00000040140001002400000014000040048D1
:100C000000080048000C004800100048001400488C
:100C1000001800480069084000D0012070470AB160
:100C20008161704781627047014800687047000029
:100C30000000002002480168491C01607047000064
:100C40000000002010B5032000F092F8002000F012
:100C500005F800F017F8002010BD000010B504469C
:100C600007484FF47A710068B0FBF1F000F091FF93
:100C700000222146501E00F05BF8002010BD00004D
:100C8000340000201E4808B5016E41F001010166E4
:100C9000016E01F001010091816D41F0805181658B
:100CA000806D00F080500090032000F061F8002279
:100CB00011466FF00B0000F03BF8002211466FF078
:100CC0000A0000F035F8002211466FF0090000F02C
:100CD0002FF800221146501F00F02AF8002211467A
:100CE000101F00F025F800221146901E00F020F899
:100CF0000022BDE808401146501E00F019B800005F
:100D00000010024000F01F020121914040098000C4
:100D100000F1E020C0F88011704700F01F020121AF
:100D200091404009800000F1E020C0F800117047B8
:100D3000F0B40E4B1B68C3F30223C3F10704042C69
:100D400000D904241D1D072D01D2002300E0DB1E65
:100D5000012606FA04F56D1E0D409D409E40761E4C
:100D6000164045EA0601F0BC01F0C8B90CED00E000
:100D7000064A00F0070110684FF6FF03184040EAEA
:100D80000120034908431060704700000CED00E0AB
:100D90000000FA051549B0F5007F0868C0F341204E
:100DA00009D0022805D0086820F4C06040F48060B3
:100DB0000860002070470128FBD0086820F4C0605C
:100DC00040F4007008600A480A4A0068B0FBF2F07C
:100DD0003222504300E0401E10B14A695205FAD455
:100DE00048694005E5D503207047000000700040C9
:100DF0003400002040420F000248006800F4C06048
:100E000070470000007000402DE9F84F04460025AF
:100E10000088E44E2F46010504F1200B1DD5606EBD
:100E200078B1B0F5800F11D0B0F5000F04D0B0F557
:100E3000400F22D001250FE0F06840F48030F060D0
:100E40001BE00021201D01F065FB03E00021584656
:100E500001F016FC050010D02F462088C00426D5CE
:100E6000A06EC0B1B0F1807F1AD0B0F1007F0DD07C
:100E7000B0F1407F19D0012518E0D6F88800616EE6
:100E800020F440000843C6F88800E6E7F06840F424
:100E90008030F06009E00021201D01F03BFB03E001
:100EA0000021584601F0ECFB0546F5B12F462068BD
:100EB000800366D5B06D4FF00009C00009D4B06D55
:100EC00040F08050B065B06D4FF0010900F08050E7
:100ED0000090DFF8D4A2DAF8001041F48071CAF86B
:100EE0000010FFF7A1FE804610E0D6F88800A16E42
:100EF00020F040700843C6F88800D8E7FFF794FE5A
:100F0000A0EB0800022801D9032532E0DAF800003E
:100F1000C005F3D56DBBD6F8900010F4407015D025
:100F2000D4F88410814211D0D6F89000D6F89010F1
:100F300020F4407041F48031C6F89010D6F890103B
:100F400021F48031C6F89010C6F89000C0074ED04A
:100F5000FFF76AFE804641F2883A05E0FFF764FE3B
:100F6000A0EB08015145CFD8D6F890008007F5D501
:100F7000EDB32F46B9F1000F03D0B06D20F08050D3
:100F8000B0652078C00707D0D6F88800A16B20F0A4
:100F900003000843C6F888002078800707D5D6F8F4
:100FA0008800E16B20F00C000843C6F88800207828
:100FB000400707D5D6F88800216C20F030000843A0
:100FC000C6F888002078000707D5D6F88800616C3D
:100FD00020F0C0000843C6F888002078C00609D574
:100FE000D6F88800A16C20F44070084300E05AE075
:100FF000C6F888002078800607D5D6F88800E16C0E
:1010000020F440600843C6F888002088800507D592
:10101000D6F88800E16D20F440200843C6F8880027
:101020002088400507D5D6F88800216E20F44010AE
:101030000843C6F888002078400607D5D6F888000F
:10104000216D20F440500843C6F88800207800063F
:1010500007D5D6F88800616D20F440400843C6F8F3
:1010600088002088C00507D5D6F88800A16D20F437
:1010700040300843C6F8880020884FF0006580049F
:101080004FF0806821D5D6F88800E16E20F04060EE
:101090000843C6F88800E06EA8420ED1F06840F41C
:1010A0008010F06011E0D6F89000D4F8841020F49D
:1010B00040700843C6F890005CE7404505D1012127
:1010C000201D01F027FA00B107462068000317D55C
:1010D000D6F88800216F20F040600843C6F88800E9
:1010E000206FA84204D1F06840F48010F06007E05F
:1010F000404505D10121201D01F00CFA00B1074641
:101100002068400317D5D6F88800616F20F0406052
:101110000843C6F88800606FA84204D1F06840F424
:101120008010F06007E0404505D10121201D01F04D
:10113000F1F900B10746208840041AD5D6F8880096
:10114000A16F20F040500843C6F88800A06FB0F1AE
:10115000805F03D0B0F1005F05D00AE00221201DBE
:1011600001F0D8F903E00221584601F089FA00B1F4
:1011700007462088000407D5D6F88800E16F20F0E4
:1011800080400843C6F888002068C00307D556F899
:10119000880FD4F8801020F00040084330603846B3
:1011A000BDE8F88F00100240007000402DE9F047C4
:1011B000DFF8648104460E46D8F8000000F007000E
:1011C000B0420CD2D8F8001021F007013143C8F822
:1011D0000010D8F8000000F00700B04272D120786B
:1011E0004E4F800705D5B868A16820F0F00008438D
:1011F000B8602078C00754D06068022818D003284F
:1012000019D03968D0B1490500295BDAB96821F0F5
:1012100003010143B960FFF707FD0546606841F22D
:101220008831022812D003281DD0894638B333E014
:1012300039688903E8E739688901E5E78907E3E761
:10124000FFF7F2FC411B494501D922E08946B86805
:10125000C0F381000228F3D123E0FFF7E5FC411B36
:10126000494501D915E08946B868C0F381000328D3
:10127000F3D116E0FFF7D8FC411B494509D8B868FF
:1012800010F00C0FF6D10CE0FFF7CEFC411B4945E6
:1012900002D90320BDE8F087B868C0F381000128B7
:1012A000F2D1D8F80010404601F00701B1420BD945
:1012B000016821F0070131430160006800F0070078
:1012C000B04201D00120E5E72078400705D5B86895
:1012D000E16820F4E0600843B8602078000706D594
:1012E000B868216920F4605040EAC100B86000F09D
:1012F00021F8B968F02292FAA2F201F0F001B2FAF4
:1013000082F2D140064A515CC8400649086000207C
:10131000FFF7A4FC0020BDE70020024000100240BF
:101320004C6300083400002001480068704700004A
:101330003400002070B53B4B0022104699683A4CAF
:1013400011F00C0F4FEA640514D09968C1F38101C4
:10135000032904D1D96801F0030101290AD0996851
:10136000C1F38101012921D09968C1F381010229CA
:101370001ED01EE01968090706D4D3F894104FF464
:10138000706201F4706103E01968F02201F0F0016D
:1013900092FAA2F2B2FA82F2D140244A52F8212003
:1013A000996811F00C0F04D1104602E0204600E0CD
:1013B00028469968C1F38101032931D1D868D968D9
:1013C00000F00300702696FAA6F601F07001B6FA56
:1013D00086F6F140491C4FF4FE46022804D003284B
:1013E00005D0B2FBF1F004E0B4FBF1F001E0B5FB95
:1013F000F1F0D96896FAA6F201F4FE41B2FA82F24F
:10140000D1404843D9684FF0C06292FAA2F201F08D
:10141000C061B2FA82F2D140491C4900B0FBF1F040
:1014200070BD0000001002400024F4005C6300085E
:101430002DE9F84304460078FD4DC00663D5A86841
:1014400010F00C0F0AD0A0690028286878D040F06E
:1014500001002860FFF7E8FB06465AE0286880078D
:1014600002D5A06900286AD0216A28684FF0F006EA
:10147000000703D5286800F0F00003E0D5F89400D9
:1014800006EA1010814216D9084601F097F90028A3
:1014900055D1286840F0080028602868216A20F0AB
:1014A000F000084328606868E16920F47F4040EA62
:1014B0000120686015E0286840F00800286028686E
:1014C000216A20F0F000084328606868E16920F490
:1014D0007F4040EA01206860206A01F06FF900282F
:1014E000D6D1FFF727FFA96896FAA6F201F0F0011E
:1014F000B2FA82F2D140CF4A515CC840CE4908606E
:101500000020FFF7ABFB2AE0FFF78EFB801B0228D1
:101510007ED828688007F7D5286840F00800286042
:101520002868216A20F0F000084328606868E169B3
:1015300020F47F4040EA0120686010E000E0B3E062
:1015400020F001002860FFF76FFB064604E0FFF77C
:101550006BFB801B0228DBD828688007F7D4207833
:10156000C00746D0A868C0F3810002281DD0A86833
:10157000C0F38100032803D1E868C043800714D07A
:101580006068B0F5803F17D0B0F5A02F286817D05D
:1015900020F480302860286820F48020286060686B
:1015A000D8B1FFF741FB064613E02868800320D539
:1015B0006068002878D01CE0286840F48030EDE7AF
:1015C00040F480202860F7E7FFF72EFB801B64289B
:1015D0009ED828688003F7D50BE0FFF725FB064669
:1015E00004E0FFF721FB801B642891D82868800362
:1015F000F7D42078800747D5A8684FF0F857C0F394
:101600008100012816D0A868C0F38100032800E0FB
:10161000AAE004D1E86800F0030002280AD0E068DC
:101620000028286821D040F480702860FFF7FCFA79
:1016300006460BE0286840050BD5E0680028B9D0C5
:1016400007E0FFF7F1FA801B022884D828684005DC
:10165000F7D5686897FAA7F22169B2FA82F220F00A
:10166000F8509140084368600EE020F480702860D4
:10167000FFF7DAFA064604E0FFF7D6FA801B0228E5
:1016800072D828684005F7D42078000728D560690B
:101690000028D5F8940012D040F00100C5F894005D
:1016A000FFF7C2FA064605E0F6E0FFF7BDFA801B39
:1016B000022859D8D5F894008007F6D510E020F01C
:1016C0000100C5F89400FFF7AFFA064604E0FFF703
:1016D000ABFA801B022847D8D5F894008007F6D4CF
:1016E0002078400762D5A86D0027C00008D4A86DF7
:1016F00040F08050A865A86D012700F08050009050
:101700004E480168C90511D40168804641F48071D2
:101710000160FFF789FA064604E0FFF785FA801BAF
:10172000022821D8D8F80000C005F6D5A068012805
:1017300015D00528D5F8900017D020F00100C5F885
:101740009000D5F8900020F00400C5F89000A06843
:1017500041F28838C0B1FFF767FA06460FE0D5F8C6
:10176000900040F00100F0E761E040F00400C5F8AF
:101770009000F4E7FFF758FA811B414557D8D5F898
:1017800090008007F6D50CE0FFF74EFA064604E01D
:10179000FFF74AFA811B414576D8D5F890008007BB
:1017A000F6D41FB1A86D20F08050A865A06AE8B3F8
:1017B000A968C1F3810103296ED00228286820F0AE
:1017C0008070286011D02868000106D42868800045
:1017D00003D4E86820F00300E860E868184908408E
:1017E000E860FFF721FA044651E0FFF71DFA0646CC
:1017F00004E0FFF719FA801B022845D82868800109
:10180000F7D4206BE16A000110380843616BA26BCA
:101810000902120941EA42410843A18F094A4908D5
:1018200002EB4151084394F840100DE032E02BE008
:10183000001002404C63000834000020007000409B
:10184000FFFFEEFE0000E0FF4908120102EB4161DC
:101850000843E860286840F080702860E86840F03D
:101860008070E860FFF7E0F9044604E0FFF7DCF978
:10187000001B022808D828688001F7D50AE0FFF786
:10188000D3F9001B022802D90320BDE8F883286899
:101890008001F4D40020F8E70120F6E72DE9F041BB
:1018A000040005D00025A56294F85D0018B107E09A
:1018B0000120BDE8F08184F85C50204600F044F837
:1018C000022684F85D602068016821F04001016013
:1018D000E0684FF4E062904201D9002101E04FF44A
:1018E0008051B0F5706F02D0904200D0A562276B96
:1018F000012327B9904201D9266300E02363D4E98C
:1019000001021043D4E9042632431043228B02F42F
:1019100000721043E2691043226A1043A26A104326
:1019200022681060626B606AA66910430427E2684F
:1019300007EA16463243104308432168486025668B
:1019400084F85D300020B4E770472DE9F05F04466D
:1019500090F85C000127DDF828809A4616460D466F
:101960004FF0000901280ED0012084F85C00FFF739
:101970005BF9834694F85D00616801280CD0B1F5ED
:10198000827F07D102E00220BDE8F09FA16809B97B
:10199000042801D002206EE035B32EB3BAF1000F57
:1019A00022D094F85D00042802D0052084F85D0060
:1019B000002020662664A4F846A0A4F844A0A563ED
:1019C000A4F83EA0A4F83CA0E0642065E0684FF4D1
:1019D000E061884203D8B4F84600012806D920689F
:1019E000426822F4805205E0012044E02068426809
:1019F00042F48052426020680268520603D40268B2
:101A000042F040020260E0688842606844D910B148
:101A1000E08F012838D1216835F8020BC860E08FCB
:101A2000401EE08730E067B1E08F50B120688168E8
:101A3000890706D535F8021BC160E08F401EE0879C
:101A40000027B4F8460060B120688168C90708D053
:101A5000C06826F8020BB4F84600401EA4F8460001
:101A60000127B8F1FF3F0FD0FFF7DEF8A0EB0B0125
:101A7000414509D303208146012084F85D00002000
:101A800084F85C0048467FE7E08F0028CBD1B4F8AB
:101A900046000028C7D162E010B1E08F012857D17D
:101AA000E08F012806D9216835F8020BC860E08F65
:101AB000801E05E0216815F8010B0873E08F401EB9
:101AC000E08745E0AFB1E08F98B120688168890771
:101AD0000FD5E18F012905D935F8021BC160E08FD0
:101AE000801E04E015F8011B0173E08F401EE087A3
:101AF0000027B4F8460010B320688168C9071ED0DB
:101B0000B4F84610012911D9C06826F8020BB4F8C0
:101B10004600801EA4F84600B4F8460001280DD8FF
:101B20002068416841F48051416007E0007B06F87D
:101B3000010BB4F84600401EA4F846000127B8F196
:101B4000FF3F05D0FFF770F8A0EB0B01414591D2A4
:101B5000E08F0028B6D1B4F846000028B2D15A462A
:101B60004146204600F068FE08B120202066206E25
:101B700000287FF439AF7FE74FF0E021042808699F
:101B800003D020F004000861704740F00400FAE739
:101B9000704710B5401EB0F1807F01D3012010BD09
:101BA0004FF0E02460610F21601700F0A7FA0020D9
:101BB000A06107202061002010BD10B5FFF7E8FFED
:101BC00010BD70477047000030B590F83820012AEA
:101BD0001FD0012280F8382003685A689D680E4C97
:101BE000A34202D00D4CA34203D122F470044A68F0
:101BF000224322F070040A688968224325F0800499
:101C000021435A6002689160002180F8381008462C
:101C100030BD022030BD0000002C014000340140E6
:101C200010B5040003D094F8390010B107E001208A
:101C300010BD002084F83800204600F00DF8022086
:101C400084F83900211D206801F020FE012084F86D
:101C50003900002010BD000008B50068144A15497D
:101C600090420ED1886D40F002008865886D002298
:101C700000F00200009011461D20FFF759F81D20CA
:101C800010E00D4A904211D1886D40F00400886543
:101C9000886D002200F00400009011461E20FFF71E
:101CA00047F81E20BDE80840FFF737B808BD000020
:101CB0000004004000100240000800400168CA68AB
:101CC00022F00102CA600068016A41F21112114259
:101CD00007D1016A9210114203D1016821F001017C
:101CE000016000207047000070B5044690F838008D
:101CF000012817D0012584F83850022084F83900D3
:101D000020688268354E324022F47F428260086843
:101D1000502838D00DDC20285AD005DC90B310288C
:101D200042D152E0022070BD302854D040283BD12F
:101D300040E060282FD070280CD0B0F5805F03D031
:101D4000B0F5005F30D112E020688168234A70321C
:101D500011400AE0CB68D1E90121206801F0F2FDD1
:101D600020688168314041F0770181601CE0CB68D8
:101D7000D1E90121206801F0E5FD2068816841F486
:101D80008041F2E71EE0CA684968206801F0ECFD76
:101D90005021206806E0CA684968206801F0F5FD16
:101DA0006021206801F0D8FD84F83950002084F8C3
:101DB000380070BDCA684968206801F0D5FD40212F
:101DC0002068EFE700212068ECE710212068E9E7B0
:101DD00020212068E6E730212068E3E788FFFEFF46
:101DE000704770B50446006801694FF00005C943AB
:101DF000890715D4C168C943890711D4E91E016157
:101E000001202076206880698007204602D0FFF7F5
:101E1000E7FF04E000F098F8204600F096F82576F9
:101E200020680169C943490717D4C168C9434907F4
:101E300013D46FF0040101610220207620688069CC
:101E400010F4407F204602D0FFF7CAFF04E000F004
:101E50007BF8204600F079F8257620680169C943AF
:101E6000090716D4C168C943090712D46FF00801E5
:101E70000161042020762068C0698007204602D0D6
:101E8000FFF7AEFF04E000F05FF8204600F05DF8D9
:101E9000257620680169C943C90617D4C168C943BA
:101EA000C90613D46FF01001016108202076206864
:101EB000C06910F4407F204602D0FFF791FF04E094
:101EC00000F042F8204600F040F8257620680169CD
:101ED000C943C90708D1C168C943C90704D1891ECC
:101EE0000161204600F032F820680169C943090603
:101EF00009D4C168C943090605D46FF080010161A6
:101F00002046FFF75EFE20680169C943490609D4EF
:101F1000C168C943490605D46FF0400101612046FC
:101F200000F015F820680169C94389060BD4C1681F
:101F3000C943890607D46FF0200101612046BDE83E
:101F40007040FFF73FBE70BD7047704770477047E5
:101F5000FEE7000070B501220B4D540221462846D1
:101F6000FEF75DFE0122160231462846FEF757FEB7
:101F7000002221462846FEF752FE31462846BDE89B
:101F800070400022FEF74BBE0004004870B50A4CBA
:101F9000012211022046FEF742FE4FF40075002296
:101FA00029462046FEF73BFE29462046BDE8704004
:101FB0000122FEF734BE00000004004870B5012283
:101FC000064D140221462846FEF729FE21462846E2
:101FD000BDE870400022FEF722BE00000004004869
:101FE00030B51C4887B0C16C41F00201C164C16CBE
:101FF00001F002010591C16C41F00801C164C06C9F
:10200000154D00F0080005904FF40040CDE90005A3
:102010000124694602941148FEF716FD4FF4407002
:10202000CDE90005694602940D48FEF70DFD00223A
:1020300001211720FEF77CFE1720FEF76EFE00221E
:1020400001212820FEF774FE2820FEF766FE07B067
:1020500030BD0000001002400000211000040048C4
:10206000000C00480F4810B5C16C86B041F001016A
:10207000C164C06C4FF0904400F001000590012253
:1020800070212046FEF7CBFD70211120CDE9001014
:1020900000210291039169462046FEF7D5FC06B067
:1020A00010BD00000010024010B5124988B0104A5F
:1020B0000A604FF6FF120024401E4A60C1E9024048
:1020C00008460C61FFF7ACFD00280ED14FF480509C
:1020D000039003A90748FFF707FE002805D10094E5
:1020E000694604480294FFF76FFD08B010BD000078
:1020F00000040040C0000020FEE770470907090EF9
:10210000002806DA00F00F0000F1E02080F8141D2E
:10211000704700F1E02080F80014704730B40021CF
:10212000084B0A46002003EBC004401CC0B26254B6
:102130008028F8D3491CC9B20829F3D330BC00F079
:10214000F1B800009C01002010B57F2816D83F2967
:1021500014D80723A3EBD10301F00701C1F1070451
:102160000121A140064CDBB204EBC000002AC25C96
:10217000C9B201D00A4300E08A43C25410BD000036
:102180009C010020F0B5604887B0C16C41F00201AD
:10219000C164C16C01F002010591C16C41F00801FC
:1021A000C164C06C4FF4407500F008000590012632
:1021B000564FCDE900560224694603943846FEF78F
:1021C00043FC012229463846FEF729FDED00039421
:1021D0004F4CCDE9005669462046FEF735FC0122FA
:1021E00029462046FEF71BFD0022F1022046FEF79D
:1021F00016FD0122150329462046FEF710FD782022
:10220000FEF71AFB002229462046FEF708FD78203B
:10221000FEF712FB012229462046FEF700FD0021B1
:10222000AE2000F05BF90021022000F057F90021F8
:10223000102000F053F90021402000F04FF9002158
:10224000812000F04BF90021FF2000F047F9002128
:10225000A12000F043F90021C02000F03FF9002147
:10226000A62000F03BF90021A82000F037F900215A
:102270003F2000F033F90021D32000F02FF9002196
:10228000084600F02BF90021D52000F027F90021A5
:10229000802000F023F90021D92000F01FF900214F
:1022A000F12000F01BF90021DA2000F017F90021DD
:1022B000122000F013F90021DB2000F00FF90021BB
:1022C000402000F00BF90021202000F007F9002148
:1022D000022000F003F900218D2000F0FFF800211A
:1022E000142000F0FBF80021A42000F0F7F80021F2
:1022F000A62000F0F3F80021AF2000F0EFF8FFF780
:102300000DFF07B0F0BD00000010024000040048BF
:10231000000C00480346012000E05843491EC9B2A2
:10232000FBD2704770B5104E002505F1B000C0B269
:10233000002100F0D3F80021022000F0CFF80021A6
:10234000102000F0CBF8002406EBC4000121405D12
:1023500000F0C4F8641CE4B2802CF5D36D1CEDB21F
:10236000082DE2D370BD00009C0100202DE9F84F3C
:1023700083461E460F468A46580700D0012000EBD0
:10238000D600710810FB01F0203AC0B202F0FF093C
:102390000025009039E00C2E0FD0102E11D0182EF1
:1023A00036D11C4909EBC90001EB80004FF0000851
:1023B000445D200609D50A9A0AE009EB490016494E
:1023C000F2E7164901EB0910F0E70A9890B10022F4
:1023D00039465846FFF7B8FE60067F1C040EFFB270
:1023E000A7EB0A00B04207D10BF10100574600F0FD
:1023F000FF0B08E00122EBE708F1010000F0FF0805
:10240000B8F1080FD5D36D1CEDB200988542C2D348
:10241000BDE8F88F3E550008DA4A00084E4F000824
:102420002DE9FF4F81B00027DDF838B01D469246F8
:1024300080463C464FF001094FEA5B0627E0281B27
:10244000401EC1B20A20FFF765FFBAFBF0F00A2177
:10245000B0FBF1F201FB120027B9691E8C4201DAD0
:1024600048B101273030C2B206FB0480C0B25B46DF
:10247000CDF8009006E006FB0480C0B25B46202247
:10248000CDF800900299FFF771FF641CE4B2AC42F2
:10249000D5D305B0BDE8F08F2DE9F8431F461546AA
:1024A0000E4604464FF00109C3F180080FE03B4699
:1024B00031462046CDF80090FFF758FF04EB570057
:1024C000C4B2A04502DA0024B61CF6B26D1C2A780C
:1024D000A2F120005E28EAD9BDE8F88370B50C4669
:1024E0000546FFF737FD782001F032F9FFF766FD6A
:1024F0000CB1402000E0002001F02AF9FFF75EFD5A
:10250000284601F025F9FFF759FDBDE87040FFF7B7
:102510003DBD70472DE9F041554E05468846F068AF
:102520000024820728684FF0700113D0F26802F08F
:10253000030282420CD158B1F06891FAA1F100F087
:102540007000B1FA81F1C8406968401C884221D00E
:1025500001248AE0012809D002280AD00328F7D1F3
:102560003268920309D43268520304E03268920759
:1025700001E032685205002AEADAF26891FAA1F124
:1025800022F073036A68B1FA81F1521E8A40134344
:102590000343F360306820F080603060FEF744FB56
:1025A000074604E0FEF740FBC01B022853D8306802
:1025B0000001F7D4DCBB4FF4FE40B8F1000F23D08C
:1025C00090FAA0F0A968B8F1010FB0FA80F04FF0CE
:1025D000FF3201FA00F12BD0686902EB50004FF096
:1025E000C06292FAA2F2B2FA82F2904001433069DC
:1025F000204A104001433161306840F08060306013
:10260000FEF712FB074628E090FAA0F0A968B0FA9E
:1026100080F08140E8684FF4003292FAA2F200099B
:10262000B2FA82F2904001433069134AE1E71CE0BC
:10263000286902EB50004FF4C00292FAA2F2B2FAFB
:1026400082F29040014330690C4AD2E7FEF7ECFA7F
:10265000C01B022801D9032407E030680001F5D52A
:102660001CB93069A969084330612046BDE8F08192
:1026700000100240FF80FFF9FF80FDFFFF809FFFF9
:102680002DE9F0414A4E05468846F068002481074E
:1026900028684FF0700213D0F16801F00301814205
:1026A0000CD158B1F06892FAA2F100F07000B1FAC2
:1026B00081F1C8406968401C884221D0012473E040
:1026C000012809D002280AD00328F7D131688903EC
:1026D00009D43168490304E03168890701E03168B1
:1026E00049050029EADAF16892FAA2F221F07303AF
:1026F0006968B2FA82F2491E91400B430343F360CA
:10270000306820F080503060FEF78EFA074604E013
:10271000FEF78AFAC01B02283CD830688000F7D444
:1027200094BB4FF4FE4191FAA1F1A868B8F1000FF3
:10273000B1FA81F100FA01F019D029694FF0FF32A6
:1027400002EB51014FF0C06292FAA2F2B2FA82F2A9
:10275000914008437169174A11400843706130681D
:1027600040F080503060FEF75FFA074614E0E968F9
:102770004FF4003292FAA2F20909B2FA82F29140C1
:10278000084371690C4AE7E70EE0FEF74DFAC01BFB
:10279000022801D9032407E030688000F5D51CB970
:1027A00070696969084370612046BDE8F0810000E6
:1027B00000100240FF80FFF9FF80FDFFF8B51C4EBE
:1027C00005460024B06DC00002D5FEF715FB0DE0F4
:1027D000B06D40F08050B065B06D00F0805000905A
:1027E000FEF70AFBB16D21F08051B165B0F5007FB5
:1027F00004D0802D07D94FF003040AE0802D08D9BA
:10280000A02D01D804E001D1022402E0702D00D1F6
:1028100001240848016821F0070121430160006894
:1028200000F00700A04201D00120F8BD0020F8BD53
:102830000010024000200240F8B515460E460B4637
:102840000092044600224FF4C05100F019F888B9F4
:102850003346002280212046009500F060F848B9F8
:10286000334600224FF4C0612046009500F008F87E
:10287000002804D0206E40F0200020660320F8BD20
:102880002DE9F8431D4616460F4604464FF4C0692D
:10289000DDF820803CE04F4505D126B9007B8DF85E
:1028A00000009DF80000681C32D02DB1FEF7BCF985
:1028B000A0EB0800A8422BD32068416821F0E0017A
:1028C00041606068B0F5827F0BD1A068B0F5004F21
:1028D00002D0B0F5806F04D12068016821F040017A
:1028E0000160A06AB0F5005F09D12068016821F499
:1028F000005101602068016841F40051016001202D
:1029000084F85D00002084F85C000320BDE8F883B3
:10291000206881683940B142BDD10020F6E72DE939
:10292000F0411D4617460E460446DDF8188034E097
:10293000681C32D02DB1FEF777F9A0EB0800A84251
:102940002BD32068416821F0E00141606068B0F558
:10295000827F0BD1A068B0F5004F02D0B0F5806F38
:1029600004D12068016821F040010160A06AB0F53F
:10297000005F09D12068016821F4005101602068DE
:10298000016841F400510160012084F85D000020DD
:1029900084F85C000320BDE8F0812068806836EA96
:1029A000000004D00020B842C2D10020F3E701208B
:1029B000F9E7704710B520B1002000F0EBF90120D5
:1029C00003E0012000F0E6F90020BDE8104000F02F
:1029D00005BA000004210148FEF71CB900040048B4
:1029E0000B4800B5C16C87B041F00201C164C06CF6
:1029F000694600F00200059004200090002001903C
:102A00000290012003900348FEF71EF807B000BDB6
:102A1000001002400004004802210148FEF7FAB805
:102A2000000400480D4800B5C16C87B041F00201B8
:102A3000C164C06C0A4900F0020005900220CDE993
:102A400000010290039069460648FDF7FDFF002251
:102A500001210720FEF76CF907B000BD001002400D
:102A600000001110000400480720FEF74BB90720B2
:102A7000FEF753B90E4800B5C16C87B041F00401B0
:102A8000C164C06C694600F00400059010200090FD
:102A9000084801900220029003900748FDF7D4FFF8
:102AA000002201210A20FEF743F907B000BD000013
:102AB0000010024000001110000800480F49104AA1
:102AC000086802440F48824214D288680E4BA0F571
:102AD00016729A420ED24A69B2F5965F0AD30B4A31
:102AE000904207D8088B41F6FF72411E914201D2F5
:102AF000082801D9002070470120704710000020ED
:102B0000009876F68171162F8991040020A10700A4
:102B100070B505460B4800F03EFA4FF6FF7000F026
:102B2000E6F90848074C08302634407F012802D1D6
:102B3000204600F04AFA21462846BDE8704000F0E1
:102B40003FBA00000800002010B5012000F080FC12
:102B500000F0A8F9012000F00BFC0020FFF72AFF8D
:102B60004FF6FF7000F0C3F900231A4640F202212D
:102B700040F2422000F000FB002000F091FC00F049
:102B800095FB0021084600F0BFFABDE8104001485F
:102B900000F049BC00C4090010B50446012000F053
:102BA00057FC00F07FF9012000F0E2FB0120FFF765
:102BB00001FF4FF6FF7000F09AF9002340F2012068
:102BC0001A46014600F0D8FA00F070FB00210846D2
:102BD00000F09AFA0348044A817F2046BDE810407D
:102BE00000F086BA10000020FFFF2F0010B5FFF79D
:102BF00019FFFFF73FFFFFF7F3FE012000F010F889
:102C0000002000F0C7F8BDE81040002000F0E6B852
:102C100002464FF400414FF09040FEF700B800002C
:102C200030B50F49044687B0C86C40F00100C86455
:102C3000C86C012100F0010005908020CDE9000161
:102C40000220CDE902104FF0904569462846FDF775
:102C5000FBFE224680212846FDF7E1FF07B030BD8C
:102C60000010024001B582B04FF47A700090012349
:102C700001AA02A90248FEF768FE9DF804000EBDF5
:102C80003801002010B50A20FDF7D6FD0020FFF71F
:102C9000C7FF1420FDF7D0FD0120FFF7C1FFBDE8FD
:102CA00010400A20FDF7C8BDF0B585B04FF40040D4
:102CB0000125CDE9000500200224CDE90204694682
:102CC0004FF09040FDF7C0FE60028DE8310006260F
:102CD0000C4FCDE9034669463846FDF7B5FEA00224
:102CE0000090694604963846FDF7AEFEE0028DE896
:102CF0003100CDE9034669463846FDF7A5FE05B02B
:102D0000F0BD00000008004838B51F48C16C41F014
:102D10000101C164C16C01F001010091C16C41F07D
:102D20000401C164C16C01F004010091816D41F4A2
:102D300000418165806D00F400400090FFF7B4FF12
:102D4000134C12484FF4E06120604FF482706060D1
:102D50000020C4E902014FF400712061C4E90501BB
:102D60000821C4E9071007216062C4E90A01206351
:102D700060632046FEF792FD00B1FEE7206801681F
:102D800041F04001016038BD00100240003C0040AD
:102D90003801002030B50F49044687B0C86C40F0B8
:102DA0000400C864C86C012100F0040005902020D4
:102DB000CDE900010220CDE90210074D6946284601
:102DC000FDF742FE224620212846FDF728FF07B0E6
:102DD00030BD0000001002400008004830B50E4928
:102DE000044687B0C86C40F00200C864C86C01217A
:102DF00000F00200009105900220CDE90210074D7D
:102E0000019169462846FDF71FFE2246012128460A
:102E1000FDF705FF07B030BD001002400004004878
:102E200001B501226946892000F0CCFB08BD0000F5
:102E3000174908B5884204D9E1208DF80000E9203F
:102E40001EE01449884204D9D7208DF80000D8200C
:102E500016E01149884204D9C1208DF80000C52030
:102E60000EE00E49884204D975208DF800008120BB
:102E700006E00B49884205D96B208DF800006F20D1
:102E80008DF8010002226946982000F09BFB08BDE6
:102E900000E9A43580F8A9328044E52D000B6B1BB6
:102EA00040FC541910B500F040F80004000C06D0A6
:102EB00000F014F8BDE810407F20FFF7B1BF10BD4F
:102EC000054810B5007808B1062801D100F04AFB8A
:102ED000BDE8104000F03EBB0400002008B5002013
:102EE000009002226946072000F06CFB08BD08B57F
:102EF000010A8DF800108DF8010002226946104683
:102F000000F060FB08BD10B5002140F6021000F093
:102F10007AFB40F64414204600F0BCF840F0020171
:102F20002046BDE8104000F06EBB1CB500200090AC
:102F3000019002226946172000F08CF89DF80000ED
:102F400000F001008DF805009DF801009DF80410C7
:102F5000820962F38611420962F34511020962F3A4
:102F60000411C20862F3C301820862F382014208BD
:102F700062F3410160F300018DF80410BDF8040014
:102F80001CBD08B502226946122000F063F8BDF8A6
:102F9000000040BA08BD38B5044603226946142033
:102FA00000F058F89DF8000060719DF80100404263
:102FB0004010E0719DF8020040424010A07138BD01
:102FC0000A780146002000F022B838B504460222F3
:102FD0006946132000F03EF840F2047000F05AF801
:102FE000C00904D040F2027000F054F801E09DF8EE
:102FF0000000207038BD08B500208DF800000122C7
:103000006946C02000F026F89DF8000008BD70B5A4
:1030100015460E460446FFF753FF0020FFF7F8FD64
:103020001E20FFF71FFE2046FFF71CFE0020FFF7C3
:1030300019FE002405E00020FFF714FE3055641C43
:10304000A4B2AC42F7D30120FFF7E2FDBDE8704027
:1030500000F080BA70B515460E460446FFF730FF03
:103060000020FFF7D5FD2046FFF7FCFD0020FFF70D
:10307000F9FD002405E00020FFF7F4FD3055641C45
:10308000A4B2AC42F7D30120FFF7C2FDBDE8704007
:1030900000F060BA08B50122694600F003F89DF817
:1030A000000008BD70B515460E460446FFF708FF40
:1030B0000020FFF7ADFD1D20FFF7D4FD200AFFF72C
:1030C000D1FDE0B2FFF7CEFD0020FFF7CBFD0024DD
:1030D00005E00020FFF7C6FD3055641CA4B2AC42E9
:1030E000F7D30120FFF794FDBDE8704000F032BA3D
:1030F00010B514460A460146002000F044FA204666
:10310000BDE8104000F0DCB908B502228DF80000DF
:103110008DF8011069468F2000F054FA08BD08B5FB
:10312000010A8DF800108DF801000222694640F274
:10313000BE6000F06EFA08BD08B5010A8DF80010F7
:103140008DF801000222694640F2BC6000F061FA8D
:1031500008BD08B500F007008DF80000080C8DF8D8
:103160000100080A8DF802008DF803100422694658
:10317000972000F027FA08BD1CB5040A8DF800401E
:103180008DF80100080A8DF80200100A8DF804007D
:103190008DF80520180A8DF806008DF80310082216
:1031A0008DF807306946104600F00CFA1CBD00008F
:1031B00030B500202DED028B83B0324C0090019091
:1031C0000825A068FDF7EAF841EC100B9FED2E8B67
:1031D00053EC102B51EC180BFDF771F89FED2C1BE5
:1031E00053EC112BFCF7F9FFFDF7E5F8010C8DF816
:1031F0000010010A8DF801108DF80200207C8DF876
:103200000300616971B1244A002052F830308B42CA
:1032100033D802EBC0039B688B422ED302EBC00075
:10322000007B00E01F208DF804009FED1C1B9FED2C
:103230001D0B00F0D5FB53EC102B51EC180BFDF7D8
:103240003EF841EC180BE068FDF7A8F853EC182B9A
:10325000FDF735F8FDF7AFF8010C8DF80510010A00
:103260008DF806108DF807002A4669468B2000F07D
:10327000A9F903B0BDEC028B30BD401CC0B21528CB
:10328000C3D3FEE7100000200000000080847E41D0
:1032900000000000000040409C62000800000000A8
:1032A0000000394000000000000000403EB5002052
:1032B0001F4C009001900290E07FF12802D0F2288C
:1032C0000AD012E04FF6FF70FFF736FF48F2050014
:1032D000FFF725FF022008E041F60F50FFF72CFF13
:1032E00041F22100FFF71BFF0620218B09224B0929
:1032F0008DF80030C9008DF80110A17E8DF8021004
:10330000E17EC9008DF80310217F8DF80410617FE4
:103310008DF80510A17F8DF806108DF8070094F840
:1033200020008DF8080069468C2000F04BF93EBD66
:103330001000002008B58DF800008DF801108DF800
:1033400002208DF8033004226946952000F03AF9F6
:1033500008BD01B59DF8000020B9002140F2AC6025
:1033600000F051F9012269468A2000F02BF908BDCE
:1033700001B501226946962000F024F908BD00003D
:1033800010B51E4C1E491F4A2DED028B82B02068DD
:103390000144914204D3012002B0BDEC028B10BD68
:1033A000FFF746FD9FED181B9FED190B00F018FB72
:1033B00053EC102B9FED180B51EC100BFCF77FFF1B
:1033C00041EC180B2068FCF7E9FF53EC182BFCF7D5
:1033D00076FFFCF7F0FF010E8DF80010010C8DF860
:1033E0000110010A8DF802108DF8030004226946CD
:1033F000862000F0E7F80020CEE700001000002053
:1034000080E58FE781FB651E000000000000394069
:1034100000000000000000400000000080847E41A9
:10342000052100F061B838B504464FF6FF70FFF78C
:103430005EFD200C8DF80000200A8DF801008DF84B
:10344000024003226946822000F0BCF838BD00002B
:1034500031B54FF6FF7401226946802000F0B2F8C2
:10346000FFF7C9FD9DF800000C4D50B9FFF7C3FDF3
:10347000C0F30210641E022801D0002CF6D10120F6
:1034800009E0FFF7B8FDC0F30210641E032801D065
:10349000002CF6D10220287038BD00000400002066
:1034A00001B5012269469F2000F08CF808BD10B5D7
:1034B000014608224FF4D86000F0ABF8002010BDA0
:1034C00038B504464FF6FF70FFF711FD200C8DF85C
:1034D0000000200A8DF801008DF8024003226946A1
:1034E000832000F06FF838BD38B50D460446162825
:1034F00001DD162404E06FF00200844200DA044685
:103500000123002207210420FFF714FF382140F691
:10351000E70000F078F88DF800408DF801500222A5
:1035200069468E2000F04EF838BD70B504464FF461
:10353000D7652846FFF7AEFD00F0FE00C4F300217A
:103540000143284600F05FF8E1B2681CBDE8704016
:1035500000F059B810B5FFF743FAFFF73BFA01281E
:10356000FBD010BD10B50020FFF752FBC020FFF7C5
:1035700079FB0020FFF776FB0120FFF749FBBDE850
:103580001040FFF7E7BF70B515460E460446FFF73B
:1035900097FC0020FFF73CFB0E20FFF763FB204663
:1035A000FFF760FB002404E0305DFFF75BFB641C69
:1035B000A4B2AC42F8D30120FFF72AFBBDE870406B
:1035C000FFF7C8BF2DE9F04115460E460746FFF745
:1035D00077FC0020FFF71CFB3846FFF743FB002475
:1035E00004E0305DFFF73EFB641CA4B2AC42F8D3AC
:1035F0000120FFF70DFB842F03D0BDE8F041FFF75A
:10360000A9BFBDE8F08113B5012201A900F001F8BE
:103610001CBD70B515460E460446FFF751FC002050
:10362000FFF7F6FA0D20FFF71DFB200AFFF71AFB44
:10363000E0B2FFF717FB002404E0305DFFF712FB58
:10364000641CA4B2AC42F8D30120FFF7E1FABDE854
:103650007040FFF77FBF00007CB5FFF72FFAB0B3D3
:10366000FFF752FBFFF7C2FAFFF70CFBFFF77AFFF9
:103670000020FFF7EDFE40F6D8042046FFF70AFDD4
:1036800040F01E012046FFF7BEFF0120FFF770FE4D
:10369000FFF724FC4FF4A0710520FFF75AFD2F21FE
:1036A00040F61110FFF7AFFF7F20FFF7B9FB0020B6
:1036B000FFF74FFE40F2027409212046FFF7A3FFF7
:1036C0002046FFF7E7FC092804D002207CBDFFE775
:1036D0000120FBE7962140F6AC00FFF794FF194C60
:1036E0002068FFF74DFE94F90400FFF799FE0021D2
:1036F0000846FFF709FDFFF75BFDFFF7D7FD217FC8
:1037000040F2CD65012903D111212846FFF77BFF47
:10371000207F022808D111212846FFF774FF1221CB
:1037200040F2CE60FFF76FFF07A0D0E90010CDE9AF
:1037300000106846FFF7BBFE40F2FF10FFF7F5FEF2
:103740000020C3E710000020C194C1000000000069
:103750002DE9F041134E054600244FF400784FF454
:103760008077002239463046FDF759FA280601D500
:10377000012200E0002241463046FDF750FA0122C6
:1037800039463046FDF74BFA002239463046FDF700
:1037900046FA6806641C050EE4B2082CE1D3BDE8C5
:1037A000F08100000004004810B5FDF743FABDE8C1
:1037B0001040FEF702BA30B5B9B00220C101259120
:1037C0001021229026912C900121CDE92D01082174
:1037D0002F910721CDE93010329022A8FDF728FE65
:1037E000002403250F20CDE9345433903694294624
:1037F00033A83794FDF7DAFC00950E9468460F94D1
:10380000FDF702FB4FF40070FDF7C4FAFDF78CFDE5
:103810004FF47A71B0FBF1F0FEF7BBF90420FEF72C
:10382000ABF900221146501EFDF782FA39B030BDC7
:103830000D48016841F4700101600C48016841F0D5
:1038400001010160002181600268094B1A40026099
:103850008214C260026822F48022026081610249FF
:10386000C00380390860704788ED00E00010024016
:10387000FFFFF6EA0148FEF7B4BA0000C0000020DE
:103880000148FEF7AEBA0000FC0000202DE9F04729
:103890000268244C244D254E254F264B4FF0804A7C
:1038A000A04209D0504507D0A84205D0B04203D06D
:1038B000B84201D0984204D122F0700C4A6842EA22
:1038C0000C02DFF874C0DFF87480DFF87490A04257
:1038D0000FD050450DD0A8420BD0B04209D0B8420D
:1038E00007D0984205D0604503D0404501D04845F7
:1038F00003D122F44075CA682A4302608A68C26212
:103900000A688262A04207D0984205D0604503D081
:10391000404501D0484501D1096901630121416158
:10392000BDE8F087002C0140000400400008004082
:10393000000C0040003401400040014000440140C0
:103940000048014010B5846842EA032224F47F4411
:103950000A432243826010BD826822F070020A434B
:1039600042F007018160704710B5046A036A23F0D2
:1039700001030362836923F0F00343EA021324F096
:103980000A020A438361026210BD10B5036A23F084
:10399000100303628469036A24F4704444EA023227
:1039A00023F0A00343EA01118261016210BDFEE72A
:1039B00003B401984100009850EAC12018BF0420C8
:1039C0004A0D18BF40F0010040F2FF72B2EB515FA8
:1039D00008BF40F00200012808BF052002B0704770
:1039E0002DE9F04D2DED040B2DED0C8B96B0DDE99E
:1039F0002350259CDDF888A025F0004624F00048DF
:103A0000BAF1000F14BF0121002101EB4502FE496C
:103A100053184A1093422AD3002814BF01230023CD
:103A200003EB44030B44F9498B4220D358EA0001CD
:103A30009FEDF78B6FD0DFF8E0B35D4503D1BAF1AE
:103A4000000F05D187E0BAF1000F08BF002100D0B8
:103A5000012101EB450111F5001F08D8002814BF12
:103A60000121002101EB440111F5001F0BD99DED4F
:103A7000241B9DED220B16B0BDEC0C8B04B0BDE8F1
:103A8000F04D00F05DBE0027002DBCBFE349884526
:103A900021DAE3498845A8BF02271CDAC3451ADCAE
:103AA000E04901EB2851142908DDC1F1340220FA64
:103AB00002F101FA02F282420DD108E058B9C1F1D7
:103AC000140228FA02F101FA02F2424503D101F090
:103AD0000101C1F1020756EA0A011DD1002C1BDACF
:103AE000002D18BF022F01D0012F0AD0022000F0B4
:103AF00073FE16B0BDEC0C8B04B0BDE8F04D00F0C9
:103B000007BE022000F068FE00F002FE51EC100B30
:103B100081F0004183E01EE09FEDC39B9FEDC4ABAD
:103B2000002872D1BD4880452DD105F1804010F5A7
:103B3000801008BFBAF1000F0DD0B34515DC002C82
:103B4000A1BF9DED240B16B0BDEC0C8B04B0A8BF3B
:103B5000BDE8F08D12E0B0EE480AF0EE680A16B04B
:103B6000BDEC0C8B04B0BDE8F08D002C06DA9DEDA9
:103B7000240B51EC100B81F0004150E0AE4878442A
:103B800090ED000BEBE7D8454FD1002C4ADA2EB16F
:103B900086423BD1BAF1000F44D126E0BAF1000FC2
:103BA00013D0022000F018FE00F0E6FD8DED020BB0
:103BB0009DED220B8DED000B10EE900A039961F341
:103BC0001E0003909DED020BC9E78DED029B9DED5C
:103BD000220B19EE901A10EE900A8DED000B61F396
:103BE0001E0003909DED020BB9E78DED02AB9DED3C
:103BF000220B1AEE901A10EE900A8DED000B61F375
:103C00001E0003909DED020BA9E729E00ADA9DED65
:103C1000220B51EC180B53EC102BFCF750FB41EC32
:103C2000100B9CE79DED220B99E7864218DAB4F160
:103C3000804F0DD0A4F10050B0F1FF5010D1002DF5
:103C40000EDB9DED220B51EC100B00F00FFFE6E7B1
:103C50009DED220B53EC102B51EC100B00F0AEBC81
:103C60009DED220B51EC100B00F0BCFDBAF1000FE2
:103C7000CDE90C0134D19FED720BDEB1A6F1E0402D
:103C8000B0F17F602CD1002D01DD002C0DDA002D6C
:103C900001DD002C1FDB002D16DA002C14DB012FB8
:103CA00008BF9FED690B3FF45AAFB0EE490AF0EE42
:103CB000690A54E7022F18BF002D0CD0012F0AD13A
:103CC000002DFFF64CAF06E0002DB8BF002C07DA40
:103CD000012F3FF444AFB0EE4A0AF0EE6A0A3EE725
:103CE000012000EBE57A5AEA07000CD0584800257D
:103CF00080457CDD57495848884514DDB0420DDBCE
:103D0000002C19DB2BE0012000F066FD16B0BDECA5
:103D10000C8B04B0BDE8F04D00F01EBDB34502DCD5
:103D2000002C09DC1BE0864202DA002C17DA03E0E3
:103D30005E4527DD002C12DD022000F04DFD00F075
:103D40001BFD10EE901A19EE900A8DED020B8DED11
:103D5000009B61F31E0003909DED020BFFE6022025
:103D600000F03AFD00F018FD10EE901A18EE900ADF
:103D70008DED020B8DED008B61F31E0003909DED28
:103D8000020BECE69DED220B53EC182B51EC100BC3
:103D9000FCF738FC9FED320BCDE90A0153EC102BF8
:103DA0009DED0A0B51EC100BFCF717FA9FED2E1B43
:103DB00053EC112BFCF729FC9DED0A1B53EC112B46
:103DC000FCF70BFA9FED2A1B53EC112BFCF71DFCA3
:103DD0009DED0A0B41EC190B53EC102B51EC100B21
:103DE000FCF7FBF953EC192BFCF7F7F900E07EE048
:103DF0009FED210B41EC1A0B53EC102B9DED0A0BA0
:103E000051EC100B3CE00000FFFF1F00FFFF0F0014
:103E1000000000000000F03F0000F03F0000F07FD5
:103E20000000404301FCFFFF000000000000F07FA5
:103E300000000000000000009628000000000000C4
:103E40000000000000000080000000000000F0FF03
:103E50000000E0410000F043FFFFEF3F00000000E2
:103E6000000000000000D03F555555555555D53F31
:103E7000000000000000E03F000000604715F73F31
:103E8000FCF7ABF941EC190B9FEDFD0B51EC1A0B54
:103E900053EC102BFCF7A1F941EC1A0B9FEDFA0B38
:103EA00053EC102B9DED0A0B51EC100BFCF795F920
:103EB00053EC1A2BFCF7A6FB41EC1A0B51EC190B37
:103EC00053EC1A2BFCF7FDFA0690CDE906519DED57
:103ED000060B53EC192B51EC100BFCF793FB53EC36
:103EE0001A2BFCF792FB41EC100B00F09FB900205D
:103EF000B6F5801F0EDA9FEDE60B53EC102B9DED0F
:103F00000C0B51EC100BFCF768F9CDE90C016FF0CC
:103F100034000E4600EB2650A0F2FF38C6F3130023
:103F2000DD4940F07F6646F040568842D8BF002405
:103F300009DDDA498142C8BF012404DC0024A6F56A
:103F4000801608F10108D648784400EBC4000D96AD
:103F500090ED00BB9DED0C0B53EC1B2B51EC100BAB
:103F6000FCF750FB9DED0C0B41EC1A0B53EC1B2B9B
:103F700051EC100BFCF7A5FA41EC100B51EC180BAF
:103F800053EC102BFCF79BF941EC1C0B51EC1A0B7A
:103F900053EC1C2BFCF721F941EC190BC1488DEDBA
:103FA000109B7844109590ED000B4FF0005040EAC4
:103FB000660000EB84408DED0A0B00F500200B90AD
:103FC0009DED0A0B53EC1B2B51EC100BFCF71AFB6D
:103FD0009DED0C1B53EC112BFCF717FB41EC100B68
:103FE00053EC102B9DED100B51EC100BFCF7F5F87A
:103FF0009DED0A0B41EC1B0B53EC102B9DED100BB0
:1040000051EC100BFCF7E9F853EC1A2BFCF7FDFA16
:1040100053EC1B2BFCF7F6FA53EC1C2BFCF7DDF8EA
:1040200041EC1B0B53EC192B51EC190BFCF7D5F899
:1040300041EC1A0B9C480621B0EE4A0AF0EE6A0ADF
:10404000784400F0E9FAB0EE40CAF0EE60CA53ECF2
:104050001A2B51EC1A0BFCF7C0F853EC1C2BFCF795
:10406000BCF89DED100B41EC1A0B53EC192B51ECE5
:10407000100BFCF726FA53EC1B2BFCF7AEF853ECB5
:104080001A2BFCF71EFA9DED100B41EC1A0B53ECAA
:10409000102B51EC100BFCF7A0F841EC1C0B9FED22
:1040A00084DB53EC1D2BFCF70CFA53EC1A2BFCF7BA
:1040B00008FA0A90CDE90A519DED0A0B53EC1D2B2D
:1040C00051EC100BFCF79EFA53EC1C2BFCF79AFA00
:1040D00053EC1A2BFCF799FA9DED0A0B41EC1C0BE3
:1040E00053EC102B9DED100B51EC100BFCF775F8F9
:1040F00041EC1A0B53EC192B51EC1C0BFCF76DF82F
:104100009DED0A0B41EC190B53EC102B51EC1B0BE2
:10411000FCF763F853EC192BFCF7D3F941EC190BBE
:1041200051EC1A0B53EC192BFCF7CBF91090CDE99D
:1041300010519DED100B53EC1A2B51EC100BFCF7AA
:1041400061FA53EC192BFCF760FA41EC190B9FED67
:104150005A0B53EC102B9DED100B51EC100BFCF790
:104160003CF841EC1A0B9FED560B51EC190B53EC3C
:10417000102BFCF732F841EC190B9FED530B53EC6D
:10418000102B9DED100B51EC100BFCF726F853ECA7
:10419000192BFCF796F941EC100B4D48784400EBD5
:1041A000C40090ED001B51EC100B53EC112BFCF7ED
:1041B00088F941EC190B4046FCF741FACDE90A01B8
:1041C00053EC192B51EC1A0BFCF77BF941EC100B5B
:1041D0004048784400EBC40090ED00BB51EC100B5C
:1041E00053EC1B2BFCF76DF99DED0A1B53EC112BC7
:1041F000FCF767F90690CDE906519DED0A0B53ECEB
:10420000102B9DED060B51EC100BFCF7FBF953EC5A
:104210001B2BFCF7F7F953EC1A2BFCF7F3F953ECD3
:10422000192BFCF7F2F941EC100B00BF781EB0EE31
:1042300048AAF0EE68AA5AEA000008BF9FED268B54
:104240009DED241B53EC102B8DED001B00959DED77
:10425000240B51EC100BFBF7C0FF9DED000B41EC64
:10426000190B53EC102B9DED240B51EC100BFCF7AC
:10427000C9F99DED061B53EC112BFBF7AEFF2FE0A8
:10428000FE822B654715F73F44DF5DF80BAE543EC9
:1042900000000000000040438E9803007AB60B0037
:1042A00044240000722400007C2300000000000071
:1042B0000000000000000840000000E009C7EE3FD9
:1042C000FD033ADC09C7EE3FF5015B14E02F3EBE6B
:1042D00010220000CA210000000000000000F0BF12
:1042E00053EC192BFCF7EDF89DED060B41EC190B87
:1042F00053EC102B9DED000B51EC100BFBF76DFFF9
:10430000CDE910019DED100B51EC190B53EC102B66
:10431000FCF7D7F8CDE902010C46AB498C422FDB04
:10432000611A084318D19DED100B53EC102B9DED35
:10433000020B51EC100BFCF765F941EC1B0B9FEDE8
:10434000A40B51EC190B53EC102BFCF7BAF853ECFF
:104350001B2BFCF785F92DD2022000F03DFA00F06E
:104360000BFA10EE901A18EE900A8DED020B8DEDFF
:10437000008B61F31E0003909DED020BFFF7EFBB76
:10438000954A24F00041914214D3944921440843B2
:104390007FF4E5AC9DED100B53EC102B9DED020B63
:1043A00051EC100BFCF72EF953EC192BFCF758F9D4
:1043B0007FF6D5AC24F0004089498A4A002601EBFB
:1043C000205182422BDA481C4FF4801121FA00F070
:1043D0002044854AC0F30A517A44A1F2FF3192ED9C
:1043E000000B824A8DED0A0BCA4020EA0202C0F39C
:1043F000130040F48010C1F1140120FA01F60B9271
:10440000002CB8BF76429DED0A0B53EC102B9DEDAE
:10441000100B51EC100BFCF7F5F8CDE910019DEDF8
:10442000100B51EC190B53EC102BFCF74AF89FEDD5
:10443000700B0A90CDE90A5153EC102B9DED0A0B3D
:1044400051EC100BFBF7C9FE41EC1B0B9FED6A0B07
:1044500053EC102B9DED0A0B51EC100BFBF7BDFE3E
:104460009DED100B41EC1C0B53EC102B9DED0A0B3A
:1044700051EC100BFCF7C6F853EC192BFCF7C5F800
:104480009FED5F1B53EC112BFBF7A7FE53EC1C2B8E
:10449000FCF717F841EC190B51EC1B0B53EC192BE3
:1044A000FCF70FF8CDE902019DED020B53EC1B2B3D
:1044B00051EC100BFCF7A6F853EC192BFCF7A5F800
:1044C0009DED020B41EC190B53EC102B51EC100B32
:1044D000FBF783FECDE90A014B489DED0A0B052150
:1044E000784400F099F89DED0A1B51EC100B53EC49
:1044F000112BFBF772FE9DED021B53EC112BFCF709
:1045000084F8CDE906019DED020B53EC192B51EC1B
:10451000100BFBF762FE53EC192BFBF7D2FF9FED5C
:104520003C0B41EC190B53EC102B9DED060B51ECA1
:10453000100BFCF767F89DED060B41EC1B0B53ECE1
:10454000102B9DED020B51EC100BFBF746FE53ECCC
:104550001B2BFBF7B4FE53EC192BFCF753F89DED26
:10456000021B53EC112BFCF74DF853EC1A2BFCF704
:104570004CF8CDE9020101EB065001150029C8BF36
:10458000039015DC9DED020B324651EC100BFCF74D
:104590003FF8FFF70DFA042808BF00F0FDF8324697
:1045A0009DED020B51EC100BFCF732F8CDE9020146
:1045B0009DED020B51EC180B53EC102BFBF70DFE8D
:1045C000FFF72DBB0000000000009040000000003D
:1045D000FE822B654715973C00CC904000346F3F1E
:1045E00001FCFFFF0000E03F3C200000FFFF0F0048
:1045F00000000000432EE63F396CA80C615C20BE31
:10460000EF39FAFE422EE63F0C1F000000000000CA
:10461000000000000000004070B504462DED028B44
:104620004D1E00EBC500B0EE408AF0EE608A90EDC2
:10463000000B35F0060017D053EC182B51EC100B83
:10464000FBF7CBFD41EC100B6D1E04EBC50090EDAC
:10465000001B51EC100B53EC112BFBF732FF41EC1C
:10466000100B35F00600E7D1022D36D0042D1CD0FA
:10467000062D1CBFBDEC028B70BD53EC182B51EC0A
:10468000100BFBF7AAFD94ED0A1B53EC112BFBF763
:1046900018FF53EC182BFBF7A0FD94ED081B53EC0F
:1046A000112BFBF70EFF41EC100B53EC182B51ECC8
:1046B000100BFBF792FD94ED061B53EC112BFBF74F
:1046C00000FF53EC182BFBF788FD94ED040B53EC23
:1046D000102BFBF7F6FE41EC100B53EC182B51ECB2
:1046E000100BFBF77AFD94ED021B53EC112BFBF73B
:1046F000E8FE53EC182BFBF770FD94ED001B53EC18
:10470000112BFBF7DEFEBDEC028B41EC100B70BDF4
:104710009FED070B10B553EC102B9FED070B51ECE1
:10472000100BFBF7CCFD41EC100B10BD000000009E
:104730000000000000000000000000000000F03F4A
:1047400010B553EC112B51EC100BFBF7BAFE41ECFA
:10475000100B10BD000000009FED050B10B553ECD1
:10476000102B51EC100BFBF7AAFD41EC100B10BD08
:1047700000000000000000009FED050B10B553EC99
:10478000102B51EC100BFBF728FD41EC100B10BD6A
:1047900000000000000000709FED050B10B553EC09
:1047A000102B51EC100BFBF718FD41EC100B10BD5A
:1047B000000000000000001002E008C8121F08C13D
:1047C000002AFAD170477047002001E001C1121F92
:1047D000002AFBD1704700000149086070470000C3
:1047E000BC00002082B0CDE9000121F00040019022
:1047F0009DED000B02B051EC100B704708B5FCF7B3
:1048000021FAFEF7D8FFFDF72DFCFDF7E9FBFDF7D8
:10481000B9FCFBF7C1FF7948794C0425006820609A
:10482000162020714FF49650A06041F28830E0606D
:10483000800060610B20207405202083A5764FF056
:10484000030884F81B800120207760776421A1771A
:10485000F221E17784F82000FEF7FEFE50B1FDF76B
:104860005DFC0021182367A20846FDF715FEFDF741
:1048700059FDF4E74FF4FA70FDF716FC6348FDF7B5
:104880001DFA00210C2362A20846FDF705FE0C2646
:104890000096A246092300212A202268FDF7C0FDC8
:1048A0000C2360A219460020FDF7F6FD00960623B2
:1048B0000C213020A268FDF7B3FD0C235EA2182165
:1048C0000020FDF7E9FD0096062318211E20E2686E
:1048D000FDF7A6FD0C235CA224210020FDF7DCFDE2
:1048E0000096062324213C206269FDF799FD0C23E4
:1048F0005AA230210020FDF7CFFD404C0096703CBD
:104900000323E28830210C20FDF78AFD0C2354A2FA
:1049100030214820FDF7C0FD009603232289302175
:104920005420FDF77DFDFDF7FDFCFBF75CFFFEF776
:104930000BF94FF0904B4FF47A774FF00009E07885
:1049400001281AD002280DD0032803D0042848D10A
:1049500000BF46E0E570FBF746FF28486638FEF7E3
:104960001BF93EE0E570FBF73EFFFEF7EDF8012294
:1049700020215846FCF753F933E0E5709AF81D0002
:1049800008B9FEF7C0FAFBF72CFF3648FEF7C0F86F
:10499000E088401C80B2E080B84202D34846A4F8C8
:1049A000069082B2032330210C200096FDF738FDDB
:1049B00012490A2266392B48FBF702FCA0B1208974
:1049C000401C80B22081B84202D34846A4F8089027
:1049D00082B20323302154200096FDF721FD84F894
:1049E0000380FDF79FFCAAE7002220215846FCF730
:1049F00016F91D4880792070F1E70000A80000201A
:104A0000100000204552526F52000000C0000020EC
:104A100046534B2D54583A2020202020202020207F
:104A200020487A00426974526174653A202020203F
:104A30002020206270730000466465763A202020B2
:104A400020202020487A000042616E6477696474F7
:104A5000683A20202020202020487A00523A000086
:104A6000453A00001C0600200800002000B52DED8E
:104A7000048B83B041EC190BFBF73DFE41EC180BA6
:104A800018EE100A18EE901A8DED008B002818BF52
:104A90000120084320F00040C0F17F6000F1E040B9
:104AA000C00F14D019EE101A19EE900A8DED009B6C
:104AB000002918BF0121084320F00040C0F17F60A9
:104AC00000F1E040C00F04BF0120FFF785FE51EC6C
:104AD000180B03B0BDEC048B00BD0000000000000B
:104AE000000000000000000000003F400000000047
:104AF00000000000300040003000400000000900CD
:104B00000BC03D000BC03D00090018C024407FE0F1
:104B1000224031800000180024C01B000D8032406C
:104B2000018003801C4027401C800740004010008B
:104B30006000000000000000000000000000000015
:104B40001F80204040200000402020401F800000A7
:104B50000000090006001F80060009000000040094
:104B600004003F800400040000000010006000000A
:104B70000000000000000400040004000400040021
:104B800000000000004000000000000000000020C5
:104B900001C006003800400000001F802040204077
:104BA00020401F800000000010403FC00040000077
:104BB000000018C02140224024401840000010800E
:104BC0002040244024401B80000002000D00110002
:104BD0003FC0014000003C8024402440244023800A
:104BE00000001F8024402440344003800000300037
:104BF000200027C03800200000001B8024402440F3
:104C000024401B8000001C0022C0224022401F8044
:104C1000000000000000084000000000000000004C
:104C200000000460000000000000000004000A0012
:104C30001100208040400900090009000900090016
:104C4000000000004040208011000A00040018000D
:104C5000200023402400180000001F80204027402F
:104C600029401F400000004007C039000F0001C06C
:104C7000004020403FC0244024401B8000001F8093
:104C80002040204020403080000020403FC0204095
:104C900020401F80000020403FC024402E4030C0F4
:104CA000000020403FC024402E00300000000F00D4
:104CB0001080204022403380020020403FC004008A
:104CC00004003FC02040204020403FC02040204002
:104CD00000000060202020203FC020002000204055
:104CE0003FC024400B0030C0204020403FC0204047
:104CF0000040004000C03FC03C0003C03C003FC03B
:104D0000000020403FC00C4023003FC020001F8017
:104D10002040204020401F80000020403FC0244011
:104D20002400180000001F802140214020E01FA027
:104D3000000020403FC02440260019C0004018C099
:104D400024402440224031800000300020403FC0F9
:104D500020403000000020003F80004000403F80A5
:104D6000200020003E0001C007003800200038006D
:104D700007C03C0007C038000000204039C00600D2
:104D800039C0204000002000384007C038402000D3
:104D90000000304021C02640384020C00000000004
:104DA00000007FE0402040200000000070000C0068
:104DB0000380004000000000402040207FE0000011
:104DC0000000000020004000200000000000001053
:104DD0000010001000100010001000000000400043
:104DE000000000000000000002800540054003C0F4
:104DF000004020003FC00440044003800000000049
:104E0000038004400440064000000000038004408A
:104E100024403FC00040000003800540054003409F
:104E20000000000004401FC0244024402000000077
:104E300002E0055005500650042020403FC00440C9
:104E4000040003C000400000044027C000400000F0
:104E5000000000100010041027E0000000002040B7
:104E60003FC00140070004C00440204020403FC034
:104E700000400040000007C0040007C0040003C059
:104E80000000044007C00440040003C000400000CC
:104E900003800440044003800000041007F0045025
:104EA000044003800000000003800440045007F029
:104EB0000010044007C0024004000400000000008D
:104EC00006400540054004C00000000004001F80AB
:104ED000044000400000040007800040044007C078
:104EE00000400400070004C0018006000400060022
:104EF00001C0070001C006000000044006C0010018
:104F000006C0044000000410071004E00180060001
:104F100004000000044005C00640044000000000FA
:104F2000000004007BE040200000000000000000C2
:104F3000FFF000000000000040207BE004000000C3
:104F400000004000800040002000200040000000E1
:104F50000000000000000000000000000000000051
:104F6000000000001FCC000C00000000000000004A
:104F700008003000600008003000600000000220DF
:104F800003FC1E20022003FC1E2002200000000063
:104F90000E1811043FFF10840C78000000000F0071
:104FA00010840F3800C0077818840078000000785B
:104FB0000F8410C411240E9800E400840008080037
:104FC0006800700000000000000000000000000009
:104FD0000000000007E01818200440020000000054
:104FE00040022004181807E0000000000000024002
:104FF000024001800FF0018002400240000000806A
:10500000008000800FF80080008000800000000118
:10501000000D000E00000000000000000000000075
:105020000080008000800080008000800080000000
:10503000000C000C00000000000000000000000058
:105040000006001800600180060018002000000023
:1050500007F0080810041004080807F0000000001A
:10506000080408041FFC0004000400000000000005
:105070000E0C10141024104411840E0C00000000BB
:105080000C1810041104110412880C7000000000A8
:1050900000E00320042408241FFC0024000000007A
:1050A0001F98108411041104108810700000000073
:1050B00007F008881104110418880070000000002F
:1050C0001C00100010FC13001C0010000000000069
:1050D0000E3811441084108411440E380000000072
:1050E0000700088C10441044088807F000000000F6
:1050F00000000000030C030C000000000000000092
:105100000000000101060000000000000000000097
:105110000080014002200410080810040000022052
:1051200002200220022002200220022000000000B3
:105130001004080804100220014000800000000054
:105140000E001200100C106C10800F00000003E025
:105150000C1813E4142417C4082807D00000000416
:10516000003C03C41C40074000E4001C0004100481
:105170001FFC1104110411040E880070000003E0EC
:105180000C1810041004100410081C100000100467
:105190001FFC100410041004080807F0000010049D
:1051A0001FFC1104110417C4100408180000100497
:1051B0001FFC1104110017C010000800000003E0DC
:1051C0000C181004100410441C7800400000100457
:1051D0001FFC10840080008010841FFC100400005D
:1051E000100410041FFC1004100400000000000351
:1051F0000001100110011FFE10001000000010043B
:105200001FFC110403801464181C10040000100417
:105210001FFC1004000400040004000C0000100433
:105220001FFC1F0000FC1F001FFC100400001004E6
:105230001FFC0C04030000E010181FFC100007F016
:105240000808100410041004080807F000001004F7
:105250001FFC10841080108010800F00000007F0E9
:10526000081810241024101C080A07F2000010046B
:105270001FFC1104110011C011300E0C00040000BD
:105280000E1C11041084108410441C3800001800F7
:10529000100010041FFC1004100018000000100083
:1052A0001FF810040004000410041FF81000100080
:1052B0001E0011E0001C007013801C0010001FC0B5
:1052C000103C00E01F0000E0103C1FC00000100474
:1052D000180C163401C001C01634180C100410004C
:1052E0001C00130400FC13041C0010000000080440
:1052F000101C1064108413041C041018000000001B
:10530000000000007FFE400240024002000000005A
:1053100030000C0003800060001C0003000000004F
:105320004002400240027FFE00000000000000003A
:10533000000020004000400040002000000000016C
:105340000001000100010001000100010001000056
:1053500040004000200000000000000000000000AD
:105360000098012401440144014400FC00041000A1
:105370001FFC008801040104008800700000000088
:10538000007000880104010401040088000000008E
:10539000007000880104010411081FFC00040000D3
:1053A00000F8014401440144014400C80000000029
:1053B000010401040FFC1104110411001800000085
:1053C00000D601290129012901C9010600001004A4
:1053D0001FFC008401000100010400FC0004000027
:1053E0000104190419FC000400040000000000007E
:1053F000000300010101190119FE00000000100462
:105400001FFC0024004001B4010C01040000000056
:10541000100410041FFC000400040000000001043C
:1054200001FC0104010001FC0104010000FC010475
:1054300001FC008401000100010400FC00040000E4
:1054400000F8010401040104010400F80000010156
:1054500001FF0085010401040088007000000000C5
:105460000070008801040104010501FF000101042E
:10547000010401FC0084010401000180000000001F
:1054800000CC012401240124012401980000000023
:105490000100010007F80104010400000000010000
:1054A00001F8000400040004010801FC00040100EC
:1054B00001800170000C001001600180010001F00A
:1054C000010C003001C00030010C01F001000000AF
:1054D0000104018C00740170018C010400000101C1
:1054E00001810171000E00180160018001000000BF
:1054F0000184010C013401440184010C000000000E
:1055000000000000000001003EFC400240020000DC
:10551000000000000000FFFF00000000000000008D
:10552000400240023EFC01000000000000000000BC
:10553000600080008000400040002000200000004B
:10554000000000000000000000000000000000005B
:10555000000000000000000000000000000000004B
:10556000000000000000000000000000000000003B
:10557000000F80380FFE380F803800000000000058
:105580000000000000000000000000000100000614
:1055900000000C00003800003100000600000C0084
:1055A00000380000300000000000000000006180B2
:1055B0000067F807F9800061800061800061800069
:1055C00061800067F807F98000618000000000003A
:1055D0000000000001C0E003E0F0063008041808F5
:1055E0001FFFFE040E080787F00381E000000000A3
:1055F000000001F000060C00040408060C7001F91C
:10560000C0000E00003BE000EC18070808040C186E
:105610000003E00000000001E00007F003F81804B8
:105620001C0804170807E1D003C0E00023B0003CC9
:105630000800200800001000000000000001000029
:105640003100003200001C000000000000000000DB
:10565000000000000000000000000000000000004A
:1056600000000000000000000000000000007F00BB
:1056700001FFC00780F00C00181000042000020099
:1056800000000000002000021000040C0018078039
:10569000F001FFC0007F00000000000000000000DB
:1056A0000000000000000000000042000066000052
:1056B0006600003C0000180003FFC0001800003C1A
:1056C00000006600006600004200000000000800C4
:1056D00000080000080000080000080001FFC000EA
:1056E0000800000800000800000800000800000092
:1056F0000000000100003100003200001C0000002A
:105700000000000000000000000000000000000099
:105710000000000000000800000800000800000869
:105720000000080000080000080000080000080051
:105730000008000000000000000000000000380029
:1057400000380000380000000000000000000000E9
:105750000000000000000000000000000000000643
:1057600000001C000070000180000E0000380000E6
:10577000C0000700001C0000300000000000000016
:1057800000007F8001FFE00380700600180400081D
:1057900004000806001803807001FFE0007F80000D
:1057A00000000000000000000100080100080100E6
:1057B0000803FFF807FFF8000008000008000008D1
:1057C00000000000000000000001C03802C05804C2
:1057D0000098040118040218040418061C1803F8A1
:1057E0001801E0F800000000000000000001C0E027
:1057F00003C0F00400080408080408080618080399
:10580000F41801E7F00001E00000000000000000D3
:1058100000000300000D000011000061000081087D
:1058200003010807FFF80FFFF80001080001080056
:1058300000000000000000E007FCD0060808061089
:1058400008061008061008061838060FF00607C0EC
:10585000000000000000000000003F8001FFE003A6
:1058600084300208180410080410080410080718EF
:1058700010030FF00007C00000000000000000004F
:1058800003C0000700000600000600F80607F8063F
:10589000180006E0000700000600000000000000FD
:1058A0000001E1E003F7F0063410041808041808BA
:1058B000040C08040C0806161803F3F001C1E000FC
:1058C000000000000000F80003FC3003063804026A
:1058D000080402080402080404100308F001FFC0D1
:1058E000007F000000000000000000000000000039
:1058F00000000000000070380070380070380000B0
:105900000000000000000000000000000000000097
:1059100000000000000000000000301A00301C00F1
:105920000000000000000000000000000000000077
:1059300000000000000800001400002200004100E8
:1059400000808001004002002004001008000800D0
:1059500000000000000021000021000021000021C3
:105960000000210000210000210000210000210092
:1059700000210000000000000000000008000804F2
:105980000010020020010040008080004100002241
:105990000000140000080000000000000003C00028
:1059A00004C000040000080038080F380808380850
:1059B00010000C300007E00003C0000000000000F1
:1059C00000003F8000FFE0038070020F1006708827
:1059D00004C088048308047F8802C090030120006B
:1059E000FE400000080000180001F8003E0801C257
:1059F0000007020007E20000FE00001FC80001F8D7
:105A000000003800000804000807FFF807FFF8044A
:105A1000080804080804080804080806180803F41D
:105A20001801E7F00001E0000000000000003F80E6
:105A300001FFE0038070020018040008040008045D
:105A400000080400100600200780C00000000400C9
:105A50000807FFF807FFF80400080400080400081E
:105A600004001802001003807001FFE0007F800036
:105A7000000004000807FFF807FFF80408080408FE
:105A800008040808040808043E0804000806001872
:105A900001006000000004000807FFF807FFF80499
:105AA0000808040800040800040800043E0006007A
:105AB00000060000018000000000000000003F80A0
:105AC00001FFE003807006001804000804020804C7
:105AD00002080203F00783F0000200000200040045
