:020000040800F2
:10000000181700209D0100081D2D00081728000862
:10001000892B0008D9080008C14D00080000000025
:10002000000000000000000000000000A3380008ED
:100030004B090008000000008D320008CD45000883
:10004000B7010008B7010008B7010008B7010008B0
:10005000B7010008B70100084D0900085B09000856
:10006000B70100087309000875090008B701000806
:10007000B7010008B7010008B7010008B701000880
:10008000B7010008B7010008B7010008B701000870
:10009000B7010008B7010008B70100088D09000882
:1000A000B7010008B7010008B7010008B701000850
:1000B000B701000899460008A5460008B7010008E6
:1000C000B7010008B7010008B7010008B701000830
:1000D000B7010008B7010008AD4D0008B7010008DE
:1000E00053090008B7010008B7010008B70100086C
:1000F000B7010008B7010008B7010008B701000800
:10010000B7010008B7010008B7010008B7010008EF
:10011000B7010008B7010008B7010008B7010008DF
:10012000B7010008B7010008B7010008B7010008CF
:10013000B7010008B7010008B7010008B7010008BF
:10014000B7010008B7010008B7010008B7010008AF
:10015000B7010008B7010008B7010008B70100089F
:10016000B7010008B7010008B7010008B70100088F
:10017000B7010008B7010008B7010008000000003F
:10018000B7010008B7010008DFF80CD000F0E0FA72
:1001900000480047CD5C000818170020064880473B
:1001A00006480047FEE7FEE7FEE7FEE7FEE7FEE75C
:1001B000FEE7FEE7FEE7FEE7554600088901000876
:1001C0002DE9F05F0546002092469B46884606468C
:1001D000814640241BE0284641464746224600F01F
:1001E000E6F853465A46C01A914110D311461846B4
:1001F000224600F0CDF82D1A67EB01084F46224643
:100200000120002100F0C4F817EB00094E41201E28
:10021000A4F10104DFDC484631462A46434600F09B
:1002200000B830BCBDE8C09F40EA01039B0703D083
:1002300009E008C9121F08C0042AFAD203E011F825
:10024000013B00F8013B521EF9D2704730B504461D
:100250000020034600E05B1C934203D2E05CCD5CCF
:10026000401BF8D030BD2DE9F04D81EA030404F0C5
:10027000004B21F0004514464FF0000A23F00041E6
:1002800050EA050220D054EA01021DD0C5F30A57F6
:100290000246C5F31303C1F31300C1F30A5640F439
:1002A000801543F48013A7EB0608101BD64608F20E
:1002B000FD3873EB050002D308F1010801E0921844
:1002C0005B41B8F1000F03DA00200146BDE8F08D74
:1002D00000204FF48011064684460EE0171B73EB96
:1002E000050705D3121B63EB050306434CEA010C1B
:1002F00049084FEA300092185B4150EA0107EDD1FE
:1003000052EA030012D082EA040083EA050108439E
:1003100005D0101BAB4106D20122002306E00022CB
:100320004FF0004302E06FF0010253101AEB060099
:100330004CEB085110EB0A0041EB0B01BDE8F04D0E
:1003400000F045B80EB540F2334102910021CDE9ED
:1003500000110A460B4600F049F803B000BDC1F396
:100360000A5210B5C1F3130140F2FF3341F480117A
:100370009A4201DA002010BD40F233439A42A2F2C1
:10038000334203DC524200F012F810BD904010BD21
:10039000202A04DB203A00FA02F100207047914045
:1003A000C2F1200320FA03F3194390407047202A3A
:1003B00004DB203A21FA02F00021704721FA02F30F
:1003C000D040C2F12002914008431946704710B551
:1003D000141E73F1000408DA401C41F10001921868
:1003E0005B411A4301D120F0010010BD2DE9F04D11
:1003F00092469B4611B1B1FA81F202E0B0FA80F266
:1004000020329046FFF7C4FF04460F4640EA0A0038
:1004100041EA0B0153465A46084313D0114653EAAA
:10042000010019D0C8F140025046FFF7C0FF054651
:100430000E46504659464246FFF7AAFF084305D0EC
:10044000012004E020463946BDE8F08D0020054338
:1004500046EAE0762C4337430A986305E40AA0EBAA
:1004600008000022FD0A44EA47540A3002D5002061
:100470000146E9E7010510196941DDE90845001960
:100480006941BDE8F04DA2E72DE9FE4F804681EAC3
:100490000300C00F0C46009021F0004123F00045FE
:1004A000B8EB0200A94105D24046214690461C46C1
:1004B0000B46024623F00040104347D0270DC7F3F8
:1004C0000A00C3F30A510290401A019040286BDAE7
:1004D000C3F3130040F4801B0098924620B1002320
:1004E000D2EB030A63EB0B0B01985946C0F14002B3
:1004F0005046FFF74DFF06460D4650465946019AB5
:1005000000F038F910EB08006141002487EA11522D
:1005100084EAE7731A4340D0009A62B3019A012A31
:100520004FEA075215DC001B61EB02014FF000425D
:1005300002EA0752CDE90042001C41F58011324623
:100540002B46FFF753FF03B000F045B84046214665
:10055000F9E7001B61EB0201001C41F58013001854
:100560005B412018A2F5001747EB030140EAD57064
:10057000B6196D4111E06D084FEA360645EAC075BF
:100580004FEA0752001B61EB0201001C41F580118C
:1005900049084FEA30000019514132462B4603B05A
:1005A00000F01CB8FFF713BF0098012240000023A1
:1005B000D0EB020263EBE073009821464FEAE0744F
:1005C000B8EB000061EB0401E9E783F000435BE76F
:1005D00081F0004158E730BCBDE8C08F30BCBDE8B9
:1005E000C04FFFF7DFBF2DE9FE4F81EA030404F09F
:1005F000004421F0004100944FF0000B23F0004331
:1006000050EA01045ED052EA03045BD0C3F30A54FB
:10061000C1F30A552C44A4F2F3340194A0FB025414
:10062000C1F3130141F48011C3F3130343F48013A6
:1006300001FB024400FB034E840A970A44EA8154FA
:1006400047EA8357A4FB076802958D0A05FB0785D7
:100650004FEA932C04FB0C542705029D4FEA0658E1
:1006600047EA1637B5EB08056EEB070C870E920EBE
:1006700047EA811742EA8312A7FB0201B6EB0B019E
:1006800064EB00042B0D43EA0C335E1844EB1C5062
:10069000DA465146E7FB0201C5F313044FEA0B3378
:1006A00043EA14534FEA0432019C43EA0603A4F1DF
:1006B0000C040294009CCDE900B4FFF797FE03B050
:1006C00000F003B800200146F9E730BCBDE8C08F58
:1006D00070B521F0004303430CD0C1F30A55002448
:1006E000D5EB040564EB0403D617AD1AB34102DB66
:1006F0000020014670BD201841EB025170BD0EB5BF
:10070000C10F80EAE0700844CA07002140F2334379
:100710008DE80E000A460B46FFF768FE03B000BDE9
:1007200030B5041E71F1000404DB4FF00044404278
:1007300064EB0101141E73F1000405DB1C464FF04D
:100740000043524263EB0403994208BF904230BD1C
:10075000064C074D06E0E06840F0010394E807000E
:1007600098471034AC42F6D3FFF712FD987A000890
:10077000D87A0008202A06DBCB17203A41FA02F08B
:1007800043EAE07306E041FA02F3D040C2F12002EE
:1007900091400843194670472DE9F04D00231A4651
:1007A0001B1A8A4103DB00200146BDE8F08DC1F32E
:1007B0000A52C1F3130141F480154FF0000BD10729
:1007C00002D100186D41521E0027044640F2FF116D
:1007D000384601EB620A3E468046024600204FF44E
:1007E0008011FFF7E4FDC2197141BB1846EB01000F
:1007F000B4EB030C75EB000C04D3E41A65EB0005B5
:1008000017460E46241908F101006D418046342830
:10081000E3DDF91946EB0600091BA84103D24FF0AE
:10082000FF32134601E0002213461BEB070046EBA4
:100830000A51BDE8F04DFFF7CABD70B58C1810F82D
:10084000015B15F0070301D110F8013B2A1106D115
:1008500010F8012B03E010F8016B01F8016B5B1E2F
:10086000F9D12B0705D40023521E0DD401F8013B0A
:10087000FAE710F8013BCB1A921C03E013F8015B76
:1008800001F8015B521EF9D5A142D8D3002070BDFA
:1008900030B50F4887B0C16C41F00801C164C06C2D
:1008A0004FF4806400F0080005900120CDE900407D
:1008B0000020084D029003906946284600F0DEFAB9
:1008C00000222146284600F0C7FB07B030BD0000DB
:1008D00000100240000C0048FEE7000070B50C4C10
:1008E000102520680562022000F09AF92168402056
:1008F00008621E22A4F16801204601F03FFF206833
:10090000016841F0100101602068056270BD0000BF
:10091000540E002003F056B803F057B803F02AB87D
:1009200030B590F844500124AC40056C6C6004680C
:1009300063608368102B036803D099600068C2600D
:1009400030BD9A600068C16030BD7047012000F082
:1009500089BA4FF4004000F085BA10B5072000F0C6
:10096000EFFB022000F07EFABDE81040072000F007
:10097000F2BB704710B50A2000F0E2FB102000F037
:1009800071FABDE810400A2000F0E5BB4FF440705A
:1009900000F068BAFEE70000CA070F494A6902D0B2
:1009A00022F4006201E042F400624A614A694FF4B5
:1009B000FF6393FAA3F3B3FA83F322F4FF62984040
:1009C00002434A61486940F002004861486940F4C6
:1009D0008030486170470000002002402DE9F0415E
:1009E0000D460746002400F033F90026B7F1006FEA
:1009F00002D9A7F10067FE0A680503D0012000EBC9
:100A0000D52500E0ED0A0E4F14E03019FF2801D97A
:100A1000022100E00121FFF7BFFF3869C003FCD4C9
:100A2000786920F002007861786920F4FF607861CD
:100A3000641CA4B2AC42E8D3BDE8F04100F0FEB8BB
:100A40000020024041F61A20704710B590F825208A
:100A50000021022A03D00421C163012115E00268AC
:100A6000136823F00E0313600268136823F0010378
:100A7000136090F84430012404FA03F2036C5A60C6
:100A800080F82540002280F82420084610BD10B5CB
:100A900090F825100024022903D00421C163012409
:100AA00018E001680A6822F00E020A6001680A680C
:100AB00022F001020A6090F84420012303FA02F1B7
:100AC000026C516080F82530002180F82410816B81
:100AD00001B18847204610BD70B570B1314D016835
:100AE0001424314A8368A94209D2304D0D44B5FB24
:100AF000F4F4A400C0E910240BE0012070BD294DDE
:100B00006D420D44B5FBF4F4A4004464254C083C4C
:100B10000464022480F825400C6843F6F075AC4369
:100B2000C5682B43D0E9045635432B4385692B43D5
:100B3000C5692B43056A2B4323430B608168B1F5DC
:100B4000804F21D0016C0F2391420ED152F8A81F83
:100B500090F84440A3409943116090F844304168B4
:100B600099401368194311600EE00E49A0310A68DC
:100B700090F84440A3409A430A6090F84430426899
:100B80009A400B681A430A600021C1620163416305
:100B90008163C163012280F8252080F82410084673
:100BA00070BD00000804024000000240F8FFFDBFD5
:100BB00070B5044690F82400002501280CD00120CF
:100BC00084F8240094F825600020012E06D084F8D3
:100BD00024000225284670BD022070BD022684F83C
:100BE0002560E0632068066826F00106066020465E
:100BF000FFF796FE206B00282068016802D041F0C4
:100C00000E0106E021F0040101602068016841F056
:100C10000A0101602068016841F001010160D9E723
:100C200070B5044600F01EFA0546601C00D0641C36
:100C300000F018FA401BA042FAD370BD0348416986
:100C400041F0004141610020704700000020024057
:100C500005484169002905DA044981600449816039
:100C600000207047012070470020024023016745A3
:100C7000AB89EFCD2DE9F843DFF8CC914FF4004775
:100C80003946484600F0E3F9704C714D4FF00508C5
:100C90000C26B8BB3220FFF7C3FF3946484600F0A8
:100CA000D6F978BB6B4801F06DFAE878401CC1B208
:100CB000E970FF20491F082916D2DFE801F0040778
:100CC0000A0C2C333A4184F805800DE0062060714F
:100CD0000AE0072100E008216171009000230A2248
:100CE0001621012003F0B7F900960223EA781821B3
:100CF000122002F014FA02F033F9E8780B2801D937
:100D00000420E870544F4FF480794946384600F08B
:100D10009EF9E0B13FE00921617100230A22172109
:100D2000009012E00A21617100230A461821009008
:100D30000BE00B21617100230A221921009004E0CD
:100D4000667100230A221A2100900220CAE732208D
:100D5000FFF766FF4946384600F079F9D8B93D48B3
:100D600001F010FAFFF7D6FD28793949401C40B24E
:100D70002831287151F82020226009230C213020CD
:100D8000009602F0CCF902F0EBF895F90400042883
:100D900001DBFF2028714FF400794946384600F006
:100DA00056F9A0BB3220FFF73BFF4946384600F01A
:100DB0004EF960BB03F084FB50B101F0CDFF182366
:100DC00026A20C21002002F0E9F902F0C9F8F4E7AC
:100DD00000272F816F8103233A4630211820009687
:100DE00002F09DF9009603236A8930214E2002F01B
:100DF00096F902F0B5F802F06FFF002002F06EFFE6
:100E00004FF47A6001F05AFE02F034FAAF71FFF746
:100E100085FD012815D103F044F80646C00701D02E
:100E20000320A87106F04200022806D1207A01288A
:100E300001D102F0F8FF0220A871300601D585F833
:100E40000680BDE8F8830000000400481000002080
:100E5000280000207C000020000C004845526F5202
:100E600000000000044910B50A68024202D0086080
:100E7000FFF700FF10BD0000140401402DE9F84FFA
:100E8000DFF8A091002209F1040A0AF1040B4FF0E7
:100E90000F080BF1040EBEE001249440234075D0EE
:100EA0004D68022D01D0122D11D1D50800EB850718
:100EB0003E6A5507ED0E08FA05FC26EA0C06D1F845
:100EC00010C00CFA05FC4CEA060CC7F820C00768F5
:100ED0005500032691F804C0AE400CF0030CB74354
:100EE0000CFA05FC4CEA070CC0F800C04F68012F53
:100EF00005D0022F03D0112F01D0122F15D18768F2
:100F0000D1F80CC0B7430CFA05FC4CEA070CC0F84A
:100F100008C0476891F804C0A743CCF3001C0CFA42
:100F200002FC4CEA070CC0F804C0D1F804C06FEA18
:100F30000C07BF0706D1C76AA743CCF3C00494408F
:100F40003C43C462C468B4438E68AE402643C66066
:100F50004C68E4005ED5344C256E45F001052566ED
:100F6000246E22F0030504F0010400942F4C2E1986
:100F7000B7689407250F08FA05F4A743B0F1904F1E
:100F800005D02B4CA04204D101241CE042E00024F7
:100F900019E0284CA04201D1022414E0264CA042C2
:100FA00001D103240FE0254CA04201D104240AE022
:100FB000234CA04201D1052405E0224CA04201D1DE
:100FC000062400E00724AC403C43B460D9F800405C
:100FD0004D464E689C43F60300D51C432C60DAF85E
:100FE000004055464E689C43B60300D51C432C6018
:100FF000DBF800405D464E689C43F60200D51C437A
:101000002C60DEF8004075464E689C43B60200D561
:101010001C432C60521C0B6833FA02F47FF43CAF83
:1010200000F012B80004014000100240000001402E
:101030000004004800080048000C00480010004868
:10104000001400480018004818BCBDE8E08F006993
:10105000084000D0012070470AB181617047816269
:101060007047000001480068704700000000002041
:1010700002480168491C0160704700000000002020
:1010800010B5032000F092F8002000F005F800F001
:1010900017F8002010BD000010B5044607484FF4B3
:1010A0007A710068B0FBF1F000F0C8FF0022214621
:1010B000501E00F05BF8002010BD00002000002052
:1010C0001E4808B5016E41F001010166016E01F094
:1010D00001010091816D41F080518165806D00F0CA
:1010E00080500090032000F061F8002211466FF05C
:1010F0000B0000F03BF8002211466FF00A0000F0F0
:1011000035F8002211466FF0090000F02FF8002298
:101110001146501F00F02AF800221146101F00F05F
:1011200025F800221146901E00F020F80022BDE8AC
:1011300008401146501E00F019B80000001002408F
:1011400000F01F02012191404009800000F1E020E1
:10115000C0F88011704700F01F0201219140400942
:10116000800000F1E020C0F800117047F0B40E4B91
:101170001B68C3F30223C3F10704042C00D9042421
:101180001D1D072D01D2002300E0DB1E012606FAFB
:1011900004F56D1E0D409D409E40761E164045EAAA
:1011A0000601F0BC01F0BBBD0CED00E0064A00F00A
:1011B000070110684FF6FF03184040EA0120034979
:1011C00008431060704700000CED00E00000FA05D5
:1011D0001549B0F5007F0868C0F3412009D0022806
:1011E00005D0086820F4C06040F4806008600020EA
:1011F00070470128FBD0086820F4C06040F40070FC
:1012000008600A480A4A0068B0FBF2F032225043F4
:1012100000E0401E10B14A695205FAD44869400501
:10122000E5D503207047000000700040200000203A
:1012300040420F000248006800F4C06070470000A0
:10124000007000402DE9F84F044600250088E44E68
:101250002F46010504F1200B1DD5606E78B1B0F565
:10126000800F11D0B0F5000F04D0B0F5400F22D0A0
:1012700001250FE0F06840F48030F0601BE00021B1
:10128000201D02F01FF803E00021584602F0D0F8BC
:10129000050010D02F462088C00426D5A06EC0B10E
:1012A000B0F1807F1AD0B0F1007F0DD0B0F1407F57
:1012B00019D0012518E0D6F88800616E20F44000AE
:1012C0000843C6F88800E6E7F06840F48030F06034
:1012D00009E00021201D01F0F5FF03E00021584640
:1012E00002F0A6F80546F5B12F462068800366D5C2
:1012F000B06D4FF00009C00009D4B06D40F08050CF
:10130000B065B06D4FF0010900F080500090DFF83B
:10131000D4A2DAF8001041F48071CAF80010FFF787
:10132000A1FE804610E0D6F88800A16E20F0407043
:101330000843C6F88800D8E7FFF794FEA0EB080042
:10134000022801D9032532E0DAF80000C005F3D500
:101350006DBBD6F8900010F4407015D0D4F884100E
:10136000814211D0D6F89000D6F8901020F4407049
:1013700041F48031C6F89010D6F8901021F48031F5
:10138000C6F89010C6F89000C0074ED0FFF76AFE6E
:10139000804641F2883A05E0FFF764FEA0EB0801C1
:1013A0005145CFD8D6F890008007F5D5EDB32F463C
:1013B000B9F1000F03D0B06D20F08050B0652078F7
:1013C000C00707D0D6F88800A16B20F003000843BF
:1013D000C6F888002078800707D5D6F88800E16B2A
:1013E00020F00C000843C6F888002078400707D595
:1013F000D6F88800216C20F030000843C6F8880039
:101400002078000707D5D6F88800616C20F0C0006E
:101410000843C6F888002078C00609D5D6F88800A9
:10142000A16C20F44070084300E05AE0C6F8880040
:101430002078800607D5D6F88800E16C20F440605B
:101440000843C6F888002088800507D5D6F88800AC
:10145000E16D20F440200843C6F88800208840054C
:1014600007D5D6F88800216E20F440100843C6F84E
:1014700088002078400607D5D6F88800216D20F432
:1014800040500843C6F888002078000607D5D6F8F3
:101490008800616D20F440400843C6F88800208829
:1014A000C00507D5D6F88800A16D20F44030084368
:1014B000C6F8880020884FF0006580044FF08068EF
:1014C00021D5D6F88800E16E20F040600843C6F8C8
:1014D0008800E06EA8420ED1F06840F48010F06001
:1014E00011E0D6F89000D4F8841020F4407008433E
:1014F000C6F890005CE7404505D10121201D01F0B0
:10150000E1FE00B107462068000317D5D6F8880031
:10151000216F20F040600843C6F88800206FA84281
:1015200004D1F06840F48010F06007E0404505D138
:101530000121201D01F0C6FE00B1074620684003CE
:1015400017D5D6F88800616F20F040600843C6F8D0
:101550008800606FA84204D1F06840F48010F06009
:1015600007E0404505D10121201D01F0ABFE00B18F
:101570000746208840041AD5D6F88800A16F20F0CD
:1015800040500843C6F88800A06FB0F1805F03D0D8
:10159000B0F1005F05D00AE00221201D01F092FEAB
:1015A00003E00221584601F043FF00B107462088BE
:1015B000000407D5D6F88800E16F20F0804008438A
:1015C000C6F888002068C00307D556F8880FD4F8FD
:1015D000801020F0004008433060384600F004B826
:1015E000001002400070004018BCBDE8E08F000011
:1015F0002DE9F047DFF8648104460E46D8F8000074
:1016000000F00700B0420CD2D8F8001021F007011A
:101610003143C8F80010D8F8000000F00700B042CD
:1016200072D120784E4F800705D5B868A16820F0A8
:10163000F0000843B8602078C00754D060680228E2
:1016400018D0032819D03968D0B1490500295BDAD0
:10165000B96821F003010143B960FFF703FD0546B6
:10166000606841F28831022812D003281DD08946D3
:1016700038B333E039688903E8E739688901E5E779
:101680008907E3E7FFF7EEFC411B494501D922E05A
:101690008946B868C0F381000228F3D123E0FFF740
:1016A000E1FC411B494501D915E08946B868C0F302
:1016B00081000328F3D116E0FFF7D4FC411B494514
:1016C00009D8B86810F00C0FF6D10CE0FFF7CAFC8F
:1016D000411B494502D90320BDE8F087B868C0F333
:1016E00081000128F2D1D8F80010404601F007012E
:1016F000B1420BD9016821F0070131430160006854
:1017000000F00700B04201D00120E5E72078400753
:1017100005D5B868E16820F4E0600843B860207837
:10172000000706D5B868216920F4605040EAC1007E
:10173000B86000F051F8B968F02292FAA2F201F014
:10174000F001B2FA82F2D140064A515CC840064923
:1017500008600020FFF7A0FC0020BDE70020024049
:1017600000100240BC7900082000002001480068F9
:101770007047000020000020084809490068896877
:101780004FF4E06292FAA2F201F4E061B2FA82F25E
:10179000D140044A515CC84070470000200000203E
:1017A00000100240FC79000808480949006889686F
:1017B0004FF4605292FAA2F201F46051B2FA82F24E
:1017C000D140044A515CC84070470000200000200E
:1017D00000100240FC79000870B53B4B0022104617
:1017E00099683A4C11F00C0F4FEA640514D09968CF
:1017F000C1F38101032904D1D96801F00301012952
:101800000AD09968C1F38101012921D09968C1F3F7
:10181000810102291ED01EE01968090706D4D3F8F9
:1018200094104FF4706201F4706103E01968F022C3
:1018300001F0F00192FAA2F2B2FA82F2D140244A07
:1018400052F82120996811F00C0F04D1104602E0E3
:10185000204600E028469968C1F38101032931D16F
:10186000D868D96800F00300702696FAA6F601F051
:101870007001B6FA86F6F140491C4FF4FE46022884
:1018800004D0032805D0B2FBF1F004E0B4FBF1F082
:1018900001E0B5FBF1F0D96896FAA6F201F4FE4139
:1018A000B2FA82F2D1404843D9684FF0C06292FA4E
:1018B000A2F201F0C061B2FA82F2D140491C4900A3
:1018C000B0FBF1F070BD0000001002400024F400F5
:1018D000CC7900082DE9F84304460078FD4DC00698
:1018E00063D5A86810F00C0F0AD0A06900282868FA
:1018F00078D040F001002860FFF7B4FB06465AE0BC
:101900002868800702D5A06900286AD0216A286863
:101910004FF0F006000703D5286800F0F00003E060
:10192000D5F8940006EA1010814216D9084601F055
:101930001DFE002855D1286840F00800286028685E
:10194000216A20F0F000084328606868E16920F40B
:101950007F4040EA0120686015E0286840F00800F8
:1019600028602868216A20F0F00008432860686831
:10197000E16920F47F4040EA01206860206A01F0BC
:10198000F5FD0028D6D1FFF727FFA96896FAA6F241
:1019900001F0F001B2FA82F2D140CF4A515CC84066
:1019A000CE4908600020FFF777FB2AE0FFF75AFBDB
:1019B000801B02287ED828688007F7D5286840F069
:1019C000080028602868216A20F0F0000843286099
:1019D0006868E16920F47F4040EA0120686010E017
:1019E00000E0B3E020F001002860FFF73BFB064673
:1019F00004E0FFF737FB801B0228DBD8286880074C
:101A0000F7D42078C00746D0A868C0F38100022828
:101A10001DD0A868C0F38100032803D1E868C04343
:101A2000800714D06068B0F5803F17D0B0F5A02FC4
:101A3000286817D020F480302860286820F480209F
:101A400028606068D8B1FFF70DFB064613E02868F0
:101A5000800320D56068002878D01CE0286840F416
:101A60008030EDE740F480202860F7E7FFF7FAFACE
:101A7000801B64289ED828688003F7D50BE0FFF709
:101A8000F1FA064604E0FFF7EDFA801B642891D8CE
:101A900028688003F7D42078800747D5A8684FF0DE
:101AA000F857C0F38100012816D0A868C0F3810060
:101AB000032800E0AAE004D1E86800F0030002284F
:101AC0000AD0E0680028286821D040F4807028609F
:101AD000FFF7C8FA06460BE0286840050BD5E0681A
:101AE0000028B9D007E0FFF7BDFA801B022884D890
:101AF00028684005F7D5686897FAA7F22169B2FA15
:101B000082F220F0F8509140084368600EE020F423
:101B100080702860FFF7A6FA064604E0FFF7A2FAF5
:101B2000801B022872D828684005F7D42078000767
:101B300028D560690028D5F8940012D040F0010043
:101B4000C5F89400FFF78EFA064605E0F6E0FFF7C9
:101B500089FA801B022859D8D5F894008007F6D559
:101B600010E020F00100C5F89400FFF77BFA06466C
:101B700004E0FFF777FA801B022847D8D5F89400D5
:101B80008007F6D42078400762D5A86D0027C000F2
:101B900008D4A86D40F08050A865A86D012700F01A
:101BA000805000904E480168C90511D401688046F4
:101BB00041F480710160FFF755FA064604E0FFF733
:101BC00051FA801B022821D8D8F80000C005F6D5AC
:101BD000A068012815D00528D5F8900017D020F06E
:101BE0000100C5F89000D5F8900020F00400C5F879
:101BF0009000A06841F28838C0B1FFF733FA06467A
:101C00000FE0D5F8900040F00100F0E761E040F00F
:101C10000400C5F89000F4E7FFF724FA811B414562
:101C200057D8D5F890008007F6D50CE0FFF71AFAE0
:101C3000064604E0FFF716FA811B414576D8D5F831
:101C400090008007F6D41FB1A86D20F08050A865E1
:101C5000A06AE8B3A968C1F3810103296ED0022804
:101C6000286820F08070286011D02868000106D410
:101C70002868800003D4E86820F00300E860E86882
:101C800018490840E860FFF7EDF9044651E0FFF716
:101C9000E9F9064604E0FFF7E5F9801B022845D87C
:101CA00028688001F7D4206BE16A000110380843EE
:101CB000616BA26B0902120941EA42410843A18FFC
:101CC000094A490802EB4151084394F840100DE0DD
:101CD00032E02BE000100240BC7900082000002018
:101CE00000700040FFFFEEFE0000E0FF4908120117
:101CF00002EB41610843E860286840F0807028608A
:101D0000E86840F08070E860FFF7ACF9044604E052
:101D1000FFF7A8F9001B022808D828688001F7D52A
:101D20000AE0FFF79FF9001B022802D90320BDE853
:101D3000F88328688001F4D40020F8E70120F6E752
:101D40002DE9F041040005D00025A56294F85D005E
:101D500018B107E00120BDE8F08184F85C5020460E
:101D600000F044F8022684F85D602068016821F0E4
:101D700040010160E0684FF4E062904201D9002127
:101D800001E04FF48051B0F5706F02D0904200D066
:101D9000A562276B012327B9904201D9266300E091
:101DA0002363D4E901021043D4E9042632431043EB
:101DB000228B02F400721043E2691043226A10433E
:101DC000A26A104322681060626B606AA6691043C1
:101DD0000427E26807EA16463243104308432168A5
:101DE0004860256684F85D300020B4E770472DE92F
:101DF000F05F044690F85C000127DDF828809A46E1
:101E000016460D464FF0000901280ED0012084F837
:101E10005C00FFF727F9834694F85D0061680128AC
:101E20000CD0B1F5827F07D102E0022000F0F6B8B5
:101E3000A16809B9042801D002206EE035B32EB3A1
:101E4000BAF1000F22D094F85D00042802D00520DA
:101E500084F85D00002020662664A4F846A0A4F85B
:101E600044A0A563A4F83EA0A4F83CA0E0642065CB
:101E7000E0684FF4E061884203D8B4F846000128D6
:101E800006D92068426822F4805205E0012044E02F
:101E90002068426842F4805242602068026852061C
:101EA00003D4026842F040020260E0688842606841
:101EB00044D910B1E08F012838D1216835F8020BE0
:101EC000C860E08F401EE08730E067B1E08F50B11E
:101ED00020688168890706D535F8021BC160E08F4C
:101EE000401EE0870027B4F8460060B12068816892
:101EF000C90708D0C06826F8020BB4F84600401E97
:101F0000A4F846000127B8F1FF3F0FD0FFF7AAF869
:101F1000A0EB0B01414509D303208146012084F841
:101F20005D00002084F85C0048467FE7E08F0028D1
:101F3000CBD1B4F846000028C7D162E010B1E08FE1
:101F4000012857D1E08F012806D9216835F8020B06
:101F5000C860E08F801E05E0216815F8010B08734A
:101F6000E08F401EE08745E0AFB1E08F98B1206878
:101F7000816889070FD5E18F012905D935F8021B42
:101F8000C160E08F801E04E015F8011B0173E08F33
:101F9000401EE0870027B4F8460010B3206881682F
:101FA000C9071ED0B4F84610012911D9C06826F817
:101FB000020BB4F84600801EA4F84600B4F84600B0
:101FC00001280DD82068416841F48051416007E044
:101FD000007B06F8010BB4F84600401EA4F846004A
:101FE0000127B8F1FF3F05D0FFF73CF8A0EB0B014C
:101FF000414591D2E08F0028B6D1B4F846000028C0
:10200000B2D15A464146204601F0EEFA08B12020EE
:102010002066206E00287FF439AF7FE730BCBDE832
:10202000C09F4FF0E0210428086903D020F004008D
:102030000861704740F00400FAE7704710B5401E91
:10204000B0F1807F01D3012010BD4FF0E02460612A
:102050000F21601700F063FE0020A06107202061BF
:10206000002010BD10B5FFF7E8FF10BD70477047A6
:1020700030B590F83820012A1FD0012280F838208E
:1020800003685A689D680E4CA34202D00D4CA342CF
:1020900003D122F470044A68224322F070040A68D3
:1020A0008968224325F0800421435A6002689160C8
:1020B000002180F83810084630BD022030BD0000F5
:1020C000002C01400034014010B5040003D094F806
:1020D000390010B107E0012010BD002084F838005D
:1020E000204600F00DF8022084F83900211D2068F8
:1020F00002F0DEFA012084F83900002010BD000053
:1021000008B50068144A154990420ED1886D40F018
:1021100002008865886D002200F0020000901146E0
:102120001D20FFF723F81D2010E00D4A904211D129
:10213000886D40F004008865886D002200F004007E
:10214000009011461E20FFF711F81E20BDE8084040
:10215000FFF701B808BD0000000400400010024075
:102160000008004002686FF0010111610168CA684F
:1021700042F00102CA600068016841F0010101609B
:10218000002070470168CA6822F00102CA60006836
:10219000016A41F21112114207D1016A92101142F3
:1021A00003D1016821F001010160002070470000A7
:1021B00070B5044690F83800012817D0012584F83E
:1021C0003850022084F8390020688268354E324049
:1021D00022F47F4282600868502838D00DDC202825
:1021E0005AD005DC90B3102842D152E0022070BDD5
:1021F000302854D040283BD140E060282FD07028B0
:102200000CD0B0F5805F03D0B0F5005F30D112E0A4
:1022100020688168234A703211400AE0CB68D1E916
:102220000121206802F0A0FA20688168314041F065
:10223000770181601CE0CB68D1E90121206802F0C0
:1022400093FA2068816841F48041F2E71EE0CA6891
:102250004968206802F09AFA5021206806E0CA68AE
:102260004968206802F0A3FA6021206802F086FA2B
:1022700084F83950002084F8380070BDCA68496875
:10228000206802F083FA40212068EFE700212068EF
:10229000ECE710212068E9E720212068E6E73021FB
:1022A0002068E3E788FFFEFF704770B504460068CA
:1022B00001694FF00005C943890715D4C168C943B6
:1022C000890711D4E91E0161012020762068806908
:1022D0008007204602D0FFF7E7FF04E000F098F8FF
:1022E000204600F096F8257620680169C943490721
:1022F00017D4C168C943490713D46FF004010161C1
:10230000022020762068806910F4407F204602D0A9
:10231000FFF7CAFF04E000F07BF8204600F079F8F0
:10232000257620680169C943090716D4C168C943E5
:10233000090712D46FF0080101610420207620689B
:10234000C0698007204602D0FFF7AEFF04E000F02E
:102350005FF8204600F05DF8257620680169C943E2
:10236000C90617D4C168C943C90613D46FF0100158
:102370000161082020762068C06910F4407F204663
:1023800002D0FFF791FF04E000F042F8204600F091
:1023900040F8257620680169C943C90708D1C1689A
:1023A000C943C90704D1891E0161204600F032F8F3
:1023B00020680169C943090609D4C168C9430906EF
:1023C00005D46FF0800101612046FFF74FFE2068C1
:1023D0000169C943490609D4C168C943490605D4FE
:1023E0006FF040010161204600F050F8206801695B
:1023F000C94389060BD4C168C943890607D46FF065
:10240000200101612046BDE87040FFF730BE70BD7D
:102410007047704710B51949194C884201D1042002
:1024200029E01849884227D1207801281ED000F0E1
:102430008DFC012270214FF09040FEF70DFE002030
:1024400001F050FF0E48104928300068086001F084
:10245000D7FE01F041FC002001F040FC4FF47A600F
:1024600000F02CFBBDE8104000F004BF00F06EFC53
:10247000002020700120A07110BD00007C00002011
:1024800028000020B800002010000020704770478E
:1024900010B5044690F8690021280ED120688168A3
:1024A00009060AD5816821F080018160206E08B19B
:1024B000FEF7CBFA204602F0B8FA94F86A00222818
:1024C0000ED12068816849060AD5816821F0400153
:1024D0008160606E08B1FEF7B8FA204602F097FA04
:1024E000002010BD7047000070B501680446C8693F
:1024F0000A6810F00F0508D1830606D5930604D5A7
:102500002046BDE8704002F099BA8B68002D66D075
:1025100003F0010502F490762E4360D0C60707D081
:10252000D60505D501260E62E16E41F00101E16696
:10253000810708D5D90706D0266802213162E16EED
:1025400041F00401E166410708D5D90706D02368A8
:1025500004211962E16E41F00201E16601070AD52A
:1025600002F02001294306D0236808211962E16E98
:1025700041F00801E166E16E002929D0800604D50A
:10258000900602D5204602F059FAE06E000703D407
:102590002068806840061CD5204602F038FA206882
:1025A0008168490611D5816821F040018160606E23
:1025B00058B133498163606EFEF769FA002807D08D
:1025C000606E816BBDE8704008472046FFF78AFFC8
:1025D00070BD2046FFF786FF0020E06670BD8B6867
:1025E000C6024FF020050CD55B020AD5E80308624D
:1025F00084F8695084F86A502046BDE87040FFF7BF
:1026000046BF03062DD513062BD594F86900212863
:10261000E4D1B4F8520020B1A068B0F5805F0AD0D0
:102620000BE0086820F0800008602068016841F035
:102630004001016070BD206950B1E06C411CE16453
:1026400021680078088534F8520F401E208070BD44
:10265000E06C0088C0F308000885E06C801CE06432
:10266000F1E74006F3D55006F1D50A68204622F07E
:1026700040020A6084F8695000F0CCF870BD000098
:102680006949000810B5040003D094F8690010B13E
:1026900007E0012010BD002084F86800204600F00B
:1026A00027F8242084F869002068016821F00101DE
:1026B0000160204602F0FEF90128EBD0606A10B1FB
:1026C000204602F0BFF82068416821F49041416043
:1026D0002068816821F02A0181602068016841F04A
:1026E000010101602046BDE8104002F00FB9000072
:1026F00070B5054600681D4986B0884234D11C4833
:10270000816D41F400318165806D022600F4003056
:1027100005900C20CDE900060120029003200390D3
:102720000720049069464FF09040FEF7A7FB124C3B
:10273000104800212060C4E901618020C4E9031031
:102740006161A161E16120462162FEF7C5F908B12E
:10275000FEF720F96C66002211462620A562FEF7DE
:1027600005FD2620FEF7F7FC06B070BD00440040D2
:10277000001002406C0002400C0E002070B50446B0
:1027800090F86A0020283AD1B1B3AAB394F868004F
:10279000012834D0012084F868006165A4F858202D
:1027A0000025E566222084F86A00616E154813460C
:1027B000C862616E14480863616E14484863606EB5
:1027C0008563606D666E2168024630462431FEF7EF
:1027D000EFF984F868502068016841F48071016065
:1027E0002068816841F0010181602068816841F0C2
:1027F00040018160002070BDFFE70120FBE702205F
:10280000F9E70000C7490008054A00087D490008AB
:10281000704770477047FEE770B501220B4D5402B8
:1028200021462846FEF718FC0122160231462846AA
:10283000FEF712FC002221462846FEF70DFC314629
:102840002846BDE870400022FEF706BC00040048A0
:1028500070B50A4C012211022046FEF7FDFB4FF431
:102860000075002229462046FEF7F6FB2946204641
:10287000BDE870400122FEF7EFBB000000040048F5
:1028800070B50122064D140221462846FEF7E4FBEE
:1028900021462846BDE870400022FEF7DDBB00005F
:1028A0000004004830B51C4887B0C16C41F00201FB
:1028B000C164C16C01F002010591C16C41F00801D5
:1028C000C164C06C154D00F0080005904FF4004045
:1028D000CDE900050124694602941148FEF7CEFABD
:1028E0004FF44070CDE90005694602940D48FEF7AB
:1028F000C5FA002201211720FEF738FC1720FEF749
:102900002AFC002201212820FEF730FC2820FEF7B7
:1029100022FC07B030BD0000001002400000211072
:1029200000040048000C00480F4810B5C16C86B088
:1029300041F00101C164C06C4FF0904400F001000F
:102940000590012270212046FEF786FB70211120A0
:10295000CDE9001000210291039169462046FEF75F
:102960008DFA06B010BD000000100240334B344910
:1029700018680844334988425CD2187900F00F0285
:102980001A71A3F10C000B2A0ED2DFE802F02D27FA
:10299000211B1809060D2A241E009FED2B0A01E0B9
:1029A0009FED2A0A80ED010A5979042A01F00F01EE
:1029B00059711CD0052A1ED0062A20D022E09FED96
:1029C000240AEFE79FED230AECE79FED230AE9E7EE
:1029D0009FED220AE6E79FED220AE3E79FED210A39
:1029E000E0E79FED210ADDE79FED200ADAE74A1FC5
:1029F000052A1FD206E04A1F062A1BD202E04A1F00
:102A0000072A17D20222491E8A4000EE102AD0ED72
:102A1000010AB8EEC00A80EE201A80ED021A9879F9
:102A200000F007009871401E042803D293F90700B4
:102A3000162801DD0020704701207047100000209B
:102A400080E58FE78155C8200000FA4300007A43F3
:102A50000000FA4200007A4214AE26420000FA4119
:102A6000D7A3A6417B147A4152B8264185EBF940A1
:102A7000114808B5816C41F001018164816C01F05D
:102A800001010091816C41F002018164806C00229F
:102A900000F00200009011460F20FEF767FB0F20A8
:102AA000FEF759FB002211461020FEF75FFBBDE840
:102AB00008401020FEF74FBB0010024010B512492D
:102AC00088B0104A0A604FF6FF120024401E4A6088
:102AD000C1E9024008460C61FFF7F6FA00280ED162
:102AE0004FF48050039003A90748FFF761FB0028CB
:102AF00005D10094694604480294FFF7B9FA08B07A
:102B000010BD0000000400407C00002010B51249F8
:102B100088B0104A0A604FF6FF120024401E4A6037
:102B2000C1E9024008460C61FFF7CEFA00280ED139
:102B30004FF48050039003A90748FFF739FB0028A2
:102B400005D10094694604480294FFF791FA08B051
:102B500010BD000000080040B800002009480849E6
:102B600001604FF4E1314160002181600C22C160BD
:102B7000C0E904128161C16101624162FFF782BD57
:102B800000440040540E0020FEE7000010B547A2AC
:102B90008EB01CCA8DE81C0047A20DF1100C1CCA97
:102BA0008CE81C0047A2D2E90032CDE90C320022A9
:102BB000CDE90A2208920992012846D14348444CA3
:102BC000062942D2DFE801F003485A41416A006811
:102BD00003909DF80F10080A0A069DF80E1042EAAD
:102BE000014240EA11409DF80D1042EA012240EAFC
:102BF00011609DF80C100A43CDE90A2004220AA9AD
:102C0000204600F0C5FD0520FEF70AF8042208A9B9
:102C1000204600F0A6FD042208A903A8FDF716FB34
:102C2000010003996846019111D045218DF80810E3
:102C300052218DF809100921401C03F02FF88DF85E
:102C40000A000C21684602F0DDF80EB010BD4F21DD
:102C50008DF808104B21ECE7042208A9204600F06B
:102C600080FD08980390059007210DF1110003F0F5
:102C700015F88DF818000A2104A8E4E7FDF7E8FF2D
:102C800014490869144A10430861C9142046FDF725
:102C9000A5FEFDF7D3FF06210CA8D4E70F49006875
:102CA00008600F48FFF75EFACFE70000AA01800630
:102CB000000000004F4B2155AA01810400000001D3
:102CC00087550000AA01820083550000C40E002031
:102CD00000000808002002409100010024000020AC
:102CE0007C000020A0F1006010B5C00AFF2803D9C5
:102CF0000221A0F5807000E00121FDF74DFE06489D
:102D00000169C903FCD4416921F0020141614169B3
:102D100021F4FF61416110BD0020024070470907A6
:102D2000090E002806DA00F00F0000F1E02080F81C
:102D3000141D704700F1E02080F800147047000077
:102D40000148FFF71FBA00007C0000200148FFF790
:102D500019BA0000B800002030B40021084B0A4620
:102D6000002003EBC004401CC0B262548028F8D39A
:102D7000491CC9B20829F3D330BC00F0F1B80000F7
:102D80006801002010B57F2816D83F2914D80723E2
:102D9000A3EBD10301F00701C1F107040121A14018
:102DA000064CDBB204EBC000002AC25CC9B201D001
:102DB0000A4300E08A43C25410BD000068010020AD
:102DC000F0B5604887B0C16C41F00201C164C16CCC
:102DD00001F002010591C16C41F00801C164C06CB1
:102DE0004FF4407500F0080005900126564FCDE9DC
:102DF00000560224694603943846FEF73FF8012244
:102E000029463846FEF728F9ED0003944F4CCDE9EA
:102E1000005669462046FEF731F801222946204631
:102E2000FEF71AF90022F1022046FEF715F90122F9
:102E3000150329462046FEF70FF97820FDF7F0FE2E
:102E4000002229462046FEF707F97820FDF7E8FE24
:102E5000012229462046FEF7FFF80021AE2000F0AF
:102E6000EDF90021022000F0E9F90021102000F026
:102E7000E5F90021402000F0E1F90021812000F077
:102E8000DDF90021FF2000F0D9F90021A12000F098
:102E9000D5F90021C02000F0D1F90021A62000F0D2
:102EA000CDF90021A82000F0C9F900213F2000F051
:102EB000C5F90021D32000F0C1F90021084600F037
:102EC000BDF90021D52000F0B9F90021802000F0E3
:102ED000B5F90021D92000F0B1F90021F12000F06E
:102EE000ADF90021DA2000F0A9F90021122000F04C
:102EF000A5F90021DB2000F0A1F90021402000F01D
:102F00009DF90021202000F099F90021022000F015
:102F100095F900218D2000F091F90021142000F096
:102F20008DF90021A42000F089F90021A62000F0ED
:102F300085F90021AF2000F081F9FFF70DFF07B000
:102F4000F0BD00000010024000040048000C0048E2
:102F50000346012000E05843491EC9B2FBD2704726
:102F600070B5104E002505F1B000C0B2002100F090
:102F700065F90021022000F061F90021102000F025
:102F80005DF9002406EBC4000121405D00F056F914
:102F9000641CE4B2802CF5D36D1CEDB2082DE2D395
:102FA00070BD0000680100202DE9F84F83461E46E1
:102FB0000F468A46580700D0012000EBD600710862
:102FC00010FB01F0203AC0B202F0FF09002500908A
:102FD00039E00C2E0FD0102E11D0182E36D11C49EE
:102FE00009EBC90001EB80004FF00008445D2006AA
:102FF00009D50A9A0AE009EB49001649F2E7164991
:1030000001EB0910F0E70A9890B1002239465846C2
:10301000FFF7B8FE60067F1C040EFFB2A7EB0A00A4
:10302000B04207D10BF10100574600F0FF0B08E05A
:103030000122EBE708F1010000F0FF08B8F1080FEA
:10304000D5D36D1CEDB200988542C2D300F006B80E
:10305000606C0008FC6100087066000818BCBDE8E0
:10306000E08F00002DE9F84F83461E460F468A4642
:10307000580700D0012000EBD600710810FB01F0CA
:10308000203AC0B202F0FF090025009039E00C2E72
:103090000FD0102E11D0182E36D11C4909EBC900C3
:1030A00001EB80004FF00008445D200609D50A9A24
:1030B0000AE009EB49001649F2E7164901EB09104D
:1030C000F0E70A9890B1002239465846FFF75AFEB9
:1030D00060067F1C040EFFB2A7EB0A00B04207D1C6
:1030E0000BF10100574600F0FF0B08E00122EBE76F
:1030F00008F1010000F0FF08B8F1080FD5D36D1CEE
:10310000EDB200988542C2D300F006B8606C0008AA
:10311000FC6100087066000818BCBDE8E08F2DE96E
:10312000FF4F81B00027DDF838B01D46924680463B
:103130003C464FF001094FEA5B0627E0281B401E82
:10314000C1B20A20FFF704FFBAFBF0F00A21B0FB7E
:10315000F1F201FB120027B9691E8C4201DA48B175
:1031600001273030C2B206FB0480C0B25B46CDF806
:10317000009006E006FB0480C0B25B462022CDF83A
:1031800000900299FFF710FF641CE4B2AC42D5D363
:1031900005B000F000B830BCBDE8C08F2DE9F843A1
:1031A0001F4615460E4604464FF00109C3F180083C
:1031B0000FE03B4631462046CDF80090FFF7F4FE85
:1031C00004EB5700C4B2A04502DA0024B61CF6B2E4
:1031D0006D1C2A78A2F120005E28EAD9BDE8F883A8
:1031E0002DE9F84F04461F46802016460D46A0EBF9
:1031F0005709C3F14008DDF828A016E0A14502D226
:103200000024E819C5B2A84503DA00242546FFF7D3
:10321000A3FDCDF800A032783B4629462046FFF7B3
:1032200021FF04EB5700C4B2761C307820385E28AA
:10323000E4D900F000B818BCBDE8E08F70B50C46CA
:103240000546FFF7E9FA782001F094F9FFF718FB3B
:103250000CB1402000E0002001F08CF9FFF710FBDA
:10326000284601F087F9FFF70BFBBDE87040FFF738
:10327000EFBA00000148FEF775BF00007C00002097
:103280000148FEF76FBF0000B80000207047000043
:103290000B4910B50C69002C11D14C6944F00104A4
:1032A0004C61026043600869C003FCD40869C00730
:1032B00001D001200861486920F00100486110BD7B
:1032C000002002402DE9F041554E05468846F06841
:1032D0000024820728684FF0700113D0F26802F0D2
:1032E000030282420CD158B1F06891FAA1F100F0CA
:1032F0007000B1FA81F1C8406968401C884221D051
:1033000001248AE0012809D002280AD00328F7D135
:103310003268920309D43268520304E0326892079B
:1033200001E032685205002AEADAF26891FAA1F166
:1033300022F073036A68B1FA81F1521E8A40134386
:103340000343F360306820F080603060FDF78AFE50
:10335000074604E0FDF786FEC01B022853D83068FC
:103360000001F7D4DCBB4FF4FE40B8F1000F23D0CE
:1033700090FAA0F0A968B8F1010FB0FA80F04FF010
:10338000FF3201FA00F12BD0686902EB50004FF0D8
:10339000C06292FAA2F2B2FA82F29040014330691E
:1033A000204A104001433161306840F08060306055
:1033B000FDF758FE074628E090FAA0F0A968B0FA99
:1033C00080F08140E8684FF4003292FAA2F20009DE
:1033D000B2FA82F2904001433069134AE1E71CE0FF
:1033E000286902EB50004FF4C00292FAA2F2B2FA3E
:1033F00082F29040014330690C4AD2E7FDF732FE79
:10340000C01B022801D9032407E030680001F5D56C
:103410001CB93069A969084330612046BDE8F081D4
:1034200000100240FF80FFF9FF80FDFFFF809FFF3B
:103430002DE9F0414A4E05468846F0680024810790
:1034400028684FF0700213D0F16801F00301814247
:103450000CD158B1F06892FAA2F100F07000B1FA04
:1034600081F1C8406968401C884221D0012473E082
:10347000012809D002280AD00328F7D1316889032E
:1034800009D43168490304E03168890701E03168F3
:1034900049050029EADAF16892FAA2F221F07303F1
:1034A0006968B2FA82F2491E91400B430343F3600C
:1034B000306820F080503060FDF7D4FD074604E00E
:1034C000FDF7D0FDC01B02283CD830688000F7D43F
:1034D00094BB4FF4FE4191FAA1F1A868B8F1000F36
:1034E000B1FA81F100FA01F019D029694FF0FF32E9
:1034F00002EB51014FF0C06292FAA2F2B2FA82F2EC
:10350000914008437169174A11400843706130685F
:1035100040F080503060FDF7A5FD074614E0E968F3
:103520004FF4003292FAA2F20909B2FA82F2914003
:10353000084371690C4AE7E70EE0FDF793FDC01BF5
:10354000022801D9032407E030688000F5D51CB9B2
:1035500070696969084370612046BDE8F081000028
:1035600000100240FF80FFF9FF80FDFFF8B51C4E00
:1035700005460024B06DC00002D5FDF75BFE0DE0EE
:10358000B06D40F08050B065B06D00F0805000909C
:10359000FDF750FEB16D21F08051B165B0F5007FAF
:1035A00004D0802D07D94FF003040AE0802D08D9FC
:1035B000A02D01D804E001D1022402E0702D00D139
:1035C00001240848016821F00701214301600068D7
:1035D00000F00700A04201D00120F8BD0020F8BD96
:1035E0000010024000200240F8B515460E460B467A
:1035F0000092044600224FF4C05100F019F888B937
:103600003346002280212046009500F060F848B93A
:10361000334600224FF4C0612046009500F008F8C0
:10362000002804D0206E40F0200020660320F8BD62
:103630002DE9F8431D4616460F4604464FF4C0696F
:10364000DDF820803CE04F4505D126B9007B8DF8A0
:1036500000009DF80000681C32D02DB1FDF702FD7E
:10366000A0EB0800A8422BD32068416821F0E001BC
:1036700041606068B0F5827F0BD1A068B0F5004F63
:1036800002D0B0F5806F04D12068016821F04001BC
:103690000160A06AB0F5005F09D12068016821F4DB
:1036A000005101602068016841F40051016001206F
:1036B00084F85D00002084F85C000320BDE8F883F6
:1036C000206881683940B142BDD10020F6E72DE97C
:1036D000F0411D4617460E460446DDF8188034E0DA
:1036E000681C32D02DB1FDF7BDFCA0EB0800A8424C
:1036F0002BD32068416821F0E00141606068B0F59B
:10370000827F0BD1A068B0F5004F02D0B0F5806F7A
:1037100004D12068016821F040010160A06AB0F581
:10372000005F09D12068016821F400510160206820
:10373000016841F400510160012084F85D0000201F
:1037400084F85C000320BDE8F0812068806836EAD8
:10375000000004D00020B842C2D10020F3E70120CD
:10376000F9E770B5002912D0530703D0012303EB0A
:10377000D20400E0D408002207E001EBC203F0E825
:103780000256C3E90056521C92B2A242F5D370BD54
:103790002DE9F05FA0F10064154688468246B4F535
:1037A000801F5BD2FDF754FA2D4908692D4A10435A
:1037B0000861E70AC4F3C706C6F58074A54200D8BD
:1037C0002C46DFF8A4B04FF0006000EBC720814624
:1037D0004FF480722449FFF7C4FF00200AE032183A
:1037E0000BEBC201D1E90021D24372EA010203D1FD
:1037F000401C80B2A042F2D3A04227D24846FFF735
:1038000071FA00205B460AE008EBC001D1E9002C08
:10381000811903EBC101401CC1E9002C80B2A04218
:10382000F2D348464FF480720F4900F027F8A542C2
:1038300010D0281B08EBC408A244002685B24FF420
:1038400080747F1CA542BED82C46BCE72246414668
:103850005046EAE700F00AB8FDF7F0B900F00BB8FF
:103860000020024091000100E805002030BCBDE8C6
:10387000C05FFFF7F1BF30BCBDE8C09FF0B5164692
:103880000F460546002409E007EBC400D0E90023F9
:103890002846FFF7FDFC641CA4B20835B442F3D3FC
:1038A000F0BD704710B5002000F0A6F9BDE810404B
:1038B000002000F0C5B910B520B1002000F09CF93F
:1038C000012003E0012000F097F90020BDE810403E
:1038D00000F0B6B904210148FDF7B9BB0004004867
:1038E0000B4800B5C16C87B041F00201C164C06CE7
:1038F000694600F00200059004200090002001902D
:103900000290012003900348FDF7B8FA07B000BD0C
:10391000001002400004004810B500F053FA0020E7
:1039200000F0E0FCBDE8104000F090BB08B50020BE
:1039300000F0D8FC012000F04CFC012000F058FC05
:10394000FF20009000230A221621012000F083FBB3
:103950000020FFF7B0FF4FF6FF7000F058FA002389
:1039600001B01A4680214FF4C0705DF804EB00F0FE
:1039700091BB000002210148FDF769BB000400482B
:103980000D4800B5C16C87B041F00201C164C06C44
:103990000A4900F0020005900220CDE900010290E2
:1039A000039069460648FDF769FA002201210720C5
:1039B000FDF7DCFB07B000BD001002400000111055
:1039C000000400480720FDF7BBBB0720FDF7C3BB81
:1039D0000E4800B5C16C87B041F00401C164C06CF1
:1039E000694600F0040005901020009008480190FE
:1039F0000220029003900748FDF740FA00220121BF
:103A00000A20FDF7B3FB07B000BD00000010024024
:103A1000000011100008004810B5FFF7B1FFFFF7D4
:103A2000D7FFFFF75DFF012000F010F8002000F045
:103A3000E3F8BDE81040002000F002B902464FF460
:103A400000414FF09040FDF707BB000030B50F4933
:103A5000044687B0C86C40F00100C864C86C0121FE
:103A600000F0010005908020CDE900010220CDE9A1
:103A700002104FF0904569462846FDF7FFF92246AF
:103A800080212846FDF7E8FA07B030BD001002405B
:103A900001B582B04FF47A700090012301AA02A907
:103AA0000248FEF7A4F99DF804000EBD04010020B1
:103AB00010B50A20FDF7B4F80020FFF7C7FF142067
:103AC000FDF7AEF80120FFF7C1FFBDE810400A2066
:103AD000FDF7A6B870B505460A4800F0ECF94FF6B8
:103AE000FF7000F094F90848074C007A0E3410B9C2
:103AF000204600F001FA21462846BDE8704000F05B
:103B0000F6B90000F400002010000020F0B585B0E8
:103B10004FF400400125CDE9000500200224CDE945
:103B2000020469464FF09040FDF7A8F960028DE865
:103B3000310006260C4FCDE9034669463846FDF7AD
:103B40009DF9A0020090694604963846FDF796F963
:103B5000E0028DE83100CDE9034669463846FDF7BD
:103B60008DF905B0F0BD00000008004838B51F48C9
:103B7000C16C41F00101C164C16C01F0010100910F
:103B8000C16C41F00401C164C16C01F004010091F9
:103B9000816D41F400418165806D00F4004000902A
:103BA000FFF7B4FF134C12484FF4E06120604FF46C
:103BB000827060600020C4E902014FF4007120614E
:103BC000C4E905010821C4E9071007216062C4E9BE
:103BD0000A01206360632046FEF7B2F800B1FEE7F9
:103BE0002068016841F04001016038BD00100240CA
:103BF000003C00400401002030B50F49044687B066
:103C0000C86C40F00400C864C86C012100F00400D6
:103C100005902020CDE900010220CDE90210074DDA
:103C200069462846FDF72AF9224620212846FDF755
:103C300013FA07B030BD0000001002400008004831
:103C400030B50E49044687B0C86C40F00200C86425
:103C5000C86C012100F00200009105900220CDE91E
:103C60000210074D019169462846FDF707F92246E3
:103C700001212846FDF7F0F907B030BD00100240E1
:103C80000004004810B50446012000F02BFB00F0B2
:103C900099F8012000F0ACFA0120FFF70CFE4FF676
:103CA000FF7000F0B4F8002340F201201A460146EC
:103CB00000F0F0F900F042FA0021084600F0BBF9EC
:103CC0000348044A817B2046BDE8104000F0A7B9B4
:103CD00010000020FFFF2F00FFF728BE10B528B10D
:103CE00001280ED1BDE81040FFF716BE4FF6FF7059
:103CF00000F08DF8002000F0F5FABDE8104000F06B
:103D000055BB10BD10B500F05DF80020FFF7D3FDE6
:103D10004FF6FF7000F07BF800231A460221422084
:103D200000F0B8F9002000F005FB002000F0CDF90C
:103D30000021084600F07FF9BDE81040002000F0A7
:103D4000B0BA01B501226946892000F06FFB08BDB9
:103D5000174908B5884204D9E1208DF80000E92010
:103D60001EE01449884204D9D7208DF80000D820DD
:103D700016E01149884204D9C1208DF80000C52001
:103D80000EE00E49884204D975208DF8000081208C
:103D900006E00B49884205D96B208DF800006F20A2
:103DA0008DF8010002226946982000F03FFB08BD13
:103DB00000E9A43580F8A9328044E52D000B6B1B87
:103DC00040FC541910B500F040F80004000C06D077
:103DD00000F014F8BDE810407F20FFF7B2BF10BD1F
:103DE000054810B5007808B1062801D100F0EEFAB8
:103DF000BDE8104000F0E2BA0400002008B5002041
:103E0000009002226946072000F010FB08BD08B5AB
:103E1000010A8DF800108DF8010002226946104653
:103E200000F004FB08BD10B5002140F6021000F0C0
:103E30001EFB40F64414204600F0C3F840F0020197
:103E40002046BDE8104000F012BB1CB500200090D9
:103E5000019002226946172000F093F89DF80000B7
:103E600000F001008DF805009DF801009DF8041098
:103E7000820962F38611420962F34511020962F375
:103E80000411C20862F3C301820862F3820142088E
:103E900062F3410160F300018DF80410BDF80400E5
:103EA0001CBD08B502226946122000F06AF8BDF870
:103EB000000040BA08BD38B5044603226946142004
:103EC00000F05FF89DF800004042401020819DF80E
:103ED0000100802801D2800802E0A0F580708010E7
:103EE00060819DF8020040424010A08138BD0A78F0
:103EF0000146002000F022B838B504460222694687
:103F0000132000F03EF840F2047000F05AF8C009A7
:103F100004D040F2027000F054F801E09DF8000077
:103F2000207038BD08B500208DF8000001226946D8
:103F3000C02000F026F89DF8000008BD70B51546B9
:103F40000E460446FFF74CFF0020FFF777FD1E20CA
:103F5000FFF79EFD2046FFF79BFD0020FFF798FD31
:103F6000002405E00020FFF793FD3055641CA4B247
:103F7000AC42F7D30120FFF761FDBDE8704000F0CF
:103F80001DBA70B515460E460446FFF729FF0020FE
:103F9000FFF754FD2046FFF77BFD0020FFF778FD7B
:103FA000002405E00020FFF773FD3055641CA4B227
:103FB000AC42F7D30120FFF741FDBDE8704000F0AF
:103FC000FDB908B50122694600F003F89DF800002C
:103FD00008BD70B515460E460446FFF701FF0020E8
:103FE000FFF72CFD1D20FFF753FD200AFFF750FDC2
:103FF000E0B2FFF74DFD0020FFF74AFD002405E089
:104000000020FFF745FD3055641CA4B2AC42F7D345
:104010000120FFF713FDBDE8704000F0CFB910B5E7
:1040200014460A460146002000F0E1F92046BDE8AA
:10403000104000F086B908B502228DF800008DF816
:10404000011069468F2000F0F1F908BD00221146E9
:10405000C52000F0EBB91CB58DF80000049C8DF86C
:104060000110200C8DF80400200A8DF802208DF834
:1040700005008DF803308DF806400522694688203A
:1040800000F0D4F91CBD01B5012269469D2000F065
:10409000CDF908BD1CB5040A8DF800408DF801006B
:1040A000080A8DF80200100A8DF804008DF805202A
:1040B000180A8DF806008DF8031008228DF80730D5
:1040C0006946104600F0B2F91CBD01B501226946EF
:1040D000A02000F0ABF908BD7CB50020164B009085
:1040E000019059798DF8001019798DF801109A799D
:1040F0008DF80220A3F10C0204249268B2F1834FE0
:1041000000DD01208DF8030040F6890506292846C8
:104110000CD0FFF756FF40F00401284600F0A7F945
:10412000224669468B2000F081F97CBDFFF749FFEC
:1041300000F0FB01F1E70000100000201CB500209A
:104140001B4C009001906079052801D0062804D10D
:10415000A0890C2801D20C20A081A0890622010A86
:104160008DF800108DF80100207A8DF80200A07BF8
:104170008DF80300607A8DF80400A07A8DF80500B0
:1041800069468C2000F052F9A07A40F2367401287A
:10419000204607D0FFF715FF40F00401204600F04D
:1041A00066F91CBDFFF70DFF20F00401F6E70000E3
:1041B0001000002008B58DF800008DF801108DF872
:1041C00002208DF8033004226946952000F02EF974
:1041D00008BD01B59DF8000020B9002140F2AC6097
:1041E00000F045F9012269468A2000F01FF908BD58
:1041F00001B501226946962000F018F908BD0000BB
:1042000010B504461D481E4920442DED028B82B096
:10421000884204D3012002B0BDEC028B10BD2046C1
:10422000FFF796FD9FED171B9FED180B00F010FE9A
:1042300053EC102B9FED170B51EC100BFCF713F800
:1042400041EC180B2046FCF77DF853EC182BFCF7DB
:104250000AF8FCF784F8010E8DF80010010C8DF8B7
:104260000110010A8DF802108DF80300042269463E
:10427000862000F0DBF80020CDE7000080E58FE726
:104280008155C820000000000000394000000000F7
:10429000000000400000000080847E41052100F005
:1042A00064B838B504464FF6FF70FFF7B0FD200C38
:1042B0008DF80000200A8DF801008DF802400322DD
:1042C0006946822000F0B2F838BD000001B5012235
:1042D0006946842000F0AAF801490020087008BD52
:1042E0000400002031B54FF6FF740122694680209A
:1042F00000F09CF8FFF716FE9DF800000C4D50B939
:10430000FFF710FEC0F30210641E022801D0002C3B
:10431000F6D1012009E0FFF705FEC0F30210641E8C
:10432000032801D0002CF6D10220287038BD0000EF
:104330000400002001B5012269469F2000F076F8B4
:1043400008BD38B504464FF6FF70FFF760FD200C3E
:104350008DF80000200A8DF801008DF8024003223C
:104360006946832000F062F838BD38B50D46044632
:10437000162801DD162404E06FF00200844200DA02
:1043800004460123002207210420FFF713FF3821F0
:1043900040F6E70000F06BF88DF800408DF8015012
:1043A000022269468E2000F041F838BD10B5042085
:1043B000FFF78CFFBDE81040FFF774BA10B5FFF7A8
:1043C0008FFAFFF787FA0128FBD010BD10B5002047
:1043D000FFF734FBC020FFF75BFB0020FFF758FB23
:1043E0000120FFF72BFBBDE81040FFF7E7BF70B5DA
:1043F00015460E460446FFF7F3FC0020FFF71EFBB0
:104400000E20FFF745FB2046FFF742FB002404E0A7
:10441000305DFFF73DFB641CA4B2AC42F8D3012031
:10442000FFF70CFBBDE87040FFF7C8BF2DE9F04176
:1044300015460E460746FFF7D3FC0020FFF7FEFAAD
:104440003846FFF725FB002404E0305DFFF720FB32
:10445000641CA4B2AC42F8D30120FFF7EFFA842F1A
:1044600003D0BDE8F041FFF7A9BFBDE8F08113B567
:10447000012201A900F001F81CBD70B515460E46D9
:104480000446FFF7ADFC0020FFF7D8FA0D20FFF738
:10449000FFFA200AFFF7FCFAE0B2FFF7F9FA00246E
:1044A00004E0305DFFF7F4FA641CA4B2AC42F8D328
:1044B0000120FFF7C3FABDE87040FFF77FBF00009F
:1044C00010B5FEF753FA50B3FFF750FBFFF7A4FA0D
:1044D000FFF7EEFAFFF77AFF0020FFF703FF40F641
:1044E000D8042046FFF76DFD40F01E012046FFF77F
:1044F000BEFF0120FFF77CFE0120FFF7C4FD012075
:10450000FFF767FE40F2027409212046FFF7AFFF74
:104510002046FFF756FD092803D0022010BD0120D8
:1045200010BD962140F6AC00FFF7A1FF012140F23B
:104530009F20FFF79CFF08214FF42870FFF797FF9B
:10454000AC2140F2A120FFF792FF094C2068FFF751
:1045500057FE94F90700FFF7A1FE00210846FFF778
:104560006AFDFFF7B9FDFFF7E9FD002010BD00006F
:10457000100000202DE9F041134E054600244FF4B1
:1045800000784FF48077002239463046FCF764FD0E
:10459000280601D5012200E0002241463046FCF702
:1045A0005BFD012239463046FCF756FD00223946B4
:1045B0003046FCF751FD6806641C050EE4B2082C79
:1045C000E1D3BDE8F08100000004004810B5FCF71D
:1045D0004FFDBDE81040FDF745BD30B5B9B0022034
:1045E000C10125911021229026912C900121CDE925
:1045F0002D0108212F910721CDE93010329022A8FA
:10460000FDF768F9002403250F20CDE934543390D9
:104610003694294633A83794FCF7EAFF00950E94A8
:1046200068460F94FCF70EFE4FF40070FCF7D0FDC7
:10463000FDF79CF84FF47A71B0FBF1F0FDF7FEFC4A
:104640000420FDF7EEFC00221146501EFCF78EFD03
:1046500039B030BD0D48016841F4700101600C486B
:10466000016841F001010160002181600268094B8D
:104670001A4002608214C260026822F48022026042
:1046800081610249C00380390860704788ED00E00D
:1046900000100240FFFFF6EA0148FDF706BE0000E9
:1046A0007C0000200148FDF700BE0000B80000209B
:1046B0002DE9F0470268244C244D254E254F264B0A
:1046C0004FF0804AA04209D0504507D0A84205D0FB
:1046D000B04203D0B84201D0984204D122F0700C0D
:1046E0004A6842EA0C02DFF874C0DFF87480DFF831
:1046F0007490A0420FD050450DD0A8420BD0B042CC
:1047000009D0B84207D0984205D0604503D0404553
:1047100001D0484503D122F44075CA682A4302609B
:104720008A68C2620A688262A04207D0984205D0B5
:10473000604503D0404501D0484501D10969016376
:1047400001214161BDE8F087002C014000040040D8
:1047500000080040000C00400034014000400140CF
:10476000004401400048014010B5846842EA032239
:1047700024F47F440A432243826010BD826822F001
:1047800070020A4342F007018160704710B5046A65
:10479000036A23F001030362836923F0F00343EA11
:1047A000021324F00A020A438361026210BD10B5AD
:1047B000036A23F0100303628469036A24F47044DB
:1047C00044EA023223F0A00343EA0111826101624C
:1047D00010BD000070B5144D2878012822D10024A6
:1047E0002C706888C01E81B2681D01F057FA6A8873
:1047F000A91C515C814215D16879002812D0EA7950
:1048000022B105F108010948FBF70EFDEA79A97903
:104810006879FEF7BBF900216818491CC9B2047118
:104820001E29F9D370BD0000E80D0020C40E002041
:1048300003490A681206FCD501490C31088070470B
:104840001C44004090F82410C90706D001684A684B
:10485000836A22F400321A434A6090F824108907D0
:1048600006D501684A68C36A22F480321A434A6056
:1048700090F82410490706D501684A68036B22F4B2
:1048800080221A434A6090F82410090706D501686F
:104890004A68436B22F400421A434A6090F824109D
:1048A000C90606D501688A68836B22F480521A43D0
:1048B0008A6090F82410890606D501688A68C36B5F
:1048C00022F400521A438A6090F82410490611D548
:1048D00001684A68036C22F480121A434A60016C32
:1048E000B1F5801F06D101684A68436C22F4C0020A
:1048F0001A434A6090F82410090606D501684A68F0
:10490000806C22F4002202434A607047F8B500250B
:104910000446C566FCF7A6FB0746206800686FF0F2
:104920007E46000708D53B4600224FF40011204682
:10493000009600F009FA60B92068006840070AD5BF
:104940003B4600224FF480012046009600F0FCF91F
:1049500008B10320F8BD202084F8690084F86A00BB
:1049600084F868500020F8BD10B5806A0021A0F8D6
:104970005A10A0F85210FDF7B5FD10BD70B5846A4D
:1049800094F869000025212808D120688068000675
:1049900004D5A4F85250204600F047F894F86A0075
:1049A000222808D120688068400604D5A4F85A500F
:1049B000204600F02CF8E06E40F01000E066204643
:1049C000FDF790FD70BD10B50146806A0968096861
:1049D000890614D40021A0F85A1001680A6822F44C
:1049E00080720A6001688A6822F001028A600168A8
:1049F0008A6822F040028A60202180F86A10FDF760
:104A000007FF10BD10B5806AFDF703FF10BD0168F8
:104A10000A6822F490720A6001688A6822F0010232
:104A20008A60202180F86A10704701680A6822F0C5
:104A3000C0020A60202180F86910704710B5B0F8F4
:104A40005C2090F86A300168222B05D0088B40F07A
:104A500008000883022010BD898C8368B3F5805F4D
:104A600001D103696BB11140426D531C4365117054
:104A7000B0F85A10491E0904090CA0F85A1007D0C2
:104A800015E0436D11401980416D891C4165EFE7C8
:104A900001680A6822F490720A6001688A6822F04C
:104AA00001028A60202180F86A10FDF7B1FE002023
:104AB00010BD00002DE9F041044600682769A16897
:104AC000D4F81CC0394367691025002247EA0C0757
:104AD0003943914B07681646DFF840C207EA0C07D6
:104AE0000F43076020684168E76821F4405139436B
:104AF00041602168A069994201D0276A38438F68D4
:104B000027F4306707438F60854F21688548B94295
:104B10000DD1D0F8880010F0030006D001285AD03B
:104B2000022856D0032859D157E0012556E07E4F80
:104B3000B9420BD1D0F8880010F00C0047D00428FF
:104B400049D0082845D00C2848D146E0774FB942D3
:104B50000BD1D0F8880010F0300038D010283AD0AF
:104B6000202836D0302839D137E0714FB9420BD1E7
:104B7000D0F8880010F0C00029D040282BD0802821
:104B800027D0C0282AD128E06A4FB9420ED1D0F8E8
:104B9000880010F440701AD0B0F5807F1BD0B0F5BB
:104BA000007F16D0B0F5407F18D116E0994215D19C
:104BB000D0F8880010F4406009D0B0F5806F0AD0BA
:104BC000B0F5006F05D0B0F5406F07D105E00025C6
:104BD00004E0022502E0042500E00825564F4FF4CA
:104BE0000040994244D135B1022D07D0042D07D0A1
:104BF000082D10D107E0FCF7BFFD03E0384602E0C6
:104C0000FCF7EAFD98B3626802EB4201814202D8E8
:104C1000B0EB023F01D901267BE000276DB1022DE8
:104C20000ED0042D13D0082D1AD00126434AA0F52A
:104C300040719142EFD821686AE0FCF79DFD08E0E1
:104C400050083F490FE00023FBF7BAFAEEE7FCF704
:104C5000C3FD6268010E0302500818187941F2E79B
:104C600050084FF40001401847F10001EBE750E015
:104C7000E369834226D1092D1DD2DFE805F005083E
:104C8000121C151C1C1C1800FCF776FD01E0FCF73B
:104C90008BFD4100606801EB5001B1FBF0F082B286
:104CA0000AE028496068F6E7FCF796FDF1E74FF463
:104CB00080316068EFE7012622F00F00C2F3420165
:104CC0000843B8E7092DA6D2DFE805F006090C0570
:104CD000120505051C009EE7FCF74EFD0AE0FCF7F7
:104CE00063FD07E0606807EB5002B2FBF0F00EE0F6
:104CF000FCF772FD0146606801EB5001B1FBF0F07A
:104D000080B298E7626800EB5200B0FBF2F080B22C
:104D1000C8603046BDE8F08100800040F369FFEFD5
:104D200000380140001002400044004000480040AC
:104D3000004C0040005000400024F400FFFC0F0035
:104D4000000024F40048E8012DE9F0411E46174612
:104D500088460446069D1CE0681C1AD025B1FCF765
:104D600081F9801BA84214D92068016821F4D07110
:104D700001602068816821F001018160202084F8B1
:104D8000690084F86A00002084F868000320BDE808
:104D9000F0812068C16938EA010004D00020B842DF
:104DA000DAD00020F3E70120F9E7000010B500F0A9
:104DB00009F8BDE810400148FDF796BB540E0020ED
:104DC000FEE7000010B50E4C2068C169C943C90652
:104DD00015D4102101622046FDF75AFB606E006871
:104DE0004068A4F16C01C0F11E004880012001F868
:104DF000040B2046BDE810401E22FDF7BFBC10BDCD
:104E0000540E002030B50C460546002303E0E8565A
:104E1000FFF70EFD5B1CA342F9D330BD03B401982C
:104E20004100009850EAC12018BF04204A0D18BF65
:104E300040F0010040F2FF72B2EB515F08BF40F05A
:104E40000200012808BF052002B0704700000000E2
:104E50002DE9F04D2DED040B2DED0E8B96B0DDE917
:104E60002550279CDDF890A025F0004624F000484E
:104E7000BAF1000F14BF0121002101EB4502FC49EA
:104E800053184A1093422AD3002814BF0123002349
:104E900003EB44030B44F7498B4220D358EA00014B
:104EA0009FEDF59B76D0DFF8D8B35D4503D1BAF11D
:104EB000000F05D188E0BAF1000F08BF002100D033
:104EC000012101EB450111F5001F08D8002814BF8E
:104ED0000121002101EB440111F5001F0BD99DEDCB
:104EE000261B9DED240B16B000F0DABD04B0BDE822
:104EF000F04D00F081BE0027002DBCBFE149884580
:104F000021DAE1498845A8BF02271CDAC3451ADC2B
:104F1000DE4901EB2851142908DDC1F1340220FAE1
:104F200002F101FA02F282420DD108E058B9C1F152
:104F3000140228FA02F101FA02F2424503D101F00B
:104F40000101C1F1020756EA0A0124D1002C22DA3C
:104F5000002D18BF022F01D0012F0AD0022000F02F
:104F600097FE16B000F0A2BD04B0BDE8F04D00F011
:104F70002BBE022000F08CFE00F026FE51EC100B40
:104F800081F0004141EC100B16B000F095BD04B06B
:104F9000BDE8F08D18E09FEDBEAB9FEDBF8B002804
:104FA00071D1B848804522D105F1804010F58010BC
:104FB00008BFBAF1000F07D0B3450ADC002CA8BF28
:104FC0009DED260BE0DA0DE0B0EE490AF0EE690A3D
:104FD000DAE7002C06DA9DED260B51EC100B81F080
:104FE00000416FE0AE48784490ED000BCCE7D84527
:104FF0004DD1002C48DA2EB186423AD1BAF1000FD9
:1050000042D126E0BAF1000F13D0022000F040FE9A
:1050100000F00EFE8DED020B9DED240B8DED000BCF
:1050200010EE900A039961F31E0003909DED020BB0
:10503000AAE78DED02AB9DED240B1AEE901A10EE4F
:10504000900A8DED000B61F31E0003909DED020BA5
:105050009AE78DED028B9DED240B18EE901A10EE61
:10506000900A8DED000B61F31E0003909DED020B85
:105070008AE709DA9DED240B51EC190B53EC102B48
:10508000FBF7F1F81EE020E09DED240B7CE7864263
:105090001BDAB4F1804F0DD0A4F10050B0F1FF50F5
:1050A00013D1002D11DB9DED240B51EC100B01F001
:1050B0006EF807E09DED240B53EC102B51EC100B18
:1050C00000F0C2BC41EC100B5EE79DED240B51ECEF
:1050D000100B00F0EFFDBAF1000FCDE90E0142D147
:1050E0009FED710B46B3A6F1E040B0F17F600CD0AC
:1050F0005E4538D1002D00DAA7B3022F0CBF012086
:105100004FF0FF30FBF7FBFADCE7002D01DD002C50
:105110000DDA002D01DD002C1FDB002D16DA002C2E
:1051200014DB012F08BF9FED620B3FF42DAFB0EEF3
:105130004A0AF0EE6A0A27E7022F18BF002D0CD0AA
:10514000012F0AD1002DFFF61FAF06E0002DB8BFDA
:10515000002C08DA012F3FF417AFB0EE480AF0EE4A
:10516000680A11E71BE0012000EBE57050EA070137
:1051700015D0791EB0EE498AF0EE698A084308BF5F
:105180009FED4D8B4E480025804570DD4D494E48C2
:10519000884514DDB0420DDB002C19DB2FE0012027
:1051A00000F076FD16B000F08DBC04B0BDE8F04D07
:1051B00000F02EBDB34502DC002C09DC1FE0864266
:1051C00002DA002C1BDA03E05E452BDD002C16DD35
:1051D000022000F05DFD00F02BFD8DED020B53EC85
:1051E0001A2B51EC180BFBF7FEF9CDE900010399DE
:1051F000019861F31E0003909DED020BC4E60220AE
:1052000000F046FD00F024FD10EE901A18EE900A12
:105210008DED020B8DED008B61F31E0003909DED73
:10522000020BB1E69DED0E0B53EC192B51EC100B5C
:10523000FBF7CBF99FED260BCDE9080153EC102BC2
:105240009DED080B51EC100BFBF7CDF99FED221BE8
:1052500053EC112BFBF7BCF99DED081B53EC112B04
:10526000FBF7C1F99FED1E1B53EC112B3CE08CE0CA
:10527000FFFF1F00FFFF0F00000000000000F03FD5
:105280000000F03F0000F07F0000404301FCFFFF02
:10529000000000000000F07F00000000000000009F
:1052A000A62A0000000000000000000000000080AE
:1052B000000000000000F0FF000000000000F0BF50
:1052C0000000E0410000F043FFFFEF3F000000005E
:1052D000000000000000D03F555555555555D53FAD
:1052E000000000000000E03FFBF772F99DED080BA5
:1052F00041EC1A0B53EC102B51EC100BFBF773F92C
:1053000053EC1A2BFBF76FF941EC1A0B9FEDFE0BD8
:1053100053EC102B9DED080B51EC100BFBF763F9D0
:1053200041EC1B0B9FEDFA0B51EC1A0B53EC102BBD
:10533000FBF759F941EC1A0B9FEDF70B53EC102BCF
:105340009DED080B51EC100BFBF74DF953EC1A2BAC
:10535000FBF73BF941EC1A0B51EC1B0B53EC1A2BEE
:10536000FBF792F80690CDE906519DED060B53EC44
:105370001B2B51EC100BFBF728F953EC1A2BFBF706
:1053800027F941EC100B00F0A1B90020B6F5801F01
:105390000EDA9FEDE30B53EC102B9DED0E0B51EC51
:1053A000100BFBF720F9CDE90E016FF034000E462B
:1053B00000EB2650A0F2FF37C6F31300DA4940F0A5
:1053C0007F6646F040568842D8BF002408DDD749A2
:1053D0008142C8BF012403DC0024A6F580167F1C8F
:1053E000D348784400EBC4000F9690ED00CB9DEDC0
:1053F0000E0B53EC1C2B51EC100BFBF7E6F89DED5C
:105400000E0B41EC1B0B53EC1C2B51EC100BFBF760
:105410003BF841EC100B51EC190B53EC102BFAF745
:1054200022FF41EC1D0B51EC1B0B53EC1D2BFBF72A
:10543000DAF841EC1A0BBF488DED10AB78441095AB
:1054400090ED000B4FF0005040EA660000EB844006
:105450008DED080B00F5002009909DED080B53EC35
:105460001C2B51EC100BFBF7B0F89DED0E1B53EC11
:10547000112BFBF7ADF841EC100B53EC102B9DED0D
:10548000100B51EC100BFBF7AEF89DED080B41EC47
:105490001C0B53EC102B9DED100B51EC100BFBF77C
:1054A000A2F853EC1B2BFBF793F853EC1C2BFBF7E8
:1054B0008CF853EC1D2BFBF796F841EC1C0B53ECCE
:1054C0001A2B51EC1A0BFBF78EF841EC1B0B9A4888
:1054D0000621B0EE4B0AF0EE6B0A784400F0F8FAC1
:1054E000B0EE401AF0EE601AB0EE41DAF0EE61DA9A
:1054F00053EC1B2B51EC1B0BFBF775F853EC1D2BDE
:10550000FBF771F89DED100B41EC1B0B53EC1A2BC4
:1055100051EC100BFAF7B8FF53EC1C2BFBF763F8B8
:1055200053EC1B2BFAF7B0FF9DED100B41EC1B0B5E
:1055300053EC102B51EC100BFBF755F841EC1D0B05
:105540009FED7FEB53EC1E2BFAF79EFF53EC1B2BCA
:10555000FAF79AFF0890CDE908519DED080B53EC3E
:105560001E2B51EC100BFBF730F853EC1D2BFBF707
:105570002CF853EC1B2BFBF72BF89DED080B41ECA3
:105580001D0B53EC102B9DED100B51EC100BFBF78A
:105590002AF841EC1B0B53EC1A2B51EC1D0BFBF7BB
:1055A00022F89DED080B41EC1A0B53EC102B51EC3B
:1055B0001C0BFBF718F853EC1A2BFAF765FF41ECBC
:1055C0001A0B51EC1B0B53EC1A2BFAF75DFF0C90E6
:1055D000CDE90C519DED0C0B53EC1B2B51EC100B3A
:1055E000FAF7F3FF53EC1A2BFAF7F2FF41EC1B0B1F
:1055F0009FED550B53EC102B9DED0C0B51EC100B4C
:10560000FAF7F1FF41EC1A0B9FED510B51EC1B0B1C
:1056100053EC102BFAF7E7FF41EC1B0B9FED4E0B01
:1056200053EC102B9DED0C0B51EC100BFAF7DBFF3C
:1056300053EC1B2BFAF728FF41EC100B4848784439
:1056400000EBC40090ED001B51EC100B53EC112B40
:10565000FAF71AFF41EC1B0B3846FBF750F8CDE97F
:10566000080153EC1B2B51EC1A0BFAF70DFF41EC20
:10567000100B3C48784400EBC40090ED00CB51EC9B
:10568000100B53EC1C2BFAF7FFFE9DED081B53EC9F
:10569000112BFAF7F9FE0690CDE906519DED080BA6
:1056A00053EC102B9DED060B51EC100BFAF78DFF10
:1056B00053EC1C2BFAF789FF53EC1A2BFAF785FFF2
:1056C00053EC1B2BFAF784FF41EC100B9DED261BCE
:1056D00053EC102B8DED001B00959DED260B51EC2E
:1056E000100BFAF780FF9DED000B41EC1A0B53EC09
:1056F000102B9DED260B51EC100BFAF766FF9DED7C
:10570000061B53EC112B2FE0000000604715F73FFC
:10571000FE822B654715F73F44DF5DF80BAE543E24
:1057200000000000000040438E9803007AB60B0092
:1057300022260000502600005A250000000000002C
:105740000000000000000840000000E009C7EE3F34
:10575000FD033ADC09C7EE3FF5015B14E02F3EBEC6
:10576000E6230000A0230000FAF73DFF53EC1A2BBC
:10577000FAF78AFE9DED060B41EC1A0B53EC102B49
:105780009DED000B51EC100BFAF72DFFCDE90C014C
:105790009DED0C0B51EC1A0B53EC102BFAF774FE29
:1057A000CDE902010C46AA498C422FDB611A08435D
:1057B00018D19DED0C0B53EC102B9DED020B51EC11
:1057C000100BFAF702FF41EC1B0B9FEDA30B51EC02
:1057D0001A0B53EC102BFAF757FE53EC1B2BFAF76E
:1057E0009FFF2DD2022000F053FA00F021FA10EEB4
:1057F000901A18EE900A8DED020B8DED008B61F37F
:105800001E0003909DED020BFFF7BEBB944A24F0EF
:105810000041914214D39349214408437FF4EFACF3
:105820009DED0C0B53EC102B9DED020B51EC100B6E
:10583000FAF7CBFE53EC1A2BFAF772FF7FF6DFACC8
:1058400024F000408849894A002601EB2051824219
:105850002BDA481C4FF4801121FA00F02044844ACE
:10586000C0F30A517A44A1F2FF3192ED000B814A54
:105870008DED080BCA4020EA0202C0F3130040F489
:105880008010C1F1140120FA01F60992002CB8BF72
:1058900076429DED080B53EC102B9DED0C0B51EC5B
:1058A000100BFAF792FECDE90C019DED0C0B51ECBB
:1058B0001A0B53EC102BFAF7E7FD9FED6F0B0890D6
:1058C000CDE9085153EC102B9DED080B51EC100B5A
:1058D000FAF789FE41EC1B0B9FED690B53EC102B83
:1058E0009DED080B51EC100BFAF77DFE9DED0C0BB6
:1058F00041EC1C0B53EC102B9DED080B51EC100BE5
:10590000FAF763FE53EC1A2BFAF762FE9FED5E1B6B
:1059100053EC112BFAF767FE53EC1C2BFAF7B4FD8E
:1059200041EC1A0B51EC1B0B53EC1A2BFAF7ACFDA4
:10593000CDE902019DED020B53EC1B2B51EC100B3A
:10594000FAF743FE53EC1A2BFAF742FE9DED020BD9
:1059500041EC1A0B53EC102B51EC100BFAF743FEF1
:10596000CDE908014A489DED080B0521784400F077
:10597000AFF89DED081B51EC100B53EC112BFAF70F
:1059800032FE9DED021B53EC112BFAF721FECDE9FF
:1059900006019DED020B53EC1A2B51EC100BFAF79C
:1059A00022FE53EC1A2BFAF76FFD9FED3B0B41ECF7
:1059B0001A0B53EC102B9DED060B51EC100BFAF764
:1059C00004FE9DED060B41EC1B0B53EC102B9DEDE3
:1059D000020B51EC100BFAF706FE53EC1B2BFAF7F7
:1059E00042FC53EC1A2BFAF7F0FD9DED021B53EC31
:1059F000112BFAF7EAFD53EC192BFAF7E9FDCDE983
:105A0000020101EB065001150029C8BF039015DC07
:105A10009DED020B324651EC100BFAF759FEFFF7E1
:105A2000FDF9042808BF00F013F932469DED020B82
:105A300051EC100BFAF74CFECDE902019DED020B83
:105A400051EC180B53EC102BFAF7CDFDFFF73ABBD6
:105A50000000904000000000FE822B654715973C37
:105A600000CC904000346F3F01FCFFFF0000E03F9E
:105A700028220000FFFF0F0000000000432EE63F39
:105A8000396CA80C615C20BEEF39FAFE422EE63F6D
:105A9000F8200000000000000000000000000040AE
:105AA000BDEC088BBDEC06CBFFF720BABDEC088B34
:105AB000BDEC06CBFFF758BABDEC088BBDEC06CBAE
:105AC000FFF765BABDEC088BBDEC06CBFFF76DBBED
:105AD00070B504462DED028B4D1E00EBC500B0EEF7
