:020000040800F2
:10000000581600209D010008A9290008D1250008E4
:10001000A529000891080008FB470008000000001F
:100020000000000000000000000000001531000882
:10003000B108000800000000B72E00084D3F00087E
:10004000B7010008B7010008B7010008B7010008B0
:10005000B7010008B7010008B3080008C908000884
:10006000B7010008DF080008E1080008B701000830
:10007000B7010008B7010008B7010008B701000880
:10008000B7010008B7010008B7010008B701000870
:10009000B7010008B7010008B7010008F708000819
:1000A000B7010008B7010008B7010008B701000850
:1000B000B70100083140000841400008B7010008BE
:1000C000B7010008B7010008B7010008B701000830
:1000D000B7010008B7010008B7010008B701000820
:1000E000BD080008B7010008B7010008B701000803
:1000F000B7010008B7010008B7010008B701000800
:10010000B7010008B7010008B7010008B7010008EF
:10011000B7010008B7010008B7010008B7010008DF
:10012000B7010008B7010008B7010008B7010008CF
:10013000B7010008B7010008B7010008B7010008BF
:10014000B7010008B7010008B7010008B7010008AF
:10015000B7010008B7010008B7010008B70100089F
:10016000B7010008B7010008B7010008B70100088F
:10017000B7010008B7010008B7010008000000003F
:10018000B7010008B7010008DFF80CD000F0E2FA70
:10019000004800479556000858160020064880473A
:1001A00006480047FEE7FEE7FEE7FEE7FEE7FEE75C
:1001B000FEE7FEE7FEE7FEE7E13F000889010008F1
:1001C0002DE9F05F0546002092469B46884606468C
:1001D000814640241BE0284641464746224600F01F
:1001E00000F953465A46C01A914110D31146184699
:1001F000224600F0E7F82D1A67EB01084F46224629
:100200000120002100F0DEF817EB00094E41201E0E
:10021000A4F10104DFDC484631462A46434600F09B
:1002200000B830BCBDE8C09F30B50446002003468E
:1002300000E05B1C934203D2E05CCD5C401BF8D035
:1002400030BD2DE9F04D81EA030404F0004B21F0AC
:10025000004514464FF0000A23F0004150EA050221
:1002600020D054EA01021DD0C5F30A570246C5F357
:100270001303C1F31300C1F30A5640F4801543F48D
:100280008013A7EB0608101BD64608F2FD3873EB67
:10029000050002D308F1010801E092185B41B8F1B2
:1002A000000F03DA00200146BDE8F08D00204FF476
:1002B0008011064684460EE0171B73EB050705D335
:1002C000121B63EB050306434CEA010C49084FEA95
:1002D000300092185B4150EA0107EDD152EA030069
:1002E00012D082EA040083EA0501084305D0101BFE
:1002F000AB4106D20122002306E000224FF000436A
:1003000002E06FF0010253101AEB06004CEB0851AB
:1003100010EB0A0041EB0B01BDE8F04D00F071B8A5
:100320000EB540F2334102910021CDE900110A4699
:100330000B4600F075F803B000BDC1F30A5210B5CA
:10034000C1F3130140F2FF3341F480119A4201DA04
:10035000002010BD40F233439A42A2F2334203DC44
:10036000524200F03EF810BD904010BD00F0004237
:1003700030F000400AD0C10D01F56071C0F31600E5
:1003800042EA0151C208400711437047002001466C
:100390007047000030B5041E71F1000404DB4FF01B
:1003A0000044404264EB0101141E73F1000405DBBC
:1003B0001C464FF00043524263EB0403994208BFCE
:1003C000904230BD202A04DB203A00FA02F10020DE
:1003D00070479140C2F1200320FA03F31943904083
:1003E0007047202A04DB203A21FA02F000217047EE
:1003F00021FA02F3D040C2F120029140084319468D
:10040000704710B5141E73F1000408DA401C41F166
:10041000000192185B411A4301D120F0010010BD88
:100420002DE9F04D92469B4611B1B1FA81F202E0FE
:10043000B0FA80F220329046FFF7C4FF04460F4620
:1004400040EA0A0041EA0B0153465A46084313D0DA
:10045000114653EA010019D0C8F140025046FFF797
:10046000C0FF05460E46504659464246FFF7AAFFD2
:10047000084305D0012004E020463946BDE8F08D50
:100480000020054346EAE0762C4337430A9863058B
:10049000E40AA0EB08000022FD0A44EA47540A30AF
:1004A00002D500200146E9E7010510196941DDE99F
:1004B000084500196941BDE8F04DA2E72DE9FE4F5E
:1004C000804681EA0300C00F0C46009021F00041F5
:1004D00023F00045B8EB0200A94105D24046214671
:1004E00090461C460B46024623F00040104347D07E
:1004F000270DC7F30A00C3F30A510290401A019076
:1005000040286BDAC3F3130040F4801B0098924636
:1005100020B10023D2EB030A63EB0B0B0198594681
:10052000C0F140025046FFF74DFF06460D465046CB
:100530005946019A00F020F910EB080061410024AF
:1005400087EA115284EAE7731A4340D0009A62B3F3
:10055000019A012A4FEA075215DC001B61EB0201E8
:100560004FF0004202EA0752CDE90042001C41F57B
:10057000801132462B46FFF753FF03B000F045B819
:1005800040462146F9E7001B61EB0201001C41F5E2
:10059000801300185B412018A2F5001747EB0301F8
:1005A00040EAD570B6196D4111E06D084FEA360684
:1005B00045EAC0754FEA0752001B61EB0201001CBF
:1005C00041F5801149084FEA300000195141324687
:1005D0002B4603B000F01CB8FFF713BF00980122B0
:1005E00040000023D0EB020263EBE0730098214649
:1005F0004FEAE074B8EB000061EB0401E9E783F037
:1006000000435BE781F0004158E730BCBDE8C08F94
:1006100030BCBDE8C04FFFF7DFBF2DE9FE4F81EAD8
:10062000030404F0004421F0004100944FF0000B5B
:1006300023F0004350EA01045ED052EA03045BD089
:10064000C3F30A54C1F30A552C44A4F2F3340194C1
:10065000A0FB0254C1F3130141F48011C3F313034F
:1006600043F4801301FB024400FB034E840A970A03
:1006700044EA815447EA8357A4FB076802958D0A30
:1006800005FB07854FEA932C04FB0C542705029DBC
:100690004FEA065847EA1637B5EB08056EEB070C2C
:1006A000870E920E47EA811742EA8312A7FB0201E6
:1006B000B6EB0B0164EB00042B0D43EA0C335E1820
:1006C00044EB1C50DA465146E7FB0201C5F3130424
:1006D0004FEA0B3343EA14534FEA0432019C43EAD6
:1006E0000603A4F10C040294009CCDE900B4FFF7CA
:1006F00097FE03B000F003B800200146F9E730BCD4
:10070000BDE8C08F70B521F0004303430CD0C1F3A6
:100710000A550024D5EB040564EB0403D617AD1A83
:10072000B34102DB0020014670BD201841EB0251AD
:1007300070BD0EB5C10F80EAE0700844CA07002101
:1007400040F233438DE80E000A460B46FFF768FE81
:1007500003B000BD064C074D06E0E06840F0010321
:1007600094E8070098471034AC42F6D3FFF710FD29
:10077000D0710008F0710008202A06DBCB17203A60
:1007800041FA02F043EAE07306E041FA02F3D04096
:10079000C2F1200291400843194670472DE9F04DFF
:1007A00000231A461B1A8A4103DB00200146BDE8DC
:1007B000F08DC1F30A52C1F3130141F480154FF0DB
:1007C000000BD10702D100186D41521E00270446CC
:1007D00040F2FF11384601EB620A3E46804602466F
:1007E00000204FF48011FFF7FCFDC2197141BB18C6
:1007F00046EB0100B4EB030C75EB000C04D3E41AD8
:1008000065EB000517460E46241908F101006D41FD
:1008100080463428E3DDF91946EB0600091BA841A0
:1008200003D24FF0FF32134601E0002213461BEBC8
:10083000070046EB0A51BDE8F04DFFF7E2BD0000AE
:1008400000B587B000BF1048C06C40F008000E49EA
:10085000C8640846C06C00F00800019000BF00BFEB
:10086000081502900120039000200490059002A931
:10087000064800F06DFA00224FF48061034800F052
:1008800073FB07B000BD000000100240000C0048E0
:1008900000BFFEE710B502F0ADFC10BD10B502F0D0
:1008A000AEFC10BD10B502F073FC0446204610BD2E
:1008B000704710B5012000F03DFA10BD10B54FF49F
:1008C000004000F037FA10BD10B5072000F0C8FB5B
:1008D000022000F02FFA072000F0D0FB10BD704777
:1008E00010B50A2000F0BCFB102000F023FA0A200B
:1008F00000F0C4FB10BD10B54FF4407000F01AFAC0
:1009000010BD00BFFEE770B5044600F033FB06469D
:100910002546681C00B16D1C00BF00F02BFB801B3E
:10092000A842FAD370BD000038B505464FF4004127
:10093000EC4800F011FB002870D13220FFF7E3FFF4
:100940004FF40041E74800F007FB002866D1E64875
:1009500001F035FCFFF79EFFE4480078401CE349B6
:10096000087008460078401F082845D2DFE800F0EC
:10097000040C141C242C343C0520DD4948714FF430
:100980007A7001F0BFFF38E00620D94948714FF472
:100990007A7001F0B7FF30E00720D549487140F286
:1009A000DC5001F0AFFF28E00820D149487140F247
:1009B000DC5001F0A7FF20E00920CD4948714FF439
:1009C000FA6001F09FFF18E00A20C949487140F61B
:1009D000C41001F097FF10E00B20C549487140F6A4
:1009E000AC5001F08FFF08E00C20C149487141F282
:1009F000883001F087FF00E000BF00BF0C20022319
:100A00000090BA4802780C21122002F0C8F9B748C9
:100A100000780B2802DD0420B44908704FF480717F
:100A2000B44800F099FA58BB3220FFF76CFF4FF43E
:100A30008071B04800F090FA10BBAB4801F0BFFBEA
:100A4000FFF728FFAC480078401C40B2AA49087064
:100A5000AA4891F9001050F82100A54908600C201F
:100A600000900846092300210268302002F097F91F
:100A7000A14890F90000042802DBFF209E4908707D
:100A80004FF400719B4800F067FA00283ED13220F5
:100A9000FFF739FF4FF40071964800F05DFAA8BBEC
:100AA00003F0D8F958B109E001F09CFF182394A293
:100AB0000021084602F0C0F902F0C2F8F4E7002075
:100AC0009149088091490880914908800C200323AE
:100AD00000908D4802882C210C2002F060F90C2037
:100AE00003230090894802882C21302002F057F916
:100AF0000C2003230090864802882C21542002F009
:100B00004EF9FFF7CBFE784801F04AFBFFF7CAFE2B
:100B100001287DD102F03BFE04464FF6FF7002F043
:100B2000C5FD04F00100F8B1012240214FF09040D2
:100B300000F01AFA74480088401C7349088008467F
:100B40000088B0F57A7F01DB002008800C200323A9
:100B500000906D4802882C210C2002F020F9FFF74C
:100B60009DFE02F0DFFCB9E004F042000228FAD159
:100B70005F48007A012801D102F0A6FDFFF78AFE46
:100B8000644802F0CFFB61480088401C5F49088040
:100B900008460088B0F57A7F01DB002008800C2031
:100BA00003230090594802882C21302002F0F7F8E6
:100BB0000A2259495748FFF737FB002879D157488F
:100BC000007B40B2564908705448807A40B255497B
:100BD00008705248007A40B2534908700022202120
:100BE0004FF0904000F0C0F93220FFF78CFE4D48E6
:100BF00090F90000002818DA0C234CA21A211820C2
:100C000002F01AF947480078404240B2454900E0F6
:100C100065E008700C2004230090084690F900203D
:100C20001A211E2002F0BBF80FE00C2340A21A216B
:100C3000182002F001F90C2004230090394890F9A3
:100C400000201A211E2002F0AAF8354890F9000071
:100C5000002816DA0C2335A21A215A2002F0ECF8EB
:100C60002F480078404240B22D4908700C200423E0
:100C70000090084690F900201A21602002F08FF8B9
:100C80000FE00C232AA21A215A2002F0D5F80C20DA
:100C900004230090224890F900201A21602002F0DD
:100CA0007EF8012220214FF0904000F05DF90CE029
:100CB000FFE717480088401C15490880084600884F
:100CC000B0F57A7F01DB002008800C200323009020
:100CD0000F4802882C21542002F061F800BF00F078
:100CE000B1FA38BD00040048600000205A0000201E
:100CF0000C000020000C00485B00002030000020A9
:100D000045526F52000000004400002046000020C1
:100D1000480000204812002024000020D8000020B5
:100D20005700002055000020580000202D00000032
:100D30002000000010B5044604480068204020B19F
:100D4000024804602046FFF7EFFD10BD1404014087
:100D500078B50346002200240020E5E001269640F5
:100D60000D6805EA0604002C7DD04D68022D02D0E6
:100D70004D68122D13D1D60803F1200555F8260031
:100D80005507EE0E0F25B540A8435607F60E0D6920
:100D9000B5402843D60803F1200545F82600186819
:100DA00056000325B540A8430D7905F0030556000C
:100DB000B540284318604D68012D08D04D68022DBC
:100DC00005D04D68112D02D04D68122D13D19868B1
:100DD00056000325B540A8435600CD68B5402843CA
:100DE0009860586801259540A8430D79C5F3001512
:100DF0009540284358600D7905F00305032D09D16E
:100E0000D86A01259540A8430D79C5F3C0059540E2
:100E10002843D862D86856000325B540A843560039
:100E20008D68B5402843D8604D6805F08055B5F110
:100E3000805F78D100BF3F4D2D6E45F001053D4EDE
:100E4000356635462D6E05F00105009500BF00BFE3
:100E50004FEAB635960855F8260095072E0F0F2550
:100E6000B540A84300E05EE0B3F1904F01D100250A
:100E70001EE0314DAB4201D1012519E02F4DAB42AF
:100E800001D1022514E02E4DAB4201D103250FE024
:100E90002C4DAB4201D104250AE02B4DAB4201D1D0
:100EA000052505E0294DAB4201D1062500E00725C7
:100EB0009607360FB5402843254D960845F826007D
:100EC000244D2868A0434D6805F48035B5F5803F72
:100ED00000D120431F4D28602D1D2868A0434D6878
:100EE00005F40035B5F5003F00D12043194D2D1D07
:100EF00028602D1D2868A0434D6805F48015B5F5C0
:100F0000801F00D12043134D083528602D1D28680F
:100F1000A0434D6805F40015B5F5001F00D120432E
:100F20000C4D0C352860521C0D68D540002D7FF407
:100F300015AF78BD001002400004004800080048CA
:100F4000000C004800100048001400480018004839
:100F50000800014000040140024613690B400BB138
:100F6000012000E0002070470AB1816100E0816249
:100F70007047000001480068704700000000002032
:100F800002480068401C01490860704700000020CA
:100F900010B5032000F0C0F8002000F005F800F0C4
:100FA00017F8002010BD000070B50446074800681F
:100FB0004FF47A71B0FBF1F5284601F042F80022B7
:100FC0002146501E00F067F8002070BD2000002070
:100FD00008B500BF2148006E40F001001F490866B7
:100FE0000846006E00F00100009000BF00BF00BF87
:100FF0000846806D40F0805088650846806D00F09E
:101000008050009000BF00BF032000F085F8002250
:1010100011466FF00B0000F03EF8002211466FF011
:101020000A0000F038F8002211466FF0090000F0C5
:1010300032F800221146501F00F02DF80022114610
:10104000101F00F028F800221146901E00F023F82F
:1010500000221146501E00F01EF808BD001002408C
:1010600000BF00F01F0201219140034A430942F8EA
:10107000231000BF7047000080E100E000BF00F0D7
:101080001F02012191404209920002F1E022C2F8C0
:10109000001100BF70472DE9F05F80460D461646EF
:1010A000002701F083FC074639462A46334601F003
:1010B0000700C0F1070ABAF1040F02D94FF0040A81
:1010C00001E0C0F1070AD14600F1040ABAF1070FA6
:1010D00002D24FF0000A01E0A0F1030AD4464FF01B
:1010E000010A0AFA09FAAAF1010A0AEA020A0AFA44
:1010F0000CFA4FF0010B0BFA0CFBABF1010B0BEAF6
:10110000030B4AEA0B042146404601F057FC00F06D
:1011100000B830BCBDE8C09F00BF00F00702064B1E
:1011200019684FF6FF031940044B0B4343EA0221B1
:10113000014B196000BF70470CED00E00000FA059C
:1011400002460021B2F5007F29D11D48006800F455
:10115000C060B0F5007F31D01948006820F4C0604D
:1011600040F40070164B186016480068164BB0FB30
:10117000F3F0322300FB03F100E0491E31B11048C7
:10118000406900F48060B0F5806FF6D00C4840698B
:1011900000F48060B0F5806F10D1032070470848DC
:1011A000006800F4C060B0F5806F07D004480068A4
:1011B00020F4C06040F48060014B18600020EDE72F
:1011C000007000402000002040420F0000BF114886
:1011D000006820F480400F4A10600F4800680F4AF2
:1011E000B0FBF2F0322200FB02F100E0491E31B107
:1011F0000848406900F40070B0F5007FF6D005485B
:10120000406900F40070B0F5007F01D10320704701
:101210000020FCE7007000402000002040420F004A
:101220000348006840F480400149086070470000AE
:10123000007000400248006800F4C0607047000081
:10124000007000400348006820F002000149086077
:101250007047000010ED00E00348006840F0020015
:10126000014908607047000010ED00E070B50546C8
:101270000C464DB90F48406900F40070B0F5007F8E
:1012800009D1FFF7A3FF06E00A484069C0F34020F8
:1012900008B9FFF7C5FF0848006820F004000649B8
:1012A0000860012C01D130BF02E040BF20BF20BF49
:1012B00070BD00000070004010ED00E070B5044605
:1012C0000D4600267348006800F00700A8420ED2C1
:1012D0007048006820F0070028436E4908600846FF
:1012E000006800F00700A84201D0012070BD2078FE
:1012F00000F00200022807D16748806820F0F00063
:10130000A168084364498860207800F00100002843
:1013100079D06068022806D15F48006800F4003088
:10132000D8B90120E2E76068032806D15A4800686E
:1013300000F0007088B90120D8E7606830B95648DD
:10134000006800F0020040B90120CFE75248006871
:1013500000F4806008B90120C8E74F48806820F099
:101360000300616808434C498860FFF703FE0646A6
:101370006068022810D108E0FFF7FCFD801B41F2F5
:101380008831884201D90320B0E74348806800F0E3
:101390000C000828F0D136E06068032810D108E07E
:1013A000FFF7E8FD801B41F28831884201D9032014
:1013B0009CE73948806800F00C000C28F0D122E04E
:1013C000606880B908E0FFF7D5FD801B41F28831E5
:1013D000884201D9032089E72F48806800F00C007B
:1013E0000028F0D10FE008E0FFF7C4FD801B41F2B8
:1013F0008831884201D9032078E72748806800F0C7
:101400000C000428F0D12348006800F00700A8422F
:101410000ED92048006820F0070028431D490860C5
:101420000846006800F00700A84201D001205DE7EF
:10143000207800F00400042807D11748806820F4C1
:10144000E060E168084314498860207800F00800F3
:10145000082808D11048806820F46050216940EACB
:10146000C1000D49886000F04FF80B49896801F010
:10147000F001F02292FAA2F2B2FA82F2D140074AC7
:10148000515CC840064908600020FFF78DFD002030
:101490002CE700000020024000100240F870000815
:1014A0002000002001480068704700002000002054
:1014B00000B5FFF7F7FF0749896801F4E0614FF4D1
:1014C000E06292FAA2F2B2FA82F2D140024A515C90
:1014D000C84000BD001002400871000800B5FFF7C9
:1014E000E1FF0749896801F460514FF4605292FAB4
:1014F000A2F2B2FA82F2D140024A515CC84000BD69
:101500000010024008710008F0B5002100230024FB
:10151000022502220020554EB66806F00C065EB188
:10152000524EB66806F00C060C2E2DD14F4EF668C2
:1015300006F00306012E27D14C4E366806F0080649
:101540006EB94A4E9436366806F470664FF470678A
:1015500097FAA7F7B7FA87F726FA07F10AE0434E9A
:10156000366806F0F006F02797FAA7F7B7FA87F77C
:1015700026FA07F13E4E56F821103C4EB66806F0AA
:101580000C0686B908460EE0384EB66806F00C0622
:10159000042E01D1374806E0344EB66806F00C063A
:1015A000082E00D13448314EB66806F00C060C2ED9
:1015B0005BD12E4EF66806F003042C4EF66806F05A
:1015C0007006702797FAA7F7B7FA87F7FE40721CE4
:1015D000012C29D0022C02D0032C24D111E0254E5D
:1015E000B6FBF2F6214FFF6807F4FE474FF4FE4CBE
:1015F0009CFAACFCBCFA8CFC27FA0CF706FB07F350
:1016000023E01D4EB6FBF2F6184FFF6807F4FE47C5
:101610004FF4FE4C9CFAACFCBCFA8CFC27FA0CF79D
:1016200006FB07F311E000BFB1FBF2F60F4FFF68B6
:1016300007F4FE474FF4FE4C9CFAACFCBCFA8CFC61
:1016400027FA0CF706FB07F300BF00BF074EF6684A
:1016500006F0C0664FF0C06797FAA7F7B7FA87F7AA
:10166000FE40761C7500B3FBF5F0F0BD00100240A3
:10167000107100080024F40000127A00F8B5044646
:101680000025207800F01000102874D1FE488068F2
:1016900000F00C00002870D1FB48006800F0020048
:1016A00018B1A06908B90120F8BDF748216A00689F
:1016B00000F0080020B1F448006800F0F00005E0F8
:1016C000F1489430006800F47060000981421FD92D
:1016D000206A01F0F1FB08B10120E5E700BFEA480C
:1016E000006840F00800E84908600846006820F0FB
:1016F000F000216A0843E449086000BF08464068DA
:1017000020F47F40E16940EA0120DF4948601EE0A3
:1017100000BFDD48006840F00800DB49086008466B
:10172000006820F0F000216A0843D749086000BF34
:101730000846406820F47F40E16940EA0120D24930
:101740004860206A01F0B8FB08B10120ACE7FFF760
:10175000DBFECD49896801F0F001F02292FAA2F295
:10176000B2FA82F2D140C94A515CC840C849086007
:101770000020FFF719FC4BE0FFE7A06980B3C248E7
:10178000006840F00100C0490860FFF7F3FB054620
:1017900006E0FFF7EFFB401B022801D9032083E797
:1017A000B948006800F002000028F2D000BFB64837
:1017B000006840F00800B44908600846006820F05E
:1017C000F000216A0843B049086000BF084640683D
:1017D00020F47F40E16940EA0120AB49486017E00E
:1017E000FFE7A948006820F00100A7490860FFF75B
:1017F000C1FB054606E0FFF7BDFB401B022801D9EF
:10180000032051E7A048006800F002000028F2D150
:10181000207800F00100002868D09B48806800F024
:101820000C0008280BD09848806800F00C000C28A9
:101830000ED19548C06800F00300032808D19248F3
:10184000006800F4003088B3606878BB01202BE7A3
:1018500000BF6068B0F5803F06D18B48006840F457
:101860008030894908601AE06068B0F5A02F0BD17C
:101870008548006840F48020834908600846006875
:1018800040F4803008600AE07F48006820F480302F
:101890007D4908600846006820F48020086000BF89
:1018A000606890B1FFF766FB054607E01EE0FFF7B2
:1018B00061FB401B642801D90320F5E672480068EB
:1018C00000F400300028F2D010E0FFF753FB05468B
:1018D00006E0FFF74FFB401B642801D90320E3E635
:1018E0006948006800F400300028F2D1207800F048
:1018F000020002286AD16448806800F00C000428C5
:101900000BD06148806800F00C000C281ED15E48A6
:10191000C06800F00300022818D15B48006800F49A
:10192000806018B1E06808B90120BDE656484068FB
:1019300020F0F8504FF0F85292FAA2F2B2FA82F286
:10194000216991400843504948603FE0E06830B366
:101950004D48006840F480704B490860FFF70AFB6F
:10196000054606E0FFF706FB401B022801D90320CD
:101970009AE64548006800F480600028F2D04248AA
:10198000406820F0F8504FF0F85292FAA2F2B2FA02
:1019900082F22169914008433B49486016E03A4889
:1019A000006820F4807038490860FFF7E3FA0546C4
:1019B00006E0FFF7DFFA401B022801D9032073E697
:1019C0003148006800F480600028F2D1207800F0EF
:1019D0000800082836D16069D0B12B4894300068DF
:1019E00040F001002849C1F89400FFF7C3FA05460A
:1019F00006E0FFF7BFFA401B022801D9032053E697
:101A000021489430006800F002000028F1D019E06D
:101A10001D489430006820F001001B49C1F8940073
:101A2000FFF7A8FA054606E0FFF7A4FA401B0228D4
:101A300001D9032038E614489430006800F0020011
:101A40000028F1D1207800F0040004286FD100268E
:101A50000D48806D00F0805070B900BF0A48806D5D
:101A600040F08050084988650846806D00F080503D
:101A7000009000BF00BF01260648006800F4807097
:101A8000F8B90448006807E000100240F870000848
:101A9000200000200070004040F4807087490860FA
:101AA000FFF768FA054606E0FFF764FA401B0228D4
:101AB00001D90320F8E58148006800F4807000280F
:101AC000F2D000BFA068012808D17D48006840F02E
:101AD00001007B499039C1F8900021E0A0680528F9
:101AE0000FD17748006840F0040075499039C1F87B
:101AF00090000846D0F8900040F00100C1F8900036
:101B00000EE06F48006820F001006D499039C1F87F
:101B100090000846D0F8900020F00400C1F8900032
:101B200000BFA068A0B1FFF725FA054609E02DE047
:101B3000FFF720FA401B41F28831884201D9032087
:101B4000B2E55F48006800F002000028F0D012E023
:101B5000FFF710FA054608E0FFF70CFA401B41F2C8
:101B60008831884201D903209EE55548006800F07D
:101B700002000028F0D1012E07D151489038806D25
:101B800020F080504E499039886500BFA06AE8B3C4
:101B90004B489038806800F00C000C2879D0A06A7F
:101BA000022853D146489038006820F0807044499C
:101BB00090390860FFF7DEF9054606E0FFF7DAF92D
:101BC000401B022801D903206EE53D48903800688B
:101BD00000F000700028F1D1206B401E0101606B05
:101BE00041EA0021A06B000941EA4040E16A084354
:101BF000A18F0122C2EB510140EA41514020005D1A
:101C0000C2EB500041EA40602D4900E053E09039BA
:101C1000C8600846006840F0807008600846C068E8
:101C200040F08070C860FFF7A5F9054606E0FFF7B1
:101C3000A1F9401B022801D9032035E5204890383E
:101C4000006800F000700028F1D034E01C489038A3
:101C5000006820F080701A499039086008460068D2
:101C600000F0006048B90846006800F0005020B954
:101C70000846C06820F00300C86011489038C0686A
:101C8000104908400E499039C860FFF773F90546BE
:101C900007E00EE0FFF76EF9401B022801D9032090
:101CA00002E507489038006800F000700028F1D184
:101CB00001E00120F8E40020F6E40000007000409C
:101CC00090100240FFFFEEFE70B504460CB90120F3
:101CD00070BD606A00B900BF0021A16294F85D0088
:101CE00028B9002084F85C00204600F04DF802205E
:101CF00084F85D002068006820F0400021680860DA
:101D0000E068B0F5E06F01D9002501E04FF480559F
:101D1000E068B0F5706F05D0E068B0F5E06F01D015
:101D20000021A162206B40B9E068B0F5E06F02D9F4
:101D30000221216301E001212163D4E9010108436B
:101D40002169084361690843218B01F4007108434C
:101D5000E1690843216A0843A16A084321680860D1
:101D60000421A06901EA1040616A0843616B0843DD
:101D7000E16808432843216848600020206601206C
:101D800084F85D000020A3E770472DE9FC5F04465E
:101D90000D4616461F46DDF830804FF0000A002041
:101DA000019081464FF0010B009000BF94F85C0059
:101DB000012802D1022000F02CB9012084F85C0037
:101DC00000BFFFF7D7F8814694F85DA060680190E6
:101DD000BAF1010F0BD00198B0F5827F04D1A06851
:101DE00010B9BAF1040F02D00220009007E10DB142
:101DF00006B117B90120009001E194F85D000428B4
:101E000002D0052084F85D00002020662664A4F836
:101E10004670A4F84470A563E787A787E06420654F
:101E2000E068B0F5E06F03D8B4F84600012806D9A1
:101E30002068406820F480502168486005E02068F0
:101E4000406840F48050216848602068006800F0D5
:101E50004000402805D02068006840F0400021681C
:101E60000860E068B0F5E06F47D9606810B1E08FB6
:101E7000012806D128882168C860AD1CE08F401E6B
:101E8000E08732E0BBF1000F10D0E08F70B1206826
:101E9000806800F00200022808D128882168C86004
:101EA000AD1CE08F401EE0874FF0000BB4F84600F9
:101EB00078B12068806800F0010050B12068C068E7
:101EC0003080B61CB4F84600401EA4F846004FF01F
:101ED000010B08F1010040B1FFF74CF8A0EB09003D
:101EE000404502D30320009089E0E08F0028C9D14B
:101EF000B4F846000028C5D174E0606810B1E08FE6
:101F0000012811D1E08F012807D928882168C860ED
:101F1000AD1CE08F801EE08706E015F8010B2168FC
:101F20000873E08F401EE08755E0BBF1000F1BD027
:101F3000E08FC8B12068806800F00200022813D149
:101F4000E08F012807D928882168C860AD1CE08F80
:101F5000801EE08706E015F8010B21680873E08F0A
:101F6000401EE0874FF0000BB4F8460038B32068FD
:101F7000806800F0010010B3B4F84600012813D9BE
:101F80002068C0683080B61CB4F84600801EA4F8F3
:101F90004600B4F8460001280FD82068406840F495
:101FA00080502168486008E02068007B06F8010B3B
:101FB000B4F84600401EA4F846004FF0010B08F1AB
:101FC000010040B1FEF7D6FFA0EB0900404502D367
:101FD0000320009013E0E08F0028A6D1B4F846005B
:101FE0000028A2D14A464146204600F0B5FF08B17C
:101FF00020202066206E08B10120009000BF012043
:1020000084F85D0000BF002084F85C0000BF0098E9
:10201000D1E63CBCBDE8C09F042808D14FF0E021C8
:10202000096941F004014FF0E022116107E04FF02F
:10203000E021096921F004014FF0E02211617047AD
:10204000704770B504462546681EB0F1807F01D305
:1020500001200FE0681E4FF0E02148610F214FF092
:10206000FF3000F0ABFC00204FF0E021886107203A
:102070000861002070BD10B5FFF7E2FF10BD70478A
:102080007047000030B502460B4600BF92F838009A
:10209000012801D1022030BD012082F8380000BFA4
:1020A00010684168106884680F4D1068A84203D01A
:1020B0000E4D1068A84203D121F470015868014305
:1020C00021F070011868014324F0800498680443EB
:1020D000106841601068846000BF002082F83800FA
:1020E00000BF00BFD7E70000002C014000340140D2
:1020F00010B504460CB9012010BD94F8390028B978
:10210000002084F83800204600F00CF8022084F803
:102110003900211D206801F09BFF012084F839005F
:102120000020E9E738B504461A492068884216D1EC
:1021300000BF1948806D40F00200174988650846C5
:10214000806D00F00200009000BF00BF0122114628
:102150001D20FEF7A0FF1D20FEF790FF19E00F499C
:102160002068884215D100BF0B48806D40F0040004
:10217000094988650846806D00F00400009000BFA2
:1021800000BF012211461E20FEF785FF1E20FEF72C
:1021900075FF38BD000400400010024000080040F8
:1021A00001460868C06840F001000A68D06008680D
:1021B000006840F001000A68106000207047014686
:1021C0000868C06820F001000A68D06000BF086895
:1021D000006A41F21112104050B90868006A92106A
:1021E000104028B90868006820F001000A681060F3
:1021F00000BF0020704700002DE9F04104460D4665
:10220000002600BF94F83800012802D10220BDE862
:10221000F081012084F8380000BF022084F83900E2
:10222000206886684148064026F47F46206886601C
:10223000286850283CD00CDC202861D004DC002821
:1022400054D0102866D156E030285ED0402861D1A5
:1022500042E0602836D070280ED0B0F5805F03D001
:10226000B0F5005F56D116E0206880682F497031C4
:102270000840216888604EE0D5E902136A6820684A
:1022800001F046FF206886682848064046F0770639
:10229000206886603FE0D5E902136A68206801F093
:1022A00037FF2068806840F480402168886032E011
:1022B000EA686968206801F041FF5021206801F058
:1022C00033FF28E0EA686968206801F04CFF60216C
:1022D000206801F029FF1EE0EA686968206801F0C3
:1022E0002DFF4021206801F01FFF14E0002120682D
:1022F00001F01AFF0FE01021206801F015FF0AE03D
:102300002021206801F010FF05E03021206801F055
:102310000BFF00E000BF00BF012084F8390000BFC0
:10232000002084F8380000BF00BF70E788FFFEFF80
:10233000704710B5044620680069C0F34000D8B16A
:102340002068C068C0F34000B0B16FF0020021689F
:102350000861012020762068806900F0030018B130
:102360002046FFF7E5FF05E0204600F0ADF82046E7
:1023700000F0ABF80020207620680069C0F38000F0
:10238000D8B12068C068C0F38000B0B16FF004001D
:1023900021680861022020762068806900F440707E
:1023A00018B12046FFF7C4FF05E0204600F08CF886
:1023B000204600F08AF80020207620680069C0F3EB
:1023C000C000D8B12068C068C0F3C000B0B16FF0E1
:1023D000080021680861042020762068C06900F0A8
:1023E000030018B12046FFF7A3FF05E0204600F0E8
:1023F0006BF8204600F069F800202076206800691C
:10240000C0F30010D8B12068C068C0F30010B0B1AC
:102410006FF0100021680861082020762068C069EC
:1024200000F4407018B12046FFF782FF05E0204617
:1024300000F04AF8204600F048F800202076206896
:10244000006900F0010058B12068C06800F0010088
:1024500030B16FF0010021680861204600F036F8C5
:1024600020680069C0F3C01058B12068C068C0F38C
:10247000C01030B16FF08000216808612046FFF77E
:10248000FEFD20680069C0F3801058B12068C06864
:10249000C0F3801030B16FF0400021680861204621
:1024A00000F026F820680069C0F3401058B1206899
:1024B000C068C0F3401030B16FF02000216808619F
:1024C0002046FFF7DDFD10BD7047704710B504468C
:1024D000002240214FF09040FEF746FDFEF7DEF966
:1024E000024801F047F8FEF7ADFE10BD24000020C1
:1024F000704710B504460CB9012010BDA06900B1A9
:1025000000E000BF94F8690028B9002084F8680052
:10251000204600F02BF8242084F869002068006829
:1025200020F0010021680860204601F0E9FE012842
:1025300000D1E2E7606A10B1204601F02AFE20686F
:10254000406820F49040216848602068806820F04E
:102550002A00216888602068006840F00100216836
:102560000860204601F091FEC7E7000010B586B074
:10257000044615492068884224D100BF1348806D65
:1025800040F40030114988650846806D00F4003041
:10259000009000BF00BF0C2001900220029001209B
:1025A0000390032004900720059001A94FF090406C
:1025B000FEF7CEFB002211462620FEF76CFD2620FA
:1025C000FEF75CFD06B010BD004400400010024064
:1025D00000BFFEE710B5012251020A48FEF7C4FC15
:1025E000012211020748FEF7BFFC00224FF40071E0
:1025F0000448FEF7B9FC00224FF480710148FEF751
:10260000B3FC10BD0004004810B5012211020748B8
:10261000FEF7AAFC00224FF400710448FEF7A4FC68
:10262000012251020148FEF79FFC10BD0004004842
:1026300010B5012211020548FEF796FC00224FF466
:1026400080710248FEF790FC10BD000000040048B5
:1026500000B587B000BF2148C06C40F002001F49A0
:10266000C8640846C06C00F00200019000BF00BFC3
:1026700000BF0846C06C40F00800C8640846C06C43
:1026800000F00800019000BF00BF4FF4004002902E
:10269000134803900120049002A91248FEF758FB4A
:1026A0004FF4407002900E4803900120049002A95C
:1026B0000D48FEF74DFB002201211720FEF7EBFC31
:1026C0001720FEF7DBFC002201212820FEF7E3FCA7
:1026D0002820FEF7D3FC07B000BD00000010024028
:1026E0000000211000040048000C004800B587B02D
:1026F00000BF1048C06C40F001000E49C864084695
:10270000C06C00F00100019000BF00BF01227021E9
:102710004FF09040FEF728FC7020029011200390AB
:1027200000200490059002A94FF09040FEF710FBA6
:1027300007B000BD0010024063480068634988424A
:1027400004D3614800686249884201D9002070477B
:102750005D48007900F00F005B4908710846007978
:10276000032801DC012000E00020574909790729EE
:1027700001DB012100E00021084008B10020E6E76C
:10278000514800790B2843D2DFE800F03C30241890
:10279000120C0642362A1E009FED4E0A4E4880ED6E
:1027A000000A35E09FED4D0A4B4880ED000A2FE00E
:1027B0009FED4B0A484880ED000A29E09FED490A49
:1027C000454880ED000A23E09FED470A424880ED2E
:1027D000000A1DE09FED450A3F4880ED000A17E022
:1027E0009FED430A3C4880ED000A11E09FED410A4D
:1027F000394880ED000A0BE09FED3F0A364880ED36
:10280000000A05E09FED3D0A334880ED000A00BF55
:1028100000BF2D48407900F00F002B494871084651
:102820000079042809D1084640790A2803DA0846C5
:102830004079052801DA002089E723480079052836
:1028400009D1214840790B2803DA1F48407905282F
:1028500001DA00207BE71C480079062809D11A48D4
:1028600040790C2803DA18484079052801DA00205D
:102870006DE715484079401E022101FA00F000EE94
:10288000100AB8EEC00A1448D0ED000A80EE201AF3
:102890001B4880ED001A0C48807900F007000A49B7
:1028A000887108468079042803DC0846807901286D
:1028B00001DA00204BE7044890F90700162801DDF3
:1028C000002044E7012042E70C000020801A701825
:1028D000007038390000FA430400002000007A43F9
:1028E0000000FA4200007A4214AE26420000FA418B
:1028F000D7A3A6417B147A4152B8264185EBF94013
:102900000800002010B588B0044614481449086037
:102910004FF6FF104860002111488160601E104989
:10292000C86000210E480161FFF7E2FB08B108B062
:1029300010BD4FF48050049004A90948FFF75CFCD7
:1029400000B1F4E700200190039001A90448FFF7CB
:1029500099FB00B1EBE700BFE9E70000000400408D
:102960006000002010B50D480D4908604FF4E130BB
:10297000486000210A488160C16001610C21416109
:1029800000218161C1610162002005494862084659
:10299000FFF7AFFD00B110BD00BFFCE700440040F1
:1029A000580D002000BFFEE7704700000248006895
:1029B000C0F30220704700000CED00E010B50028C5
:1029C00007DA0A07140E054A00F00F031B1FD45440
:1029D00003E00A07130E024A135410BD18ED00E07D
:1029E00000E400E070B500240CE0002506E00020C3
:1029F000074901EBC5010855681CC5B2802DF6DBFF
:102A0000601CC4B2082CF0DB00F01AF970BD0000A5
:102A1000C80D0020F0B5144600267F2801DC3F29B0
:102A200000DDF0BD0B46CF1701EB5777FF10C7F164
:102A30000707FAB2CF1701EB5777FF10A1EBC707D3
:102A4000FDB2C5F107070123BB40DEB24CB10A4B12
:102A500003EBC0039B5C3343074F07EBC007BB543A
:102A600008E0054B03EBC0039B5CB343024F07EB4D
:102A7000C007BB5400BFD4E7C80D002000B587B025
:102A800000BF6648C06C40F002006449C864084654
:102A9000C06C00F00200019000BF00BF00BF0846FC
:102AA000C06C40F00800C8640846C06C00F0080024
:102AB000019000BF00BF4FF44070029001200390CE
:102AC0000220059002A95648FEF742F901224FF470
:102AD00040715348FEF748FA4FF4C050029001206D
:102AE00003900220059002A94E48FEF731F9012219
:102AF0004FF4C0514B48FEF737FA00224FF4006103
:102B00004848FEF731FA012211034648FEF72CFA35
:102B10007820FDF7F8FE00224FF480514148FEF77F
:102B200023FA7820FDF7EFFE012211033D48FEF75E
:102B30001BFA0021AE2000F0A2F90021022000F0D3
:102B40009EF90021102000F09AF90021402000F0A9
:102B500096F90021812000F092F90021FF2000F079
:102B60008EF90021A12000F08AF90021C02000F098
:102B700086F90021A62000F082F90021A82000F0AB
:102B80007EF900213F2000F07AF90021D32000F0E7
:102B900076F90021084600F072F90021D52000F0F6
:102BA0006EF90021802000F06AF90021D92000F0A0
:102BB00066F90021F12000F062F90021DA2000F02E
:102BC0005EF90021122000F05AF90021DB2000F00C
:102BD00056F90021402000F052F90021202000F099
:102BE0004EF90021022000F04AF900218D2000F06A
:102BF00046F90021142000F042F90021A42000F041
:102C00003EF90021A62000F03AF90021AF2000F0A3
:102C100036F9FFF7E7FE07B000BD000000100240E4
:102C200000040048000C004810B50246012000E0F6
:102C300050430B1EA1F10104E1B2F9D110BD000017
:102C400070B500241CE004F1B001C8B2002100F00E
:102C500016F90021022000F012F90021102000F0E6
:102C60000EF9002508E0084901EBC501085D0121C6
:102C700000F005F9681CC5B2802DF4DB601CC4B2FD
:102C8000082CE0DB70BD0000C80D00202DE9F84FD6
:102C900080460F4616461C46BA462046E31704EB0C
:102CA0005373DB1021464FEAE47C04EB5C7C4FEA73
:102CB000EC0CA4EBCC0CBCF1000F02D04FF0010CDB
:102CC00001E04FF0000C6344224604EBD27C4FEA53
:102CD0006C0C03FB0CF303F0FF0BA6F12000C6B253
:102CE00000254EE00C2C07D106EB4600274901EBEE
:102CF0008000405D009013E0102C05D1244800EBCB
:102D00000610405D00900BE0182C07D106EBC600C2
:102D1000204901EB8000405D009001E000F03CB8EC
:102D20004FF0000927E0009800F0800028B13946F4
:102D300040460A9AFFF76EFE09E00A9808B901209A
:102D400000E00020024639464046FFF763FE009847
:102D50004006000E0090781CC7B2A7EB0A00A04204
:102D600005D1574608F1010000F0FF0806E009F11F
:102D7000010000F0FF09B9F1080FD4DB00BF681CA7
:102D8000C5B25D45AEDB00BFC8E70000365900089C
:102D9000AA5D00089A63000818BCBDE8E08F2DE921
:102DA000FF4F81B0074691461E460E9D4FF0000A28
:102DB000002439E0301B401EC1B20A20FFF734FF67
:102DC000B9FBF0F00A21B0FBF1F201FB1208BAF1F5
:102DD000000F16D1701EA04213DDB8F1000F0ED106
:102DE0000120AB4605EBDB71491001FB047100903B
:102DF000C8B22B4620220299FFF748FF12E04FF09D
:102E0000010A0120AB4605EBDB71491001FB04719F
:102E10000090C8B208F13001CAB22B460299FFF700
:102E200035FF00BF601CC4B2B442C3DB05B000F084
:102E300000B830BCBDE8C08FF8B506460F46144652
:102E40001D4615E00120009022782B463946304679
:102E5000FFF71CFF284605EBD07106EB6101CEB2EF
:102E6000C5F18000B04202DA0026B81CC7B2641C6B
:102E70002078202802DB20787E28E3DDF8BD70B5BD
:102E800005460C46FFF7A6FB782001F031F8FFF766
:102E9000CFFB1CB1402001F02BF802E0002001F034
:102EA00027F8FFF7C5FB284601F022F8FFF7C0FB23
:102EB000FFF7AAFB70BD7047F8B504460026002551
:102EC0002348806D00F0805018B1FEF7B3F9064634
:102ED00016E000BF1E48806D40F080501C49886598
:102EE0000846806D00F08050009000BF00BFFEF7E4
:102EF000A1F906461648806D20F080501449886577
:102F0000B6F5007F07D1802C10D9A02C01D902255D
:102F10000CE001250AE0802C01D9032506E0802C75
:102F200001D1022502E0702C00D10125094800687A
:102F300020F007002843074908600846006800F0B1
:102F40000700A84201D00120F8BD0020FCE70000E6
:102F50000010024000200240F8B504460E46154617
:102F6000334600224FF4C0512046009500F026F869
:102F700028B1206E40F0200020660320F8BD3346C3
:102F8000002280212046009500F070F828B1206EC4
:102F900040F0200020660320F0E7334600224FF483
:102FA000C0612046009500F009F828B1206E40F07D
:102FB000200020660320E1E70020DFE72DE9F84349
:102FC00004460E4617461D46DDF8208047E0B6F55C
:102FD000C06F05D127B92068007B00909DF80000E4
:102FE000681CD8B32DB1FDF7C5FFA0EB0800A842BF
:102FF00035D32068406820F0E000216848606068B0
:10300000B0F5827F0DD1A068B0F5004F03D0A06865
:10301000B0F5806F05D12068006820F0400021687D
:103020000860A06AB0F5005F0DD100BF206800689D
:1030300020F40050216808602068006840F40050C7
:103040002168086000BF012084F85D0000BF0020F7
:1030500084F85C0000BF0320BDE8F883FFE7206828
:1030600080683040B842B2D10020F5E72DE9F04148
:1030700004460E4617461D46DDF818803EE0681CE3
:10308000D8B32DB1FDF776FFA0EB0800A84235D3E9
:103090002068406820F0E000216848606068B0F572
:1030A000827F0DD1A068B0F5004F03D0A068B0F5C5
:1030B000806F05D12068006820F04000216808601A
:1030C000A06AB0F5005F0DD100BF2068006820F451
:1030D0000050216808602068006840F400502168B2
:1030E000086000BF012084F85D0000BF002084F864
:1030F0005C0000BF0320BDE8F081FFE72068806826
:103100003040B04201D1012000E00020B842B6D1E9
:103110000020F0E7704710B5044634B1002000F0FD
:10312000B3F9012000F0D8F905E0012000F0ACF976
:10313000002000F0D1F910BD10B504210248FDF7C0
:103140000BFF0446204610BD0004004800B587B0C0
:1031500000BF0D48C06C40F002000B49C86408462F
:10316000C06C00F00200019000BF00BF042002907C
:103170000020039004900120059002A90348FDF768
:10318000E7FD07B000BD0000001002400004004849
:1031900010B502210248FDF7DFFE0446204610BDAF
:1031A0000004004800B587B000BF0F48C06C40F075
:1031B00002000D49C8640846C06C00F0020001908E
:1031C00000BF00BF02200290084803900220049034
:1031D000059002A90648FDF7BBFD0022012107204A
:1031E000FDF759FF07B000BD0010024000001110AC
:1031F0000004004810B50720FDF732FF10BD10B5E0
:103200000720FDF73BFF10BD00B587B000BF0F489A
:10321000C06C40F004000D49C8640846C06C00F062
:103220000400019000BF00BF1020029008480390E6
:1032300002200490059002A90648FDF789FD0022AE
:1032400001210A20FDF727FF07B000BD0010024052
:10325000000011100008004810B5FFF7A3FFFFF7AA
:10326000D3FFFFF773FF012000F012F8002000F0F9
:103270000BF9002000F030F910BD10B504462246CD
:103280004FF400414FF09040FDF76EFE10BD00007E
:1032900010B586B0044600BF1048C06C40F0010075
:1032A0000E49C8640846C06C00F00100009000BFE1
:1032B00000BF802001900120029003900220049022
:1032C00001A94FF09040FDF743FD224680214FF0C9
:1032D0009040FDF749FE06B010BD0000001002400E
:1032E00001B582B04FF47A70012301AA02A90090BF
:1032F0000248FEF74AFD9DF804000EBDE8000020DC
:1033000010B50A20FDF7FFFA0020FFF7C1FF1420D7
:10331000FDF7F9FA0120FFF7BBFF0A20FDF7F3FAEA
:1033200010BD000010B50446094800F043FA4FF6FE
:10333000FF7000F0BBF90748007A18B905480E3055
:1033400000F062FA03490E31204600F054FA10BD35
:10335000D80000200C00002000B585B04FF40040DC
:103360000090012001900020029002200390694605
:103370004FF09040FDF7ECFC4FF48060009002208D
:1033800001900120029002200390062004906946DB
:103390000E48FDF7DDFC4FF400600090062004901D
:1033A00069460A48FDF7D4FC4FF480500090022093
:1033B00001900120029002200390062004906946AB
:1033C0000248FDF7C5FC05B000BD0000000800483C
:1033D00008B500BF2948C06C40F001002749C86407
:1033E0000846C06C00F00100009000BF00BF00BFA5
:1033F0000846C06C40F00400C8640846C06C00F089
:103400000400009000BF00BF00BF0846806D40F47C
:10341000004088650846806D00F40040009000BFC1
:1034200000BFFFF799FF1648164908604FF48270F5
:1034300048600021134881604FF4E061C1600021C1
:10344000016141614FF4007181611021C16100216E
:103450000162416281620721C1620021016341630F
:10346000FEF732FC08B100BFFEE7064800680068BE
:1034700040F0400003490968086008BD00100240A0
:10348000003C0040E800002010B586B0044600BFB4
:103490000F48C06C40F004000D49C8640846C06C79
:1034A00000F00400009000BF00BF20200190012028
:1034B000029003900220049001A90648FDF748FC01
:1034C000224620210348FDF74FFD06B010BD000045
:1034D000001002400008004810B586B0044600BF46
:1034E0000E48C06C40F002000C49C8640846C06C2D
:1034F00000F00200009000BF00BF01200190029088
:1035000003900220049001A90548FDF721FC224602
:1035100001210348FDF728FD06B010BD0010024050
:103520000004004810B5012000F09EFB00F098F860
:10353000012000F01BFB0020FFF7EDFD4FF6FF70B0
:1035400000F0B4F800231A4640F2022140F2422073
:1035500000F019FA002000F0BBFB002000F038FA60
:103560000021084600F0FBF9014800F068FB10BD9F
:10357000FFFF2F0010B50446012000F075FB00F09E
:103580006FF8012000F0F2FA0120FFF7C4FD4FF6BA
:10359000FF7000F08BF800231A4640F20121084624
:1035A00000F0F1F900F070FA0021084600F0D7F9B8
:1035B0000348817B034A204600F0C4F910BD000097
:1035C0000C000020FFFF2F0001B501226946892071
:1035D00000F0F5FB08BD000038B504461B488442E6
:1035E00006D9E1208DF80000E9208DF8010026E0E1
:1035F0001748844206D9D7208DF80000D8208DF8CE
:1036000001001CE01348844206D9C1208DF8000057
:10361000C5208DF8010012E00F48844206D97520BC
:103620008DF8000081208DF8010008E00B488442ED
:1036300005D96B208DF800006F208DF80100022263
:103640006946982000F0BBFB38BD000000E9A435B6
:1036500080F8A9328044E52D000B6B1B40FC541907
:103660001CB500F043F80190BDF8040038B100F03B
:1036700014F87F2000900098FFF7A6FF00BF1CBD44
:1036800010B500F091F818B100F08EF8062801D1BD
:1036900000F065FB00F05AFB10BD08B5002000905B
:1036A00002226946072000F08AFB08BD38B50446AF
:1036B000200A8DF80000E0B28DF801000222694670
:1036C000104600F07CFB38BD10B5002140F602101A
:1036D00000F094FB40F6441000F003F940F00204BF
:1036E000214640F6441000F089FB10BD1CB50020B7
:1036F00001900090022201A9172000F0D1F89DF856
:10370000040000F001008DF801009DF8050080091B
:103710009DF8001060F386118DF800109DF80500EB
:1037200040099DF8001060F345118DF800109DF8D8
:10373000050000099DF8001060F304118DF80010D9
:103740009DF80500C0089DF8001060F3C3018DF8D6
:1037500000109DF8050080089DF8001060F38201BC
:103760008DF800109DF8050040089DF8001060F3EA
:1037700041018DF800109DF805009DF8001060F3E0
:1037800000018DF80010BDF8001008461CBD08B5FA
:1037900002226946122000F083F89DF801009DF88E
:1037A000001040EA012008BD014800787047000081
:1037B0001C00002038B5044603226946142000F09E
:1037C0006FF89DF800004042401020819DF80100F4
:1037D000802804DA9DF801008010608105E09DF8E2
:1037E0000100A0F58070801060819DF802004042C9
:1037F0004010A08138BD70B504460D462A78214698
:10380000002000F029F870BD38B504460222694650
:10381000132000F045F840F2047000F062F8012136
:10382000B1EBE01F05D140F2027000F05AF82070B1
:1038300002E09DF80000207038BD1CB5002001900A
:10384000012201A9C02000F02BF89DF8040000908F
:103850009DF8001008461CBD2DE9F04107460D46B5
:103860001646FFF70DFF0020FFF707FD1E20FFF7AC
:1038700037FD3846FFF734FD0020FFF731FD002407
:1038800005E00020FFF72CFD2855601C84B2B442EF
:10389000F7DB0120FFF7F1FC00F058FABDE8F081FA
:1038A0002DE9F04107460D461646FFF7E9FE0020D8
:1038B000FFF7E3FC3846FFF713FD0020FFF710FD8C
:1038C000002405E00020FFF70BFD2855601C84B2A2
:1038D000B442F7DB0120FFF7D0FC00F037FABDE877
:1038E000F08138B5044601226946204600F003F80D
:1038F0009DF8000038BD2DE9F04104460E461746FC
:10390000FFF7BEFE0020FFF7B8FC1D20FFF7E8FC24
:10391000200AFFF7E5FCE0B2FFF7E2FC0020FFF72A
:10392000DFFC002505E00020FFF7DAFC7055681C7D
:1039300085B2BD42F7DB0120FFF79FFC00F006FADD
:10394000BDE8F08170B504460D4616462A4621466C
:10395000002000F014FA304600F0C1F970BD38B50F
:1039600005460C468DF800508DF80140022269464C
:103970008F2000F024FA38BD01B5012269469D2050
:1039800000F01DFA08BD2DE9FC4107460C4615461E
:103990001E46380A8DF80000F8B28DF80100200AA2
:1039A0008DF80200E0B28DF80300280A8DF80400BB
:1039B000E8B28DF80500300A8DF80600F0B28DF8F7
:1039C000070008226946104600F0F9F9BDE8FC81BD
:1039D00001B501226946A02000F0F1F908BD000000
:1039E00030B52DED028B83B00020019002900424AD
:1039F000214840798DF804001F4800798DF80500B2
:103A00001D4880798DF806001C480068FCF7AEFC64
:103A100041EC180B9FED1A0B53EC102BFCF7BAFC82
:103A200003D201208DF8070002E000208DF8070086
:103A30001148007906280BD140F68900FFF751FFA5
:103A400000F0FB05294640F6890000F0D7F90AE0AE
:103A500040F68900FFF745FF40F00405294640F68F
:103A6000890000F0CBF9224601A98B2000F0A7F9CC
:103A700003B0BDEC028B30BD0C000020080000201C
:103A800000000000000030407CB500200090019054
:103A900024484079052803D022484079062806D1D9
:103AA000204880890C2802DA0C201E4988810624CF
:103AB0001C488089000A8DF800001A48007B8DF8A8
:103AC00001001848007A8DF802001648807B8DF8B6
:103AD00003001448407A8DF804001248807A8DF86B
:103AE0000500224669468C2000F069F90D48807A6D
:103AF00001280BD140F23670FFF7F3FE20F00405E9
:103B0000294640F2367000F079F90AE040F236704A
:103B1000FFF7E7FE40F00405294640F2367000F05A
:103B20006DF97CBD0C000020F8B504460D46164624
:103B30001F468DF800408DF801508DF802608DF819
:103B4000037004226946952000F039F9F8BD01B5EB
:103B50009DF8000020B9002140F2AC6000F04EF961
:103B6000012269468A2000F02AF908BD01B5012228
:103B70006946962000F023F908BD000030B52DED10
:103B8000088B81B005462248854202D821488542EB
:103B900004D2012001B0BDEC088B30BD00242846C2
:103BA000FFF71AFD9FED1C1B9FED1D0B00F040FE63
:103BB000B0EE40BAF0EE60BA53EC1B2B9FED1A0B3F
:103BC00051EC100BFCF73DFB41EC190B2846FCF7C0
:103BD000A7FB41EC1A0B53EC192BFCF732FB41EC21
:103BE000180BFCF7AAFB0446200E8DF80000200CF1
:103BF0008DF80100200A8DF80200E0B28DF8030074
:103C000004226946862000F0DAF80020C2E70000AE
:103C100000703839801A7018000000000000394028
:103C200000000000000000400000000080847E4191
:103C300010B504460521204600F066F810BD38B5E1
:103C400004464FF6FF70FFF731FD200C8DF80000A1
:103C5000200A8DF80100E0B28DF8020003226946C7
:103C6000822000F0ACF838BD11B581B04FF6FF747A
:103C7000012201A9802000F0A2F8FFF7DEFD0090EC
:103C80009DF8040080B900BFFFF7D7FD0090641EC7
:103C90009DF80000C0F30210022801D0002CF3D1DF
:103CA00001200A4908700FE000BFFFF7C6FD009031
:103CB000641E9DF80000C0F30210032801D0002C00
:103CC000F3D10220014908701CBD00001C00002037
:103CD00001B5012269469F2000F071F808BD38B592
:103CE00004464FF6FF70FFF7E1FC200C8DF8000052
:103CF000200A8DF80100E0B28DF802000322694627
:103D0000832000F05CF838BD38B504460D46162C0B
:103D100001DD162404E014F1030F01DA6FF0020450
:103D20000123002207210420FFF7FEFE382140F680
:103D3000E70000F063F8E0B28DF800008DF8015064
:103D4000022269468E2000F03AF838BD10B5FFF720
:103D5000FDF900BFFFF7F0F90128FBD010BD10B549
:103D60000020FFF78AFAC020FFF7BAFA0020FFF719
:103D7000B7FA0120FFF781FAFFF7E8FF10BD2DE940
:103D8000F04107460D461646FFF77AFC0020FFF784
:103D900074FA0E20FFF7A4FA3846FFF7A1FA0024C0
:103DA00004E0285DFFF79CFA601C84B2B442F8DBA3
:103DB0000120FFF762FAFFF7C9FFBDE8F0812DE9A6
:103DC000F04105460E461746FFF75AFC0020FFF764
:103DD00054FA2846FFF784FA002404E0305DFFF728
:103DE0007FFA601C84B2BC42F8DB0120FFF745FA81
:103DF000842D01D0FFF7AAFFBDE8F08113B504467A
:103E0000012201A9204600F001F81CBD2DE9F04176
:103E100004460E461746FFF733FC0020FFF72DFA45
:103E20000D20FFF75DFA200AFFF75AFAE0B2FFF71C
:103E300057FA002504E0705DFFF752FA681C85B25E
:103E4000BD42F8DB0120FFF718FAFFF77FFFBDE85E
:103E5000F081000070B5FEF76FFC08B9012070BD5D
:103E6000FFF7B6FAFFF7F8F9FFF74AFAFFF777FF1F
:103E70000020FFF7F9FE40F6D800FFF732FD40F0D2
:103E80001E05294640F6D800FFF7B8FF0120FFF7CE
:103E90006DFE0120FFF770FD0120FFF758FE0024A2
:103EA000092140F20270FFF7A9FF40F20270FFF70C
:103EB00018FD0446092C01D00220D0E7962140F6D7
:103EC000AC00FFF79BFF09490868FFF757FE074959
:103ED00091F90700FFF7ACFE00210846FFF73FFD10
:103EE000FFF77EFDFFF7D0FD0020B8E70C000020B3
:103EF00070B50446002523E000224FF4807112487B
:103F0000FDF732F804F0800028B1012251020E487A
:103F1000FDF72AF805E000224FF400710A48FDF78A
:103F200023F8012211020848FDF71EF800224FF481
:103F300080710548FDF718F86006040E681CC5B2CC
:103F4000082DD9DB70BD00000004004810B5FDF756
:103F500017F8FEF790F810BD10B596B00220059046
:103F6000C00108901020099002200F9002211091AA
:103F7000012111910821129107211391022114911D
:103F8000159105A8FDF77AFB08B1FCF7BAFC0F20E4
:103F900000900320019000200290039004900321E0
:103FA0006846FDF78BF908B1FCF7ABFC4FF40070E5
:103FB000FDF7C6F808B1FCF7A4FCFDF773FA4FF45F
:103FC0007A71B0FBF1F42046FEF73BF80420FEF7CF
:103FD00023F800221146501EFDF75DF816B010BD03
:103FE0001048006840F470000E4908600E480068F0
:103FF00040F001000C490860002088600846006815
:104000000A490840084908608814C86008460068E2
:1040100020F48020086000208861C80301498039AD
:104020000860704788ED00E000100240FFFFF6EAEC
:1040300010B50248FEF77DF910BD000060000020B9
:1040400010B50248FEF775F910BD00009C00002075
:1040500000220268264B98420ED0B0F1804F0BD060
:10406000244B984208D0244B984205D0234B9842C9
:1040700002D0234B984203D122F070024B681A43BE
:104080001B4B984217D0B0F1804F14D0194B984277
:1040900011D0194B98420ED0184B98420BD0184BA8
:1040A000984208D0174B984205D0174B984202D03F
:1040B000164B984203D122F44072CB681A43026037
:1040C0008B68C3620B688362094B98420BD00C4B20
:1040D000984208D00B4B984205D00B4B984202D027
:1040E0000A4B984201D10B69036301234361704776
:1040F000002C01400004004000080040000C00407B
:1041000000340140004001400044014000480140AB
:1041100030B50C460021816821F47F4142EA032535
:1041200025432943816030BD0A460021816821F082
:10413000700142F0070319438160704730B50B46A8
:10414000144600210022026A056A25F00105056275
:10415000816921F0F00141EA041122F00A021A43B8
:104160008161026230BD30B50B4614460021002249
:10417000056A25F0100505628169026A21F4704123
:1041800041EA043122F0A00242EA03128161026294
:1041900030BD90F8241001F0010139B1016849687F
:1041A00021F40031826A11430268516090F82410B2
:1041B00001F00201022907D10168496821F4803128
:1041C000C26A11430268516090F8241001F00401A2
:1041D000042907D10168496821F48021026B114349
:1041E0000268516090F8241001F00801082907D1F5
:1041F0000168496821F40041426B11430268516033
:1042000090F8241001F01001102907D10168896885
:1042100021F48051826B11430268916090F8241060
:1042200001F02001202907D10168896821F400519B
:10423000C26B11430268916090F8241001F04001B4
:10424000402913D10168496821F48011026C11439F
:1042500002685160016CB1F5801F07D1016849689F
:1042600021F4C001426C11430268516090F824109F
:1042700001F08001802907D10168496821F40021FB
:10428000826C114302685160704738B504460025BE
:104290000020E066FCF76EFE05462068006800F02E
:1042A000080008280CD16FF07E402B4600224FF406
:1042B00000110090204600F06AFA08B1032038BDD2
:1042C0002068006800F0040004280CD16FF07E40E4
:1042D0002B4600224FF480010090204600F057FA50
:1042E00008B10320EBE7202084F8690084F86A0015
:1042F00000BF002084F8680000BF00BFDFE70000B7
:104300002DE9F05F044600251026A946AA46AB46D3
:10431000FC492068884201D1012000E0002000B162
:1043200000E000BF2169A068084361690843E169B2
:1043300040EA010520680068F349084028432168E5
:1043400008602068406820F44050E1680843216814
:104350004860A569EB492068884201D1012000E04E
:10436000002008B9206A05432068806820F4306086
:1043700028432168886000BFE4492068884216D13C
:10438000E348006800F0030030B1012808D002289B
:1043900004D0032808D105E0012607E0022605E045
:1043A000042603E0082601E0102600BF8CE0D9496E
:1043B0002068884216D1D648006800F00C0030B161
:1043C000042808D0082804D00C2808D105E00026CD
:1043D00007E0022605E0042603E0082601E0102697
:1043E00000BF71E0CC492068884216D1C8480068F7
:1043F00000F0300030B1102808D0202804D0302838
:1044000008D105E0002607E0022605E0042603E0C7
:10441000082601E0102600BF56E0C0492068884207
:1044200016D1BB48006800F0C00030B1402808D069
:10443000802804D0C02808D105E0002607E0022625
:1044400005E0042603E0082601E0102600BF3BE05B
:10445000B3492068884219D1AD48006800F4407023
:1044600048B1B0F5807F0AD0B0F5007F05D0B0F537
:10447000407F08D105E0002607E0022605E004267B
:1044800003E0082601E0102600BF1DE09D492068DA
:10449000884219D19E48006800F4406048B1B0F5E8
:1044A000806F0AD0B0F5006F05D0B0F5406F08D12D
:1044B00005E0002607E0022605E0042603E00826C2
:1044C00001E0102600BF00BF00BF8E49206888426F
:1044D00001D1012000E00020002871D00025042E29
:1044E0000FD003DC3EB1022E12D108E0082E0CD012
:1044F000102E0DD10DE0FCF7DBFF05460CE0894DD9
:104500000AE0FDF701F8054606E04FF4004503E038
:1045100000BF4FF0010B00BF00BF002D0AD0606844
:1045200000EB4000A84203D860680003A84202D212
:104530004FF0010B23E1042E2ED003DC3EB1022EFE
:1045400051D118E0082E3CD0102E4CD14CE0FCF795
:10455000AFFF4FF48071A0FB0130616849085F181C
:1045600040F10001D4F804C0624600233846FBF74E
:1045700027FE05463BE0D4F804C04FEA5C0000216A
:10458000694BC71841EB010862460B463846414665
:10459000FBF716FE05462AE0FCF7B6FF4FF48071E4
:1045A000A0FB0130616849085F1840F10001D4F8B0
:1045B00004C0624600233846FBF702FE054616E0BB
:1045C00022E0D4F804C04FEA5C0000214FF400035D
:1045D000C71841EB010862460B4638464146FBF7D7
:1045E000EFFD054603E000BF4FF0010B00BF00BF29
:1045F000B5F5407F05D3B5F5801F02D22068C560B0
:10460000BDE04FF0010BBAE0E069B0F5004F54D1C6
:10461000042E2BD005DC4EB1012E12D0022E3BD140
:104620001AE0082E2DD0102E36D136E0FCF740FFD0
:104630004000616800EB5100B0FBF1F01FFA80FA16
:104640002EE0FCF74BFF4000616800EB5100B0FB2F
:10465000F1F01FFA80FA23E03449606801EB500062
:104660006168B0FBF1F01FFA80FA19E0FCF74CFF2B
:104670004000616800EB5100B0FBF1F01FFA80FAD6
:104680000EE04FF48031606801EB50006168B0FBD0
:10469000F1F01FFA80FA03E000BF4FF0010B00BFFA
:1046A00000BF4FF6F0700AEA0009CAF3420049EA77
:1046B00000092068C0F80C9061E0042E43D005DCAE
:1046C0004EB1012E12D0022E54D131E0082E45D029
:1046D000102E4FD14FE0FCF7EBFE616800EB51006C
:1046E000B0FBF1F080B22168C86047E0FCF7F6FE4D
:1046F000616800EB5100B0FBF1F080B22168C86046
:104700003CE0000000800040F369FFEF003801400A
:10471000881002400044004000480040004C004027
:10472000005000400024F400000024F40048E80198
:104730001449606801EB50006168B0FBF1F080B291
:104740002168C8601AE0FCF7DFFE616800EB5100E9
:10475000B0FBF1F080B22168C8600FE04FF4004177
:10476000606801EB50006168B0FBF1F080B2216835
:10477000C86003E000BF4FF0010B00BF00BF584608
:1047800000F002B80024F40030BCBDE8C09F2DE961
:10479000F04104460D4617469846069E21E0701CDF
:1047A000F8B12EB1FCF7E6FBA0EB0800B04218D937
:1047B0002068006820F4D070216808602068806854
:1047C00020F0010021688860202084F8690084F8C6
:1047D0006A0000BF002084F8680000BF0320BDE825
:1047E000F0812068C0692840A84201D1012000E082
:1047F0000020B842D3D00020F1E700BFFEE703B4A9
:1048000001984100009850EAC12018BF04204A0DC9
:1048100018BF40F0010040F2FF72B2EB515F08BFD9
:1048200040F00200012808BF052002B070470000D8
:104830002DE9F04D2DED040B2DED0E8B96B0DDE93D
:104840002550279CDDF890A025F0004624F0004874
:10485000BAF1000F14BF0121002101EB4502FC4910
:1048600053184A1093422AD3002814BF012300236F
:1048700003EB44030B44F7498B4220D358EA000171
:104880009FEDF59B76D0DFF8D8B35D4503D1BAF143
:10489000000F05D188E0BAF1000F08BF002100D059
:1048A000012101EB450111F5001F08D8002814BFB4
:1048B0000121002101EB440111F5001F0BD99DEDF1
:1048C000261B9DED240B16B000F0DABD04B0BDE848
:1048D000F04D00F081BE0027002DBCBFE1498845A6
:1048E00021DAE1498845A8BF02271CDAC3451ADC52
:1048F000DE4901EB2851142908DDC1F1340220FA08
:1049000002F101FA02F282420DD108E058B9C1F178
:10491000140228FA02F101FA02F2424503D101F031
:104920000101C1F1020756EA0A0124D1002C22DA62
:10493000002D18BF022F01D0012F0AD0022000F055
:1049400097FE16B000F0A2BD04B0BDE8F04D00F037
:104950002BBE022000F08CFE00F026FE51EC100B66
:1049600081F0004141EC100B16B000F095BD04B091
:10497000BDE8F08D18E09FEDBEAB9FEDBF8B00282A
:1049800071D1B848804522D105F1804010F58010E2
:1049900008BFBAF1000F07D0B3450ADC002CA8BF4E
:1049A0009DED260BE0DA0DE0B0EE490AF0EE690A63
:1049B000DAE7002C06DA9DED260B51EC100B81F0A6
:1049C00000416FE0AE48784490ED000BCCE7D8454D
:1049D0004DD1002C48DA2EB186423AD1BAF1000FFF
:1049E00042D126E0BAF1000F13D0022000F040FEC1
:1049F00000F00EFE8DED020B9DED240B8DED000BF6
:104A000010EE900A039961F31E0003909DED020BD6
:104A1000AAE78DED02AB9DED240B1AEE901A10EE75
:104A2000900A8DED000B61F31E0003909DED020BCB
:104A30009AE78DED028B9DED240B18EE901A10EE87
:104A4000900A8DED000B61F31E0003909DED020BAB
:104A50008AE709DA9DED240B51EC190B53EC102B6E
:104A6000FBF7EFFB1EE020E09DED240B7CE7864288
:104A70001BDAB4F1804F0DD0A4F10050B0F1FF501B
:104A800013D1002D11DB9DED240B51EC100B00F028
:104A90001BFF07E09DED240B53EC102B51EC100B8A
:104AA00000F0C2BC41EC100B5EE79DED240B51EC15
:104AB000100B00F0E3FDBAF1000FCDE90E0142D179
:104AC0009FED710B46B3A6F1E040B0F17F600CD0D2
:104AD0005E4538D1002D00DAA7B3022F0CBF0120AC
:104AE0004FF0FF30FBF725FEDCE7002D01DD002C49
:104AF0000DDA002D01DD002C1FDB002D16DA002C55
:104B000014DB012F08BF9FED620B3FF42DAFB0EE19
:104B10004A0AF0EE6A0A27E7022F18BF002D0CD0D0
:104B2000012F0AD1002DFFF61FAF06E0002DB8BF00
:104B3000002C08DA012F3FF417AFB0EE480AF0EE70
:104B4000680A11E71BE0012000EBE57050EA07015D
:104B500015D0791EB0EE498AF0EE698A084308BF85
:104B60009FED4D8B4E480025804570DD4D494E48E8
:104B7000884514DDB0420DDB002C19DB2FE001204D
:104B800000F076FD16B000F08DBC04B0BDE8F04D2D
:104B900000F02EBDB34502DC002C09DC1FE086428C
:104BA00002DA002C1BDA03E05E452BDD002C16DD5B
:104BB000022000F05DFD00F02BFD8DED020B53ECAB
:104BC0001A2B51EC180BFBF728FDCDE900010399D6
:104BD000019861F31E0003909DED020BC4E60220D4
:104BE00000F046FD00F024FD10EE901A18EE900A39
:104BF0008DED020B8DED008B61F31E0003909DED9A
:104C0000020BB1E69DED0E0B53EC192B51EC100B82
:104C1000FBF7F5FC9FED260BCDE9080153EC102BBB
:104C20009DED080B51EC100BFBF7F7FC9FED221BE1
:104C300053EC112BFBF7E6FC9DED081B53EC112BFD
:104C4000FBF7EBFC9FED1E1B53EC112B3CE08CE0C3
:104C5000FFFF1F00FFFF0F00000000000000F03FFB
:104C60000000F03F0000F07F0000404301FCFFFF28
:104C7000000000000000F07F0000000000000000C5
:104C8000FE2700000000000000000000000000807F
:104C9000000000000000F0FF000000000000F0BF76
:104CA0000000E0410000F043FFFFEF3F0000000084
:104CB000000000000000D03F555555555555D53FD3
:104CC000000000000000E03FFBF79CFC9DED080B9E
:104CD00041EC1A0B53EC102B51EC100BFBF79DFC25
:104CE00053EC1A2BFBF799FC41EC1A0B9FEDFE0BD2
:104CF00053EC102B9DED080B51EC100BFBF78DFCCA
:104D000041EC1B0B9FEDFA0B51EC1A0B53EC102BE3
:104D1000FBF783FC41EC1A0B9FEDF70B53EC102BC8
:104D20009DED080B51EC100BFBF777FC53EC1A2BA5
:104D3000FBF765FC41EC1A0B51EC1B0B53EC1A2BE7
:104D4000FBF7BCFB0690CDE906519DED060B53EC3D
:104D50001B2B51EC100BFBF752FC53EC1A2BFBF7FF
:104D600051FC41EC100B00F0A1B90020B6F5801FFA
:104D70000EDA9FEDE30B53EC102B9DED0E0B51EC77
:104D8000100BFBF74AFCCDE90E016FF034000E4624
:104D900000EB2650A0F2FF37C6F31300DA4940F0CB
:104DA0007F6646F040568842D8BF002408DDD749C8
:104DB0008142C8BF012403DC0024A6F580167F1CB5
:104DC000D348784400EBC4000F9690ED00CB9DEDE6
:104DD0000E0B53EC1C2B51EC100BFBF710FC9DED54
:104DE0000E0B41EC1B0B53EC1C2B51EC100BFBF787
:104DF00065FB41EC100B51EC190B53EC102BFBF73E
:104E000020FA41EC1D0B51EC1B0B53EC1D2BFBF757
:104E100004FC41EC1A0BBF488DED10AB78441095A3
:104E200090ED000B4FF0005040EA660000EB84402C
:104E30008DED080B00F5002009909DED080B53EC5B
:104E40001C2B51EC100BFBF7DAFB9DED0E1B53EC0A
:104E5000112BFBF7D7FB41EC100B53EC102B9DED06
:104E6000100B51EC100BFBF7D8FB9DED080B41EC40
:104E70001C0B53EC102B9DED100B51EC100BFBF7A2
:104E8000CCFB53EC1B2BFBF7BDFB53EC1C2BFBF7B4
:104E9000B6FB53EC1D2BFBF7C0FB41EC1C0B53EC9A
:104EA0001A2B51EC1A0BFBF7B8FB41EC1B0B9A4881
:104EB0000621B0EE4B0AF0EE6B0A784400F0F8FAE7
:104EC000B0EE401AF0EE601AB0EE41DAF0EE61DAC0
:104ED00053EC1B2B51EC1B0BFBF79FFB53EC1D2BD7
:104EE000FBF79BFB9DED100B41EC1B0B53EC1A2BBE
:104EF00051EC100BFBF7E2FA53EC1C2BFBF78DFB8C
:104F000053EC1B2BFBF7DAFA9DED100B41EC1B0B5E
:104F100053EC102B51EC100BFBF77FFB41EC1D0BFE
:104F20009FED7FEB53EC1E2BFBF7C8FA53EC1B2BCA
:104F3000FBF7C4FA0890CDE908519DED080B53EC3E
:104F40001E2B51EC100BFBF75AFB53EC1D2BFBF700
:104F500056FB53EC1B2BFBF755FB9DED080B41EC6F
:104F60001D0B53EC102B9DED100B51EC100BFBF7B0
:104F700054FB41EC1B0B53EC1A2B51EC1D0BFBF7B4
:104F80004CFB9DED080B41EC1A0B53EC102B51EC34
:104F90001C0BFBF742FB53EC1A2BFBF78FFA41EC8F
:104FA0001A0B51EC1B0B53EC1A2BFBF787FA0C90E6
:104FB000CDE90C519DED0C0B53EC1B2B51EC100B60
:104FC000FBF71DFB53EC1A2BFBF71CFB41EC1B0BF7
:104FD0009FED550B53EC102B9DED0C0B51EC100B72
:104FE000FBF71BFB41EC1A0B9FED510B51EC1B0B1C
:104FF00053EC102BFBF711FB41EC1B0B9FED4E0B01
:1050000053EC102B9DED0C0B51EC100BFBF705FB3B
:1050100053EC1B2BFBF752FA41EC100B4848784439
:1050200000EBC40090ED001B51EC100B53EC112B66
:10503000FBF744FA41EC1B0B3846FBF77AFBCDE952
:10504000080153EC1B2B51EC1A0BFBF737FA41EC20
:10505000100B3C48784400EBC40090ED00CB51ECC1
:10506000100B53EC1C2BFBF729FA9DED081B53EC9E
:10507000112BFBF723FA0690CDE906519DED080BA5
:1050800053EC102B9DED060B51EC100BFBF7B7FA10
:1050900053EC1C2BFBF7B3FA53EC1A2BFBF7AFFACC
:1050A00053EC1B2BFBF7AEFA41EC100B9DED261BCE
:1050B00053EC102B8DED001B00959DED260B51EC54
:1050C000100BFBF7AAFA9DED000B41EC1A0B53EC09
:1050D000102B9DED260B51EC100BFBF790FA9DED7C
:1050E000061B53EC112B2FE0000000604715F73F23
:1050F000FE822B654715F73F44DF5DF80BAE543E4B
:1051000000000000000040438E9803007AB60B00B8
:105110007A230000A8230000B22200000000000053
:105120000000000000000840000000E009C7EE3F5A
:10513000FD033ADC09C7EE3FF5015B14E02F3EBEEC
:105140003E210000F8200000FBF767FA53EC1A2B11
:10515000FBF7B4F99DED060B41EC1A0B53EC102B49
:105160009DED000B51EC100BFBF757FACDE90C014C
:105170009DED0C0B51EC1A0B53EC102BFBF79EF929
:10518000CDE902010C46AA498C422FDB611A084383
:1051900018D19DED0C0B53EC102B9DED020B51EC37
:1051A000100BFBF72CFA41EC1B0B9FEDA30B51EC02
:1051B0001A0B53EC102BFBF781F953EC1B2BFBF76D
:1051C000E9F82DD2022000F053FA00F021FA10EE97
:1051D000901A18EE900A8DED020B8DED008B61F3A5
:1051E0001E0003909DED020BFFF7BEBB944A24F016
:1051F0000041914214D39349214408437FF4EFAC1A
:105200009DED0C0B53EC102B9DED020B51EC100B94
:10521000FBF7F5F953EC1A2BFBF7BCF87FF6DFAC84
:1052200024F000408849894A002601EB205182423F
:105230002BDA481C4FF4801121FA00F02044844AF4
:10524000C0F30A517A44A1F2FF3192ED000B814A7A
:105250008DED080BCA4020EA0202C0F3130040F4AF
:105260008010C1F1140120FA01F60992002CB8BF98
:1052700076429DED080B53EC102B9DED0C0B51EC81
:10528000100BFBF7BCF9CDE90C019DED0C0B51ECBB
:105290001A0B53EC102BFBF711F99FED6F0B0890D5
:1052A000CDE9085153EC102B9DED080B51EC100B80
:1052B000FBF7B3F941EC1B0B9FED690B53EC102B83
:1052C0009DED080B51EC100BFBF7A7F99DED0C0BB6
:1052D00041EC1C0B53EC102B9DED080B51EC100B0B
:1052E000FBF78DF953EC1A2BFBF78CF99FED5E1B46
:1052F00053EC112BFBF791F953EC1C2BFBF7DEF869
:1053000041EC1A0B51EC1B0B53EC1A2BFBF7D6F8A4
:10531000CDE902019DED020B53EC1B2B51EC100B60
:10532000FBF76DF953EC1A2BFBF76CF99DED020BB3
:1053300041EC1A0B53EC102B51EC100BFBF76DF9F1
:10534000CDE908014A489DED080B0521784400F09D
:10535000AFF89DED081B51EC100B53EC112BFBF734
:105360005CF99DED021B53EC112BFBF74BF9CDE9DA
:1053700006019DED020B53EC1A2B51EC100BFBF7C1
:105380004CF953EC1A2BFBF799F89FED3B0B41ECD2
:105390001A0B53EC102B9DED060B51EC100BFBF789
:1053A0002EF99DED060B41EC1B0B53EC102B9DEDE4
:1053B000020B51EC100BFBF730F953EC1B2BFAF7F7
:1053C00040FF53EC1A2BFBF71AF99DED021B53EC2F
:1053D000112BFBF714F953EC192BFBF713F9CDE95B
:1053E000020101EB065001150029C8BF039015DC2E
:1053F0009DED020B324651EC100BFBF783F9FFF7E2
:10540000FEF9042808BF00F013F932469DED020BA7
:1054100051EC100BFBF776F9CDE902019DED020B83
:1054200051EC180B53EC102BFBF7F7F8FFF73ABBD6
:105430000000904000000000FE822B654715973C5D
:1054400000CC904000346F3F01FCFFFF0000E03FC4
:10545000801F0000FFFF0F0000000000432EE63F0A
:10546000396CA80C615C20BEEF39FAFE422EE63F93
:10547000501E00000000000000000000000000407E
:10548000BDEC088BBDEC06CBFFF720BABDEC088B5A
:10549000BDEC06CBFFF758BABDEC088BBDEC06CBD4
:1054A000FFF765BABDEC088BBDEC06CBFFF76DBB13
:1054B00070B504462DED028B4D1E00EBC500B0EE1D
:1054C000408AF0EE608A90ED000B35F0060017D0B0
:1054D00053EC182B51EC100BFBF79FF841EC100B21
:1054E0006D1E04EBC50090ED001B51EC100B53EC4E
:1054F000112BFAF7E3FF41EC100B35F00600E7D172
:10550000022D36D0042D1CD0062D1CBFBDEC028B05
:1055100070BD53EC182B51EC100BFBF77EF894ED9B
:105520000A1B53EC112BFAF7C9FF53EC182BFBF7AE
:1055300074F894ED081B53EC112BFAF7BFFF41EC04
:10554000100B53EC182B51EC100BFBF766F894ED95
:10555000061B53EC112BFAF7B1FF53EC182BFBF79A
:105560005CF894ED040B53EC102BFAF7A7FF41EC19
:10557000100B53EC182B51EC100BFBF74EF894ED7D
:10558000021B53EC112BFAF799FF53EC182BFBF786
:1055900044F894ED001B53EC112BFAF78FFFBDEC90
:1055A000028B41EC100B70BD9FED070B10B553EC57
:1055B000102B9FED070B51EC100BFAF742FE41EC5C
:1055C000100B10BD000000000000000000000000F3
:1055D000000000000000F03F10B553EC112B51EC1F
:1055E000100BFAF76BFF41EC100B10BD0000000030
:1055F0009FED050B10B553EC102B51EC100BFAF787
:1056000020FE41EC100B10BD000000000000000067
:105610009FED050B10B553EC102B51EC100BFAF766
:10562000FCFF41EC100B10BD0000000000000070FA
:105630009FED050B10B553EC102B51EC100BFAF746
:10564000ECFF41EC100B10BD00000000000000104A
:1056500002E008C8121F08C1002AFAD1704770473B
:10566000002001E001C1121F002AFBD17047000099
:1056700001490860704700005C00002082B0CDE95D
:10568000000121F0004001909DED000B02B051ECB3
:10569000100B704708B5FBF77BFCFEF75DFCFDF7D0
:1056A00025F8FCF7D5FFFBF7CBF8FDF7E7F9FDF799
:1056B00059F96C4800686C49086004200871092099
:1056C0004871022088711620C871002008720120DC
:1056D000487200208872082088810A208873FEF7AB
:1056E000B9FB58B109E0FDF77DF918235FA200214D
:1056F0000846FDF7A1FBFDF7A3FAF4E75A48407905
:10570000401F082825D2DFE800F004080C10141808
:105710001C200520574908701BE0062055490870D9
:1057200017E007205349087013E00820514908701A
:105730000FE009204F4908700BE00A204D4908701E
:1057400007E00B204B49087003E00C204949087022
:1057500000BF00BF0C2348A200210846FDF76CFBE8
:105760000C20009040480923002102683020FDF7FA
:1057700016FB0C2345A219460020FDF75DFB0C200B
:10578000022300903B4802780C211220FDF707FB12
:105790000C233FA219462A20FDF74EFB0C200323C1
:1057A00000903C4890ED000ABCEEC00A10EE102AB2
:1057B0000C213C20FDF7F3FA0C2337A21A2100201C
:1057C000FDF73AFB0C2336A21A213C20FDF734FBEF
:1057D0000C2335A22C210020FDF72EFB0C200323E7
:1057E0000090324802882C210C20FDF7D8FA0C23B7
:1057F0002FA22C212420FDF71FFB0C200323009057
:105800002C4802882C213020FDF7C9FA0C232AA24B
:105810002C214820FDF710FB0C2003230090274883
:1058200002882C215420FDF7BAFAFDF709FA00226C
:105830004FF480612248FBF797FB01218803FBF7B7
:1058400015FD40F2DC50FDF75DF81E48FCF7B7FC93
:105850001C48FCF7A5FC03E0FBF7FEFCFDF7F0F9A4
:10586000FAE70000300000200C0000204552526F83
:10587000520000004A0000204C4F52412D54583A2B
:10588000202020202020202020487A0053463A0063
:1058900042573A0004000020534E523A00000000E4
:1058A000525353493A000000543A0000440000208B
:1058B000523A000046000020453A0000480000200F
:1058C000000C00486000002000B52DED048B83B073
:1058D00041EC190BFAF762FF41EC180B18EE100AB5
:1058E00018EE901A8DED008B002818BF0120084398
:1058F00020F00040C0F17F6000F1E040C00F14D004
:1059000019EE101A19EE900A8DED009B002918BFB0
:105910000121084320F00040C0F17F6000F1E04029
:10592000C00F04BF0120FFF7A3FE51EC180B03B01A
:10593000BDEC048B00BD0000000000000000000072
:105940000000000000003F400000000000000000D8
:105950003000400030004000000009000BC03D0056
:105960000BC03D00090018C024407FE02240318078
:105970000000180024C01B000D803240018003800D
:105980001C4027401C8007400040100060000000C1
:105990000000000000000000000000001F80204008
:1059A00040200000402020401F800000000009002F
:1059B00006001F80060009000000040004003F806C
:1059C000040004000000001000600000000000005F
:1059D00000000400040004000400040000000000B3
:1059E00000400000000000000000002001C0060090
:1059F0003800400000001F802040204020401F80D1
:105A00000000000010403FC000400000000018C02F
:105A100021402240244018400000108020402440B3
:105A200024401B80000002000D0011003FC0014017
:105A300000003C80244024402440238000001F803C
:105A4000244024403440038000003000200027C060
:105A50003800200000001B802440244024401B808C
:105A600000001C0022C0224022401F8000000000D5
:105A7000000008400000000000000000000004607A
:105A8000000000000000000004000A001100208057
:105A90004040090009000900090009000000000059
:105AA0004040208011000A0004001800200023401C
:105AB0002400180000001F802040274029401F407C
:105AC0000000004007C039000F0001C00040204026
:105AD0003FC0244024401B8000001F802040204005
