:020000040800F2
:10000000900A00209D010008BF2100081720000869
:10001000BD210008F9070008073C000800000000A7
:10002000000000000000000000000000BF2A0008DF
:100030001708000800000000E3250008013A000846
:10004000B7010008B7010008B7010008B7010008B0
:10005000B7010008B70100081908000827080008C0
:10006000B70100083F08000841080008B701000870
:10007000B7010008B7010008B7010008B701000880
:10008000B7010008B7010008B7010008B701000870
:10009000B7010008B7010008B701000859080008B7
:1000A000B7010008B7010008B7010008B701000850
:1000B000B7010008CD3A0008D93A0008B701000896
:1000C000B7010008B7010008B7010008B701000830
:1000D000B7010008B7010008B7010008B701000820
:1000E0001F080008B7010008B7010008B7010008A1
:1000F000B7010008B7010008B7010008B701000800
:10010000B7010008B7010008B7010008B7010008EF
:10011000B7010008B7010008B7010008B7010008DF
:10012000B7010008B7010008B7010008B7010008CF
:10013000B7010008B7010008B7010008B7010008BF
:10014000B7010008B7010008B7010008B7010008AF
:10015000B7010008B7010008B7010008B70100089F
:10016000B7010008B7010008B7010008B70100088F
:10017000B7010008B7010008B7010008000000003F
:10018000B7010008B7010008DFF80CD000F08CFAC6
:10019000004800479D4A0008900A00200648804712
:1001A00006480047FEE7FEE7FEE7FEE7FEE7FEE75C
:1001B000FEE7FEE7FEE7FEE7893A0008890100084E
:1001C00030B504460020034600E05B1C934203D296
:1001D000E05CCD5C401BF8D030BD2DE9FE4F81EADC
:1001E000030404F0004421F0004100944FF0000BA0
:1001F00023F0004350EA01045ED052EA03045BD0CE
:10020000C3F30A54C1F30A552C44A4F2F334019405
:10021000A0FB0254C1F3130141F48011C3F3130393
:1002200043F4801301FB024400FB034E840A970A47
:1002300044EA815447EA8357A4FB076802958D0A74
:1002400005FB07854FEA932C04FB0C542705029D00
:100250004FEA065847EA1637B5EB08056EEB070C70
:10026000870E920E47EA811742EA8312A7FB02012A
:10027000B6EB0B0164EB00042B0D43EA0C335E1864
:1002800044EB1C50DA465146E7FB0201C5F3130468
:100290004FEA0B3343EA14534FEA0432019C43EA1A
:1002A0000603A4F10C040294009CCDE900B400F014
:1002B000BDF803B000F003B800200146F9E730BCF8
:1002C000BDE8C08F2DE9F04D81EA030404F0004B36
:1002D00021F0004514464FF0000A23F0004150EA97
:1002E000050220D054EA01021DD0C5F30A57024688
:1002F000C5F31303C1F31300C1F30A5640F480158C
:1003000043F48013A7EB0608101BD64608F2FD380D
:1003100073EB050002D308F1010801E092185B417C
:10032000B8F1000F03DA00200146BDE8F08D00208F
:100330004FF48011064684460EE0171B73EB050749
:1003400005D3121B63EB050306434CEA010C490875
:100350004FEA300092185B4150EA0107EDD152EAB2
:10036000030012D082EA040083EA0501084305D0A5
:10037000101BAB4106D20122002306E000224FF001
:10038000004302E06FF0010253101AEB06004CEB41
:10039000085110EB0A0041EB0B01BDE8F04D00F0F5
:1003A00036B80EB540F2334102910021CDE900117B
:1003B0000A460B4600F03AF803B000BDC1F30A52FA
:1003C00010B5C1F3130140F2FF3341F480119A429A
:1003D00001DA002010BD40F233439A42A2F23342C8
:1003E00003DC524200F003F810BD904010BD202AFB
:1003F00004DB203A21FA02F00021704721FA02F3CF
:10040000D040C2F12002914008431946704710B510
:10041000141E73F1000408DA401C41F10001921827
:100420005B411A4301D120F0010010BD2DE9F04DD0
:1004300092469B4611B1B1FA81F202E0B0FA80F225
:100440002032904600F042F904460F4640EA0A0086
:1004500041EA0B0153465A46084313D0114653EA6A
:10046000010019D0C8F140025046FFF7C0FF054611
:100470000E4650465946424600F028F9084305D03A
:10048000012004E020463946BDE8F08D00200543F8
:1004900046EAE0762C4337430A986305E40AA0EB6A
:1004A00008000022FD0A44EA47540A3002D5002021
:1004B0000146E9E7010510196941DDE90845001920
:1004C0006941BDE8F04DA2E72DE9FE4F804681EA83
:1004D0000300C00F0C46009021F0004123F00045BE
:1004E000B8EB0200A94105D24046214690461C4681
:1004F0000B46024623F00040104347D0270DC7F3B8
:100500000A00C3F30A510290401A019040286BDAA6
:10051000C3F3130040F4801B0098924620B10023DF
:10052000D2EB030A63EB0B0B01985946C0F1400272
:10053000504600F0CBF806460D4650465946019A03
:1005400000F0D3F810EB08006141002487EA115253
:1005500084EAE7731A4340D0009A62B3019A012AF1
:100560004FEA075215DC001B61EB02014FF000421D
:1005700002EA0752CDE90042001C41F580113246E3
:100580002B46FFF753FF03B000F045B84046214625
:10059000F9E7001B61EB0201001C41F58013001814
:1005A0005B412018A2F5001747EB030140EAD57024
:1005B000B6196D4111E06D084FEA360645EAC0757F
:1005C0004FEA0752001B61EB0201001C41F580114C
:1005D00049084FEA30000019514132462B4603B01A
:1005E00000F01CB8FFF713BF009801224000002361
:1005F000D0EB020263EBE073009821464FEAE0740F
:10060000B8EB000061EB0401E9E783F000435BE72E
:1006100081F0004158E730BCBDE8C08F30BCBDE878
:10062000C04FFFF7DFBF70B521F0004303430CD08C
:10063000C1F30A550024D5EB040564EB0403D61777
:10064000AD1AB34102DB0020014670BD201841EB1A
:10065000025170BD0EB5C10F80EAE0700844CA07B0
:10066000002140F233438DE80E000A460B46FFF7A7
:10067000DDFE03B000BD000030B5041E71F10004C2
:1006800004DB4FF00044404264EB0101141E73F19F
:10069000000405DB1C464FF00043524263EB0403A9
:1006A000994208BF904230BD064C074D06E0E06815
:1006B00040F0010394E8070098471034AC42F6D3A9
:1006C000FFF766FD7067000890670008202A04DBCA
:1006D000203A00FA02F1002070479140C2F1200355
:1006E00020FA03F3194390407047202A06DBCB170A
:1006F000203A41FA02F043EAE07306E041FA02F3DD
:10070000D040C2F1200291400843194670472DE9BC
:10071000F04D00231A461B1A8A4103DB00200146D4
:10072000BDE8F08DC1F30A52C1F3130141F4801505
:100730004FF0000BD10702D100186D41521E002767
:10074000044640F2FF11384601EB620A3E468046FD
:10075000024600204FF48011FFF749FEC219714193
:10076000BB1846EB0100B4EB030C75EB000C04D393
:10077000E41A65EB000517460E46241908F101003E
:100780006D4180463428E3DDF91946EB0600091B6C
:10079000A84103D24FF0FF32134601E00022134676
:1007A0001BEB070046EB0A51BDE8F04DFFF72FBEEB
:1007B00030B50F4887B0C16C41F00801C164C06C0E
:1007C0004FF4806400F0080005900120CDE900405E
:1007D0000020084D029003906946284600F072F907
:1007E00000222146284600F05BFA07B030BD000029
:1007F00000100240000C0048FEE710B502F0BCF902
:1008000010BD10B502F0BBF910BD10B502F08CF9A7
:100810000446204610BD7047012000F047B94FF450
:10082000004000F043B910B5072000F0ADFA0220F7
:1008300000F03CF9BDE81040072000F0B0BA704766
:1008400010B50A2000F0A0FA102000F02FF9BDE842
:1008500010400A2000F0A3BA4FF4407000F026B90F
:1008600070B5044600F022FA0546601C00D0641CF6
:1008700000F01CFA401BA042FAD370BD38B5054603
:100880004FF400417B4800F006FA00285CD132208A
:10089000FFF7E6FF4FF40041764800F0FCF900282E
:1008A00052D1754801F062FA74480078401C7349CF
:1008B000087008460078012804D002280CD00328CC
:1008C0001CD113E04FF496506D49886041F2883096
:1008D000C8608000486112E04FF4164068498860A3
:1008E00049F64040C8608000486108E065486449B6
:1008F00088604010C8608000486100E000BF00BF11
:100900000C2000905E4806230C218268302001F004
:10091000ECFD0C2000905A4806231821C2681E20C6
:1009200001F0E3FD0C200090554806232421426984
:100930003C2001F0DAFD01F057FD50480078032813
:1009400002DD00204D4908704FF480714E4800F0E0
:10095000A2F968BB3220FFF783FF4FF480714A4849
:1009600000F099F920BB444801F000FAFFF745FF79
:1009700046480078401C40B244490870444891F908
:10098000001050F821003E4908600C2000900846F5
:100990000923002102682A2001F0A7FD01F024FDAF
:1009A0003A4890F90000042802DBFF20374908701C
:1009B0004FF40071344800F06EF900283ED1322027
:1009C000FFF74EFF4FF400712F4800F064F9A8BB09
:1009D00002F078FF58B109E001F002FC18232DA2C3
:1009E0000021084601F0C0FD01F0FEFCF4E7002004
:1009F0002A4908802A4908802A4908800C200323B4
:100A000000902648028830210C2001F06EFD0C2059
:100A100003230090224802883021084601F065FD3A
:100A20000C20032300901F4802883021542001F03D
:100A30005CFD01F0D9FC104801F088F9FFF7E5FEF4
:100A4000012815D102F07DFB04464FF6FF7002F03D
:100A500007FB04F0010018B102201349087006E0FA
:100A600004F04200022802D101200F49087000BFA3
:100A700038BD000000040048CC000020C400002065
:100A80000400002090D00300000C0048C5000020A6
:100A9000A400002045526F5200000000B800002062
:100AA000BA000020BC000020C3000020044910B59B
:100AB0000A68024202D00860FFF7E0FE10BD0000A5
:100AC000140401402DE9F84FDFF8A091002209F14C
:100AD000040A0AF1040B4FF00F080BF1040EBEE0FC
:100AE00001249440234075D04D68022D01D0122D71
:100AF00011D1D50800EB85073E6A5507ED0E08FABF
:100B000005FC26EA0C06D1F810C00CFA05FC4CEAEC
:100B1000060CC7F820C007685500032691F804C0EA
:100B2000AE400CF0030CB7430CFA05FC4CEA070C82
:100B3000C0F800C04F68012F05D0022F03D0112F3D
:100B400001D0122F15D18768D1F80CC0B7430CFA29
:100B500005FC4CEA070CC0F808C0476891F804C0CF
:100B6000A743CCF3001C0CFA02FC4CEA070CC0F8BB
:100B700004C0D1F804C06FEA0C07BF0706D1C76AEA
:100B8000A743CCF3C00494403C43C462C468B4435C
:100B90008E68AE402643C6604C68E4005ED5344C97
:100BA000256E45F001052566246E22F0030504F04C
:100BB000010400942F4C2E19B7689407250F08FAEA
:100BC00005F4A743B0F1904F05D02B4CA04204D1BF
:100BD00001241CE042E0002419E0284CA04201D18D
:100BE000022414E0264CA04201D103240FE0254C3E
:100BF000A04201D104240AE0234CA04201D10524E3
:100C000005E0224CA04201D1062400E00724AC40BC
:100C10003C43B460D9F800404D464E689C43F6030F
:100C200000D51C432C60DAF8004055464E689C43C2
:100C3000B60300D51C432C60DBF800405D464E68CF
:100C40009C43F60200D51C432C60DEF8004075463C
:100C50004E689C43B60200D51C432C60521C0B68A6
:100C600033FA02F47FF43CAF00F012B80004014004
:100C70000010024000000140000400480008004845
:100C8000000C0048001000480014004800180048FC
:100C900018BCBDE8E08F0069084000D00120704713
:100CA0000AB18161704781627047000001480068A5
:100CB000704700000000002002480168491C0160E4
:100CC000704700000000002010B5032000F092F8EB
:100CD000002000F005F800F017F8002010BD00001B
:100CE00010B5044607484FF47A710068B0FBF1F084
:100CF00000F098FF00222146501E00F05BF8002013
:100D000010BD0000340000201E4808B5016E41F0FF
:100D100001010166016E01F001010091816D41F058
:100D200080518165806D00F080500090032000F0BC
:100D300061F8002211466FF00B0000F03BF8002232
:100D400011466FF00A0000F035F8002211466FF0EE
:100D5000090000F02FF800221146501F00F02AF879
:100D600000221146101F00F025F800221146901EA7
:100D700000F020F80022BDE808401146501E00F0A7
:100D800019B800000010024000F01F02012191403C
:100D90004009800000F1E020C0F88011704700F0A9
:100DA0001F02012191404009800000F1E020C0F8BD
:100DB00000117047F0B40E4B1B68C3F30223C3F15C
:100DC0000704042C00D904241D1D072D01D2002383
:100DD00000E0DB1E012606FA04F56D1E0D409D4065
:100DE0009E40761E164045EA0601F0BC01F0E8B9C7
:100DF0000CED00E0064A00F0070110684FF6FF0313
:100E0000184040EA01200349084310607047000081
:100E10000CED00E00000FA051549B0F5007F086808
:100E2000C0F3412009D0022805D0086820F4C06032
:100E300040F480600860002070470128FBD00868FB
:100E400020F4C06040F4007008600A480A4A006854
:100E5000B0FBF2F03222504300E0401E10B14A696C
:100E60005205FAD448694005E5D5032070470000D3
:100E7000007000403400002040420F00024800682B
:100E800000F4C06070470000007000402DE9F84F8A
:100E9000044600250088E44E2F46010504F1200B8E
:100EA0001DD5606E78B1B0F5800F11D0B0F5000F90
:100EB00004D0B0F5400F22D001250FE0F06840F4D7
:100EC0008030F0601BE00021201D01F08BFB03E06F
:100ED0000021584601F03CFC050010D02F46208828
:100EE000C00426D5A06EC0B1B0F1807F1AD0B0F199
:100EF000007F0DD0B0F1407F19D0012518E0D6F861
:100F00008800616E20F440000843C6F88800E6E7D8
:100F1000F06840F48030F06009E00021201D01F00D
:100F200061FB03E00021584601F012FC0546F5B1D3
:100F30002F462068800366D5B06D4FF00009C000D1
:100F400009D4B06D40F08050B065B06D4FF001092C
:100F500000F080500090DFF8D4A2DAF8001041F4DD
:100F60008071CAF80010FFF7A1FE804610E0D6F8A5
:100F70008800A16E20F040700843C6F88800D8E7CA
:100F8000FFF794FEA0EB0800022801D9032532E008
:100F9000DAF80000C005F3D56DBBD6F8900010F468
:100FA000407015D0D4F88410814211D0D6F890004A
:100FB000D6F8901020F4407041F48031C6F89010BB
:100FC000D6F8901021F48031C6F89010C6F8900041
:100FD000C0074ED0FFF76AFE804641F2883A05E02E
:100FE000FFF764FEA0EB08015145CFD8D6F890007A
:100FF0008007F5D5EDB32F46B9F1000F03D0B06DE2
:1010000020F08050B0652078C00707D0D6F888005F
:10101000A16B20F003000843C6F888002078800701
:1010200007D5D6F88800E16B20F00C000843C6F81D
:1010300088002078400707D5D6F88800216C20F07A
:1010400030000843C6F888002078000707D5D6F896
:101050008800616C20F0C0000843C6F88800207842
:10106000C00609D5D6F88800A16C20F4407008436A
:1010700000E05AE0C6F888002078800607D5D6F848
:101080008800E16C20F440600843C6F8880020889E
:10109000800507D5D6F88800E16D20F4402008438C
:1010A000C6F888002088400507D5D6F88800216E4C
:1010B00020F440100843C6F888002078400607D581
:1010C000D6F88800216D20F440500843C6F8880007
:1010D0002078000607D5D6F88800616D20F44040DE
:1010E0000843C6F888002088C00507D5D6F88800D0
:1010F000A16D20F440300843C6F8880020884FF0E6
:10110000006580044FF0806821D5D6F88800E16E34
:1011100020F040600843C6F88800E06EA8420ED177
:10112000F06840F48010F06011E0D6F89000D4F838
:10113000841020F440700843C6F890005CE74045F6
:1011400005D10121201D01F04DFA00B107462068AC
:10115000000317D5D6F88800216F20F040600843BF
:10116000C6F88800206FA84204D1F06840F48010CF
:10117000F06007E0404505D10121201D01F032FA61
:1011800000B107462068400317D5D6F88800616F84
:1011900020F040600843C6F88800606FA84204D180
:1011A000F06840F48010F06007E0404505D101216F
:1011B000201D01F017FA00B10746208840041AD517
:1011C000D6F88800A16F20F040500843C6F8880088
:1011D000A06FB0F1805F03D0B0F1005F05D00AE0EE
:1011E0000221201D01F0FEF903E00221584601F022
:1011F000AFFA00B107462088000407D5D6F888006A
:10120000E16F20F080400843C6F888002068C003E2
:1012100007D556F8880FD4F8801020F00040084316
:101220003060384600F004B8001002400070004002
:1012300018BCBDE8E08F00002DE9F047DFF86481BD
:1012400004460E46D8F8000000F00700B0420CD269
:10125000D8F8001021F007013143C8F80010D8F881
:10126000000000F00700B04272D120784E4F800796
:1012700005D5B868A16820F0F0000843B860207870
:10128000C00754D06068022818D0032819D03968E4
:10129000D0B1490500295BDAB96821F003010143A7
:1012A000B960FFF703FD0546606841F28831022806
:1012B00012D003281DD0894638B333E0396889033A
:1012C000E8E739688901E5E78907E3E7FFF7EEFC1E
:1012D000411B494501D922E08946B868C0F3810025
:1012E0000228F3D123E0FFF7E1FC411B494501D976
:1012F00015E08946B868C0F381000328F3D116E0F1
:10130000FFF7D4FC411B494509D8B86810F00C0F11
:10131000F6D10CE0FFF7CAFC411B494502D9032076
:10132000BDE8F087B868C0F381000128F2D1D8F891
:101330000010404601F00701B1420BD9016821F0CD
:10134000070131430160006800F00700B04201D09E
:101350000120E5E72078400705D5B868E16820F46A
:10136000E0600843B8602078000706D5B8682169B6
:1013700020F4605040EAC100B86000F021F8B9687C
:10138000F02292FAA2F201F0F001B2FA82F2D14018
:10139000064A515CC840064908600020FFF7A0FCDF
:1013A0000020BDE70020024000100240A0660008B7
:1013B000340000200148006870470000340000201D
:1013C00070B53B4B0022104699683A4C11F00C0F57
:1013D0004FEA640514D09968C1F38101032904D14F
:1013E000D96801F0030101290AD09968C1F381018C
:1013F000012921D09968C1F3810102291ED01EE084
:101400001968090706D4D3F894104FF4706201F4F8
:10141000706103E01968F02201F0F00192FAA2F283
:10142000B2FA82F2D140244A52F82120996811F090
:101430000C0F04D1104602E0204600E028469968CF
:10144000C1F38101032931D1D868D96800F00300C4
:10145000702696FAA6F601F07001B6FA86F6F1400B
:10146000491C4FF4FE46022804D0032805D0B2FBE5
:10147000F1F004E0B4FBF1F001E0B5FBF1F0D96864
:1014800096FAA6F201F4FE41B2FA82F2D140484344
:10149000D9684FF0C06292FAA2F201F0C061B2FACC
:1014A00082F2D140491C4900B0FBF1F070BD000050
:1014B000001002400024F400B06600082DE9F84353
:1014C00004460078FD4DC00663D5A86810F00C0FE7
:1014D0000AD0A0690028286878D040F00100286070
:1014E000FFF7E4FB06465AE02868800702D5A069AA
:1014F00000286AD0216A28684FF0F006000703D55B
:10150000286800F0F00003E0D5F8940006EA101017
:10151000814216D9084601F0B9F9002855D128684A
:1015200040F0080028602868216A20F0F000084395
:1015300028606868E16920F47F4040EA0120686023
:1015400015E0286840F0080028602868216A20F02B
:10155000F000084328606868E16920F47F4040EAB1
:1015600001206860206A01F091F90028D6D1FFF7C8
:1015700027FFA96896FAA6F201F0F001B2FA82F20A
:10158000D140CF4A515CC840CE4908600020FFF7E7
:10159000A7FB2AE0FFF78AFB801B02287ED8286879
:1015A0008007F7D5286840F0080028602868216A7D
:1015B00020F0F000084328606868E16920F47F406B
:1015C00040EA0120686010E000E0B3E020F0010094
:1015D0002860FFF76BFB064604E0FFF767FB801B04
:1015E0000228DBD828688007F7D42078C00746D0C7
:1015F000A868C0F3810002281DD0A868C0F381004C
:10160000032803D1E868C043800714D06068B0F5B0
:10161000803F17D0B0F5A02F286817D020F4803075
:101620002860286820F4802028606068D8B1FFF71F
:101630003DFB064613E02868800320D5606800283B
:1016400078D01CE0286840F48030EDE740F480203A
:101650002860F7E7FFF72AFB801B64289ED82868DC
:101660008003F7D50BE0FFF721FB064604E0FFF708
:101670001DFB801B642891D828688003F7D420784C
:10168000800747D5A8684FF0F857C0F381000128BC
:1016900016D0A868C0F38100032800E0AAE004D1B6
:1016A000E86800F0030002280AD0E06800282868F3
:1016B00021D040F480702860FFF7F8FA06460BE06E
:1016C000286840050BD5E0680028B9D007E0FFF78F
:1016D000EDFA801B022884D828684005F7D5686891
:1016E00097FAA7F22169B2FA82F220F0F8509140FD
:1016F000084368600EE020F480702860FFF7D6FA97
:10170000064604E0FFF7D2FA801B022872D8286848
:101710004005F7D42078000728D560690028D5F85F
:10172000940012D040F00100C5F89400FFF7BEFA13
:10173000064605E0F6E0FFF7B9FA801B022859D803
:10174000D5F894008007F6D510E020F00100C5F828
:101750009400FFF7ABFA064604E0FFF7A7FA801BF8
:10176000022847D8D5F894008007F6D4207840079F
:1017700062D5A86D0027C00008D4A86D40F0805045
:10178000A865A86D012700F0805000904E480168C0
:10179000C90511D40168804641F480710160FFF7EA
:1017A00085FA064604E0FFF781FA801B022821D85B
:1017B000D8F80000C005F6D5A068012815D0052886
:1017C000D5F8900017D020F00100C5F89000D5F8AA
:1017D000900020F00400C5F89000A06841F288381D
:1017E000C0B1FFF763FA06460FE0D5F8900040F06D
:1017F0000100F0E761E040F00400C5F89000F4E774
:10180000FFF754FA811B414557D8D5F8900080075F
:10181000F6D50CE0FFF74AFA064604E0FFF746FA71
:10182000811B414576D8D5F890008007F6D41FB1CA
:10183000A86D20F08050A865A06AE8B3A968C1F33C
:10184000810103296ED00228286820F0807028606A
:1018500011D02868000106D42868800003D4E86805
:1018600020F00300E860E86818490840E860FFF7E6
:101870001DFA044651E0FFF719FA064604E0FFF7A7
:1018800015FA801B022845D828688001F7D4206B00
:10189000E16A000110380843616BA26B090212096A
:1018A00041EA42410843A18F094A490802EB4151EC
:1018B000084394F840100DE032E02BE000100240A5
:1018C000A06600083400002000700040FFFFEEFE1C
:1018D0000000E0FF4908120102EB41610843E860A3
:1018E000286840F080702860E86840F08070E86008
:1018F000FFF7DCF9044604E0FFF7D8F9001B0228E3
:1019000008D828688001F7D50AE0FFF7CFF9001B57
:10191000022802D90320BDE8F88328688001F4D4A6
:101920000020F8E70120F6E72DE9F041040005D09A
:101930000025A56294F85D0018B107E00120BDE81C
:10194000F08184F85C50204600F044F8022684F8C8
:101950005D602068016821F040010160E0684FF49B
:10196000E062904201D9002101E04FF48051B0F5CE
:10197000706F02D0904200D0A562276B012327B977
:10198000904201D9266300E02363D4E901021043A9
:10199000D4E9042632431043228B02F40072104330
:1019A000E2691043226A1043A26A10432268106061
:1019B000626B606AA66910430427E26807EA16466C
:1019C00032431043084321684860256684F85D303F
:1019D0000020B4E770472DE9F05F044690F85C0002
:1019E0000127DDF828809A4616460D464FF000097B
:1019F00001280ED0012084F85C00FFF757F98346D8
:101A000094F85D00616801280CD0B1F5827F07D1A0
:101A100002E0022000F0F6B8A16809B9042801D05C
:101A200002206EE035B32EB3BAF1000F22D094F845
:101A30005D00042802D0052084F85D0000202066A7
:101A40002664A4F846A0A4F844A0A563A4F83EA088
:101A5000A4F83CA0E0642065E0684FF4E0618842AF
:101A600003D8B4F84600012806D92068426822F459
:101A7000805205E0012044E02068426842F4805230
:101A8000426020680268520603D4026842F04002B5
:101A90000260E0688842606844D910B1E08F012894
:101AA00038D1216835F8020BC860E08F401EE0870E
:101AB00030E067B1E08F50B120688168890706D5B2
:101AC00035F8021BC160E08F401EE0870027B4F8A4
:101AD000460060B120688168C90708D0C06826F850
:101AE000020BB4F84600401EA4F846000127B8F1E6
:101AF000FF3F0FD0FFF7DAF8A0EB0B01414509D308
:101B000003208146012084F85D00002084F85C00F9
:101B100048467FE7E08F0028CBD1B4F84600002884
:101B2000C7D162E010B1E08F012857D1E08F0128C2
:101B300006D9216835F8020BC860E08F801E05E0E9
:101B4000216815F8010B0873E08F401EE08745E01F
:101B5000AFB1E08F98B12068816889070FD5E18F18
:101B6000012905D935F8021BC160E08F801E04E011
:101B700015F8011B0173E08F401EE0870027B4F8C1
:101B8000460010B320688168C9071ED0B4F846101B
:101B9000012911D9C06826F8020BB4F84600801E4E
:101BA000A4F84600B4F8460001280DD82068416822
:101BB00041F48051416007E0007B06F8010BB4F866
:101BC0004600401EA4F846000127B8F1FF3F05D0AB
:101BD000FFF76CF8A0EB0B01414591D2E08F002894
:101BE000B6D1B4F846000028B2D15A464146204644
:101BF00000F0A8FE08B120202066206E00287FF4A7
:101C000039AF7FE730BCBDE8C09F4FF0E02104282A
:101C1000086903D020F004000861704740F0040018
:101C2000FAE7704710B5401EB0F1807F01D3012064
:101C300010BD4FF0E02460610F21601700F0C0FA82
:101C40000020A06107202061002010BD10B5FFF723
:101C5000E8FF10BD7047704730B590F83820012A72
:101C60001FD0012280F8382003685A689D680E4C06
:101C7000A34202D00D4CA34203D122F470044A685F
:101C8000224322F070040A688968224325F0800408
:101C900021435A6002689160002180F8381008469C
:101CA00030BD022030BD0000002C01400034014056
:101CB00010B5040003D094F8390010B107E00120FA
:101CC00010BD002084F83800204600F00DF80220F6
:101CD00084F83900211D206801F004FF012084F8F8
:101CE0003900002010BD000008B50068144A1549ED
:101CF00090420ED1886D40F002008865886D002208
:101D000000F00200009011461D20FFF753F81D203F
:101D100010E00D4A904211D1886D40F004008865B2
:101D2000886D002200F00400009011461E20FFF78D
:101D300041F81E20BDE80840FFF731B808BD00009B
:101D400000040040001002400008004002686FF0EC
:101D5000010111610168CA6842F00102CA600068AD
:101D6000016841F001010160002070470168CA6804
:101D700022F00102CA600068016A41F211121142A8
:101D800007D1016A9210114203D1016821F00101CB
:101D9000016000207047000070B5044690F83800DC
:101DA000012817D0012584F83850022084F8390022
:101DB00020688268354E324022F47F428260086893
:101DC000502838D00DDC20285AD005DC90B31028DC
:101DD00042D152E0022070BD302854D040283BD17F
:101DE00040E060282FD070280CD0B0F5805F03D081
:101DF000B0F5005F30D112E020688168234A70326C
:101E000011400AE0CB68D1E90121206801F0C6FE4B
:101E100020688168314041F0770181601CE0CB6827
:101E2000D1E90121206801F0B9FE2068816841F400
:101E30008041F2E71EE0CA684968206801F0C0FEF0
:101E40005021206806E0CA684968206801F0C9FE90
:101E50006021206801F0ACFE84F83950002084F83D
:101E6000380070BDCA684968206801F0A9FE4021A9
:101E70002068EFE700212068ECE710212068E9E7FF
:101E800020212068E6E730212068E3E788FFFEFF95
:101E9000704770B50446006801694FF00005C943FA
:101EA000890715D4C168C943890711D4E91E0161A6
:101EB00001202076206880698007204602D0FFF745
:101EC000E7FF04E000F098F8204600F096F8257649
:101ED00020680169C943490717D4C168C943490744
:101EE00013D46FF00401016102202076206880691C
:101EF00010F4407F204602D0FFF7CAFF04E000F054
:101F00007BF8204600F079F8257620680169C943FE
:101F1000090716D4C168C943090712D46FF0080134
:101F20000161042020762068C0698007204602D025
:101F3000FFF7AEFF04E000F05FF8204600F05DF828
:101F4000257620680169C943C90617D4C168C94309
:101F5000C90613D46FF010010161082020762068B3
:101F6000C06910F4407F204602D0FFF791FF04E0E3
:101F700000F042F8204600F040F82576206801691C
:101F8000C943C90708D1C168C943C90704D1891E1B
:101F90000161204600F032F820680169C943090652
:101FA00009D4C168C943090605D46FF080010161F5
:101FB0002046FFF74FFE20680169C943490609D44E
:101FC000C168C943490605D46FF04001016120464C
:101FD00000F020F820680169C94389060BD4C16864
:101FE000C943890607D46FF0200101612046BDE88E
:101FF0007040FFF730BE70BD70477047034988429C
:1020000002D10321024A117070470000CC00002069
:10201000C30000207047FEE770B501220B4D54024B
:1020200021462846FEF73CFE01221602314628468C
:10203000FEF736FE002221462846FEF731FE3146E5
:102040002846BDE870400022FEF72ABE0004004882
:1020500070B50A4C012211022046FEF721FE4FF412
:102060000075002229462046FEF71AFE2946204622
:10207000BDE870400122FEF713BE000000040048D6
:1020800070B50122064D140221462846FEF708FECF
:1020900021462846BDE870400022FEF701BE000040
:1020A0000004004830B51C4887B0C16C41F0020103
:1020B000C164C16C01F002010591C16C41F00801DD
:1020C000C164C06C154D00F0080005904FF400404D
:1020D000CDE900050124694602941148FEF7F2FC9F
:1020E0004FF44070CDE90005694602940D48FEF7B3
:1020F000E9FC002201211720FEF75CFE1720FEF705
:102100004EFE002201212820FEF754FE2820FEF773
:1021100046FE07B030BD0000001002400000211054
:1021200000040048000C00480F4810B5C16C86B090
:1021300041F00101C164C06C4FF0904400F0010017
:102140000590012270212046FEF7AAFD7021112082
:10215000CDE9001000210291039169462046FEF767
:10216000B1FC06B010BD00000010024010B51249CD
:1021700088B0104A0A604FF6FF120024401E4A60E1
:10218000C1E9024008460C61FFF792FD00280ED11C
:102190004FF48050039003A90748FFF7FDFD002886
:1021A00005D10094694604480294FFF755FD08B034
:1021B00010BD000000040040CC000020FEE7704786
:1021C0000907090E002806DA00F00F0000F1E020F0
:1021D00080F8141D704700F1E02080F8001470476B
:1021E00030B40021084B0A46002003EBC004401C19
:1021F000C0B262548028F8D3491CC9B20829F3D36D
:1022000030BC00F0F1B80000A801002010B57F2814
:1022100016D83F2914D80723A3EBD10301F00701F7
:10222000C1F107040121A140064CDBB204EBC00060
:10223000002AC25CC9B201D00A4300E08A43C254FA
:1022400010BD0000A8010020F0B5604887B0C16C47
:1022500041F00201C164C16C01F002010591C16C41
:1022600041F00801C164C06C4FF4407500F00800F3
:1022700005900126564FCDE9005602246946039485
:102280003846FEF71FFC012229463846FEF708FDB6
:10229000ED0003944F4CCDE9005669462046FEF709
:1022A00011FC012229462046FEF7FAFC0022F10229
:1022B0002046FEF7F5FC0122150329462046FEF7CD
:1022C000EFFC7820FEF7CCFA002229462046FEF7E4
:1022D000E7FC7820FEF7C4FA012229462046FEF7E3
:1022E000DFFC0021AE2000F061F90021022000F0A7
:1022F0005DF90021102000F059F90021402000F084
:1023000055F90021812000F051F90021FF2000F053
:102310004DF90021A12000F049F90021C02000F072
:1023200045F90021A62000F041F90021A82000F085
:102330003DF900213F2000F039F90021D32000F0C1
:1023400035F90021084600F031F90021D52000F0D0
:102350002DF90021802000F029F90021D92000F07A
:1023600025F90021F12000F021F90021DA2000F008
:102370001DF90021122000F019F90021DB2000F0E6
:1023800015F90021402000F011F90021202000F073
:102390000DF90021022000F009F900218D2000F044
:1023A00005F90021142000F001F90021A42000F01B
:1023B000FDF80021A62000F0F9F80021AF2000F080
:1023C000F5F8FFF70DFF07B0F0BD00000010024068
:1023D00000040048000C00480346012000E0584378
:1023E000491EC9B2FBD2704770B5104E002505F1E9
:1023F000B000C0B2002100F0D9F80021022000F0A6
:10240000D5F80021102000F0D1F8002406EBC4001C
:102410000121405D00F0CAF8641CE4B2802CF5D3C1
:102420006D1CEDB2082DE2D370BD0000A8010020A4
:102430002DE9F84F83461E460F468A46580700D0BE
:10244000012000EBD600710810FB01F0203AC0B269
:1024500002F0FF090025009039E00C2E0FD0102E5D
:1024600011D0182E36D11C4909EBC90001EB8000B0
:102470004FF00008445D200609D50A9A0AE009EBEE
:1024800049001649F2E7164901EB0910F0E70A98EE
:1024900090B1002239465846FFF7B8FE60067F1C0F
:1024A000040EFFB2A7EB0A00B04207D10BF1010006
:1024B000574600F0FF0B08E00122EBE708F10100AE
:1024C00000F0FF08B8F1080FD5D36D1CEDB20098ED
:1024D0008542C2D300F006B8925800082E4E00087C
:1024E000A252000818BCBDE8E08F2DE9FF4F81B073
:1024F0000027DDF838B01D46924680463C464FF036
:1025000001094FEA5B0627E0281B401EC1B20A20E2
:10251000FFF762FFBAFBF0F00A21B0FBF1F201FB1A
:10252000120027B9691E8C4201DA48B10127303008
:10253000C2B206FB0480C0B25B46CDF8009006E054
:1025400006FB0480C0B25B462022CDF800900299C1
:10255000FFF76EFF641CE4B2AC42D5D305B000F0C7
:1025600000B830BCBDE8C08F2DE9F8431F461546C2
:102570000E4604464FF00109C3F180080FE03B46C8
:1025800031462046CDF80090FFF752FF04EB57008C
:10259000C4B2A04502DA0024B61CF6B26D1C2A783B
:1025A000A2F120005E28EAD9BDE8F88370B50C4698
:1025B0000546FFF731FD782001F0F6F9FFF760FDE1
:1025C0000CB1402000E0002001F0EEF9FFF758FDCB
:1025D000284601F0E9F9FFF753FDBDE87040FFF729
:1025E00037BD70472DE9F041554E05468846F068E5
:1025F0000024820728684FF0700113D0F26802F0BF
:10260000030282420CD158B1F06891FAA1F100F0B6
:102610007000B1FA81F1C8406968401C884221D03D
:1026200001248AE0012809D002280AD00328F7D122
:102630003268920309D43268520304E03268920788
:1026400001E032685205002AEADAF26891FAA1F153
:1026500022F073036A68B1FA81F1521E8A40134373
:102660000343F360306820F080603060FEF71EFBAB
:10267000074604E0FEF71AFBC01B022853D8306857
:102680000001F7D4DCBB4FF4FE40B8F1000F23D0BB
:1026900090FAA0F0A968B8F1010FB0FA80F04FF0FD
:1026A000FF3201FA00F12BD0686902EB50004FF0C5
:1026B000C06292FAA2F2B2FA82F29040014330690B
:1026C000204A104001433161306840F08060306042
:1026D000FEF7ECFA074628E090FAA0F0A968B0FAF5
:1026E00080F08140E8684FF4003292FAA2F20009CB
:1026F000B2FA82F2904001433069134AE1E71CE0EC
:10270000286902EB50004FF4C00292FAA2F2B2FA2A
:1027100082F29040014330690C4AD2E7FEF7C6FAD4
:10272000C01B022801D9032407E030680001F5D559
:102730001CB93069A969084330612046BDE8F081C1
:1027400000100240FF80FFF9FF80FDFFFF809FFF28
:102750002DE9F0414A4E05468846F068002481077D
:1027600028684FF0700213D0F16801F00301814234
:102770000CD158B1F06892FAA2F100F07000B1FAF1
:1027800081F1C8406968401C884221D0012473E06F
:10279000012809D002280AD00328F7D1316889031B
:1027A00009D43168490304E03168890701E03168E0
:1027B00049050029EADAF16892FAA2F221F07303DE
:1027C0006968B2FA82F2491E91400B430343F360F9
:1027D000306820F080503060FEF768FA074604E069
:1027E000FEF764FAC01B02283CD830688000F7D49A
:1027F00094BB4FF4FE4191FAA1F1A868B8F1000F23
:10280000B1FA81F100FA01F019D029694FF0FF32D5
:1028100002EB51014FF0C06292FAA2F2B2FA82F2D8
:10282000914008437169174A11400843706130684C
:1028300040F080503060FEF739FA074614E0E9684E
:102840004FF4003292FAA2F20909B2FA82F29140F0
:10285000084371690C4AE7E70EE0FEF727FAC01B50
:10286000022801D9032407E030688000F5D51CB99F
:1028700070696969084370612046BDE8F081000015
:1028800000100240FF80FFF9FF80FDFFF8B51C4EED
:1028900005460024B06DC00002D5FEF7EFFA0DE04A
:1028A000B06D40F08050B065B06D00F08050009089
:1028B000FEF7E4FAB16D21F08051B165B0F5007F0B
:1028C00004D0802D07D94FF003040AE0802D08D9E9
:1028D000A02D01D804E001D1022402E0702D00D126
:1028E00001240848016821F00701214301600068C4
:1028F00000F00700A04201D00120F8BD0020F8BD83
:10290000001002400020024002460AB91F20704712
:10291000002111E00A4850F8310090420AD8084BD3
:10292000481C53F83000904204D3481C03EBC0000D
:102930000079ECE7481CC1B21529EBD300BFFEE7D4
:10294000F0650008F8B515460E460B4600920446A1
:1029500000224FF4C05100F019F888B93346002224
:1029600080212046009500F060F848B933460022E7
:102970004FF4C0612046009500F008F8002804D00C
:10298000206E40F0200020660320F8BD2DE9F843BA
:102990001D4616460F4604464FF4C069DDF82080F8
:1029A0003CE04F4505D126B9007B8DF800009DF82D
:1029B0000000681C32D02DB1FEF778F9A0EB0800BA
:1029C000A8422BD32068416821F0E0014160606893
:1029D000B0F5827F0BD1A068B0F5004F02D0B0F502
:1029E000806F04D12068016821F040010160A06A75
:1029F000B0F5005F09D12068016821F40051016041
:102A00002068016841F400510160012084F85D00F4
:102A1000002084F85C000320BDE8F883206881680A
:102A20003940B142BDD10020F6E72DE9F0411D4605
:102A300017460E460446DDF8188034E0681C32D094
:102A40002DB1FEF733F9A0EB0800A8422BD3206884
:102A5000416821F0E00141606068B0F5827F0BD1F0
:102A6000A068B0F5004F02D0B0F5806F04D12068A7
:102A7000016821F040010160A06AB0F5005F09D152
:102A80002068016821F4005101602068016841F468
:102A900000510160012084F85D00002084F85C0092
:102AA0000320BDE8F0812068806836EA000004D089
:102AB0000020B842C2D10020F3E70120F9E77047B7
:102AC00010B5044634B1002000F012FA012000F0E5
:102AD00033FA05E0012000F00BFA002000F02CFA98
:102AE00010BD000004210148FEF7D5B800040048DD
:102AF0000B4800B5C16C87B041F00201C164C06CE5
:102B0000694600F00200059004200090002001902A
:102B10000290012003900348FDF7D4FF07B000BDE9
:102B2000001002400004004802210148FEF7B3B83B
:102B3000000400480D4800B5C16C87B041F00201A7
:102B4000C164C06C0A4900F0020005900220CDE982
:102B500000010290039069460648FDF7B3FF00228A
:102B600001210720FEF726F907B000BD0010024042
:102B700000001110000400480720FEF705B90720E7
:102B8000FEF70DB90E4800B5C16C87B041F00401E5
:102B9000C164C06C694600F00400059010200090EC
:102BA000084801900220029003900748FDF78AFF31
:102BB000002201210A20FEF7FDF807B000BD000049
:102BC000001002400000111000080048234800686F
:102BD0002349884204D3214800682249884201D908
:102BE000002070471D488068B0F5167F04D31B484D
:102BF00080681D49884201D90020F2E717488068A3
:102C0000B0F5167F04D3154880681749884201D96A
:102C10000020E6E711484069B0F5965F04D30F48FD
:102C200080681249884201D90020DAE70B48008BFE
:102C3000012804DB0948008BB0F5005F01DB0020B0
:102C4000CFE70648C07E002803DB0448008B082835
:102C500001DD0020C5E70120C3E7000004000020DB
:102C60000068890980D99F38E093040020A10700FB
:102C700010B504460A4800F077FA4FF6FF7000F0EE
:102C8000EFF90848407F012803D106481E3000F0C4
:102C90008BFA04491E31204600F07DFA10BD000079
:102CA000280000200400002010B5012000F0F4FCF2
:102CB00000F0B0F9012000F069FC0020FFF700FFF0
:102CC0004FF6FF7000F0CCF900231A4640F20221C3
:102CD00040F2422000F03EFB002000F011FD00F029
:102CE000DDFB0021084600F00AFB024800F0BFFCB3
:102CF00010BD000000C4090010B50446012000F01A
:102D0000CBFC00F087F9012000F040FC0120FFF728
:102D1000D7FE4FF6FF7000F0A3F900231A4640F2E9
:102D20000121084600F016FB00F0B8FB0021084620
:102D300000F0E5FA0348817F034A204600F0D2FA0A
:102D400010BD000004000020FFFF2F0010B5FFF7AA
:102D5000F1FEFFF717FFFFF7CBFE012000F00EF8A2
:102D6000002000F0C5F8002000F0E6F810BD024693
:102D70004FF400414FF09040FDF792BF30B50F493E
:102D8000044687B0C86C40F00100C864C86C0121DB
:102D900000F0010005908020CDE900010220CDE97E
:102DA00002104FF0904569462846FDF78BFE2246FB
:102DB00080212846FDF774FF07B030BD00100240A7
:102DC00001B582B04FF47A700090012301AA02A9E4
:102DD0000248FEF700FE9DF804000EBD44010020ED
:102DE00010B50A20FDF73CFD0020FFF7C7FF1420B7
:102DF000FDF736FD0120FFF7C1FF0A20FDF730FD8A
:102E000010BD0000F0B585B04FF400400125CDE9BC
:102E1000000500200224CDE9020469464FF09040ED
:102E2000FDF750FE60028DE8310006260C4FCDE91B
:102E3000034669463846FDF745FEA0020090694604
:102E400004963846FDF73EFEE0028DE83100CDE9FC
:102E5000034669463846FDF735FE05B0F0BD000073
:102E60000008004838B51F48C16C41F00101C16439
:102E7000C16C01F001010091C16C41F00401C16419
:102E8000C16C01F004010091816D41F40041816544
:102E9000806D00F400400090FFF7B4FF134C12481F
:102EA0004FF4E06120604FF4827060600020C4E95C
:102EB00002014FF400712061C4E905010821C4E951
:102EC000071007216062C4E90A012063606320469D
:102ED000FEF72AFD00B1FEE72068016841F04001DD
:102EE000016038BD00100240003C00404401002059
:102EF00030B50F49044687B0C86C40F00400C86480
:102F0000C86C012100F0040005902020CDE90001EB
:102F10000220CDE90210074D69462846FDF7D2FD93
:102F2000224620212846FDF7BBFE07B030BD000039
:102F3000001002400008004830B50E49044687B032
:102F4000C86C40F00200C864C86C012100F00200A7
:102F5000009105900220CDE90210074D01916946CC
:102F60002846FDF7AFFD224601212846FDF798FED1
:102F700007B030BD001002400004004801B5012236
:102F80006946892000F053FC08BD000038B50446AE
:102F90001B48844206D9E1208DF80000E9208DF815
:102FA000010026E01748844206D9D7208DF800009A
:102FB000D8208DF801001CE01348844206D9C120B6
:102FC0008DF80000C5208DF8010012E00F48844202
:102FD00006D975208DF8000081208DF8010008E0E9
:102FE0000B48844205D96B208DF800006F208DF8C6
:102FF000010002226946982000F019FC38BD00004B
:1030000000E9A43580F8A9328044E52D000B6B1B44
:1030100040FC54191CB500F043F80190BDF80400C1
:1030200038B100F014F87F2000900098FFF7A6FF59
:1030300000BF1CBD10B500F091F818B100F08EF87B
:10304000062801D100F0C3FB00F0B9FB10BD08B5A4
:103050000020009002226946072000F0E8FB08BD2E
:1030600038B50446200A8DF80000E0B28DF8010062
:1030700002226946104600F0DAFB38BD10B5002187
:1030800040F6021000F0F2FB40F6441000F0F9F8B0
:1030900040F00204214640F6441000F0E7FB10BD6A
:1030A0001CB5002001900090022201A9172000F019
:1030B000C7F89DF8040000F001008DF801009DF8AC
:1030C000050080099DF8001060F386118DF800104E
:1030D0009DF8050040099DF8001060F345118DF83A
:1030E00000109DF8050000099DF8001060F3041120
:1030F0008DF800109DF80500C0089DF8001060F3E1
:10310000C3018DF800109DF8050080089DF800109F
:1031100060F382018DF800109DF8050040089DF8CD
:10312000001060F341018DF800109DF805009DF836
:10313000001060F300018DF80010BDF80010084683
:103140001CBD08B502226946122000F079F89DF8EE
:1031500001009DF8001040EA012008BD01480078F8
:10316000704700003000002038B50446032269464D
:10317000142000F065F89DF8000060719DF80100D2
:103180004042401040B2E0719DF8020040424010C1
:1031900040B2A07138BD70B504460D462A7821466C
:1031A000002000F029F870BD38B5044602226946B7
:1031B000132000F045F840F2047000F062F801219D
:1031C000B1EBE01F05D140F2027000F05AF8207018
:1031D00002E09DF80000207038BD1CB50020019071
:1031E000012201A9C02000F02BF89DF804000090F6
:1031F0009DF8001008461CBD2DE9F04107460D461C
:103200001646FFF717FF0020FFF7B1FD1E20FFF75E
:10321000D7FD3846FFF7D4FD0020FFF7D1FD00248D
:1032200005E00020FFF7CCFD2855601C84B2B442B5
:10323000F7DB0120FFF79BFD00F0C1FABDE8F0814C
:103240002DE9F04107460D461646FFF7F3FE002034
:10325000FFF78DFD3846FFF7B3FD0020FFF7B0FD07
:10326000002405E00020FFF7ABFD2855601C84B268
:10327000B442F7DB0120FFF77AFD00F0A0FABDE8C9
:10328000F08138B5044601226946204600F003F873
:103290009DF8000038BD2DE9F04104460E46174662
:1032A000FFF7C8FE0020FFF762FD1D20FFF788FD35
:1032B000200AFFF785FDE0B2FFF782FD0020FFF74F
:1032C0007FFD002505E00020FFF77AFD7055681CA2
:1032D00085B2BD42F7DB0120FFF749FD00F06FFA30
:1032E000BDE8F08170B504460D4616462A462146D3
:1032F000002000F07CFA304600F013FA70BD38B5BB
:1033000005460C468DF800508DF8014002226946B2
:103310008F2000F08CFA38BD38B50446200A8DF8AD
:103320000000E0B28DF801000222694640F2BE6062
:1033300000F0A4FA38BD38B50446200A8DF8000024
:10334000E0B28DF801000222694640F2BC6000F054
:1033500095FA38BD2DE9FC4107460C4615461E4638
:10336000380A8DF80000F8B28DF80100200A8DF8B7
:103370000200E0B28DF80300280A8DF80400E8B2DC
:103380008DF80500300A8DF80600F0B28DF80700C0
:1033900008226946104600F04AFABDE8FC810000A8
:1033A00030B52DED088B83B00024002001900290F1
:1033B000082531498868FCF7F4FF41EC1A0B53ECFF
:1033C0001A2B9FED2E0B51EC100BFCF77BFF41EC01
:1033D000190B9FED2C0B53EC102BFCF7FEFE41EC70
:1033E000180BFCF7EBFF0446200C8DF80400200AB4
:1033F0008DF80500E0B28DF806001F48007C8DF8BE
:1034000007001D494869FFF77FFA8DF808009FED16
:103410001F1B9FED200B00F00FFCB0EE40BAF0EE4A
:1034200060BA53EC1B2B9FED150B51EC100BFCF706
:1034300049FF41EC190B1049C868FCF7B2FF41EC99
:103440001A0B53EC192BFCF73DFF41EC180BFCF762
:10345000B5FF0446200C8DF80900200A8DF80A00FB
:10346000E0B28DF80B002A4601A98B2000F0DFF9AD
:1034700003B0BDEC088B30BD04000020000000004C
:1034800080847E41000000000000404000000000F9
:103490000000394000000000000000403EB500255B
:1034A00000200090019002902648C07FF12809D1A9
:1034B0004FF6FF70FFF73FFF48F20500FFF72CFFC4
:1034C00002250FE01F48C07FF22809D141F60F50B6
:1034D000FFF731FF41F22100FFF71EFF062501E053
:1034E0001848C57F09241748008BC0F347108DF892
:1034F00000001448007EC006000E8DF8010011483F
:10350000807E8DF802000F48C07EC006000E8DF848
:1035100003000C48007F8DF804000A48407F8DF8B6
:1035200005000848807F8DF806008DF80750054893
:1035300090F820008DF80800224669468C2000F0A3
:1035400076F93EBD04000020F8B504460D46164647
:103550001F468DF800408DF801508DF802608DF8FF
:10356000037004226946952000F061F9F8BD01B5A9
:103570009DF8000020B9002140F2AC6000F076F91F
:10358000012269468A2000F052F908BD01B50122E6
:103590006946962000F04BF908BD000030B52DEDCE
:1035A000088B81B00546254800682549884204D823
:1035B000224800682349884204D2012001B0BDECB2
:1035C000088B30BD00241D490868FFF7DFFC9FED24
:1035D0001E1B9FED1F0B00F02FFBB0EE40BAF0EE6C
:1035E00060BA53EC1B2B9FED1C0B51EC100BFCF73E
:1035F00069FE41EC190B11490868FCF7D2FE41EC59
:103600001A0B53EC192BFCF75DFE41EC180BFCF781
:10361000D5FE0446200E8DF80000200C8DF8010028
:10362000200A8DF80200E0B28DF8030004226946FA
:10363000862000F0FCF80020C0E700000400002015
:103640000016D636801A70180000000000003940BD
:1036500000000000000000400000000080847E4167
:1036600010B504460521204600F070F810BD38B5AD
:1036700004464FF6FF70FFF7F3FC200C8DF80000B6
:10368000200A8DF80100E0B28DF80200032269469D
:10369000822000F0CCF838BD11B581B04FF6FF7430
:1036A000012201A9802000F0C2F8FFF796FD0090EA
:1036B0009DF8040080B900BFFFF78FFD0090641EE5
:1036C0009DF80000C0F30210022801D0002CF3D1B5
:1036D00001200A4908700FE000BFFFF77EFD00904F
:1036E000641E9DF80000C0F30210032801D0002CD6
:1036F000F3D10220014908701CBD000030000020F9
:1037000001B5012269469F2000F091F808BD10B56F
:103710000446082221464FF4D86000F0AFF800209C
:1037200010BD38B504464FF6FF70FFF799FC200C2A
:103730008DF80000200A8DF80100E0B28DF802003B
:1037400003226946832000F072F838BD38B504467C
:103750000D46162C01DD162404E014F1030F01DAE6
:103760006FF002040123002207210420FFF7ECFE82
:10377000382140F6E70000F079F8E0B28DF800005B
:103780008DF80150022269468E2000F050F838BDB5
:1037900070B5044600254FF4D760FFF772FD00F0C6
:1037A000FE05C4F30020054329464FF4D76000F01E
:1037B0005DF8E1B240F2B96000F058F870BD10B5A4
:1037C000FFF796F9FFF78EF90128FBD010BD10B571
:1037D0000020FFF7CCFAC020FFF7F2FA0020FFF735
:1037E000EFFA0120FFF7C3FAFFF7E9FF10BD2DE95B
:1037F000F04107460D461646FFF71CFC0020FFF778
:10380000B6FA0E20FFF7DCFA3846FFF7D9FA0024A3
:1038100004E0285DFFF7D4FA601C84B2B442F8DB00
:103820000120FFF7A4FAFFF7CAFFBDE8F0812DE9F8
:10383000F04105460E461746FFF7FCFB0020FFF758
:1038400096FA2846FFF7BCFA002404E0305DFFF743
:10385000B7FA601C84B2BC42F8DB0120FFF787FA9C
:10386000842D01D0FFF7ABFFBDE8F08113B504460E
:10387000012201A9204600F001F81CBD2DE9F0410C
:1038800004460E461746FFF7D5FB0020FFF76FFAF8
:103890000D20FFF795FA200AFFF792FAE0B2FFF742
:1038A0008FFA002504E0705DFFF78AFA681C85B284
:1038B000BD42F8DB0120FFF75AFAFFF780FFBDE8B1
:1038C000F08100007CB5FFF781F908B901207CBDCB
:1038D000FFF7C8FAFFF73AFAFFF782FAFFF777FF28
:1038E0000020FFF7D9FE40F6D800FFF7CAFC40F0F1
:1038F0001E05294640F6D800FFF7B8FF0120FFF764
:1039000045FE0020FFF733FE0024092140F202703B
:10391000FFF7ACFF40F20270FFF7B3FC0446092C3E
:1039200001D00220D3E7962140F6AC00FFF79EFFBE
:103930001A490868FFF732FE184991F90400FFF7A9
:103940008FFE00210846FFF7DAFCFFF729FDFFF79D
:10395000A5FD1248007F012804D1112140F2CD605D
:10396000FFF784FF0D48007F022809D1112140F2A2
:10397000CD60FFF77BFF122140F2CE60FFF776FFAC
:1039800007A103C9CDE900016846FFF7C0FE40F278
:10399000FF10FFF7FDFE002099E700000400002063
:1039A000C194C100000000002DE9F041134E05460E
:1039B00000244FF400784FF48077002239463046D7
:1039C000FDF76EF9280601D5012200E000224146EC
:1039D0003046FDF765F9012239463046FDF760F9BA
:1039E000002239463046FDF75BF96806641C050E77
:1039F000E4B2082CE1D3BDE8F081000000040048E7
:103A000010B5FDF759F9BDE81040FEF71FB930B504
:103A1000B9B00220C10125911021229026912C904D
:103A20000121CDE92D0108212F910721CDE9301089
:103A3000329022A8FDF742FD002403250F20CDE996
:103A4000345433903694294633A83794FDF7F4FB69
:103A500000950E9468460F94FDF718FA4FF4007025
:103A6000FDF7DAF9FDF7A6FC4FF47A71B0FBF1F03F
:103A7000FEF7D8F80420FEF7C8F800221146501EC1
:103A8000FDF798F939B030BD0D48016841F4700177
:103A900001600C48016841F0010101600021816072
:103AA0000268094B1A4002608214C260026822F464
:103AB0008022026081610249C0038039086070473A
:103AC00088ED00E000100240FFFFF6EA0148FEF733
:103AD000E0B90000CC0000200148FEF7DAB9000090
:103AE000080100202DE9F0470268244C244D254EA2
:103AF000254F264B4FF0804AA04209D0504507D0B1
:103B0000A84205D0B04203D0B84201D0984204D1B7
:103B100022F0700C4A6842EA0C02DFF874C0DFF849
:103B20007480DFF87490A0420FD050450DD0A842A9
:103B30000BD0B04209D0B84207D0984205D06045BA
:103B400003D0404501D0484503D122F44075CA68EE
:103B50002A4302608A68C2620A688262A04207D071
:103B6000984205D0604503D0404501D0484501D179
:103B70000969016301214161BDE8F087002C014022
:103B80000004004000080040000C004000340140E8
:103B900000400140004401400048014010B58468E5
:103BA00042EA032224F47F440A432243826010BD88
:103BB000826822F070020A4342F007018160704778
:103BC00010B5046A036A23F001030362836923F0DA
:103BD000F00343EA021324F00A020A4383610262FB
:103BE00010BD10B5036A23F0100303628469036AF1
:103BF00024F4704444EA023223F0A00343EA0111A2
:103C00008261016210BDFEE703B401984100009893
:103C100050EAC12018BF04204A0D18BF40F001002F
:103C200040F2FF72B2EB515F08BF40F00200012882
:103C300008BF052002B070472DE9F04D2DED040BB3
:103C40002DED0E8B96B0DDE92550279CDDF890A078
:103C500025F0004624F00048BAF1000F14BF0121FE
:103C6000002101EB4502FC4953184A1093422AD324
:103C7000002814BF0123002303EB44030B44F7493E
:103C80008B4220D358EA00019FEDF59B76D0DFF8F8
:103C9000D8B35D4503D1BAF1000F05D188E0BAF180
:103CA000000F08BF002100D0012101EB450111F5F3
:103CB000001F08D8002814BF0121002101EB440196
:103CC00011F5001F0BD99DED261B9DED240B16B0A1
:103CD00000F0DABD04B0BDE8F04D00F081BE002771
:103CE000002DBCBFE149884521DAE1498845A8BFDC
:103CF00002271CDAC3451ADCDE4901EB28511429DE
:103D000008DDC1F1340220FA02F101FA02F2824226
:103D10000DD108E058B9C1F1140228FA02F101FAF4
:103D200002F2424503D101F00101C1F1020756EA56
:103D30000A0124D1002C22DA002D18BF022F01D055
:103D4000012F0AD0022000F097FE16B000F0A2BDAD
:103D500004B0BDE8F04D00F02BBE022000F08CFE58
:103D600000F026FE51EC100B81F0004141EC100BED
:103D700016B000F095BD04B0BDE8F08D18E09FEDE1
:103D8000BEAB9FEDBF8B002871D1B848804522D1D2
:103D900005F1804010F5801008BFBAF1000F07D080
:103DA000B3450ADC002CA8BF9DED260BE0DA0DE040
:103DB000B0EE490AF0EE690ADAE7002C06DA9DED6A
:103DC000260B51EC100B81F000416FE0AE487844B7
:103DD00090ED000BCCE7D8454DD1002C48DA2EB140
:103DE00086423AD1BAF1000F42D126E0BAF1000F73
:103DF00013D0022000F040FE00F00EFE8DED020B0D
:103E00009DED240B8DED000B10EE900A039961F3EC
:103E10001E0003909DED020BAAE78DED02AB9DED18
:103E2000240B1AEE901A10EE900A8DED000B61F340
:103E30001E0003909DED020B9AE78DED028B9DED28
:103E4000240B18EE901A10EE900A8DED000B61F322
:103E50001E0003909DED020B8AE709DA9DED240B0D
:103E600051EC190B53EC102BFCF72CFA1EE020E060
:103E70009DED240B7CE786421BDAB4F1804F0DD018
:103E8000A4F10050B0F1FF5013D1002D11DB9DEDD6
:103E9000240B51EC100B00F093FF07E09DED240B79
:103EA00053EC102B51EC100B00F0C2BC41EC100B8A
:103EB0005EE79DED240B51EC100B00F0E3FDBAF131
:103EC000000FCDE90E0142D19FED710B46B3A6F173
:103ED000E040B0F17F600CD05E4538D1002D00DAB3
:103EE000A7B3022F0CBF01204FF0FF30FCF7B2FB4D
:103EF000DCE7002D01DD002C0DDA002D01DD002CAA
:103F00001FDB002D16DA002C14DB012F08BF9FEDFC
:103F1000620B3FF42DAFB0EE4A0AF0EE6A0A27E7D3
:103F2000022F18BF002D0CD0012F0AD1002DFFF653
:103F30001FAF06E0002DB8BF002C08DA012F3FF4B8
:103F400017AFB0EE480AF0EE680A11E71BE0012057
:103F500000EBE57050EA070115D0791EB0EE498AF2
:103F6000F0EE698A084308BF9FED4D8B4E4800254F
:103F7000804570DD4D494E48884514DDB0420DDB6B
:103F8000002C19DB2FE0012000F076FD16B000F0C8
:103F90008DBC04B0BDE8F04D00F02EBDB34502DC91
:103FA000002C09DC1FE0864202DA002C1BDA03E059
:103FB0005E452BDD002C16DD022000F05DFD00F0DB
:103FC0002BFD8DED020B53EC1A2B51EC180BFCF76B
:103FD00004F9CDE900010399019861F31E000390F3
:103FE0009DED020BC4E6022000F046FD00F024FD2A
:103FF00010EE901A18EE900A8DED020B8DED008BED
:1040000061F31E0003909DED020BB1E69DED0E0BDA
:1040100053EC192B51EC100BFCF7F7FA9FED260B24
:10402000CDE9080153EC102B9DED080B51EC100B62
:10403000FCF7D3F89FED221B53EC112BFCF7E8FAA9
:104040009DED081B53EC112BFCF7C7F89FED1E1BD1
:1040500053EC112B3CE08CE0FFFF1F00FFFF0F0033
:10406000000000000000F03F0000F03F0000F07F83
:104070000000404301FCFFFF000000000000F07F53
:104080000000000000000000962900000000000071
:104090000000000000000080000000000000F0FFB1
:1040A000000000000000F0BF0000E0410000F0430D
:1040B000FFFFEF3F00000000000000000000D03FC5
:1040C000555555555555D53F000000000000E03FBF
:1040D000FCF79EFA9DED080B41EC1A0B53EC102BEC
:1040E00051EC100BFCF779F853EC1A2BFCF775F830
:1040F00041EC1A0B9FEDFE0B53EC102B9DED080BC2
:1041000051EC100BFCF769F841EC1B0B9FEDFA0B1F
:1041100051EC1A0B53EC102BFCF75FF841EC1A0B27
:104120009FEDF70B53EC102B9DED080B51EC100B92
:10413000FCF753F853EC1A2BFCF767FA41EC1A0B17
:1041400051EC1B0B53EC1A2BFCF7BEF90690CDE992
:1041500006519DED060B53EC1B2B51EC100BFCF79D
:1041600054FA53EC1A2BFCF753FA41EC100B00F005
:10417000A1B90020B6F5801F0EDA9FEDE30B53ECDA
:10418000102B9DED0E0B51EC100BFCF726F8CDE932
:104190000E016FF034000E4600EB2650A0F2FF3700
:1041A000C6F31300DA4940F07F6646F04056884275
:1041B000D8BF002408DDD7498142C8BF012403DCF1
:1041C0000024A6F580167F1CD348784400EBC40079
:1041D0000F9690ED00CB9DED0E0B53EC1C2B51EC8C
:1041E000100BFCF712FA9DED0E0B41EC1B0B53EC80
:1041F0001C2B51EC100BFCF767F941EC100B51EC48
:10420000190B53EC102BFCF75DF841EC1D0B51EC36
:104210001B0B53EC1D2BFBF7E0FF41EC1A0BBF48C7
:104220008DED10AB7844109590ED000B4FF00050E1
:1042300040EA660000EB84408DED080B00F500209D
:1042400009909DED080B53EC1C2B51EC100BFCF767
:10425000DCF99DED0E1B53EC112BFCF7D9F941EC69
:10426000100B53EC102B9DED100B51EC100BFBF7CA
:10427000B4FF9DED080B41EC1C0B53EC102B9DED96
:10428000100B51EC100BFBF7A8FF53EC1B2BFCF7AA
:10429000BFF953EC1C2BFCF7B8F953EC1D2BFBF7C3
:1042A0009CFF41EC1C0B53EC1A2B51EC1A0BFBF747
:1042B00094FF41EC1B0B9A480621B0EE4B0AF0EE3E
:1042C0006B0A784400F0F8FAB0EE401AF0EE601A8B
:1042D000B0EE41DAF0EE61DA53EC1B2B51EC1B0B24
:1042E000FBF77BFF53EC1D2BFBF777FF9DED100BCE
:1042F00041EC1B0B53EC1A2B51EC100BFCF7E4F8C0
:1043000053EC1C2BFBF769FF53EC1B2BFCF7DCF881
:104310009DED100B41EC1B0B53EC102B51EC100BD3
:10432000FBF75BFF41EC1D0B9FED7FEB53EC1E2B6E
:10433000FCF7CAF853EC1B2BFCF7C6F80890CDE944
:1043400008519DED080B53EC1E2B51EC100BFCF7A4
:104350005CF953EC1D2BFCF758F953EC1B2BFCF7C5
:1043600057F99DED080B41EC1D0B53EC102B9DED07
:10437000100B51EC100BFBF730FF41EC1B0B53EC17
:104380001A2B51EC1D0BFBF728FF9DED080B41ECA0
:104390001A0B53EC102B51EC1C0BFBF71EFF53ECCC
:1043A0001A2BFCF791F841EC1A0B51EC1B0B53EC58
:1043B0001A2BFCF789F80C90CDE90C519DED0C0BF4
:1043C00053EC1B2B51EC100BFCF71FF953EC1A2B81
:1043D000FCF71EF941EC1B0B9FED550B53EC102B1A
:1043E0009DED0C0B51EC100BFBF7F7FE41EC1A0B9B
:1043F0009FED510B51EC1B0B53EC102BFBF7EDFE1B
:1044000041EC1B0B9FED4E0B53EC102B9DED0C0B59
:1044100051EC100BFBF7E1FE53EC1B2BFCF754F8AF
:1044200041EC100B4848784400EBC40090ED001BB1
:1044300051EC100B53EC112BFCF746F841EC1B0B25
:104440003846FCF707F9CDE9080153EC1B2B51EC7A
:104450001A0BFCF739F841EC100B3C48784400EBA0
:10446000C40090ED00CB51EC100B53EC1C2BFCF76F
:104470002BF89DED081B53EC112BFCF725F806904B
:10448000CDE906519DED080B53EC102B9DED060B6D
:1044900051EC100BFCF7B9F853EC1C2BFCF7B5F8FA
:1044A00053EC1A2BFCF7B1F853EC1B2BFCF7B0F8CC
:1044B00041EC100B9DED261B53EC102B8DED001BDA
:1044C00000959DED260B51EC100BFBF786FE9DED44
:1044D000000B41EC1A0B53EC102B9DED260B51EC0D
:1044E000100BFCF792F89DED061B53EC112B2FE0FF
:1044F000000000604715F73FFE822B654715F73F28
:1045000044DF5DF80BAE543E000000000000404365
:104510008E9803007AB60B0012250000402500009B
:104520004A240000000000000000000000000840D5
:10453000000000E009C7EE3FFD033ADC09C7EE3F8B
:10454000F5015B14E02F3EBED62200009022000051
:10455000FBF743FE53EC1A2BFBF7B6FF9DED060B62
:1045600041EC1A0B53EC102B9DED000B51EC100B92
:10457000FBF733FECDE90C019DED0C0B51EC1A0B52
:1045800053EC102BFBF7A0FFCDE902010C46AA4922
:104590008C422FDB611A084318D19DED0C0B53ECB4
:1045A000102B9DED020B51EC100BFCF72EF841EC9B
:1045B0001B0B9FEDA30B51EC1A0B53EC102BFBF7CD
:1045C00083FF53EC1B2BFCF757F82DD2022000F091
:1045D00053FA00F021FA10EE901A18EE900A8DEDC1
:1045E000020B8DED008B61F31E0003909DED020B1D
:1045F000FFF7BEBB944A24F00041914214D3934983
:10460000214408437FF4EFAC9DED0C0B53EC102BD1
:104610009DED020B51EC100BFBF7F7FF53EC1A2B3F
:10462000FCF72AF87FF6DFAC24F000408849894A7D
:10463000002601EB205182422BDA481C4FF48011F6
:1046400021FA00F02044844AC0F30A517A44A1F2CE
:10465000FF3192ED000B814A8DED080BCA4020EA34
:104660000202C0F3130040F48010C1F1140120FADB
:1046700001F60992002CB8BF76429DED080B53EC71
:10468000102B9DED0C0B51EC100BFBF7BEFFCDE991
:104690000C019DED0C0B51EC1A0B53EC102BFBF79E
:1046A00013FF9FED6F0B0890CDE9085153EC102BD1
:1046B0009DED080B51EC100BFBF78FFD41EC1B0B34
:1046C0009FED690B53EC102B9DED080B51EC100B7B
:1046D000FBF783FD9DED0C0B41EC1C0B53EC102BF9
:1046E0009DED080B51EC100BFBF78FFF53EC1A2BD1
:1046F000FBF78EFF9FED5E1B53EC112BFBF76DFD5F
:1047000053EC1C2BFBF7E0FE41EC1A0B51EC1B0B9E
:1047100053EC1A2BFBF7D8FECDE902019DED020BFD
:1047200053EC1B2B51EC100BFBF76FFF53EC1A2BC8
:10473000FBF76EFF9DED020B41EC1A0B53EC102BB7
:1047400051EC100BFBF749FDCDE908014A489DEDFE
:10475000080B0521784400F0AFF89DED081B51ECE3
:10476000100B53EC112BFBF738FD9DED021B53ECA6
:10477000112BFBF74DFFCDE906019DED020B53EC2C
:104780001A2B51EC100BFBF728FD53EC1A2BFBF7FF
:104790009BFE9FED3B0B41EC1A0B53EC102B9DED58
:1047A000060B51EC100BFBF730FF9DED060B41ECB7
:1047B0001B0B53EC102B9DED020B51EC100BFBF778
:1047C0000CFD53EC1B2BFBF77DFD53EC1A2BFBF779
:1047D0001CFF9DED021B53EC112BFBF716FF53EC56
:1047E000192BFBF715FFCDE9020101EB065001156E
:1047F0000029C8BF039015DC9DED020B324651EC39
:10480000100BFBF710FFFFF7FFF9042808BF00F0BB
:1048100013F932469DED020B51EC100BFBF703FF31
:10482000CDE902019DED020B51EC180B53EC102B5E
:10483000FBF7D3FCFFF73ABB0000904000000000FC
:10484000FE822B654715973C00CC904000346F3FAB
:1048500001FCFFFF0000E03F18210000FFFF0F00F8
:1048600000000000432EE63F396CA80C615C20BEBE
:10487000EF39FAFE422EE63FE81F0000000000007C
:104880000000000000000040BDEC088BBDEC06CB32
:10489000FFF720BABDEC088BBDEC06CBFFF758BA8A
:1048A000BDEC088BBDEC06CBFFF765BABDEC088B01
:1048B000BDEC06CBFFF76DBB70B504462DED028B4A
:1048C0004D1E00EBC500B0EE408AF0EE608A90ED20
:1048D000000B35F0060017D053EC182B51EC100BE1
:1048E000FBF77BFC41EC100B6D1E04EBC50090ED5B
:1048F000001B51EC100B53EC112BFBF7E5FD41ECC9
:10490000100B35F00600E7D1022D36D0042D1CD057
:10491000062D1CBFBDEC028B70BD53EC182B51EC67
:10492000100BFBF75AFC94ED0A1B53EC112BFBF711
:10493000CBFD53EC182BFBF750FC94ED081B53EC0C
:10494000112BFBF7C1FD41EC100B53EC182B51EC74
:10495000100BFBF742FC94ED061B53EC112BFBF7FD
:10496000B3FD53EC182BFBF738FC94ED040B53EC20
:10497000102BFBF7A9FD41EC100B53EC182B51EC5D
:10498000100BFBF72AFC94ED021B53EC112BFBF7E9
:104990009BFD53EC182BFBF720FC94ED001B53EC14
:1049A000112BFBF791FDBDEC028B41EC100B70BDA0
:1049B0009FED070B10B553EC102B9FED070B51EC3F
:1049C000100BFBF77FFC41EC100B10BD000000004A
:1049D0000000000000000000000000000000F03FA8
:1049E00010B553EC112B51EC100BFBF76DFD41ECA6
:1049F000100B10BD000000009FED050B10B553EC2F
:104A0000102B51EC100BFBF75DFC41EC100B10BDB3
:104A100000000000000000009FED050B10B553ECF6
:104A2000102B51EC100BFBF7D8FB41EC100B10BD19
:104A300000000000000000709FED050B10B553EC66
:104A4000102B51EC100BFBF7C8FB41EC100B10BD09
:104A5000000000000000001002E008C8121F08C19A
:104A6000002AFAD170477047002001E001C1121FEF
:104A7000002AFBD170470000014908607047000020
:104A8000C800002082B0CDE9000121F00040019073
:104A90009DED000B02B051EC100B704708B5FCF710
:104AA00013F9FEF7B4FFFDF73FFBFDF7FBFAFDF747
:104AB000CBFBFBF77DFE9F4800689F4908601620EE
:104AC00008714FF49650886041F28830C8608000C9
:104AD00048610B2008740520088304208876032091
:104AE000C87601200877487764208877F220C87755
:104AF000012081F82000FEF7E5FE58B109E0FDF73E
:104B00006FFB18238DA200210846FDF72DFDFDF750
:104B10006BFCF4E74FF47A70FDF728FB8948FDF74A
:104B200025F90C2388A200210846FDF71DFD0C2065
:104B3000009081480923002102682A20FDF7D5FC56
:104B40000C2386A219460020FDF70EFD0C200090D4
:104B5000794806230C2182683020FDF7C6FC0C231F
:104B600083A218210020FDF7FFFC0C200090724862
:104B700006231821C2681E20FDF7B7FC0C2380A273
:104B800024210020FDF7F0FC0C2000906A48062349
:104B9000242142693C20FDF7A8FC0C237DA2302192
:104BA0000020FDF7E1FC0C20032300907A480288E6
:104BB00030210C20FDF799FC0C2378A23021242011
:104BC000FDF7D2FC0C2003230090754802883021A9
:104BD0000846FDF78AFC0C2372A230214820FDF71D
:104BE000C3FC0C20032300906F480288302154201E
:104BF000FDF77BFCFDF7F8FB5248FDF7A7F897E0BF
:104C00006A48007801283CD0022814D0032803D039
:104C1000042872D100BF88E0042064490870002293
:104C200040214FF09040FCF73BF8FBF7EAFD60486D
:104C3000FEF762F879E004205C4908700122402107
:104C40004FF09040FCF72CF80020FEF725FD52486D
:104C50000088401C5049088008460088B0F57A7FDB
:104C600001DB002008800C20032300904A480288C2
:104C700030210C20FDF739FCFBF7C3FDFEF714F8DB
:104C800053E00420494908702B48407F08B9FEF7DB
:104C9000F5F9FBF7B2FD4748FDF7EAFF4048008809
:104CA000401C3F49088008460088B0F57A7F01DB48
:104CB000002008800C20032300903948028830210E
:104CC0000846FDF712FC0A2239493A48FBF778FA00
:104CD000A0B93948807939490870002220214FF065
:104CE0009040FBF7DDFF3220FBF7BAFD01222021C7
:104CF0004FF09040FBF7D4FF15E015E02A480088FC
:104D0000401C2949088008460088B0F57A7F01DBFD
:104D1000002008800C2003230090234802883021C3
:104D20005420FDF7E2FB00E000BF00BFFDF75CFB95
:104D300066E70000A4000020040000204552526FE6
:104D400052000000CC00002046534B2D54583A200E
:104D5000202020202020202020487A004269745200
:104D60006174653A202020202020206270730000AA
:104D7000466465763A20202020202020487A0000D2
:104D800042616E6477696474683A20202020202094
:104D900020487A00543A0000B8000020523A00003F
:104DA000BA000020453A0000BC000020C3000020EB
:104DB000380000202806002028000020C200002023
:104DC00000B52DED048B83B041EC190BFBF79FFC74
:104DD00041EC180B18EE100A18EE901A8DED008BAE
:104DE000002818BF0120084320F00040C0F17F6078
:104DF00000F1E040C00F14D019EE101A19EE900A1D
:104E00008DED009B002918BF0121084320F00040D0
:104E1000C0F17F6000F1E040C00F04BF0120FFF748
:104E20002BFE51EC180B03B0BDEC048B00BD000051
:104E300000000000000000000000000000003F40F3
:104E40000000000000000000300040003000400082
:104E5000000009000BC03D000BC03D00090018C058
:104E600024407FE0224031800000180024C01B0055
:104E70000D803240018003801C4027401C80074089
:104E80000040100060000000000000000000000072
:104E9000000000001F8020404020000040202040F3
:104EA0001F8000000000090006001F8006000900A6
:104EB0000000040004003F80040004000000001013
:104EC0000060000000000000000004000400040076
:104ED000040004000000000000400000000000008A
:104EE0000000002001C006003800400000001F80C4
:104EF0002040204020401F800000000010403FC0A4
:104F000000400000000018C021402240244018400A
:104F1000000010802040244024401B80000002003C
:104F20000D0011003FC0014000003C80244024409F
:104F30002440238000001F8024402440344003800C
:104F400000003000200027C03800200000001B8037
:104F50002440244024401B8000001C0022C022402A
:104F600022401F80000000000000084000000000F8
:104F700000000000000004600000000000000000CD
:104F800004000A00110020804040090009000900C7
:104F900009000900000000004040208011000A00C4
:104FA00004001800200023402400180000001F8087
:104FB0002040274029401F400000004007C0390022
:104FC0000F0001C0004020403FC0244024401B800F
:104FD00000001F8020402040204030800000204002
:104FE0003FC0204020401F80000020403FC02440A0
:104FF0002E4030C0000020403FC024402E00300032
:1050000000000F001080204022403380020020402A
:105010003FC0040004003FC02040204020403FC06B
:105020002040204000000060202020203FC02000C1
:10503000200020403FC024400B0030C020402040D2
:105040003FC020400040004000C03FC03C0003C0C3
:105050003C003FC0000020403FC00C4023003FC048
:1050600020001F802040204020401F800000204062
:105070003FC024402400180000001F802140214030
:1050800020E01FA0000020403FC02440260019C09F
:10509000004018C0244024402240318000003000ED
:1050A00020403FC020403000000020003F800040F2
:1050B00000403F80200020003E0001C00700380073
:1050C0002000380007C03C0007C038000000204026
:1050D00039C0060039C0204000002000384007C019
:1050E000384020000000304021C02640384020C019
:1050F0000000000000007FE0402040200000000091
:1051000070000C00038000400000000040204020A0
:105110007FE00000000000002000400020000000B0
:10512000000000100010001000100010001000001F
:105130000000400000000000000000000280054068
:10514000054003C0004020003FC0044004400380ED
:1051500000000000038004400440064000000000FE
:105160000380044024403FC000400000038005400D
:10517000054003400000000004401FC024402440BC
:105180002000000002E00550055006500420204099
:105190003FC00440040003C000400000044027C09A
:1051A00000400000000000100010041027E0000084
:1051B000000020403FC00140070004C004402040E0
:1051C00020403FC000400040000007C0040007C06E
:1051D000040003C00000044007C00440040003C0F2
:1051E00000400000038004400440038000000410DD
:1051F00007F00450044003800000000003800440D6
:10520000045007F00010044007C0024004000400EE
:105210000000000006400540054004C000000000FA
:1052200004001F800440004000000400078000408C
:10523000044007C000400400070004C001800600CD
:105240000400060001C0070001C006000000044081
:1052500006C0010006C0044000000410071004E06E
:105260000180060004000000044005C00640044020
:1052700000000000000004007BE04020000000006F
:1052800000000000FFF000000000000040207BE074
:1052900004000000000040008000400020002000CA
:1052A00040000000000000000000000000000000BE
:1052B00000000000000000001FCC000C00000000F7
:1052C00000000000080030006000080030006000AE
:1052D0000000022003FC1E20022003FC1E200220EE
:1052E000000000000E1811043FFF10840C7800002D
:1052F00000000F0010840F3800C007781884007871
:10530000000000780F8410C411240E9800E400847B
:1053100000080800680070000000000000000000A5
:10532000000000000000000007E018182004400200
:105330000000000040022004181807E000000000F0
:1053400000000240024001800FF001800240024054
:1053500000000080008000800FF800800080008046
:1053600000000001000D000E000000000000000021
:10537000000000000080008000800080008000802D
:1053800000800000000C000C000000000000000085
:1053900000000000000600180060018006001800F0
:1053A0002000000007F0080810041004080807F0A7
:1053B00000000000080408041FFC000400040000B2
:1053C000000000000E0C10141024104411840E0C68
:1053D000000000000C1810041104110412880C7055
:1053E0000000000000E00320042408241FFC002427
:1053F000000000001F981084110411041088107020
:105400000000000007F008881104110418880070DB
:10541000000000001C00100010FC13001C00100015
:10542000000000000E3811441084108411440E381E
:10543000000000000700088C10441044088807F0A2
:105440000000000000000000030C030C000000003E
:105450000000000000000001010600000000000044
:105460000000000000800140022004100808100421
:10547000000002200220022002200220022002203E
:105480000000000010040808041002200140008001
:10549000000000000E001200100C106C10800F00B5
:1054A000000003E00C1813E4142417C4082807D0E4
:1054B00000000004003C03C41C40074000E4001C42
:1054C000000410041FFC1104110411040E88007064
:1054D000000003E00C1810041004100410081C1045
:1054E000000010041FFC100410041004080807F04A
:1054F000000010041FFC1104110417C41004081844
:10550000000010041FFC1104110017C01000080057
:10551000000003E00C181004100410441C78004034
:10552000000010041FFC10840080008010841FFC09
:1055300010040000100410041FFC100410040000EC
:10554000000000030001100110011FFE10001000F8
:10555000000010041FFC110403801464181C1004C4
:10556000000010041FFC1004000400040004000CE0
:10557000000010041FFC1F0000FC1F001FFC100493
:10558000000010041FFC0C04030000E010181FFCB6
:10559000100007F00808100410041004080807F0B1
:1055A000000010041FFC10841080108010800F0079
:1055B000000007F0081810241024101C080A07F235
:1055C000000010041FFC1104110011C011300E0C5A
:1055D000000400000E1C11041084108410441C38B8
:1055E00000001800100010041FFC10041000180028
:1055F000000010001FF810040004000410041FF83D
:10560000100010001E0011E0001C007013801C0030
:1056100010001FC0103C00E01F0000E0103C1FC045
:1056200000001004180C163401C001C01634180C08
:10563000100410001C00130400FC13041C001000D4
:1056400000000804101C1064108413041C041018BB
:1056500000000000000000007FFE40024002400207
:105660000000000030000C0003800060001C0003FC
:10567000000000004002400240027FFE00000000E7
:10568000000000000000200040004000400020001A
:105690000000000100010001000100010001000103
:1056A0000001000040004000200000000000000059
:1056B000000000000098012401440144014400FC62
:1056C000000410001FFC0088010401040088007021
:1056D000000000000070008801040104010400883B
:1056E00000000000007000880104010411081FFC84
:1056F0000004000000F8014401440144014400C8D2
:1057000000000000010401040FFC11041104110049
:105710001800000000D601290129012901C901064C
:10572000000010041FFC008401000100010400FCC3
:10573000000400000104190419FC00040004000026
:1057400000000000000300010101190119FE000022
:10575000000010041FFC0024004001B4010C0104EF
:1057600000000000100410041FFC000400040000EE
:105770000000010401FC0104010001FC010401001E
:1057800000FC010401FC008401000100010400FC94
:105790000004000000F8010401040104010400F801
:1057A0000000010101FF0085010401040088007070
:1057B000000000000070008801040104010501FFE1
:1057C00000010104010401FC0084010401000180C6
:1057D0000000000000CC01240124012401240198D0
:1057E000000000000100010007F8010401040000AE
:1057F0000000010001F8000400040004010801FC9D
:105800000004010001800170000C001001600180A3
:10581000010001F0010C003001C00030010C01F06A
:10582000010000000104018C00740170018C01046E
:105830000000010101810171000E0018016001806A
:10584000010000000184010C013401440184010CB9
:105850000000000000000000000001003EFC4002CB
:1058600040020000000000000000FFFF00000000F8
:1058700000000000400240023EFC01000000000069
:105880000000000060008000800040004000200018
:1058900020000000000000000000000000000000E8
:1058A00000000000000000000000000000000000F8
:1058B00000000000000000000000000000000000E8
:1058C00000000000000F80380FFE380F8038000005
:1058D00000000000000000000000000000000000C8
:1058E0000100000600000C00003800003100000636
:1058F00000000C0000380000300000000000000034
:10590000000061800067F807F98000618000618015
:105910000061800061800067F807F9800061800005
:10592000000000000000000001C0E003E0F00630CD
:10593000080418081FFFFE040E080787F00381E023
:1059400000000000000001F000060C00040408063E
:105950000C7001F9C0000E00003BE000EC180708D5
:1059600008040C180003E00000000001E00007F04C
:1059700003F818041C0804170807E1D003C0E0006E
:1059800023B0003C080020080000100000000000C8
:10599000000100003100003200001C000000000087
:1059A00000000000000000000000000000000000F7
:1059B00000000000000000000000000000000000E7
:1059C00000007F0001FFC00780F00C0018100004E9
:1059D0002000020000000000002000021000040C63
:1059E00000180780F001FFC0007F000000000000E9
:1059F0000000000000000000000000000000420065
:105A0000006600006600003C0000180003FFC000B4
:105A10001800003C00006600006600004200000024
:105A2000000008000008000008000008000008004E
:105A300001FFC00008000008000008000008000086
:105A400008000000000000010000310000320000EA
:105A50001C0000000000000000000000000000002A
:105A60000000000000000000000008000008000026
:105A700008000008000008000008000008000008F6
:105A80000000080000080000000000000000000006
:105A9000000038000038000038000000000000005E
:105AA00000000000000000000000000000000000F6
:105AB0000000000600001C000070000180000E00C5
:105AC00000380000C0000700001C0000300000008B
:105AD0000000000000007F8001FFE00380700600EE
